:020000040800F2
:10000000100C0020D5010008251800081D18000854
:1000100021180008F9050008A91C000800000000CC
:100020000000000000000000000000006918000847
:10003000FD05000800000000271800086B180008E4
:10004000EF010008EF010008EF010008EF010008D0
:10005000EF010008EF010008EF010008EF010008C0
:10006000EF010008EF010008EF010008EF010008B0
:10007000EF010008EF010008EF010008EF010008A0
:10008000EF010008EF010008EF010008EF01000890
:10009000EF010008EF010008EF010008EF01000880
:1000A000EF010008EF010008EF010008EF01000870
:1000B000EF010008EF010008EF010008EF01000860
:1000C000EF010008EF010008EF010008EF01000850
:1000D000EF0100083D1C0008EF0100087D1C00082E
:1000E000EF010008EF010008EF010008EF01000830
:1000F000EF010008EF010008EF010008EF01000820
:10010000EF010008EF010008EF010008EF0100080F
:10011000EF010008EF010008EF010008EF010008FF
:10012000EF010008EF010008EF010008EF010008EF
:1001300000F002F800F03FF80AA090E8000C8244BA
:100140008344AAF10107DA4501D100F034F8AFF297
:10015000090EBAE80F0013F0010F18BFFB1A43F0A5
:1001600001031847482F0000682F0000103A24BFF1
:1001700078C878C1FAD8520724BF30C830C144BF0C
:1001800004680C607047000000230024002500264E
:10019000103A28BF78C1FBD8520728BF30C148BFEA
:1001A0000B607047732900F0B281002070471FB5C3
:1001B0001FBD10B510BD00F0ECF91146FFF7F7FFB9
:1001C00001F018FF00F00AFA03B4FFF7F2FF03BCD6
:1001D00001F088FD0948804709480047FEE7FEE72F
:1001E000FEE7FEE7FEE7FEE7FEE7FEE7FEE7FEE7E7
:1001F00004480549054A064B704700007518000879
:100200003101000810060020100C0020100800200A
:1002100010080020704700000FB4044910B503AA6D
:10022000029800F079F910BC5DF814FB380000204A
:100230000FB41CB5074B06AA7B446946009005988D
:1002400000F03BF90020694600F04AF91CBC5DF85B
:1002500014FB0000A50200002DE9F0410E46044603
:10026000002020622046E168884730B3252805D069
:10027000D4E901219047206A401CF2E7E16820465A
:1002800000278847050018D0A5F14100192802D899
:1002900020354FF400673246294620462760FFF795
:1002A00081FF40B1012804D0F61D26F0070608366C
:1002B000D8E7361DD6E72846DAE7206ABDE8F081A0
:1002C00070B50C460546012A05D02878800600D571
:1002D000EA69002302E0012305E05B1C934202D29D
:1002E000E05C0028F9D1A869E618C01AA861286A5C
:1002F000184428622846AFF3008004E0D5E90121C4
:1003000014F8010B9047B442F8D32846AFF30080AD
:1003100070BD30B505460B462A4613F8014B12F85E
:10032000010B08B1A042F8D01CB1002802D06D1C0E
:10033000F1E7284630BD10B5431C02E010F8011B60
:1003400071B18107FAD14FF0013202C88C1A8C4387
:1003500014EAC211F9D0C01A0A0603D0C01E10BD9B
:10036000C01A10BD0A0401D0801E10BD0902FCD0C5
:10037000401E10BD032A40F2308010F0030C00F044
:10038000158011F8013BBCF1020F624498BF11F8CF
:1003900001CB00F8013B38BF11F8013BA2F1040288
:1003A00098BF00F801CB38BF00F8013B11F0030300
:1003B00000F02580083AC0F0088051F8043B083A64
:1003C00051F804CBA0E80810F5E7121D5CBF51F806
:1003D000043B40F8043BAFF30080D20724BF11F880
:1003E000013B11F801CB48BF11F8012B24BF00F8E5
:1003F000013B00F801CB48BF00F8012B704710B556
:10040000203AC0F00B80B1E81850203AA0E818500C
:10041000B1E81850A0E81850BFF4F5AF5FEA027CCD
:1004200024BFB1E81850A0E8185044BF18C918C03C
:10043000BDE810405FEA827C24BF51F8043B40F8DD
:10044000043B08BF7047D20728BF31F8023B48BFC2
:1004500011F8012B28BF20F8023B48BF00F8012B00
:1004600070474FF000020429C0F0128010F0030C16
:1004700000F06680CCF1040CBCF1020F18BF00F84C
:10048000012BA8BF20F8022BA1EB0C0100F058B8FB
:100490005FEAC17C24BF00F8012B00F8012B48BFA4
:1004A00000F8012B70477047704770477047000095
:1004B00001694A1C02610878704700B58FB0CDE928
:1004C00001310021059105497944CDE90310114618
:1004D0006846FFF7C1FE0FB000BD0000E5FFFFFF5B
:1004E0000A6802F8010B0A60704710B5436913B13E
:1004F000AFF3008001E0FFF7E3FE012010BD1278AA
:1005000000F124010A7000224A700122EDE711680F
:100510004FF0FF32E9E70000074B70B50D467B4412
:10052000FFF7CBFF0446284600F02FF810B14FF03C
:10053000FF3070BD204670BD731800004FF0000200
:1005400000B5134694469646203922BFA0E80C50C9
:10055000A0E80C50B1F12001BFF4F7AF090728BFA4
:10056000A0E80C5048BF0CC05DF804EB890028BF20
:1005700040F8042B08BF704748BF20F8022B11F049
:10058000804F18BF00F8012B7047007B00F08000FF
:100590007047754600F02CF8AE4605006946534694
:1005A00020F00700854618B020B5FFF721FEBDE812
:1005B00020404FF000064FF000074FF000084FF0CA
:1005C000000B21F00701AC46ACE8C009ACE8C0095B
:1005D000ACE8C009ACE8C0098D46704710B50446C8
:1005E000AFF300802046BDE81040FFF7EDBD0000EE
:1005F00000487047B005002000BFFEE7704770B5A7
:1006000004460D46002300260021224601E0481C36
:10061000C1B2505C10B1505C3D28F8D15018407800
:10062000222801D0002070BD19E001E0481CC1B2B1
:10063000505C10B1505C2228F8D10B46481CC1B266
:1006400001E0481CC1B2505C10B1505C2228F8D1C6
:100650000E46481CC1B2681E051E00D102E0505C67
:100660000028E2D100BF9E4202DD581C1044DAE7A8
:100670000020D8E770B50446002594F82100022830
:1006800003D00420A0630125C1E02068006820F0A9
:100690000E00216808602068006820F001002168D1
:1006A00008605C492068884252D95A4978392068E4
:1006B000884201D1012047E05649643920688842C8
:1006C00001D1102040E0534950392068884201D1BF
:1006D000801539E04F493C392068884201D18014A7
:1006E00032E04C4928392068884202D14FF48030EA
:1006F0002AE0484914392068884202D14FF480101A
:1007000022E044492068884201D140041CE042496B
:100710002068884201D1012016E03F491431206849
:10072000884201D110200FE03B49283120688842DF
:1007300001D1801508E038493C312068884201D158
:10074000801401E04FF480303349091F086051E004
:10075000304978392068884201D1012047E02D498D
:1007600064392068884201D1102040E0294950397D
:100770002068884201D1801539E026493C3920683B
:10078000884201D1801432E0224928392068884209
:1007900002D14FF480302AE01E4914392068884283
:1007A00002D14FF4801022E01A492068884201D11A
:1007B00040041CE018492068884201D1012016E05D
:1007C000154914312068884201D110200FE01249E8
:1007D00028312068884201D1801508E00E493C315B
:1007E0002068884201D1801401E04FF4803009492B
:1007F00080394860012084F8210000BF002084F87F
:10080000200000BF606B10B12046616B884728460E
:1008100070BD000080000240080402402DE9F84746
:10082000024600239C467BE14FF0010808FA03F4DE
:10083000D1F8008008EA0400A0427DD1DFF8F4A2DC
:10084000D1F80480A8EB0A09D0453AD014DCB8F1FD
:10085000030F50D009DCB8F1000F31D0B8F1010F0F
:100860001CD0B8F1020F49D120E0B8F1110F18D017
:10087000B8F1120F42D11EE0B9F5881F25D006DC71
:10088000B9F5803F20D0B9F5801F37D11AE0B9F50E
:10089000001F18D0B9F5041F30D117E0D1F80CC0F3
:1008A0002DE0D1F80C8008F1040C28E0D1F80C8080
:1008B00008F1080C23E0D1F80C8008F10C0C1EE0C4
:1008C00000BF00BF00BF00BF00BF00BFD1F808805D
:1008D000B8F1000F02D14FF0040C0BE0D1F8088002
:1008E000B8F1010F03D14FF0080C146102E04FF092
:1008F000080C546103E04FF0000C00E000BF00BFA3
:10090000FF2801D8904601E002F104084646FF287E
:1009100002D84FEA830803E0A3F108084FEA8808E9
:100920004746D6F800804FF00F0909FA07F928EA80
:1009300009080CFA07F900E07AE048EA0908C6F865
:100940000080D1F8048008F08058B8F1805F6FD142
:1009500000BFDFF8E481D8F8188048F00108DFF81C
:10096000D891C9F81880C846D8F8188008F001084E
:10097000CDF8008000BF00BF4FEAB9384FEA9309B5
:1009800058F829504FEA83784FEA18794FF00F084A
:1009900008FA09F825EA0805DFF8A081424502D1E6
:1009A0004FF0000824E0DFF89881424502D14FF073
:1009B00001081DE0DFF88C81424502D14FF00208AA
:1009C00016E0DFF88481424502D14FF003080FE0C2
:1009D000DFF87881424502D14FF0040808E0DFF8E3
:1009E0007081424502D14FF0050801E04FF0060842
:1009F0004FEA83794FEA197908FA09F848EA0505B8
:100A0000DFF850814FEA930948F82950D1F8048063
:100A100008F48038B8F5803F0BD1DFF83C81D8F876
:100A2000008048EA0008DFF83091C9F800800AE049
:100A300075E0DFF82481D8F8008028EA0008DFF8A4
:100A40001891C9F80080D1F8048008F40038B8F58E
:100A5000003F0ED1DFF8008108F10408D8F80080CB
:100A600048EA0008DFF8F09009F10409C9F80080AD
:100A70000DE0DFF8E48008F10408D8F8008028EAE7
:100A80000008DFF8D49009F10409C9F80080D1F812
:100A9000048008F48018B8F5801F0ED1DFF8B88004
:100AA00008F10808D8F8008048EA0008DFF8A890A4
:100AB00009F10809C9F800800DE0DFF89C8008F111
:100AC0000808D8F8008028EA0008DFF88C9009F1BF
:100AD0000809C9F80080D1F8048008F40018B8F5B6
:100AE000001F0ED1DFF8708008F10C08D8F80080E4
:100AF00048EA0008DFF8609009F10C09C9F80080A5
:100B00000DE0DFF8548008F10C08D8F8008028EADE
:100B10000008DFF8449009F10C09C9F800805B1C5B
:100B2000D1F8008028FA03F8B8F1000F7FF47CAE0A
:100B3000BDE8F887000011100010024000080140D5
:100B4000000C014000100140001401400018014059
:100B5000001C014008000140000401400246936867
:100B60000B400BB1012000E000207047C2680A4032
:100B70000AB1416100E0016170470AB1016101E021
:100B80000B040361704700000148006870470000D3
:100B900040000020034800680349097808440149DF
:100BA00008607047400000204800002070B50446EF
:100BB0000E4800784FF47A71B1FBF0F00C490968E7
:100BC000B1FBF0F5284600F0E1FB08B1012070BD53
:100BD000102C07D200222146501E00F01DF80548B7
:100BE000046001E00120F2E70020F0E74800002067
:100BF000300000204400002001460846002809DBA0
:100C000000F01F0301229A4043099B0003F1E023F7
:100C1000C3F8002100BF70472DE9F05F80460D4604
:100C20001646002701F042F8074639462A46334661
:100C300001F00700C0F1070ABAF1040F02D94FF022
:100C4000040A01E0C0F1070AD14600F1040ABAF132
:100C5000070F02D24FF0000A01E0A0F1030AD446C8
:100C60004FF0010A0AFA09FAAAF1010A0AEA020A8D
:100C70000AFA0CFA4FF0010B0BFA0CFBABF1010B6B
:100C80000BEA030B4AEA0B042146404601F016F832
:100C9000BDE8F09F70B504460D460CB9012070BD4B
:100CA0005A48006800F00700A8420ED25748006872
:100CB00020F007002843554908600846006800F006
:100CC0000700A84201D00120E9E7207800F00200E7
:100CD00002281DD1207800F00400042805D14C48DA
:100CE000406840F4E0604A494860207800F008001D
:100CF000082805D14648406840F46050444948609F
:100D00004348406820F0F000A1680843404948602B
:100D1000207800F0010078B36068012806D13C48D3
:100D2000006800F4003090B90120B8E7606802283C
:100D300006D13748006800F0007040B90120AEE7E6
:100D40003348006800F0020008B90120A7E73048E6
:100D5000406820F00300616808432D494860FFF7B0
:100D600013FF064609E0FFF70FFF801B41F28831B1
:100D7000884202D9032092E707E02548406800F046
:100D80000C006168B0EB810FEDD12048006800F0E5
:100D90000700A8420ED91D48006820F0070028432C
:100DA0001A4908600846006800F00700A84201D010
:100DB000012074E7207800F00400042807D11448CB
:100DC000406820F4E060E1680843114948602078F9
:100DD00000F00800082808D10D48406820F4605051
:100DE000216940EAC1000A49486000F03FF808491B
:100DF0004968C1F30311074A515CC84006490860BD
:100E000006480068FFF7D2FE002048E700200240B5
:100E100000100240C82600083000002044000020D6
:100E200001480068704700003000002000B5FFF75F
:100E3000F7FF04494968C1F30221034A515CC840E5
:100E400000BD000000100240D826000800B5FFF7E2
:100E5000E7FF04494968C1F3C221034A515CC84015
:100E600000BD000000100240D8260008F0B585B093
:100E70000FF26C0C9CE8E01001A8A0E8E0101CA5A3
:100E80002D68009500210022002300240020194D28
:100E9000696801F00C05F5B1042D02D0082D19D1B7
:100EA00001E0154819E001ADC1F38346AC5D01F4E2
:100EB000803555B10F4D6D68C5F340451DF80520CF
:100EC0000D4D6543B5FBF2F302E00C4D04FB05F359
:100ED000184602E000BF084800BF00BF05B0F0BDE3
:100EE00002030405060708090A0B0C0D0E0F10106B
:100EF000010200000010024000127A0000093D00CB
:100F0000F8B504460CB90120F8BD207800F00100C6
:100F1000002878D0F848406800F00C0004280CD075
:100F2000F548406800F00C00082811D1F2484068EC
:100F300000F48030B0F5803F0AD1EF48006800F43B
:100F4000003000285FD0606800285CD10120DBE71A
:100F500000BF6068B0F5803F06D1E748006840F404
:100F60008030E549086028E0606858B9E2480068C8
:100F700020F48030E04908600846006820F48020B2
:100F800008601AE06068B0F5A02F0BD1DA4800685D
:100F900040F48020D84908600846006840F480305A
:100FA00008600AE0D448006820F48030D249086024
:100FB0000846006820F48020086000BF606888B19F
:100FC000FFF7E2FD054606E0FFF7DEFD401B642863
:100FD00001D9032098E7C848006800F400300028D1
:100FE000F2D010E0FFF7D0FD054606E0FFF7CCFD9C
:100FF000401B642801D9032086E7BF48006800F43D
:1010000000300028F2D1207800F00200022857D1E9
:10101000B948406800F00C0050B1B748406800F093
:101020000C00082818D1B448406800F4803098B902
:10103000B148006800F0020020B12069012801D009
:10104000012061E7AC48006820F0F800616940EADF
:10105000C100A949086033E02069E8B10120A7492F
:101060000860FFF791FD054606E0FFF78DFD401B88
:10107000022801D9032047E79F48006800F00200DA
:101080000028F2D09C48006820F0F800616940EA2E
:10109000C1009949086013E0002098490860FFF7F3
:1010A00073FD054606E0FFF76FFD401B022801D9DE
:1010B000032029E79048006800F002000028F2D1E0
:1010C000207800F0080008282DD1A069B8B10120CF
:1010D0008B490860FFF758FD054606E0FFF754FD11
:1010E000401B022801D903200EE78348406A00F024
:1010F00002000028F2D0012000F096FB13E000204F
:101100007F490860FFF740FD054606E0FFF73CFD1C
:10111000401B022801D90320F6E67748406A00F018
:1011200002000028F2D1207800F00400042873D1D6
:1011300000277148C06900F0805070B900BF6E4848
:10114000C06940F080506C49C8610846C06900F031
:101150008050009000BF00BF01276A48006800F47B
:101160008070B0B96748006840F4807065490860D5
:10117000FFF70AFD054606E0FFF706FD401B642861
:1011800001D90320C0E65F48006800F480700028A1
:10119000F2D000BFE068012806D15748006A40F04D
:1011A00001005549086227E0E06858B95248006AD2
:1011B00020F00100504908620846006A20F004004F
:1011C000086219E0E06805280BD14B48006A40F03E
:1011D0000400494908620846006A40F001000862BC
:1011E0000AE04548006A20F00100434908620846C9
:1011F000006A20F00400086200BFE068A0B1FFF7B9
:10120000C3FC054609E0FFF7BFFC401B41F28831F3
:10121000884202D9032077E622E03748006A00F0CE
:1012200002000028EFD012E0FFF7AEFC054608E010
:10123000FFF7AAFC401B41F28831884201D9032004
:1012400062E62D48006A00F002000028F0D1012F6C
:1012500005D12948C06920F080502749C86100BFE6
:10126000E069C8B32448406800F00C00082860D04A
:10127000E069022848D1002020490866FFF784FC75
:10128000054606E0FFF780FC401B022801D9032039
:101290003AE61948006800F000700028F2D1206A90
:1012A000B0F5803F07D11448406820F40030A168B1
:1012B000084311494860D4E9080108430E494968C8
:1012C00021F4741108430C49486001200B49086659
:1012D000FFF75AFC054607E03DE0FFF755FC401BD1
:1012E000022801D903200FE60348006800F00070CF
:1012F0000028F2D02FE0000000100240000042421F
:101300008004424200700040002014490866FFF744
:101310003BFC054606E0FFF737FC401B022801D9DD
:101320000320F1E50E48006800F000700028F2D1BB
:1013300011E0E069012800D1E6E50948466806F4B5
:101340008031206A814204D106F47011606A8142C2
:1013500001D00120D8E50020D6E50000000042427F
:1013600000100240042808D14FF0E021096941F043
:1013700004014FF0E022116107E04FF0E02109691C
:1013800021F004014FF0E0221161704770B504466E
:101390002546681EB0F1807F01D301200FE0681E52
:1013A0004FF0E02148610F214FF0FF3000F086FC44
:1013B00000204FF0E021886107200861002070BD07
:1013C000704701460022002391F8392091F83A3005
:1013D00042EA0300704700002DE9F0470446206808
:1013E00005682068C668206847694FF00008C14654
:1013F00005F00F08B8F1000F0AD105F0200038B150
:1014000006F0200020B1204600F08AFABDE8F087FF
:10141000B8F1000F6DD007F0010018B906F4907014
:10142000002866D005F0010030B106F4807018B1D4
:10143000E06B40F00100E06305F0040030B107F01C
:10144000010018B1E06B40F00200E06305F002001B
:1014500030B107F0010018B1E06B40F00400E06328
:1014600005F0080030B107F0010018B1E06B40F062
:101470000800E063E06B68B305F0200028B106F0D7
:10148000200010B1204600F04BFA20684069C0F3FC
:101490008019E06B00F0080010B9B9F1000F22D0FC
:1014A000204600F01DFA2068406900F04000B0B10D
:1014B0002068406920F0400021684861606B50B1AD
:1014C0001748616B4863606BFFF7D4F810B1606B2D
:1014D000416B88470CE02046FFF772FF08E020468A
:1014E000FFF76EFF04E02046FFF76AFF0020E0638D
:1014F0008CE705F0800030B106F0800018B120467E
:1015000000F032FB82E705F0400030B106F0400009
:1015100018B1204600F0F4F978E700BF76E7000044
:10152000CD18000810B504460CB9012010BDA06903
:1015300000B100E000BF94F8390028B9002084F819
:101540003800204600F028F8242084F8390020686C
:10155000C06820F400502168C860204600F034FACA
:101560002068006920F49040216808612068406983
:1015700020F02A00216848612068C06840F40050CB
:101580002168C8600020E063202084F8390084F8D6
:101590003A000020CAE7000010B586B0044628498A
:1015A000206888424AD100BF00BF2648806940F0C9
:1015B0000400244988610846806900F00400019015
:1015C00000BF00BF00BF00BF00BF0846806940F0F9
:1015D000040088610846806900F00400019000BFA3
:1015E00000BF00BF00BF00BF0846806940F48040D4
:1015F00088610846806900F48040019000BF00BF08
:1016000000BF48150290022003900120049003209F
:10161000059002A90C48FFF701F94FF48060029091
:101620000020039002A90848FFF7F8F82520FFF7EB
:10163000E3FA032211462520FFF7EEFA06B010BDAB
:1016400000380140001002400008014010B5034678
:1016500093F83A0020282FD101B10AB9012010BD1A
:1016600000BF93F83800012801D10220F7E70120DC
:1016700083F8380000BF99629A85DA850020D86324
:10168000222083F83A0000BF002083F8380000BF12
:101690001868C06840F480701C68E0601868406991
:1016A00040F001001C6860611868C06840F02000CC
:1016B0001C68E0600020D2E70220D0E71D4A0168E4
:1016C000914236D11C49098801F4004189BB1A496D
:1016D000098801F4804171B1184909780A2903D0B9
:1016E0000021154A118024E01349098841F4004182
:1016F000114A11801DE0114909780D2906D10E49C2
:10170000098841F480410C4A118012E00B490978A4
:10171000094A1288C2F30D02094B995406490988F7
:10172000491C054A118011460988C72901DD00219D
:1017300011807047003801403C0000203E0000202E
:101740005C0100202DE9F84304460D4616461F466D
:101750004FF0000994F8390020285CD105B116B982
:101760000120BDE8F88300BF94F83800012801D1BA
:101770000220F6E7012084F8380000BF0020E06373
:10178000212084F83900FFF7FFF98146A684E6841A
:101790002BE0E08C401EE084A068B0F5805F16D19D
:1017A0004B46002280212046009700F011FA08B134
:1017B0000320D6E7A846B8F80000C0F30800216867
:1017C0004860206908B9AD1C0FE06D1C0DE04B4668
:1017D000002280212046009700F0FAF908B103208A
:1017E000BFE715F8010B21684860E08C0028D0D1D4
:1017F0004B46002240212046009700F0E9F908B14D
:101800000320AEE7202084F8390000BF002084F8D0
:10181000380000BFA5E70220A3E7704700BFFEE73E
:1018200000BFFEE77047704708B508490968C90856
:101830004FF47A72B1FBF2F14143009100BF00BF57
:1018400000994A1E00920029F9D108BD30000020FD
:1018500010B54FF480720249024800F075FC10BDCB
:10186000A4040020A4050020704710B5FFF792F9EA
:1018700010BD00001148006840F001000F490860E9
:10188000084640680E4908400C4948600846006810
:101890000C490840094908600846006820F4802087
:1018A00008600846406820F4FE0048604FF41F00BE
:1018B0008860C803044908607047000000100240B7
:1018C0000000FFF8FFFFF6FE08ED00E070B50546EA
:1018D0006C6A0020E085E0842046FFF771FD70BD52
:1018E0000168C96821F490710268D1600168496992
:1018F00021F0010102685161202180F83A107047FF
:1019000010B504462068C06820F040002168C86017
:10191000202084F839002046FFF77FFF002010BD0B
:1019200070B5044694F83A0022284AD1A068B0F570
:10193000805F13D1A56A206940B920684068C0F370
:1019400008002880A06A801CA06219E02068406816
:10195000C0B22880A06A401CA06211E0206938B99A
:1019600020684068C1B2A26A501CA062117007E0F2
:101970002068406800F07F01A26A501CA0621170CC
:10198000E08D401E80B2E085C8B92068C06820F0B4
:1019900020002168C8602068C06820F48070216839
:1019A000C8602068406920F001002168486120205B
:1019B00084F83A002046FFF781FE002070BD002029
:1019C000FCE70220FAE7000070B5044621680969C7
:1019D00021F44051E2681143226811612269A16833
:1019E0001143626941EA02052168C96841F20C624B
:1019F000914329432268D1602168496921F44071EB
:101A0000A269114322685161564A2168914254D11A
:101A1000FFF71CFA00EBC00101EB001162689200B5
:101A2000B1FBF2F100EBC00202EB001263689B0015
:101A3000B2FBF3F26423B2FBF3F202EBC20303EB5B
:101A40000212A1EB8201322202EB01116422B1FBEE
:101A5000F2F101F0F00100EBC00202EB001263684A
:101A60009B00B2FBF3F26423B2FBF3F201EB021230
:101A700000EBC00101EB001163689B00B1FBF3F1C7
:101A800000EBC00303EB00136668B600B3FBF6F38C
:101A90006426B3FBF6F303EBC30606EB0313A1EBDB
:101AA0008301322303EB01116423B1FBF3F101F055
:101AB0000F0111442268916053E0FFF7B7F900EB82
:101AC000C00101EB001162689200B1FBF2F100EB82
:101AD000C00202EB001263689B00B2FBF3F26423C6
:101AE000B2FBF3F202EBC20303EB0212A1EB8201A1
:101AF000322202EB01116422B1FBF2F101F0F0019C
:101B000000EBC00202EB001263689B00B2FBF3F231
:101B10006423B2FBF3F201EB021200EBC00101EB14
:101B2000001163689B00B1FBF3F100EBC00303EB12
:101B300000136668B600B3FBF6F36426B3FBF6F356
:101B400003EBC30606EB0313A1EB8301322303EB84
:101B500001116423B1FBF3F101F00F01114422687C
:101B6000916070BD00380140014691F8390021288C
:101B70002CD18868B0F5805F0FD10A6A1088C0F355
:101B800008000B685860086918B9086A801C086268
:101B900009E0086A401C086205E00B6A581C0862EC
:101BA00018780B685860C88C401E80B2C88458B939
:101BB0000868C06820F080000B68D8600868C068BA
:101BC00040F040000B68D860002070470220FCE71E
:101BD0002DE9F04104460D4617469846069E21E041
:101BE000701CF8B12EB1FEF7CFFFA0EB0800B04299
:101BF00018D92068C06820F4D0702168C8602068B7
:101C0000406920F0010021684861202084F83900F3
:101C100084F83A0000BF002084F8380000BF032099
:101C2000BDE8F081206800682840A84201D1012069
:101C300000E00020B842D3D00020F1E710B5002426
:101C40000C48FFF7C9FB00BF01E0641C00BF094856
:101C5000FFF7B7FB2028F8D100BF002401E0641C87
:101C600000BF012204490348FFF7F0FC0028F6D129
:101C700000BF10BD240200203E00002008B5084827
:101C800000680068C0F3401048B10548006840682B
:101C9000C0B2009001226946024800F042FA08BD35
:101CA00064040020A405002000BFFEE7024800688D
:101CB000C0F30220704700000CED00E010B50028D2
:101CC00004DB0A07130E054A135406E00A07140E34
:101CD000034A00F00F031B1FD45410BD00E400E0C2
:101CE00018ED00E000BF704710B5044600204FF02B
:101CF000E0210861FFF736FB2046E11704EB517144
:101D0000C1F3CF01014A118010BD00003400002052
:101D100070B504464FF47A7094FBF0F594FBF0F143
:101D200000FB114603E0074800F00EF86D1E002D81
:101D3000F9D12EB14FF47A7106FB01F000F004F8EE
:101D400070BD000040420F000146114A12884A430C
:101D50004FF0E0235A6100229A611A46126942F05C
:101D600001021A6100BF4FF0E022106900F0010289
:101D70001AB100F48032002AF5D04FF0E022126947
:101D800022F001024FF0E0231A6100229A617047AD
:101D90003400002000BF054A126802F04002002A09
:101DA000F9D0C2B2014B1B1D1A60704700380140C8
:101DB00000B585B000BF00BF3648806940F04000E4
:101DC000344988610846806900F04000009000BFF7
:101DD00000BF00BF00BF00BF0846806940F0400060
:101DE00088610846806900F04000009000BF00BF95
:101DF00000BF00BF00BF0846806940F04000886116
:101E00000846806900F04000009000BF00BF00BF9E
:101E100000BF00BF0846806940F0040088610846A2
:101E2000806900F00400009000BF00BF00BF1020D8
:101E3000019000200290012003900320049001A94A
:101E40001548FEF7EBFC08200190002002900120CD
:101E500003900320049001A90F48FEF7DFFC042043
:101E6000019000200290012003900320049001A91A
:101E70000948FEF7D3FC01200190002002900220C7
:101E800003900320049001A90448FEF7C7FC05B0A5
:101E900000BD000000100240001801400008014091
:101EA00070B50446002514B101202B4908702A485A
:101EB0000078002834D010212848FEF74FFE78B172
:101EC00008212648FEF74AFE50B104212348FEF7B8
:101ED00045FE28B101212248FEF740FE01281FD10E
:101EE0000A20FFF715FF00201B49087010211B482E
:101EF000FEF734FE00B9012508211848FEF72EFE32
:101F000000B9022504211548FEF728FE00B9032573
:101F100001211348FEF722FE01281BD1042519E0F8
:101F200010210E48FEF71AFE012813D108210B4894
:101F3000FEF714FE01280DD104210848FEF70EFE1D
:101F4000012807D101210648FEF708FE10B901203B
:101F500001490870284670BD490000200018014062
:101F60000008014000B585B000BF00BF1E48806971
:101F700040F008001C4988610846806900F00800AC
:101F8000009000BF00BF00BF00BF00BF08468069CF
:101F900040F0400088610846806900F040000090F1
:101FA00000BF00BF00BF20200190012002900390DD
:101FB0000320049001A90D48FEF730FC2020019079
:101FC00001A90B48FEF72AFC00BF01222021074887
:101FD000FEF7D3FD00BF00BF012220210448FEF719
:101FE000CCFD00BF05B000BD00100240000C014058
:101FF0000018014000260024092000F02BF9482099
:10200000FFF772FE4FF4E13000F042FBFFF7AAFF4A
:10201000FFF7CEFE032000F049F93EE00020FFF775
:102020003FFF0546012D0AD11C49C868FEF783F918
:10203000C7B21A49C868394600F01CFB00E000BF6F
:1020400000BF0BE02146621C94B2154A881801219A
:1020500000F08CFAB4F5007F00DB002400F026F8D5
:102060000028EFD1002C07DD21460D4800F068FA6A
:102070000CA0FEF7D1F800240A20FFF749FE701CDF
:10208000C6B2142096FBF0F100FB116028B900BF26
:1020900020210548FEF76AFD00BFBFE718000020B9
:1020A0005C0000200D0A0000000C014010B504483F
:1020B00000F050F808B9012010BD0020FCE7000036
:1020C000A405002000B50346184600F005F89988DD
:1020D000081A401E80B200BD0146C8880A89904295
:1020E00004DBC8880A89801A80B2704788880A8908
:1020F000801ACA88104480B2F7E770B50B460021F9
:102100000CE05C5CC6880568AC55C488641C858896
:1021100094FBF5F605FB1644C480491C9142F0DBA4
:1021200070BDF0B505460E4614462846FFF7CAFFB7
:102130000746A74201DA0120F0BD22463146284673
:10214000FFF7DBFF0020F7E7016082800023C380F8
:10215000038170470146C8880A89904201D1012055
:1021600070470020FCE7F0B503460E4614461846BB
:10217000FFF7B2FF0546A54200DD254600200CE032
:102180001A891968895C31541989491C9A8891FB0C
:10219000F2F702FB17111981401CA842F0DB284618
:1021A000F0BD00002DE9F04106460F46144600251B
:1021B0004FF400711F48FEF754F9FFF749FB304612
:1021C000FEF7B9F880464146304600F03BF830E073
:1021D00039461848FEF79DF810B10120BDE8F0819E
:1021E00015A11448FEF795F808B10020F6E713A1F1
:1021F0001048FEF78EF810B14FF0FF30EEE7FFF712
:1022000055FF60B129466D1C0A4A8818012100F06B
:10221000ADF9B5F5007F0CD34FF0FF30DEE7641E5B
:1022200024B9FFF715FB6FF00100D7E76420FFF733
:102230006FFDCDE7640200204F4B00004552524F26
:102240005200000070B505460C46E1B2284600F089
:1022500011FA70BD30B58FB00546012401200590FC
:10226000000406900020079002200C90C1030D91FD
:102270000E9505A8FEF744FE04460CB100BFFEE72C
:102280000F20009002200190002002904FF4806007
:1022900003900020049002216846FEF7FBFC0446F0
:1022A0000CB100BFFEE70FB030BD000030B585B007
:1022B000054600BF00BF4648806940F0040044491D
:1022C00088610846806900F00400009000BF00BFEC
:1022D00000BF00BF00BF0846806940F0040088616D
:1022E0000846806900F00400009000BF00BF00BFF6
:1022F00000BF0846806940F0010088610846806997
:1023000000F00100009000BF00BF00BF31494868E5
:1023100020F0E06040F00070486000BF4FF40040E3
:1023200001900120029003900320049001A92A4803
:10233000FEF774FA00BF0122D1032748FEF71DFC07
:1023400000BF10200190012003900020029001A9FD
:102350002148FEF763FA4FF4E13000F013F900BFB3
:1023600000F08AF80028FBD1062D28D2DFE805F01E
:1023700003090F151B210C21184800F03BF80446F7
:102380001EE00D21164800F035F8044618E00C2137
:10239000144800F02FF8044612E00D21124800F016
:1023A00029F804460CE01121104800F023F80446F7
:1023B00006E001210E4800F01DF8044600E000BFD1
:1023C00000BF1CB16FF0010005B030BD0020FBE77D
:1023D000001002400000014000080140E026000813
:1023E000702700080C2800089C28000838290008DD
:1023F000042A00082DE9F04105460E460027002476
:1024000032E004EB440105EB81014868FDF793FFDE
:1024100004EB440105EB810189680844A0F101083F
:1024200004EB440155F8212004EB440105EB810144
:1024300048684146FFF7B6FE0746012F00D112E07B
:1024400004EB440155F8212004EB440105EB810124
:10245000886807A1FFF7A6FE0746002F02DA601C76
:10246000BDE8F08100BF641CB442CADB0020F7E77E
:102470000D0A4F4B0000000070B58AB04FF0FF34DA
:102480000025242218A101A8FDF7B9FF05221FA1EC
:1024900020A0FFF787FE044614B1681E0AB070BD85
:1024A00002212048FEF7ABF80546C5B11E48FDF7EE
:1024B00042FF0646324629461B48FDF75BFF1A4A93
:1024C0001AA101A8FDF7B4FE052210A101A8FFF78B
:1024D00069FE0446002C05DA4FF0FF30DEE74FF0CE
:1024E000FF30DBE70020D9E741542B41545F494ED0
:1024F000544F3D2246462D46462D46462D46462DF6
:1025000030312D3032220D0A000000000D0A4F4BF1
:102510000D0A000041542B5345415243483F0D0AD8
:1025200000000000640200204A00002041542B41BA
:10253000545F494E544F3D222573220D0A0000007E
:1025400010B5024600200BE000BF074B1B6803F0EC
:102550004003002BF9D0135C034C241D2360401C66
:102560008842F1D310BD00000038014070B5044628
:102570000D462A4621460248FFF7F5FD70BD0000D2
:10258000A405002010B586B0044600BF00BF354842
:10259000806940F00800334988610846806900F08E
:1025A0000800019000BF00BF00BF00BF00BF084689
:1025B000806940F0080088610846806900F00800E2
:1025C000019000BF00BF00BF00BF00BF0846C06948
:1025D00040F48020C8610846C06900F48020019062
:1025E00000BF00BF00BF0815029002200390012029
:1025F00004900320059002A91B48FEF70FF94FF441
:10260000006002900020039002A91748FEF706F927
:102610001648174908600846446000218160C1607F
:10262000016181610C214161FEF77CFF1048006867
:10263000C06820F040000E490968C8600C48006876
:10264000C06840F020000A490968C8602720FEF7EA
:10265000D3FA032200212720FEF7DEFAFFF7F8F86D
:1026600006B010BD00100240000C014000480040C0
:102670006404002070B504460D464FF47A732A4670
:1026800021460248FFF75EF870BD00006404002098
:1026900010B5044609480A4908600846446000210C
:1026A0008160C160016181610C214161FEF73AFFE7
:1026B000012204490248FEF7C9FF10BD003801405D
:1026C000240200203E000020000000000000000066
:1026D00001020304060708090000000001020304C8
:1026E0000500000008300008A02E000805000000CA
:1026F000642F0008DC2E0008050000008830000868
:10270000582D00080500000014300008B02E000805
:102710000500000020300008642C000805000000BF
:10272000BC2F0008782B0008050000009C30000832
:10273000E82B000805000000882F0008D02D0008B5
:1027400005000000543000082C2E00080500000091
:10275000CC2F0008B02B000805000000982F0008BF
:10276000982B000805000000AC2F0008AC2F0008D3
:102770000500000008300008A02E00080500000039
:10278000642F0008142F00080500000030300008F6
:10279000842C00080500000074300008F02C0008AC
:1027A0000500000014300008B02E000805000000ED
:1027B00020300008C82B000805000000BC2F0008CE
:1027C000782B0008050000009C300008E82B00086A
:1027D00005000000882F0008B02D0008050000004B
:1027E000543000082C2E000805000000CC2F0008F3
:1027F000B02B000805000000982F0008982B000857
:1028000005000000AC2F0008AC2F000805000000F8
:1028100008300008A02E000805000000642F000802
:10282000C02E000805000000883000080C2D0008AC
:102830000500000014300008502E000805000000BC
:1028400020300008642C000805000000BC2F0008A0
:10285000782B0008050000009C300008E82B0008D9
:1028600005000000882F0008F02D0008050000007A
:10287000543000082C2E000805000000CC2F000862
:10288000B02B000805000000982F0008982B0008C6
:1028900005000000AC2F0008AC2F00080500000068
:1028A00008300008A02E000805000000642F000872
:1028B000F82E00080500000030300008242C000825
:1028C0000500000074300008F02C0008050000002E
:1028D00014300008B02E0008050000002030000869
:1028E000042C000805000000BC2F0008782B00080D
:1028F000050000009C300008442C00080500000082
:10290000882F0008902D00080500000054300008B2
:102910002C2E000805000000CC2F0008B02B00086A
:1029200005000000982F0008982B00080500000003
:10293000AC2F0008AC2F000805000000083000088C
:10294000A02E000805000000642F0008102E0008CB
:102950000500000014300008B02E0008050000003B
:1029600020300008C82B000805000000BC2F00081C
:10297000782B0008050000009C300008E82B0008B8
:102980000500000040300008CC2C000805000000C5
:10299000882F0008702D0008050000005430000842
:1029A0002C2E000805000000CC2F0008B02B0008DA
:1029B00005000000982F0008982B00080500000073
:1029C000E02F0008882E000805000000F42F000802
:1029D000602E00080500000060300008242D00086B
:1029E00005000000742F00083C2D000805000000C1
:1029F000502F0008A42C000805000000AC2F000890
:102A0000AC2F00080500000008300008A02E0008C8
:102A100005000000642F0008302F000805000000AA
:102A200014300008B02E0008050000002030000817
:102A3000C82B000805000000BC2F0008782B0008F8
:102A4000050000009C300008E82B0008050000008D
:102A500040300008CC2C000805000000882F00083A
:102A6000702D000805000000543000082C2E0008CE
:102A700005000000CC2F0008B02B00080500000066
:102A8000982F0008982B000805000000AC2F0008C4
:102A9000AC2F00085443505F434C4F554420000076
:102AA000446174612066726F6D203233332E302E94
:102AB000302E3600434C4F55442E414C49454E5420
:102AC000454B2E434F4D00005544505F53455256E1
:102AD000455200005544505F434C49454E54000058
:102AE0005544505F4D554C544943415354000000E8
:102AF000446174612066726F6D205443505F53656A
:102B000072766572206D6F646500000044617461C7
:102B10002066726F6D205544505F53657276657202
:102B2000206D6F6465000000446174612066726FFF
:102B30006D205443505F436C69656E74206D6F6403
:102B400065000000446174612066726F6D20554419
:102B5000505F436C69656E74206D6F6465000000A2
:102B60005443505F53657276657200005443505F62
:102B7000436C69656E74000041542B4E45544D41C1
:102B8000534B3D223235352E3235352E3235352EEA
:102B900030220D0A0000000041542B554152545F71
:102BA0005041434B54494D453D223530220D0A00DA
:102BB00041542B554152545F5041434B4C454E3D7F
:102BC000223530220D0A000041542B535441544900
:102BD0004349503D223139322E3136382E33302E92
:102BE000313930220D0A000041542B4741544557DA
:102BF00041593D223139322E3136382E33302E3183
:102C0000220D0A0041542B53544154494349503D2D
:102C1000223139322E3136382E312E313031220DDB
:102C20000A00000041542B52454D4F544549503D38
:102C3000223139322E3136382E312E313031220DBB
:102C40000A00000041542B474154455741593D2249
:102C50003139322E3136382E312E313031220D0AB3
:102C60000000000041542B53544154494349503D06
:102C7000223139322E3136382E33302E3230312255
:102C80000D0A000041542B52454D4F544549503DCB
:102C9000223139322E3136382E33302E3230312235
:102CA0000D0A000041542B41544B59554E44455692
:102CB00049443D22363531313235393631313039BA
:102CC0003639343236383031220D0A0041542B4423
:102CD0004E535F5345525645523D223131342E31C9
:102CE00031342E3131342E313134220D0A000000BE
:102CF00041542B52454D4F54455F504F52543D2245
:102D00003130303036220D0A0000000041542B4C87
:102D10004F43414C5F504F52543D2231303030369A
:102D2000220D0A0041542B434C4F55445F504F52E3
:102D3000543D223539363636220D0A0041542B4196
:102D4000544B4C494E4B5057443D2231323334356D
:102D5000363738220D0A000041542B4C4F43414C6A
:102D60005F504F52543D223231303139220D0A002A
:102D700041542B4D4F44554E414D453D2241544BFE
:102D80002D434C4F55442D4D4F44220D0A00000059
:102D900041542B4D4F44554E414D453D2241544BDE
:102DA0002D544350434C492D4D4F44220D0A0000F1
:102DB00041542B4D4F44554E414D453D2241544BBE
:102DC0002D554450434C492D4D4F44220D0A0000CF
:102DD00041542B4D4F44554E414D453D2241544B9E
:102DE0002D5544505345562D4D4F44220D0A000099
:102DF00041542B4D4F44554E414D453D2241544B7E
:102E00002D5443505352562D4D4F44220D0A00006D
:102E100041542B4554485F4D4F443D225443505F2D
:102E2000434C4F5544220D0A0000000041542B55DD
:102E30004152543D22313135323030222C22312260
:102E40002C2238222C224E4F4E45220D0A00000023
:102E500041542B444843503D224F4646220D0A0020
:102E600041542B434F4C55445F444F4D41494E3DD7
:102E700022434C4F55442E414C49454E54454B2E10
:102E8000434F4D220D0A000041542B434C4F5544F3
:102E90005F4C494E4B5F454E3D224F4E220D0A007E
:102EA00041542B4543484F3D224F4E220D0A00000E
:102EB00041542B444843503D224F4E220D0A0000FE
:102EC00041542B4554485F4D4F443D225443505F7D
:102ED000534552564552220D0A00000041542B45DD
:102EE00054485F4D4F443D225544505F5345525620
:102EF0004552220D0A00000041542B4554485F4DB5
:102F00004F443D225443505F434C49454E54220D9B
:102F10000A00000041542B4554485F4D4F443D2268
:102F20005544505F434C49454E54220D0A00000061
:102F300041542B4554485F4D4F443D225544505F0A
:102F40004D554C544943415354220D0A0000000092
:102F500041542B41544B59554E44455649443F0D1D
:102F60000A00000041542B4554485F4D4F443F0D2B
:102F70000A00000041542B41544B4C494E4B5057D2
:102F8000443F0D0A0000000041542B4D4F44554E64
:102F9000414D453F0D0A000041542B554152545FAD
:102FA0005041434B54494D453F0D0A0041542B5568
:102FB00050444154453F0D0A0000000041542B4E3F
:102FC00045544D41534B3F0D0A00000041542B55D1
:102FD0004152545F5041434B4C454E3F0D0A000057
:102FE00041542B434C4F55445F4C494E4B5F454E2B
:102FF0003F0D0A0041542B434F4C55445F444F4D05
:1030000041494E3F0D0A000041542B4543484F3F74
:103010000D0A000041542B444843503F0D0A000064
:1030200041542B53544154494349503F0D0A000029
:1030300041542B52454D4F544549503F0D0A000015
:1030400041542B444E535F5345525645523F0D0A4F
:103050000000000041542B554152543F0D0A00001E
:1030600041542B434C4F55445F504F52543F0D0A2F
:103070000000000041542B52454D4F54455F504FC6
:1030800052543F0D0A00000041542B4C4F43414C19
:103090005F504F52543F0D0A0000000041542B472F
:1030A0004154455741593F0D0A000000CC300008FB
:1030B000000000205C0000006C01000828310008BE
:1030C0005C000020B40B000088010008C82A00083A
:1030D000D42A0008602B00086C2B0008942A0008F2
:1030E000E02A00080C2B0008442B0008F02A0008F6
:1030F000282B0008B42A0008A02A00080024F400A5
:1031000000000000000000000000000000000000BF
:1031100010000000010146462D46462D46462D462C
:08312000462D46462D464600EF
:0400000508000131BD
:00000001FF
