:020000040800F2
:10000000C80800202D120008DD040008DF040008E5
:10001000E3040008E7040008EB0400080000000007
:10002000000000000000000000000000EF040008D5
:10003000F104000800000000F3040008F5040008C3
:10004000471200084712000847120008471200082C
:10005000471200084712000847120008471200081C
:10006000471200084712000847120008471200080C
:1000700047120008471200084712000847120008FC
:1000800047120008471200084712000847120008EC
:1000900047120008471200084712000847120008DC
:1000A00047120008471200084712000847120008CC
:1000B00047120008CD0B000847120008471200083D
:1000C00047120008471200084712000847120008AC
:1000D00047120008171000083111000847120008E5
:1000E000471200084712000847120008471200088C
:1000F000471200084712000847120008471200087C
:10010000471200084712000847120008471200086B
:10011000471200084712000847120008471200085B
:10012000471200084712000847120008471200084B
:1001300000F002F800F03FF80AA090E8000C8244BA
:100140008344AAF10107DA4501D100F034F8AFF297
:10015000090EBAE80F0013F0010F18BFFB1A43F0A5
:1001600001031847D83B0000F83B0000103A24BFB9
:1001700078C878C1FAD8520724BF30C830C144BF0C
:1001800004680C607047000000230024002500264E
:10019000103A28BF78C1FBD8520728BF30C148BFEA
:1001A0000B607047642902F0CD86002070471FB5B0
:1001B0001FBD10B510BD02F09FFF1146FFF7F7FFFE
:1001C00000F008F802F0BDFF03B4FFF7F2FF03BC34
:1001D00000F0C6FE08B500F059FE00F07DFA4FF4BD
:1001E000E13000F0CBFE4FF4E13000F051FF00F0C1
:1001F00099FA47214FF6FF7000F000FB142000F041
:1002000082FE33E19A48008800F400400028F8D0CC
:10021000974890F8009000240DE09648015D9648BC
:1002200002F05CFC00BF4021934802F0C5FC0128AD
:10023000F9D1601CC4B24C45EFDB8E4800786728CA
:100240001DD18C4840786F2819D18C480068C04374
:100250008B49C1F894018B4909884FF4C86201FBAE
:1002600002F089490B6889490A688949096800F0E0
:10027000EAFB00208749086087A002F023FE7D4842
:10028000007862284BD17B484078612847D1794873
:100290008078632843D17748C0786B283FD177486E
:1002A0000068C0437649C1F894017748006803F0BC
:1002B0002CF907467A4A7B4B03F03AF9054603F0DE
:1002C000F7F882467148006803F01FF907464FF0BF
:1002D0003332754B03F02CF9054603F0E9F88346F9
:1002E0006B48006803F011F907464FF033326E4B4C
:1002F00003F01EF9054603F0DBF862490090098817
:100300004FF4C8625143480053465A46009900F0E2
:100310009AFB00205F49086064A002F0D3FD5548B5
:1003200000786C284AD153484078652846D1514816
:100330008078662842D14F48C07874283ED15D4805
:100340000068C0435C49C1F894014F48006803F05D
:10035000DCF80546594A5A4B03F0EAF8074603F021
:10036000A7F882464948006803F0CFF807464C4A90
:100370004C4B03F0DDF8054603F09AF80090444832
:10038000006803F0C2F80746454A464B03F0D0F830
:10039000054603F08DF883463A4909884FF4C86250
:1003A000514301EB410053465946009A00F04BFB84
:1003B00000203849086043A002F084FD2D480078F1
:1003C000722850D12B48407869284CD12948807830
:1003D000672848D12748C078682844D12548007943
:1003E000742840D133480068C0433349C1F89401B0
:1003F0002548006803F089F807464FF06632334B12
:1004000003F096F8054603F053F882461F4800684B
:1004100003F07BF807464FF066322D4B03F088F867
:10042000054603F045F883461948006803F06DF867
:1004300007464FF06632264B03F07AF8054603F084
:1004400037F81049009009884FF4C862514388007A
:1004500053465A46009900F0F6FA00200D4908600C
:100460001CA002F02FFD002001490880CAE6000010
:100470007A0000209C0100200038014094012342B2
:100480000000234210000020040000200C00002087
:10049000080000205C000020C7B0BDF8000000008C
:1004A000CDCCCCCCCCCCF43F3333F33FBAF3CDCB73
:1004B0000000000094812142008021429A9999997C
:1004C0009999F93FCFF2D7F3000000006666FE3F2E
:1004D0006666F63FCFF2D3D200000000704700BF3F
:1004E000FEE700BFFEE700BFFEE700BFFEE7704784
:1004F00070477047704700000CB5002001900090D5
:100500006C48006840F480306A49086000BF694860
:10051000006800F4003000900198401C01900098A1
:1005200018B90198B0F5A06FF1D16248006800F4E5
:10053000003010B10120009001E0002000900098F0
:10054000012843D15C48006840F010005A49086017
:100550000846006820F0030008600846006840F084
:1005600002000860534840685249486008464068A5
:1005700048600846406840F480604860084640682B
:1005800020F47C1048600846406840F4E810486059
:100590000846006840F08070086000BF4548006869
:1005A00000F000700028F9D04248406820F00300B5
:1005B000404948600846406840F00200486000BF7B
:1005C0003C48406800F00C000828F9D10CBD10B57B
:1005D000FFF792FF10BD10B53648006840F00100EB
:1005E0003449086008464068344908403149486049
:1005F00008460068324908402E49086008460068ED
:1006000020F4802008600846406820F4FE0048601E
:100610004FF41F008860FFF7DAFF4FF000602949B0
:10062000086010BD10B5002100200022214B5B683E
:1006300003F00C0121B1042906D0082928D107E0D4
:10064000214B224C236027E01F4B204C236023E0EA
:10065000184B5B6803F47010164B5B6803F4803230
:10066000022303EB904022B9194B4343174C2360FC
:100670000DE0104B5B6803F4003323B1144B43438C
:10068000124C236003E0104B4343104C236003E003
:100690000D4B0E4C236000BF00BF064B5B68C3F3DD
:1006A00003130C4CE15C094B1B68CB40074C2360E7
:1006B00010BD000000100240002002400000FFF8C2
:1006C000FFFFF6FE08ED00E000127A0014000020A3
:1006D00000093D001800002008B50121482001F064
:1006E0004FF92020ADF8000010208DF80300032002
:1006F0008DF802006946094800F086FE202107486F
:1007000000F02FFF2020ADF800006946044800F0FB
:100710007BFE2021024800F024FF08BD000C0140B0
:100720000018014008B50121442001F029F91820E2
:10073000ADF8000048208DF8030069462C4800F011
:1007400063FE0120ADF8000028208DF80300694603
:10075000284800F059FE08BD10B5044614B1012028
:10076000254908702448007858B31021204800F02B
:10077000DEFE50B108211E4800F0D9FE28B101214B
:100780001C4800F0D4FE01281BD10A2000F0BBFB5E
:100790000020194908701021154800F0C8FE08B95A
:1007A000012010BD0821124800F0C1FE08B9022046
:1007B000F7E701210F4800F0BAFE012815D1032008
:1007C000EFE710210A4800F0B2FE01280DD1082100
:1007D000074800F0ACFE012807D10121054800F0D0
:1007E000A6FE10B90120044908700020D9E70000D6
:1007F00000180140000801402800002030B589B0F1
:1008000005460C460121042001F0BAF8012102201E
:1008100001F0C3F818208DF823004020ADF8200027
:1008200001208DF8220008A91E4800F0EDFD0020EF
:10083000ADF81A00ADF81600ADF81850ADF8144038
:1008400005A9194801F0D4F91D208DF810000120E8
:100850008DF813008DF811008DF8120004A800F037
:100860000AFD3020ADF800000220ADF8080001209C
:10087000ADF802000D480088ADF8060069460A4848
:1008800001F0F3F90021084801F03EFE012106487D
:1008900001F00AFD01220221034801F020FD09B008
:1008A00030BD000000080140000400402A00002084
:1008B0002DE9F04107460D4616461C460121084623
:1008C00001F051F8052000F01EFB384602F0CEF989
:1008D0001C4804801C480560466010201A49886046
:1008E0000846C4600020086180204861400088619B
:1008F0008000C861002008624FF400504862002068
:100900008862384602F054FABDE8F08110B504461A
:1009100000210E4801F0C8FC0021204602F073FAC5
:1009200008480188204602F083FA0121204602F09F
:100930006AFA0121054801F0B7FC10BD014648687C
:1009400080B270473000002090000020000400407A
:100950002DE9F04105460E460024F948F9490861A1
:100960004FF08340C860002D02DB0120487502E093
:100970000020F4494875F3484660284603F0E6F83D
:100980008046F14902F0E4FF074603F0A3F804466D
:10099000002C00DA644224B90021EC4801F084FC08
:1009A00003E00121E94801F07FFC2146E8A002F0C4
:1009B00089FAA0B2BDE8F0810FB470B54FF07E5453
:1009C000E748059902F0C4FF05464FF0804102F068
:1009D000BFFF0446204603F099F8E249088020460C
:1009E00003F094F885B22946DFA002F06BFAE148E3
:1009F000FFF78CFF204670BC5DF814FB7CB5044605
:100A00000025D049D1E90401CDE90001CD480FC846
:100A1000FFF7D2FF24B90021CC4801F045FC10E0DB
:100A20000020C8490881002509E0C6480089A04285
:100A300005D10021C54801F037FC01207CBD002D07
:100A4000F3D00020FAE72DE9F04F89B0044689463B
:100A500092469B46C848007810B109B0BDE8F08FB7
:100A6000002C04DA0020C5494870644202E00120ED
:100A7000C2494870012C08D1A01EC049486102201B
:100A800008704FF47A70486083E0002CFCD0584620
:100A900003F074F806463146B94802F059FF05469E
:100AA00003F018F8B5490861484603F067F80146B5
:100AB0000090B44802F04CFF019002F01DFF074681
:100AC00002F048FB0022B04BCDE9020102F030FDFC
:100AD0000022AE4BCDE9040102F062FB054602F0B4
:100AE000B7FCA6494860484603F048F88046A84944
:100AF00003F058F80746A74902F02AFF06460BFB09
:100B00000BF003F03BF83146059002F021FF05465B
:100B100002F0FCFF0790079808B90120079004FB3A
:100B20000AF009EB0A01B0FBF1F00690069808B94B
:100B300001200690DDE90601884204D80698001BD2
:100B40008E49C86007E0079800FB09F0B0FBFAF097
:100B500040428A49C8608948C06818B94FF0FF30E0
:100B60008649C8608548C068204484498860084632
:100B700040680969884206DC804800697F4948600E
:100B80000320087002E001207C49087000207B49A6
:100B9000486101207849087001216C4801F084FB0C
:100BA0006A482430008808907449486800EBD07186
:100BB000BDF8202002EB6101644A34321180012229
:100BC0001146624801F08BFB00BF46E71CB50020D0
:100BD00001900090002402215C4801F02EFE0028C4
:100BE0007ED00221594801F039FE5848243000884F
:100BF00001906249486800EBD071019A02EB6101F3
:100C00000091524934310098088063480078401CB4
:100C10006149087008460078022861D100200870F8
:100C20005648007830B1012816D0022872D0032827
:100C300011D170E00020594908605949086000222C
:100C40000121424801F04BFB0021404801F02CFB00
:100C500000204949087009E152480068401C514988
:100C600008604E480068401C4C4908604348407882
:100C7000012805D14C480068401C4B49086004E03D
:100C800049480068401E484908603C484069401C8B
:100C90003A4948610846406841490968022202FB16
:100CA0000011364840698000401C91FBF0F0334948
:100CB0004968081A84B2314840683949096802FB1A
:100CC00000112E4840698000401C91FBF0F200FBAF
:100CD000121033490860294880683049096800E0EB
:100CE000C7E0884206D82548C068244948610220E8
:100CF00008700EE021480069A0420ADB2B480480FE
:100D00001E48006984B200202549086003201B4961
:100D10000870ABE063E023480068401C214908608C
:100D20001E480068401C1D4908601448407801288E
:100D30003ED11D480068401C1B4908603DE0000092
:100D40006666E63FBC0000206666663E0004004022
:100D5000706C7573654E756D203D20256400000034
:100D600000401C4400000020707363203D20256477
:100D7000000000006C000240580000203C000020F1
:100D8000E86599477B59444480D8004100002440DD
:100D9000DA0F493F000020416C0000206400002071
:100DA000680000205C00002054000020600000204B
:100DB00030480068401E2F4908602F48006984B2FF
:100DC0002D4880682D490968884207D82A48C0689C
:100DD000294948612A4804880220087046E02748CB
:100DE0000068401C2549086026480068401C2549C9
:100DF000086021484078012805D11E480068401C41
:100E00001C49086004E01B480068401E194908603E
:100E100019484069401C18494861084640681A4909
:100E20000968022202FB0011134840698000401C3F
:100E300091FBF0F010494968081A84B20E484068E6
:100E40001149096802FB00110B4840698000401CF1
:100E500091FBF0F200FB12100B4908600648406954
:100E6000002802DB00200449087000BF00BF0248D0
:100E700044601CBD540000203C00002064000020A1
:100E8000600000205C0000206800002010B56FF0BA
:100E9000040000F03AFA2E4800682E49B0FBF1F049
:100EA0002D4908700846007800EB4001C1EBC010E6
:100EB0004FF6FF7101EAC0002849088010BD0146C5
:100EC000254A12784A434FF0E0235A6100229A6182
:100ED0001A46126942F001021A6100BF4FF0E02287
:100EE000106900F001021AB100F48032002AF5D036
:100EF0004FF0E022126922F001024FF0E0231A6164
:100F000000229A6170470146144A12884A434FF002
:100F1000E0235A6100229A611A46126942F00102E6
:100F20001A6100BF4FF0E022106900F001021AB10F
:100F300000F48032002AF5D04FF0E022126922F04E
:100F400001024FF0E0231A6100229A61704700000D
:100F50001400002000127A006E00002070000020B3
:100F600000BF704700BFA54A128802F04002002A65
:100F7000F9D0C2B2A14B1B1D1A80704710B586B0C4
:100F80000446012144F2040000F0FAFC4FF4007022
:100F9000ADF8140003208DF8160018208DF8170006
:100FA00005A9974800F030FA4FF48060ADF81400BE
:100FB00004208DF8170005A9914800F025FA252096
:100FC0008DF8000003208DF8010002208DF802004A
:100FD00001208DF80300684600F04DF901940020CF
:100FE000ADF80800ADF80A00ADF80C00ADF810003F
:100FF0000C20ADF80E0001A9804801F076FC01221A
:1010000040F225517D4801F008FD01217B4801F0A7
:10101000F8FC06B010BD10B540F22551774801F03C
:10102000E1FD10B3754801F05DFDC4B2754800885C
:1010300000F40040C8B97348008800F4804060B1F3
:101040000A2C03D000206F49088020E06D480088FA
:1010500040F400406B49088019E00D2C06D1694826
:10106000008840F480406749088010E065480088A7
:10107000C0F30D0064490C5462480088401C61496B
:10108000088008460088C72801DD0020088010BDC0
:1010900010B586B004460121480400F07EFC012111
:1010A000042000F06DFC594801F0DCFB0420ADF891
:1010B000140003208DF8160018208DF8170005A9DC
:1010C0004F4800F0A1F90820ADF8140004208DF875
:1010D000170005A94A4800F097F901940020ADF8DF
:1010E0000800ADF80A00ADF80C00ADF810000C20B7
:1010F000ADF80E0001A9454801F0F7FB26208DF858
:10110000000003208DF801008DF8020001208DF809
:101110000300684600F0AFF8012240F225513B4839
:1011200001F07BFC0121394801F06BFC06B010BDD9
:1011300010B540F22551354801F054FD10B3334845
:1011400001F0D0FCC4B23248008800F40040C8B9B5
:101150002F48008800F4804060B10A2C03D00020A2
:101160002B49088020E02A48008840F400402849A4
:10117000088019E00D2C06D12548008840F48040F5
:101180002349088010E022480088C0F30D0021495F
:101190000C541F480088401C1D49088008460088E0
:1011A000C72801DD0020088010BD70B5002400258F
:1011B0001748008800F40040F0B11548047815483D
:1011C0000078672815D1134840786F2811D112A0F4
:1011D00001F078FE12480068C0431249C1F894013A
:1011E0001148D0F89401C0430F49C1F8940103207D
:1011F00070BD00200649088000BFF9E700380140B3
:101200000008014078000020D40000200044004085
:101210007A0000209C010020CFF2C7B0000000003F
:1012200094812142008021420000234209488047E6
:1012300009480047FEE7FEE7FEE7FEE7FEE7FEE7B8
:10124000FEE7FEE7FEE7FEE704480549054A064BD0
:1012500070470000D705000831010008C8020020CF
:10126000C8080020C8040020C804002031490143F8
:10127000314A1160704770B5002100230F22C478F5
:1012800004B32D4C246804F4E064C4F5E064210A3E
:10129000C1F10403CA40447804FA03F1847814408D
:1012A00021430901254C0678A155047804F01F0557
:1012B0000124AC4005786D11AD0005F1E025C5F8BD
:1012C000004109E0047804F01F050124AC401C4DE6
:1012D0000678761145F8264070BD1A4A0A40024346
:1012E000154B1B1F1A60704739B1134A121D126843
:1012F0000243114B1B1D1A6006E00F4A121D1268B3
:1013000082430D4B1B1D1A607047042808D14FF013
:10131000E021096941F004014FF0E022116107E08A
:101320004FF0E021096921F004014FF0E022116142
:10133000704700000000FA050CED00E000E400E05A
:1013400080E100E080FFFF1F10B50446CC488442D6
:1013500008D10121042000F02DFB0021042000F021
:1013600029FB46E0C748844208D10121082000F04B
:1013700021FB0021082000F01DFB3AE0C248844216
:1013800008D10121102000F015FB0021102000F0F1
:1013900011FB2EE0BD48844208D10121202000F03D
:1013A00009FB0021202000F005FB22E0B848844220
:1013B00008D10121402000F0FDFA0021402000F07A
:1013C000F9FA16E0B348844208D10121802000F0E8
:1013D000F1FA0021802000F0EDFA0AE0AE488442E4
:1013E00007D10121801500F0E5FA0021A01500F0D9
:1013F000E1FA10BD10B50121084600F0DBFA00212A
:10140000012000F0D7FA10BD2DE9F0410246002579
:101410000026002000230024002791F803C00CF0D0
:101420000F0591F803C00CF0100CBCF1000F03D0B5
:1014300091F802C04CEA050591F800C0BCF1000F1C
:1014400031D0146800202BE04FF0010C0CFA00F3AF
:10145000B1F800C00CEA03069E4220D183004FF091
:101460000F0C0CFA03F7BC4305FA03FC4CEA040426
:1014700091F803C0BCF1280F06D14FF0010C0CFA13
:1014800000FCC2F814C00AE091F803C0BCF1480F98
:1014900005D14FF0010C0CFA00FCC2F810C0401C42
:1014A0000828D1D31460B1F800C0BCF1FF0F34DDBF
:1014B000546800202EE000F1080C4FF0010808FAF3
:1014C0000CF3B1F800C00CEA03069E4221D1830060
:1014D0004FF00F0C0CFA03F7BC4305FA03FC4CEA7F
:1014E000040491F803C0BCF1280F05D100F1080CE9
:1014F00008FA0CF8C2F8148091F803C0BCF1480F48
:1015000007D100F1080C4FF0010808FA0CF8C2F8F6
:101510001080401C0828CED35460BDE8F0814FF6FF
:10152000FF710180022181700421C1707047024661
:10153000002093680B400BB1012000E000207047B1
:101540000146886880B2704702460020D3680B408D
:101550000BB1012000E0002070470146C86880B24E
:10156000704701617047416170470AB1016100E055
:1015700041617047C16070474FF480320A43826115
:101580008161826182698269704702460020434B13
:1015900018684FF68073184040EA021008433F4B2A
:1015A000186070473E49C8617047F0B50A4600238D
:1015B00000240021002500F00046B6F1004F02D1C2
:1015C000364EF16901E0354E7168C0F3034583B2D0
:1015D00000F44016B6F5401F08D121F070612F4E7F
:1015E000766826F070662D4F7E6012E000F480165B
:1015F000B6F5801F06D1032606FA05F4A14341F093
:10160000706106E0460D360103FA06F6B14341F07B
:10161000706122B1460D360103FA06F6314300F03F
:101620000046B6F1004F02D11C4EF16101E01B4EA5
:101630007160F0BD30B500228B071C0F0F2303FA39
:1016400004F2164B08338C1053F824309343134C98
:1016500008348D1044F8253023468C1053F824307C
:101660008C07240F00FA04F423430C4C08348D102B
:1016700044F8253030BD0A49DC310860704700006D
:1016800000080140000C014000100140001401401E
:1016900000180140001C01400020014000000140F2
:1016A00000002042DF48006840F00100DD4908608A
:1016B00008464068DC490840DA4948600846006846
:1016C000DA490840D74908600846006820F48020BD
:1016D00008600846406820F4FE0048604FF41F0090
:1016E00088607047CF49096821F48031CD4A116084
:1016F0001146096821F480211160B0F5803F03D0C4
:10170000B0F5802F0ED106E0C649096841F480315A
:10171000C44A116007E0C349096841F4A021C14AE5
:10172000116000E000BF00BF704710B50146002205
:10173000002300204A11012A02D1BA4C236806E096
:10174000022A02D1B74C236A01E0B64C636A01F069
:101750001F02012494401C400CB1012000E0002035
:1017600010BD38B5002000900024002500BF3120B6
:10177000FFF7DBFF05460098401C00900098B0F58D
:10178000A06F01D0002DF2D03120FFF7CEFF08B1BD
:10179000012400E00024204638BD01460020A14A73
:1017A000106820F0F80040EAC10010607047A049BE
:1017B00008607047024600209A4B586820F47C105D
:1017C00042EA01031843974B5860704798490866EE
:1017D000704701460020934A506820F003000843F8
:1017E000506070478F48406800F00C007047014619
:1017F00000208C4A506820F0F00008435060704789
:1018000001460020874A506820F4E0600843506099
:10181000704701460020834A506820F4605040EA37
:10182000C1005060704729B17E4A527A02437D4B15
:101830005A7204E07B4A527A82437A4B5A7270475A
:101840007B49D8310860704701460020754A5068CE
:1018500020F440400843506070470021714A203214
:101860001170704A82F82010012802D004280AD191
:1018700004E001216B4A2032117005E00521694A1C
:101880002032117000E000BF00BF70476949086056
:1018900070476449096A0143624A116270476549A9
:1018A00044390860704730B500210022002400232D
:1018B0005C4D6D6805F00C0121B1042905D00829A3
:1018C00023D105E05C4D056022E05B4D05601FE023
:1018D000544D6D6805F47012524D6D6805F48034F6
:1018E000022505EB92421CB9544D554305600BE0AF
:1018F0004C4D6D6805F400351DB1504D55430560E4
:1019000002E04D4D5543056002E04B4D056000BFC0
:1019100000BF444D6D6805F0F0010909484D6B5C4E
:101920000568DD4045603F4D6D6805F4E061090ADA
:10193000434D6B5C4568DD4085603A4D6D6805F44C
:101940006051C90A3E4D6B5C4568DD40C560354D50
:101950006D6805F44041890B3A4D6B5CC568B5FB79
:10196000F3F5056130BD29B12E4A526902432D4B72
:101970005A6104E02B4A526982432A4B5A617047EC
:1019800029B1284A92690243264B9A6104E0254A0C
:1019900092698243234B9A61704729B1214AD269E7
:1019A0000243204BDA6104E01E4AD26982431D4B98
:1019B000DA61704729B11B4AD2680243194BDA60D9
:1019C00004E0184AD2688243164BDA60704729B1A6
:1019D000144A12690243134B1A6104E0114A126956
:1019E0008243104B1A6170471249403908607047B2
:1019F0000F49C86470470B49C87170470948406A6D
:101A000040F0807007494862704701460020054A4F
:101A100092680A400AB1012000E0002070470149A5
:101A200088727047001002400000FFF8FFFFF6FECA
:101A3000000042428004424200127A0000093D0048
:101A40007C0000208C00002010B50446FE48844233
:101A500008D10121C014FFF7ADFF0021E014FFF70A
:101A6000A9FFC4E0B4F1804F08D101210846FFF777
:101A7000AEFF00210120FFF7AAFFB8E0F34884423F
:101A800008D101210220FFF7A2FF00210220FFF769
:101A90009EFFACE0EE48844208D101210420FFF70C
:101AA00096FF00210420FFF792FFA0E0E94884425E
:101AB00008D101210820FFF78AFF00210820FFF745
:101AC00086FF94E0E448844208D101211020FFF70A
:101AD0007EFF00211020FFF77AFF88E0DF48844274
:101AE00008D101212020FFF772FF00212020FFF7FD
:101AF0006EFF7CE0DA48844208D101214014FFF7F0
:101B000059FF00216014FFF755FF70E0D54884426B
:101B100009D10121C804FFF74DFF00214FF4002037
:101B2000FFF748FF63E0D048844209D1012108054E
:101B3000FFF740FF00214FF48010FFF73BFF56E016
:101B4000CA48844209D101214805FFF733FF00212B
:101B50004FF40010FFF72EFF49E0C548844208D13A
:101B600001214020FFF733FF00214020FFF72FFF26
:101B70003DE0C048844208D101218020FFF727FFC3
:101B800000218020FFF723FF31E0BB48844208D1C9
:101B900001218015FFF71BFF0021A015FFF717FF9C
:101BA00025E0B648844209D101210804FFF702FF6D
:101BB00000214FF48030FFF7FDFE18E0B04884426A
:101BC00009D101214804FFF7F5FE00214FF4003050
:101BD000FFF7F0FE0BE0AB48844208D101218804F6
:101BE000FFF7E8FE00214FF48020FFF7E3FE10BD71
:101BF00000220288944B98420ED0994B98420BD009
:101C0000B0F1804F08D0914B984205D0904B98424C
:101C100002D0904B984204D14FF68F731A404B88F4
:101C20001A438D4B984207D08C4B984204D04FF604
:101C3000FF431A40CB881A4302808B8883850B8828
:101C40000385814B98420BD0854B984208D08B4B33
:101C5000984205D08A4B984202D08A4B984201D1D3
:101C60000B7A038601238382704770B5002400221B
:101C70000023058C4FF6FE7635400584028C838860
:101C8000048B4FF68F752C40B51E2C400D882C43CD
:101C9000751E2A400D892A434D882A436A4DA84261
:101CA0000BD06F4DA84208D0744DA84205D0744D9A
:101CB000A84202D0734DA84213D14FF6F7752A40BF
:101CC0004D892A434FF6FB752A408D882A434FF6EB
:101CD000FF652B404FF6FF552B408D892B43CD8957
:101CE0002B4383800483CD888586028470BD70B5C4
:101CF000002400220023058C4FF6EF763540058442
:101D0000028C8388048B48F6FF752C404FF6FF4504
:101D10002C400D884FF6FF7606EA05252C434FF63A
:101D2000DF752A400D8906EA05152A434D8806EA23
:101D300005152A43444DA84202D0494DA8421DD161
:101D40004FF67F752A404D894FF6FF7606EA051556
:101D50002A434FF6BF752A408D8806EA05152A43A7
:101D60004FF6FF352B404FF2FF752B408D8906EA69
:101D700085052B43CD8906EA85052B4383800483A3
:101D8000CD880587028470BD70B500240022002331
:101D9000058C4FF6FF6635400584028C8388848B62
:101DA0004FF68F752C404FF6FC752C400D882C4358
:101DB0004FF6FF552A400D894FF6FF7606EA0525B6
:101DC0002A434D8806EA05252A431F4DA84202D022
:101DD000234DA8421DD14FF2FF752A404D894FF681
:101DE000FF7606EA05252A434FF6FF352A408D88FF
:101DF00006EA05252A434EF6FF752B404DF6FF7582
:101E00002B408D8906EA05152B43CD8906EA051579
:101E10002B4383808483CD888587028470BD70B511
:101E2000002200230024058C4EF6FF763540058401
:101E3000038C8488828B48F6FF752A404FF6FF4555
:101E40002A400D8820E00000002C014000040040E2
:101E500000080040000C004000100040001400404A
:101E600000340140004C014000500140005401404A
:101E700000180040001C00400020004000400140CD
:101E800000440140004801404FF6FF7606EA052570
:101E90002A434DF6FF752B400D8906EA05352B4385
:101EA0004D8806EA05352B43FA4DA84202D0FA4D7B
:101EB000A84208D14BF6FF752C408D894FF6FF766E
:101EC00006EA85152C4384808283CD88A0F8405093
:101ED000038470BD828B4FF2FF331A408283828B62
:101EE0004FF6FF7303EA01231A4382837047F0B56C
:101EF0000C461546002200210026078C4EF6FF7C7A
:101F000007EA0C070784828B018C4FF6FF7707EAFC
:101F1000043640F6FF473A404FF6FF7707EA0527B9
:101F20003A434FF6FF7707EA03373A43D94FB842AF
:101F30000ED0D94FB8420BD0B0F1804F08D0D74F58
:101F4000B84205D0D64FB84202D0D64FB84206D1DB
:101F50004DF6FF77394046F48057394305E047F6A0
:101F6000FF57394044F48057394382830184F0BDE0
:101F7000828B4FF6F3731A408283828B0A438283EB
:101F80007047F0B50C461546002200210026078C4C
:101F90004FF6FF6C07EA0C070784828B018C4FF623
:101FA000FF7707EA04264FF60C773A404FF6FF77A3
:101FB00007EA03172F433A43B64FB8420ED0B64F45
:101FC000B8420BD0B0F1804F08D0B44FB84205D022
:101FD000B34FB84202D0B34FB84206D14FF6FF57C5
:101FE000394046F48077394305E04FF2FF573940D6
:101FF00044F48077394382830184F0BD028B4FF231
:10200000FF331A400283028B4FF6FF7303EA01236A
:102010001A4302837047F0B50C4615460022002192
:102020000026078C4FF6EF7C07EA0C070784028B2B
:10203000018C4FF6FF7707EA041640F6FF473A4057
:102040004FF6FF7707EA03373A434FF6FF7707EA81
:1020500005273A438F4FB8420ED08F4FB8420BD06E
:10206000B0F1804F08D08D4FB84205D08C4FB842A8
:1020700002D08C4FB84206D14FF6DF77394046F098
:102080001007394305E04FF65F77394044F01007F9
:10209000394302830184F0BD028B4FF6F3731A407B
:1020A0000283028B0A4302837047F0B50C46154643
:1020B00000220021068C4FF6FE773E400684028BFC
:1020C000018C4FF60C7632407E1C06EA03162E4336
:1020D0003243704EB0420ED06F4EB0420BD0B0F1D2
:1020E000804F08D06D4EB04205D06D4EB04202D048
:1020F0006C4EB04206D14FF6FD76314044F00106F9
:10210000314305E04FF6F576314044F001063143A6
:1021100002830184F0BD70B505460C465D488542DA
:102120000ED05D4885420BD0B5F1804F08D05B489A
:10213000854205D05A48854202D05A48854200D18E
:1021400000E000BF208850B92389A2886188284612
:10215000FFF7ABFFE1882846FFF79EFF25E02088C8
:1021600004280AD12389A28861882846FFF753FFF3
:10217000E1882846FFF742FF17E0208808280AD1A7
:102180002389A28861882846FFF7FBFEE18828465C
:10219000FFF7EEFE09E02389A28861882846FFF751
:1021A000A6FEE1882846FFF795FE70BD2DE9F041B7
:1021B00005460C4600260127608808B9022600E083
:1021C0000026A088012801D1022700E001272088ED
:1021D000A0B92389A28861882846FFF766FFE188B5
:1021E0002846FFF759FF23893A4631462846FFF72C
:1021F00012FFE1882846FFF701FF13E02389A28838
:1022000061882846FFF707FFE1882846FFF7F6FEBA
:1022100023893A4631462846FFF747FFE18828469A
:10222000FFF73AFFBDE8F0810A884B881A438B8894
:102230001A43CB881A430B891A434B891A438B895B
:102240001A43A0F8442070474FF6FF7181800021A7
:102250000180C1804180017270470021018041806E
:102260008180C180018141818181C18170470021CC
:1022700001804180012181800021C180018170475E
:102280000021018041808180C18001814181818163
:1022900070470000002C0140003401400004004061
:1022A00000080040000C004021B1028842F0010209
:1022B000028004E002884FF6FE731A4002807047E5
:1022C00031B1B0F8442042F40042A0F8442005E0C7
:1022D000B0F84420C2F30E02A0F8442070471AB1AF
:1022E00083890B43838102E083898B438381704719
:1022F0008182704741EA0203A0F8483070471AB162
:1023000083890B43838102E083898B4383817047F8
:1023100001894FF6F8721140018170470A46002189
:1023200001894FF68F73194011430181704730B511
:1023300004460D4629462046FFF7F0FF208940F06D
:102340000700208130BD2DE9F04104460D461646B8
:102350001F46602D06D13B46012231462046FFF73D
:102360005AFE05E03B46012231462046FFF79DFE1E
:1023700029462046FFF7D2FF208940F00700208140
:10238000BDE8F08130B50C4600210189C9B24FF695
:10239000FF7505EA0325154325432943018130BD17
:1023A0002DE9F04105460E4617469846002443465F
:1023B0003A4631462846FFF7E5FF2C894FF6F8707C
:1023C000044044F007044FF68F70044044F070045A
:1023D0002C81BDE8F081F0B504460D4616461F4637
:1023E0003B46324629462046FFF7CCFF208940F481
:1023F00080402081F0BD0185828270470A4600211D
:1024000001884FF68F731940114301807047F0B572
:102410000C4615461E460021002200230189028B2E
:10242000038C4FF6F877394021434FF6FC473A408A
:1024300040F201173A434FF6DD773B404FF6FF7706
:1024400007EA06172F433B43018102830384F0BD53
:102450000A460021018B4FF68F7319401143018307
:1024600070470A460021018B48F6FF7319404FF66A
:10247000FF7303EA02231943018370470A460021D0
:10248000818B4FF68F7319401143818370470A4641
:102490000021818B48F6FF7319404FF6FF7303EA62
:1024A000022319438183704721B1028842F08002E0
:1024B000028004E002884FF67F731A400280704762
:1024C00021B1828842F00402828004E082884FF6C3
:1024D000FB731A408280704721B1828842F0080263
:1024E000828004E082884FF6F7731A40828070473A
:1024F00021B1828842F00102828004E082884FF696
:10250000FE731A40828070470A460021018B4FF605
:10251000F77319401143018370470A460021018B6C
:102520004FF2FF7319404FF6FF7303EA022319437A
:10253000018370470A460021818B4FF6F7731940DB
:102540001143818370470A460021818B4FF2FF734C
:1025500019404FF6FF7303EA022319438183704742
:102560000A460021018B4FF6FB731940114301838A
:1025700070470A460021018B4FF6FF3319404FF692
:10258000FF7303EA02231943018370470A460021BF
:10259000818B4FF6FB7319401143818370470A46C4
:1025A0000021818B4FF6FF3319404FF6FF7303EA8A
:1025B00002231943818370470A460021018B4FF69D
:1025C0007F7319401143018370470A460021018B34
:1025D000C1F30E014FF6FF7303EA0223194301838F
:1025E00070470A460021818B4FF67F7319401143D3
:1025F000818370470A460021818BC1F30E014FF69B
:10260000FF7303EA02231943818370470A460021BE
:10261000018C4FF6FD7319401143018470470A463F
:102620000021018C4FF6F773194011430184704764
:102630000A460021018C4FF6DF7319404FF6FF73F5
:1026400003EA02131943018470470A460021018CF2
:102650004FF67F7319404FF6FF7303EA02131943D5
:10266000018470470A460021018C4FF6FF53194040
:102670004FF6FF7303EA02231943018470470A46A9
:102680000021018C4FF2FF7319404FF6FF7303EAEC
:1026900002231943018470470A460021018C4DF63C
:1026A000FF7319404FF6FF7303EA023319430184A5
:1026B000704730B5002301248C40A3B2048C9C43A6
:1026C0000484048C02FA01F5ADB22C43048430BDBD
:1026D00030B5002304248C40A3B2048C9C430484B2
:1026E000048C02FA01F5ADB22C43048430BD70B500
:1026F0000346002000241846183001258D40ACB256
:102700001D8CA5431D8409B1082909D100EB610086
:10271000056825F0700505600568154305600EE045
:102720000D1FC5F34E052844056825F4E0450560F6
:1027300005684FF6FF7606EA02263543056070BD50
:1027400021B1028842F00202028004E002884FF6C2
:10275000FD731A400280704721B1028842F00402E2
:10276000028004E002884FF6FB731A400280704733
:1027700021B1828842F08002828004E082884FF694
:102780007F731A408280704702884FF6F7731A40B1
:10279000028002880A430280704782884FF68F7356
:1027A0001A40828082880A438280704702894FF6ED
:1027B000F8731A40028102890A4302817047028934
:1027C0004FF67F731A40028102890A4302817047E3
:1027D0008184704781857047818670470187704783
:1027E00081877047A0F84010704702884FF6FF437A
:1027F0001A40028002880A43028070470146888E90
:1028000070470146088F70470146888F7047014620
:10281000B1F8400070470146888C70470146088D2A
:10282000704702460020138A0B400BB1012000E0E4
:1028300000207047CA430282704730B5024600202C
:1028400000230024158A05EA0103958905EA01049D
:1028500013B10CB1012000E0002030BDCA43028258
:102860007047000010B50446FB48844209D101219D
:102870008803FFF79FF800214FF48040FFF79AF894
:1028800032E0F648844209D101214804FFF79FF85D
:1028900000214FF40030FFF79AF825E0F048844219
:1028A00009D101218804FFF792F800214FF480201C
:1028B000FFF78DF818E0EB48844209D10121C804E4
:1028C000FFF785F800214FF40020FFF780F80BE0B8
:1028D000E548844208D101210805FFF778F8002176
:1028E0004FF48010FFF773F810BD2DE9F04786B064
:1028F00005460E460024A24600BFA1460027B08927
:1029000000B100BF2F462C8A4CF6FF700440F088BF
:1029100004432C82AC894EF6F3100440B088318910
:102920000843718908430443AC81AC8A4FF6FF40E9
:102930000440B0890443AC8201A8FEF7B4FFC64846
:10294000874202D1DDF810A001E0DDF80CA0A889D3
:1029500000F4004040B10AEBCA0000EB0A103168F5
:102960004900B0FBF1F807E00AEBCA0000EB0A10DF
:1029700031688900B0FBF1F86420B8FBF0F0040185
:102980002009642101FB1089A88900F4004040B1AE
:10299000322000EBC900B0FBF1F000F00700044367
:1029A00008E0322000EB09106421B0FBF1F000F0E8
:1029B0000F0004432C8106B0BDE8F0874FF4165198
:1029C000016000218180C18001810C2141810021B1
:1029D0008181704710B502460020108A4FF2FF0334
:1029E00018400B884C8823438C882343CC8823438E
:1029F0001843108210BD0021018041808180C18078
:102A0000704721B1828942F40052828104E08289B8
:102A10004DF6FF731A4082817047F0B503460024DB
:102A200000260025002040F66A17B94200D100BFF9
:102A30001846C1F3421401F01F06012707FA06F5F4
:102A4000012C01D10C3004E0022C01D1103000E047
:102A500014301AB107682F43076002E00768AF43DC
:102A60000760F0BD1AB1838A0B43838202E0838A38
:102A70008B4383827047028A4FF6F0731A400282BA
:102A8000028A0A430282704782894FF2FF731A401A
:102A9000828182890A438281704721B1828942F012
:102AA0000202828104E082894FF6FD731A4082811E
:102AB0007047028A4FF6DF731A400282028A0A4385
:102AC0000282704721B1028A42F48042028204E00D
:102AD000028A4BF6FF731A4002827047C1F3080264
:102AE0008280704701468888C0F30800704781895A
:102AF00041F0010181817047028BD2B20283028BC7
:102B000042EA012202837047028B02F47F42028371
:102B1000028B0A430283704721B1828A42F020026D
:102B2000828204E0828A4FF6DF731A408282704705
:102B300021B1828A42F01002828204E0828A4FF63A
:102B4000EF731A408282704721B1828A42F00802F4
:102B5000828204E0828A4FF6F7731A4082827047BD
:102B600021B1828942F40042828103E08289C2F36A
:102B70000E028281704721B1828A42F40062828211
:102B800004E0828A4FF2FF731A4082827047828A81
:102B90004FF6FB731A408282828A0A438282704710
:102BA00021B1828A42F00202828204E0828A4FF6D8
:102BB000FD731A408282704702460020B1F5007F03
:102BC00000D100BF13880B400BB1012000E00020B2
:102BD000704701F40072B2F5007F00D100BFCA4314
:102BE0000280704770B502460024002300250020B3
:102BF00040F66A16B14200D100BFC1F3421501F0A0
:102C00001F03012606FA03F3012D02D196893340F2
:102C100006E0022D02D1168A334001E0968A334045
:102C20000C12012606FA04F41688344013B10CB1D4
:102C3000012000E0002070BD10B50022002340F606
:102C40006A14A14200D100BF0A1201249440A3B229
:102C5000DC43048010BD0000003801400044004007
:102C600000480040004C00400050004001684FF612
:102C7000FE72114001600021016041608160C1600D
:102C80008D49884208D18C490839496841F00F01C3
:102C9000894A083A51608AE087491431884208D14C
:102CA00085490839496841F0F001834A083A516082
:102CB0007DE081492831884208D17F490839496837
:102CC00041F470617C4A083A516070E07A493C31C5
:102CD000884208D178490839496841F47041764AF8
:102CE000083A516063E074495031884208D1724912
:102CF0000839496841F470216F4A083A516056E03A
:102D00006D496431884208D16B490839496841F4FA
:102D10007001694A083A516049E067497831884250
:102D200008D165490839496841F07061624A083A3A
:102D300051603CE06149884206D1011F096841F0B9
:102D40000F01021F116032E05C491431884208D142
:102D50005A49091F096841F0F001584A121F1160D1
:102D600025E056492831884208D15449091F09688D
:102D700041F47061514A121F116018E04F493C3113
:102D8000884208D14D49091F096841F470414B4AF6
:102D9000121F11600BE049495031884207D1474961
:102DA000091F096841F47021444A121F11607047DD
:102DB00010B50022026847F6F0739A430C6A8B68DC
:102DC00023430C6923434C6923438C692343CC6917
:102DD00023434C6A23438C6A23431A430260CB6823
:102DE00043600B6883604B68C36010BD00210160C5
:102DF00041608160C160016141618161C1610162C5
:102E000041628162704721B1026842F001020260B2
:102E100004E002684FF6FE731A40026070471AB170
:102E200003680B43036002E003688B430360704751
:102E3000416070470146486880B2704701460020F3
:102E4000002201F080531BB11C4B083B1A6802E0C2
:102E5000194B083B1A6802EA01030BB1012000E09C
:102E60000020704700F0805119B11449091F086013
:102E700002E01149083948607047014600200022ED
:102E800001F080531BB10D4B083B1A6802E00A4B5E
:102E9000083B1A6802EA01030BB1012000E00020A0
:102EA000704700F0805119B10449091F086002E021
:102EB0000149083948607047080002400804024090
:102EC000704700000FB4044910B503AA029800F03F
:102ED000DDF810BC5DF814FB740000202DE9F04112
:102EE0000E460446002020622046E168884730B341
:102EF000252805D0D4E901219047206A401CF2E73B
:102F0000E168204600278847050018D0A5F1410058
:102F1000192802D820354FF400673246294620464A
:102F20002760FDF73FF940B1012804D0F61D26F0D7
:102F300007060836D8E7361DD6E72846DAE7206ABE
:102F4000BDE8F0812DE9F04106460024106875299E
:102F5000314616A510D0AFF30080002802DA4042B7
:102F600013A507E031688A0701D512A502E04907D9
:102F700004D511A5012401E0AFF3008000210A224D
:102F800006F1240709E0B0FBF2FCB0FBF2F302FB10
:102F90001C00303078541846491C0028F3D12346D1
:102FA0002A463046BDE8F04100F017B800000000A6
:102FB0002D0000002B00000020000000704770472B
:102FC0007047704710B500F073F8006810BD10B579
:102FD000044600F06DF8046010BD2DE9F0470D4681
:102FE00099469246044600F124080168880604D5F3
:102FF000E06921F01001216000E00120A84201DD1C
:10300000471B00E00027A1697A1902EB0900081AA2
:10301000A0612078C00602D42046AFF300800026CD
:1030200008E0D4E901211AF806009047206A401C04
:10303000761C20624E45F4DB2078C0060AD5204677
:10304000AFF3008006E0D4E9012130209047206AE8
:10305000401C2062381EA7F10107F4DC07E0D4E928
:10306000012118F805009047206A401C2062281EA4
:10307000A5F10105F3DC2046AFF3008020780006BF
:1030800002D50220BDE8F0870120FBE7074B70B5B1
:103090000D467B4400F015F80446284600F024F85D
:1030A00010B14FF0FF3070BD204670BDCFDEFFFF86
:1030B000004870476402002001694A1C02610878D8
:1030C000704700B58FB0CDE9013100210591054968
:1030D0007944CDE9031011466846FFF7FFFE0FB0B3
:1030E00000BD0000E5FFFFFF007B00F0800070479F
:1030F00000487047640200207546FFF7F9FFAE46AE
:1031000005006946534620F00700854618B020B5F3
:10311000FEF79AF8BDE820404FF000064FF0000798
:103120004FF000084FF0000B21F00701AC46ACE86F
:10313000C009ACE8C009ACE8C009ACE8C0098D46DC
:10314000704710B50446AFF300802046BDE810403C
:10315000FDF73AB82DE9F04106460F4600F0E6FAD1
:10316000041E0D4618BF0120284320F00040C0F186
:103170007F6000F1E040C00F0ED0301C18BF01206E
:10318000384320F00040C0F17F6000F1E040C00F04
:1031900004BF0120FFF71BFF20462946BDE8F08150
:1031A0002DE9C04130B4DFF8A0C23CEA111418BFC9
:1031B0003CEA131400F0EC8081EA03051CEA1114C8
:1031C00044EAD57418BF1CEA131500F0C780A4EBBD
:1031D00005044FF0004545EAC12145EAC32341EA11
:1031E000505143EA525304F17F74994204F500347C
:1031F0004FEAC0204FEAC22208BF904200F09C80F4
:103200004FEA13650FF24016765D4FEA134506FB51
:1032100005F7C7F1807706FB07F74FEAD737A7FB1B
:1032200003687642C8F58038A7FB06CE38BFA8F100
:10323000010807FB08E64FF0000EA6FB028CE6FB38
:1032400003CEDCF1000CCEF1004E38BFAEF1010E22
:10325000A6FB0C584FF000074FF00005E6FB0E8769
:10326000A1FB08C6A0FB07CE16EB0E0645F1000534
:10327000E1FB076515F1E04E7EBFA4F580345FEAFF
:1032800046066D4116F1800745F100054FEA172704
:103290004FEA066647EA0567A6F1DE46B6F1805FAB
:1032A0004FEA15251FD9384624F0010C05EBC471EF
:1032B000BCF1FE6F01EB0C1102D8F0BCBDE800813F
:1032C00024425CBF01F5801E9EEAC47F02D4F0BC9C
:1032D000BDE80081244238D4F0BCA1F1C041BDE872
:1032E000004100F01DBA4FEAD22242EA43524FEAAF
:1032F000D323A7FB02864FEAD02040EA415007FBC8
:1033000003661EEA0E0F4FEAD12105FB026658BF85
:10331000A6EB0056B6EB00564FEA520E4EEAC37EBD
:1033200018EB0E0E56EB530EBDD518EB02085E419E
:103330007F1C55F10005B6E74FF480154FF00007EC
:103340004FF000064FF00008ADE7F0BC4FF0000072
:1033500001F1C04101F00041BDE8008111EA0C1FFC
:103360000CEA131500D00CE013EA0C1F00F02580C6
:103370004FF00000F0BC81EA030101F00041BDE81C
:103380000081F0BCBDE8004181EA030100F0C8B94A
:10339000F0BCBDE8004170B500F074F9097EFC3E58
:1033A00000F007B881EA03014FF0000001F000418E
:1033B000704781EA030100F0B3B9F0BCBDE80041F9
:1033C0004FF0000021497047FFFDFBF9F7F5F4F2DB
:1033D000F0EEEDEBE9E8E6E4E3E1E0DEDDDBDAD8B0
:1033E000D7D5D4D3D1D0CFCDCCCBCAC8C7C6C5C40E
:1033F000C2C1C0BFBEBDBCBBBAB9B8B7B6B5B4B325
:10340000B2B1B0AFAEADACABAAA9A8A8A7A6A5A40F
:10341000A3A3A2A1A09F9F9E9D9C9C9B9A999998D3
:103420009797969595949393929191908F8F8E8E76
:103430008D8C8C8B8B8A8989888887878685858403
:1034400084838382828181800000FF070000F87FEF
:103450004FEA41034FEA5353A3F58063D3F11E03B0
:10346000C8BFD3F1210C0CDD4FF0004242EAC1226B
:1034700042EA505232FA03FC8CEAE17CACEBE17098
:103480007047102BC4BF0020704703F5787CBCF157
:10349000FF3F04D06FF0004282EA2100704770B510
:1034A00000F0F0F84992248000207047F2E7000015
:1034B0004FEA1153A3F58063D3F11E03A8BFD3F1E4
:1034C000200C08DB4FF0004242EAC12252EA50527F
:1034D00032FA03F0704709420BD4102BC4BF00200E
:1034E000704703F5787CBCF1FF3F05D04FF0FF300B
:1034F00070474FF00000704770B500F0C3F800BF90
:103500004992248000207047F0E7B0FA80F310FA67
:1035100003F10AD0C3F11D0303F580634FEA415064
:103520004FEA035202EBD12170474FF00000704781
:10353000DFF848C170B51CEA111E1EBF1CEA131546
:103540009EEA0C0F95EA0C0F00F06F8081EA0304ED
:1035500023EA4C134EEAD47E21EA4C1141F4801147
:1035600043F48013AE44A1FB024CA0FB0365AEF113
:103570007F7E361955EB0C05A1FB034C4CF1000383
:10358000A0FB021C16EB0C06654153F10003094237
:1035900018BF46F0010613F4007F0BD14FEA033148
:1035A0004FEA0530340341EA155140EA16506FF0F6
:1035B00003020AE04FEAC3214FEAC520F40241EAC0
:1035C000555140EA56506FF0020202EB2E4201EBD9
:1035D000025585EACE710AD05FEA440C18BF24F088
:1035E000004450F1000041F1000120EAD47040F2A3
:1035F000FE7C624500D270BDA84214BF4FF08044EB
:103600004FF04044002E08BF0024BEF1806FA8BFD9
:10361000A1F1C041BDE8704080F282804FF000000F
:1036200001F1C04101F0004170479EEA0C0F0CEA25
:10363000131518BF95EA0C0F06D04FF0000081EA71
:10364000030E0EF0004170BD00F01CF88900013E31
:1036500000F007B800F009B84FEA430C5FEA5C5C81
:1036600008D081EA030100F05BB84FEA410C5FEA41
:103670005C5CF6D14FF00000014970470000FF0785
:103680000000F87F0EF1020E2EF0030E5EF8046BC0
:10369000364205D4012A43EB030515F5001F12D865
:1036A000012841EB010C1CF5001F0CD80ED14FEA8C
:1036B000D17C15F5001F0CEB4C0C0CF1020C08BF73
:1036C0004CEBD37C04E04FF0080C01E04FEAD37CD4
:1036D0000CEB4C0526FA05F606F00706B6F1040CCD
:1036E00006D20EEB860CBDE870404CF0010C604732
:1036F000DFE80CF0090B02024FF000414FF0000030
:10370000A1F5002170BD19461046012851EB0104B6
:1037100018BFD4F5001484BF002001F0004170BD33
:103720000808A0F500114FEA310170472DE9F0417A
:1037300001F5801CBCF5001FC0F2C3804FEA115C8C
:1037400021EA0C510CF1FD0C41F480115FEA5C0C94
:103750000CF5C07C01D3400049413DA4890241EAF7
:10376000905187028E0E0A0CA45D04FB04F602FB46
:1037700006F6C6F14046A4FB0662F60D46EA42266E
:1037800006FB06F4A4FB01235242C3F1404338BFB9
:103790005B1EA6FB02420024E6FB0324D20B42EA96
:1037A0004446A6FB0623A1FB02E2A3FB07E4A41800
:1037B0004FF0000252F10002E3FB01426442C2F109
:1037C000404E38BFAEF1010EA6FB04234FF00002BD
:1037D000E6FB0E32A2FB03464FF00004B61954F18B
:1037E0000004E2FB0264A1FB06E6A4FB07E816EB7B
:1037F00008064FF0000858F10008E4FB0168764223
:10380000C8F1405838BFA8F10108A2FB06E4A3FBA9
:1038100008E52D194FF0000454F10004E2FB0854B0
:10382000A1FB05E6A7FB04E818EB06084FF000062D
:1038300056F10006E1FB048618F1200556F100065A
:10384000A809A8F11B08B10908F03F08B8F10A0F50
:1038500040EA86601CD901EB0C51BDE8F08100BF45
:10386000FCF5EEE8E2DDD8D3CFCBC7C3C0BDB9B617
:10387000B4B1AEACA9A7A5A3A19F9D9B9A9896951C
:103880009392908F8D8C8B898887868584838281A3
:10389000A0FB006800FB01F208EB4208B8EB8728A8
:1038A00007D5341858EB0104D5D5401C51F100015F
:1038B000D1E7341A78EB0104CDD4401E71F1000138
:1038C000C9E75FEA4C0C5FEA9C5C0DD105D34FF071
:1038D000000001F00041BDE8F081BDE8F04170B5A5
:1038E000FFF7D0FE6DDBFFBEBDE8F0414FF00000FA
:1038F000004970470000F87F43004FEAD30C4FEABD
:103900003C0C43401FBF40070CF1605113F0FE4FC9
:1039100070471CF0006F03D100200CF0004170478D
:103920000CF0004343EA507010B540EACC0000F0C0
:10393000BAF900BF000000924FEA0001FFF7F0BEA5
:103940004FF000414FF00000A1F50021704700004A
:103950004FF47F0C1CEAD0121EBF1CEAD11392EA6E
:103960000C0F93EA0C0F00F0858090EA010F48BF1E
:1039700042F4807240F4000C41F400002CF07F41CE
:1039800020F07F4000B58142A2EB03020FF2081C39
:10399000ACEB504EC0F100009EF800E04FEA4E0E36
:1039A00000FB0EFC38BF49004FEA2C1C02F5FA025E
:1039B0000CFB0EF34FEACE1E4FEA112C4FEAC12149
:1039C0000EEB635E42EB22420EFB0CFC4FEA1C53F3
:1039D00000FB03114FEA112C4FEA01310EFB0CFCE6
:1039E0004FEADC4C00FB0C11C14228BF09184CEB1C
:1039F00003335DF804EB10EB410143EBC250B2F529
:103A00007C0F38BF704729D512F0F00F1CBF00F1B2
:103A1000C04000F000407047008182838485868723
:103A200088898B8C8D8E8F919293959697999A9C7D
:103A30009D9FA0A2A3A5A7A8AAACAEB0B2B3B5B7EC
:103A4000B9BCBEC0C2C5C7C9CCCED1D4D7D9DCDFC2
:103A5000E2E6E9ECF0F3F7FAFE0000004FEA400C72
:103A60000CF1807CBCF17E4F28BF7047B0F1C040A4
:103A700000F05FB990EA010F0CEAD11348BF42F49D
:103A80008072624538BF634507D213F47F0F16D0AA
:103A900080EA010000F00040704710B500F003F923
:103AA000097EFC3E00F005B880EA010000F000400D
:103AB000704780EA010000F0004000F03AB912F4CB
:103AC0007F0F04BF0248704780EA010000F031B95F
:103AD0000000C07F41000B0ED3F19E0208D950F4C4
:103AE00000034FEA032323FA02F048BF4042704725
:103AF00010B500F0D8F800BF49922480002070472C
:103B00006FF0004282EA200070470000C10DD1F141
:103B10009E0206DB4FEA002343F0004323FA02F043
:103B20007047004207D54FEA4001B1F1FE4F02D283
:103B30004FF00000704710B500F0B5F849922480AE
:103B4000002070476FEA20007047000010F000412D
:103B500048BF4042B0FA80F310FA03F2C3F19D036C
:103B60000BD051EAC35101EB1220530638BF704706
:103B700000F1010008BF20F001007047B0FA80F3A7
:103B800010FA03F2C3F19D030AD0D90501EB12200C
:103B9000530638BF704700F1010008BF20F0010054
:103BA000704700004FF47F0C1CEAD0121EBF1CEAC5
:103BB000D11392EA0C0F93EA0C0F00F0478090EAC1
:103BC000010F48BF42F480724FF0004C4CEA0020D5
:103BD0004CEA012102EB0302A0FB0113A2F5000253
:103BE000002918BF43F001035B0028BF4FEA3303ED
:103BF00042EB22425FEA132C4CEBC2502EBFBCEBCF
:103C0000436FB2F57C0F70474FEA036CBCF1004F75
:103C100008BF20F00100B2F57C0F38BF70470BD50C
:103C200082F0FF0212F5803FC8BF704700F1C0402C
:103C3000D8BF00F00040704700F5000C5FEA4C0C64
:103C400048BF7047B0F1C04000F073B890EA010F70
:103C50000CEAD11348BF42F48072624538BF634515
:103C600004D280EA010000F00040704710B500F077
:103C70001AF800BF8900013E00F007B800F009B84B
:103C80005FEA410C5FEA1C6C08D080EA010000F09A
:103C900050B85FEA400C5FEA1C6CF6D14FF0004070
:103CA000A0F5800070470EF1020E2EF0030E5EF8B4
:103CB000044B244204D44FEA4102B2F17F4F11D8A1
:103CC0004FEA4003B3F17F4F0CD80ED14FEAD07CBE
:103CD000B2F17F4F0CEB4C0C0CF1020C08BF4CEB1B
:103CE000D17C04E04FF0080C01E04FEAD17C0CEBF2
:103CF0004C0324FA03F404F00704B4F1040C06D2D4
:103D00000EEB840CBDE810404CF0010C6047DFE87E
:103D10000CF0070802024FF00040A0F5800010BD33
:103D20000846420018BFD2F1807288BF00F0004000
:103D300010BDFF2141EAD050C00570475C3D00082E
:103D400000000020900000006C010008EC3D00081D
:103D500090000020380800008801000800000000E2
:103D6000580200009600000096000000320000009B
:103D700000A24A0400000000000000000102030449
:103D80000607080901003313C70C000000000000FB
:103D90000000000000000000000100000000000022
:103DA0000000000000000000000000000000000013
:103DB0000000000000000000000000000000000003
:103DC00000000000000000000000000000000000F3
:103DD00000000000000000000000000001020304D9
:0C3DE0000102030406070809020406089B
:0400000508000131BD
:00000001FF
