:020000040800F2
:10000000700800209D0F0008490200084B020008FC
:100010004D0200084F0200085102000800000000D5
:100020000000000000000000000000005302000873
:10003000550200080000000057020008590200089D
:10004000B70F0008B70F0008B70F0008B70F000878
:10005000B70F0008B70F0008B70F0008B70F000868
:10006000B70F0008B70F0008B70F0008B70F000858
:10007000B70F0008B70F0008B70F0008B70F000848
:10008000B70F0008B70F0008B70F0008B70F000838
:10009000B70F0008B70F0008B70F0008B70F000828
:1000A000B70F0008B70F0008B70F0008B70F000818
:1000B000B70F000875070008B70F0008B70F000852
:1000C000B70F0008B70F0008B70F0008B70F0008F8
:1000D000B70F0008CB0B0008CD0C0008B70F0008C5
:1000E000B70F0008B70F0008B70F0008B70F0008D8
:1000F000B70F0008B70F0008B70F0008B70F0008C8
:10010000B70F0008B70F0008B70F0008B70F0008B7
:10011000B70F0008B70F0008510A0008B70F000812
:10012000B70F0008B70F0008B70F0008B70F000897
:1001300000F002F800F03FF80AA090E8000C8244BA
:100140008344AAF10107DA4501D100F034F8AFF297
:10015000090EBAE80F0013F0010F18BFFB1A43F0A5
:10016000010318476433000084330000103A24BFB1
:1001700078C878C1FAD8520724BF30C830C144BF0C
:1001800004680C607047000000230024002500264E
:10019000103A28BF78C1FBD8520728BF30C148BFEA
:1001A0000B607047642902F06182002070471FB520
:1001B0001FBD10B510BD02F0BDFB1146FFF7F7FFE4
:1001C00000F008F802F0DBFB03B4FFF7F2FF03BC1A
:1001D00000F0A4FC4FF4A06000F000FF00F052FC1F
:1001E00000F0F6F84FF4E134204600F0A1FC204680
:1001F00000F019FD00F026F923214FF6FF7000F002
:100200008FF940F21F1141F2873000F09BFB00F0A4
:10021000D7F9142000F064FC01240026094D00F0F9
:1002200084FD00F018FE012000F026F9022801D11B
:10023000C5F89441012000F01FF90328EFD1C5F85B
:100240009461ECE7008021427047FEE7FEE7FEE79D
:10025000FEE7704770477047704700000CB50022FA
:10026000019200925248016841F4803101604FF4DC
:10027000A063016801F4003100910199491C0191CA
:10028000009911B901999942F3D10168890302D506
:100290000121009100E000920099012930D14549E7
:1002A0000A6842F010020A600A6822F003020A603B
:1002B0000A6842F002020A60416841604168416098
:1002C000416841F480614160416821F47C114160E2
:1002D000416841F4E8114160016841F080710160BA
:1002E00001688901FCD5416821F003014160416842
:1002F00041F0020141604168C1F381010229FAD154
:100300000CBDABE710B52A48016841F0010101605E
:100310004168294A114041600168284A1140016042
:10032000016821F480210160416821F4FE014160EF
:100330004FF41F018160FFF7E4FF21494FF0006097
:10034000086010BD10B51A4A506800F00C011D4B32
:100350001D4800290ED004290ED008290ED00360B4
:100360005168194AC1F30311121D515C0268CA4059
:10037000026010BD0360F3E70360F1E7516801F428
:100380007011536803F48033022404EB914133B1BC
:1003900053689B0307D50D4B59430160E0E70B4BB6
:1003A00059430160DCE7074B59430160D8E700007F
:1003B00000100240002002400000FFF8FFFFF6FEA0
:1003C00008ED00E000127A000000002000093D0066
:1003D000F8B501214C2001F0CCF82026ADF80060E2
:1003E00010248DF8034003258DF80250124F694602
:1003F000384600F0B8FE2021384600F023FFADF863
:1004000000600E4E6946304600F0ADFE20213046B9
:1004100000F018FF0220ADF800008DF803408DF8C1
:100420000250074C6946204600F09DFE02212046FE
:1004300000F008FFF8BD0000000C0140001801406A
:100440000008014008B50121442001F092F818206D
:10045000ADF8000048208DF8030069462D4800F0F3
:1004600082FE0120ADF8000028208DF803006946C7
:10047000294800F078FE08BD2DE9F0410125274C00
:10048000002800D025702078234E224F78B110210B
:10049000384600F0C3FE88B10821384600F0BEFEA1
:1004A00060B10121304600F0B9FE012806D01021CC
:1004B000384600F0B3FE01281DD028E00A2000F0E5
:1004C0000FFB002020701021384600F0A7FE58B125
:1004D0000821384600F0A2FE48B10121304600F064
:1004E0009DFE012805D012E00120BDE8F081022028
:1004F000FBE70320F9E70821384600F08FFE0128CA
:1005000005D10121304600F089FE00B92570002098
:10051000EBE7000000180140000801401400002033
:10052000F0B589B006460F460121042001F021F8FC
:100530000121022001F028F818228DF82320402004
:10054000ADF8200001258DF8225008A92E4800F0B2
:100550000AFE0024ADF81A40ADF81640ADF8186058
:10056000ADF81470294F05A9384601F041F91D2056
:100570008DF810008DF8135002268DF811608DF85B
:10058000124004A800F02FFD3020ADF80000ADF8B7
:100590000860ADF80250ADF806406946384601F0F3
:1005A00060F90021384601F0F7FC0121384601F0DE
:1005B000F0FB01220221384601F005FC09B0F0BD34
:1005C0003EB50121102000F0DFFF40F6B830ADF855
:1005D000040040F2CF20ADF800000D4C69462046E3
:1005E00001F006F90121204601F01DFE012211460D
:1005F000204601F0E8FB0121204601F0CAFB002162
:10060000102000F0C1FF3EBD000801400004004082
:10061000001000400221C24800F014BE0221C04870
:1006200000F012BE2DE9FF4F83B0044688461746FE
:10063000DFF8F0B29BF80000002878D1012681464F
:100640000BF11805002C03DA85F80190644200E0F4
:100650006E70012C37D0002C6DD0069802F054FE3D
:100660000146B14802F052FD02F012FE28614046F8
:1006700002F04AFE82460146AC4802F047FD02F015
:1006800019FD02F085F90022A94B02F02FFB002290
:10069000A84B02F0A3F902F0F9FA68605046A649A7
:1006A00002F046FEA54902F031FD8246069840431D
:1006B00002F02AFE514602F029FD02F005FE0290EA
:1006C000029848B109E04FF0FF30686102202870BD
:1006D0004FF47A7068602EE0029604FB07F008EB96
:1006E0000701B0FBF1F00190019800B90196DDE936
:1006F0000101884203D80198001BE86006E00298D7
:1007000000FB08F0B0FBF7F04042E860E86810B981
:100710004FF0FF30E860E8682044A8606868296905
:10072000884205DC286968600320287001E01EE02B
:100730002E70C5F814908BF80060FFF76FFF804CA7
:100740000121204601F025FB696801EBD1707C494D
:100750002431098801EB600179483430018007B009
:100760002046BDE8F04F0122022101F02CBB07B06A
:10077000BDE8F08F2DE9F041714F0221384601F0BC
:1007800055FD002873D0674C183460686C4900EB45
:10079000D0702431098801EB600069493431088048
:1007A000604D6878401C68706878022878D100260F
:1007B0006E70217841B102230122012917D002294C
:1007C00074D0032912D153E02E616E610022022100
:1007D000384601F0F8FAFFF71DFF0021384601F016
:1007E000D8FA2E70FFF716FFFFF714FF89E0E868CC
:1007F000401CE8602869401C28616078012828D0E6
:10080000A868401EA8606069401C606160686969F2
:1008100001EB4000616902EB810190FBF1F061683E
:10082000081A80B268806168D5F814C00CEB4101E9
:10083000D4F814C002EB8C0291FBF2FC02FB1C11F9
:100840006961A1682A69914207D8E06860612370F4
:1008500057E0A868401CA860D5E72169814250DBB9
:10086000A880206968806E610320207049E054E010
:10087000E868401CE8602869401C2861607801280D
:1008800010D0A868401EA86020696880A068296907
:10089000884236D8E0686061A8886880237030E0BC
:1008A00031E003E0A868401CA860EDE72869401C1F
:1008B0002861E868401CE8606078012829D0A868B1
:1008C000401EA8606069401C60616068696901EB56
:1008D0004000616902EB810190FBF1F06168081A48
:1008E00068806068696901EB4000616902EB810121
:1008F00090FBF1F201FB120068616069002800DBE7
:100900002670688860603846BDE8F041022101F039
:1009100099BCA868401CA860D4E7BDE8F08100003D
:100920000008014018000020E86519477B5944443D
:1009300080D8F04000002440DA0F493F00002041F9
:100940000004004030B589B004460D460121042062
:1009500000F01AFE0121082000F00BFE4022ADF845
:10096000202018228DF8232003228DF8222008A9A8
:10097000404800F0F8FBADF81840ADF814500020E6
:10098000ADF81A00ADF816003B4C05A9204600F062
:100990002FFF7021ADF804100121ADF806100221DF
:1009A000ADF80C1001A9204600F05BFF082120469D
:1009B00001F0F2FA0121204601F0EBF909B030BD57
:1009C00070B504462C4E2D4D012C09D16988B1F526
:1009D0002A7F05D2C91D89B26980304601F0FEFB2D
:1009E000022C0AD16888872807D9C01F81B2698084
:1009F0003046BDE8704001F0F1BB70BD70B51F4CD2
:100A00002178002923D01C4D01290DD16288B2F52F
:100A10002A7F09D2A188491CA18002EB410081B242
:100A20006180284601F0DAFB207802280FD1628825
:100A3000872A0CD9A188491EA180484202EB4000B8
:100A400081B261802846BDE8704001F0C7BB70BD2F
:100A500010B50B4C0121204601F0E8FB002807D01F
:100A6000FFF7CCFF2046BDE81040012101F0EABBB2
:100A700010BD0000000C01400008004048000020AC
:100A80000010004010B56FF0040000F0EFFA2048AD
:100A900020490068B0FBF1F01F49C0B2087000EBBC
:100AA0004002C2EBC0104FF6FF7202EAC00048805D
:100AB00010BD1949097848434FF0E02148610023EF
:100AC0008B61086940F0010008610869C20701D024
:100AD000C003FAD5086920F0010008618B617047F6
:100AE0000D49498848434FF0E021486100238B615C
:100AF000086940F0010008610869C20701D0C0031D
:100B0000FAD5086920F0010008618B617047000088
:100B10000000002000127A004E0000207047F349C8
:100B20000A885206FCD5F14AC1B2121D11807047E5
:100B300070B586B00446012144F2040000F019FDAE
:100B40004FF40071ADF8141003258DF816501821DC
:100B50008DF81710E64E05A9304600F004FB31155C
:100B6000ADF8141004218DF8171005A9304600F0D7
:100B7000FAFA25218DF800108DF8015002208DF829
:100B8000020001208DF80300684600F02CFA019461
:100B90000020ADF80800ADF80A00ADF80C00ADF883
:100BA00010000C20ADF80E00D04C01A9204601F039
:100BB00095FB012240F22551204601F016FC01214F
:100BC000204601F006FC06B070BD70B5C74C40F27F
:100BD0002551204601F0D6FC00280ED0204601F019
:100BE0005DFCC1B2C34A1088030406D444044FF02C
:100BF000000307D50A2901D0138070BD40F40040DE
:100C0000108070BD0D290AD0BB4DC0F30D042955CD
:100C1000401C80B21080C728F3D9138070BD40F407
:100C20008040108070BD2DE9F04186B0044601215E
:100C3000480400F0A9FC0121042000F09AFCAF4F09
:100C4000384601F003FB0426ADF8146003258DF847
:100C5000165018208DF81700DFF8948205A9404639
:100C600000F081FA0820ADF814008DF8176005A98E
:100C7000404600F078FA01940024ADF80840ADF841
:100C80000A40ADF80C40ADF810400C20ADF80E0055
:100C900001A9384601F022FB26208DF800008DF8CE
:100CA00001508DF8024001208DF80300684600F0E5
:100CB0009AF9012240F22551384601F096FB0121B4
:100CC000384601F086FB06B0BDE8F08170B58B4C6C
:100CD00040F22551204601F055FC00280ED0204658
:100CE00001F0DCFBC1B2834A5088030406D44404FB
:100CF0004FF0000307D50A2901D0538070BD40F49E
:100D00000040508070BD0D290BD07B4DC0F30D0409
:100D1000C8352955401C80B25080C728F2D953806D
:100D200070BD40F48040508070BD2DE9F041DFF887
:100D3000C481B8F8020001047DD5C5B2294670A06F
:100D400001F054FC00246C4E684FC8360BE0315D56
:100D5000384601F09FFB4021384601F008FC01288D
:100D6000F9D1641CE4B2AC42F1D3052D04D0062DB8
:100D700037D0092D5CD14FE05F4962A0C83101F046
:100D8000D3FC90B15C4961A0C83101F0CDFC98B1B1
:100D9000594960A0C83101F0C7FCA0B156495FA015
:100DA000C83101F0C1FCA8B142E05348C821C830A5
:100DB00001F098FC012087E74F48C821C83001F0B6
:100DC00091FC022080E74C48C821C83001F08AFC21
:100DD000032079E74848C821C83001F083FC04208B
:100DE00072E745494FA0C83101F09EFC30B142493D
:100DF0004EA0C83101F098FC38B119E03E48C82136
:100E0000C83001F06FFC05205EE73B48C821C830C0
:100E100001F068FC062057E7374946A0C83101F0C9
:100E200083FC50B1344946A0C83101F07DFC58B173
:100E30000020A8F80200002046E72F48C821C8304B
:100E400001F050FC07203FE72B48C821C83001F0D3
:100E500049FC082038E770B5002426493B4D3C4A40
:100E6000082841D2DFE800F040043923400C321456
:100E70000120FFF7A5FDBDE8704036A001F0B6BB2C
:100E80000220FFF79DFDBDE8704035A001F0AEBB2C
:100E900088884FF4C8628B6850430A69C968FFF7B5
:100EA000C1FB2C60BDE8704030A001F09FBB88887A
:100EB0004FF4C8628B6850430A69C968FFF7B2FBF8
:100EC0002C60BDE870402CA001F090BB0120107098
:100ED000BDE870402BA001F089BB02201070BDE876
:100EE00070402BA001F082BB70BD000000380140B3
:100EF0000008014054000020800000200044004011
:100F0000256400006C656674730000006C6566748F
:100F10006C0000006261636B730000006261636BD0
:100F20006C0000007269676874730000726967681A
:100F3000746C0000616476616E6365737300000019
:100F4000616476616E6365736C00000024000020AC
:100F500048000020D7F3D7AAB5E3B0B400000000E2
:100F6000D3D2D7AAB5E3B0B400000000C7B0BDF833
:100F7000B5E3B0B400000000BAF3CDCBB5E3B0B434
:100F800000000000D3D2D7AAB3A4B0B40000000080
:100F9000D7F3D7AAB3A4B0B4000000000948804733
:100FA00009480047FEE7FEE7FEE7FEE7FEE7FEE74B
:100FB000FEE7FEE7FEE7FEE704480549054A064B63
:100FC000704700000503000831010008700200208E
:100FD0007008002070040020700400202A49084393
:100FE0002A490860704770B50F23C278012601783E
:100FF000002A1ED0254A126802F4E062C2F5E062BF
:10100000120AC2F10404D3404578A54082781A4000
:101010002A43120101F1E02181F80024007800F058
:101020001F018E404009800000F1E020C0F80061FF
:1010300070BD01F01F0086404809800000F1E020EB
:10104000C0F8806170BD124A114001430F48001F73
:10105000016070470D4A121D002903D01168014339
:101060001160704711688143116070474FF0E021B3
:10107000042804D0086920F004000861704708695A
:1010800040F00400086170470000FA050CED00E034
:1010900080FFFF1F10B59C49884209D1012104201F
:1010A00000F07DFA0021BDE81040042000F077BA7E
:1010B0009649884209D10121082000F070FA0021E8
:1010C000BDE81040082000F06ABA9149884209D171
:1010D0000121102000F063FA0021BDE8104010202B
:1010E00000F05DBA8B49884209D10121202000F02F
:1010F00056FA0021BDE81040202000F050BA864981
:10110000884209D10121402000F049FA0021BDE8C0
:101110001040402000F043BA8049884209D10121A3
:10112000802000F03CFA0021BDE81040802000F053
:1011300036BA7B4988420AD184150121204600F045
:101140002EFA2046BDE81040002100F028BA10BD5C
:1011500010B50121084600F022FA0021BDE8104038
:10116000012000F01CBA2DE9F0410022CC7804F0F7
:101170000F03E40601D58C7823430C784FF00F075A
:1011800014F0FF0F4FF0010C1CD005680CFA02F4AC
:101190000E882640A64211D1960007FA06F825EAE5
:1011A000080503FA06F848EA0505CE78282E02D08D
:1011B000482E02D002E0446100E00461521C082A7B
:1011C000E4D305600A88FF2A1ED94568002202F18F
:1011D00008060CFA06F40E882640A64210D19600A6
:1011E00007FA06F825EA080503FA06F848EA0505AD
:1011F000CE78282E00D14461CE78482E00D10461EB
:10120000521C082AE3D34560BDE8F0814FF6FF7118
:101210000180022181700421C170704702460020C4
:1012200092680A4200D001207047806880B27047FF
:1012300002460020D2680A4200D001207047C068F0
:1012400080B270470161704741617047002A01D048
:101250000161704741617047C160704741F480325D
:1012600082618161826181698069704710B52D4B0F
:101270001A684FF68074224042EA00100843186052
:1012800010BD2949C8617047F0B5264C002801DA25
:10129000E36900E06368C0F30346420D120185B2C2
:1012A000C0F301579540032F07D0C2020CD503228B
:1012B000B240934343F0706209E023F070626368C8
:1012C00023F07063636002E0AB4343F0706201B1EE
:1012D0002A43002801DAE261F0BD6260F0BD10B57A
:1012E0008A07120F0F23934021F003040D49214474
:1012F0008C689C438C608B68904003438B6010BD6E
:101300000949DC310860704700080140000C0140C9
:10131000001001400014014000180140001C014071
:10132000002001400000014000002042B448016854
:1013300041F0010101604168B24A11404160016819
:10134000B14A11400160016821F4802101604168C7
:1013500021F4FE0141604FF41F0181607047A849EC
:101360000A6822F480320A600A6822F480220A6045
:10137000B0F5803F07D0B0F5802F03D1086840F466
:10138000A02008607047086840F48030086070470B
:101390000346002059099A4A01290AD002290AD095
:1013A000516A03F01F02012393400B4200D0012039
:1013B00070471168F5E7116AF3E718B5002000904F
:1013C0004FF4A0643120FFF7E3FF0099491C00911E
:1013D0000099A14201D00028F4D03120FFF7D8FFB6
:1013E00008B1012018BD002018BD854A116821F000
:1013F000F80141EAC00010607047844908607047F6
:101400007F4B5A6822F47C1208431043586070479F
:101410007E49086670477A4A516821F0030101430A
:10142000516070477648406800F00C007047744A7D
:10143000516821F0F001014351607047704A5168D2
:1014400021F4E0610143516070476D4A516821F415
:10145000605141EAC00050607047694A002903D0DA
:10146000517A014351727047517A814351727047EA
:101470006649D83108607047614A516821F440419B
:101480000143516070475E49002220310A7001F823
:101490002029012805D0042802D1052081F8200048
:1014A0007047012081F82000704759490860704753
:1014B00053490A6A02430A62704755494439086031
:1014C000704710B54E4A516801F00C01514B00298C
:1014D00027D0042927D0082927D00360516801F0BC
:1014E000F00109094C4B5C5C0168E14041605468C3
:1014F00004F4E064240A1C5D21FA04F48460546856
:1015000004F46054E40A1B5DD940C160526802F4DF
:101510004042920B404B1B1F9A5CB1FBF2F1016100
:1015200010BD0360DAE70360D8E7516801F4701179
:10153000536803F48033022404EB914133B15368C0
:101540009B0307D5354B59430160C7E7334B5943DC
:101550000160C3E72F4B59430160BFE7284A0029C8
:1015600003D0516901435161704751698143516111
:101570007047234A002903D0916901439161704764
:1015800091698143916170471D4A002903D0D16957
:101590000143D1617047D1698143D1617047184AD5
:1015A000002903D0D1680143D1607047D1688143DD
:1015B000D1607047124A002903D0116901431161BB
:1015C00070471169814311617047114940390860C2
:1015D00070470E49C86470470949C8717047084888
:1015E000416A41F080714162704701460020044A1F
:1015F00092680A4200D00120704701498872704702
:10160000001002400000FFF8FFFFF6FE000042421B
:101610008004424200127A007000002000093D0060
:1016200010B5FE4988420AD1C41401212046FFF7B3
:10163000B6FF2046BDE810400021FFF7B0BFB0F173
:10164000804F0CD0F649884213D101210220FFF7C8
:10165000B1FF0021BDE810400220FFF7ABBF012120
:101660000846FFF7A7FF0021BDE810400120FFF763
:10167000A1BFEC49884209D101210420FFF79AFF5C
:101680000021BDE810400420FFF794BFE6498842DE
:1016900009D101210820FFF78DFF0021BDE810408E
:1016A0000820FFF787BFE149884209D101211020B6
:1016B000FFF780FF0021BDE810401020FFF77ABF40
:1016C000DB49884209D101212020FFF773FF002167
:1016D000BDE810402020FFF76DBFD64988420AD1EF
:1016E000441401212046FFF75AFF2046BDE8104070
:1016F0000021FFF754BFD04988420AD10121CC0410
:101700002046FFF74CFF2046BDE810400021FFF7C0
:1017100046BFCA4988420AD101210C052046FFF77D
:101720003EFF2046BDE810400021FFF738BFC44906
:1017300088420AD101214C052046FFF730FF2046A0
:10174000BDE810400021FFF72ABFBE49884209D1F9
:1017500001214020FFF72EFF0021BDE8104040206E
:10176000FFF728BFB849884209D101218020FFF73F
:1017700021FF0021BDE810408020FFF71BBFB349C7
:1017800088420AD1841501212046FFF713FF204625
:10179000BDE810400021FFF70DBFAD4988420AD1D6
:1017A00001210C042046FFF7FAFE2046BDE8104058
:1017B0000021FFF7F4BEA74988420AD101214C0459
:1017C0002046FFF7ECFE2046BDE810400021FFF761
:1017D000E6BEA14988420AD101218C042046FFF7C8
:1017E000DEFE2046BDE810400021FFF7D8BE10BD48
:1017F00030B50288894C8F4DA0420DD0A8420BD045
:10180000B0F1804F08D0864B984205D0854B984266
:1018100002D0854B984203D122F070034A881A43C4
:10182000824B984206D0824B984203D022F44073F8
:10183000CA881A4302808A8882850A880285A04263
:101840000AD0A84208D0824A904205D0814A9042EC
:1018500002D0814A904201D1097A01860121818218
:1018600030BD30B5028C22F001020284028C8388E4
:10187000048B24F0700424F003050C882C4322F020
:1018800002020D8915434A882A43644DA8420BD0B1
:10189000684DA84208D06E4DA84205D06D4DA842B3
:1018A00002D06D4DA8420FD122F008054A892A4383
:1018B00022F004058A882A4323F4807323F40073FA
:1018C0008D891D43CB892B4383800483C9888186FE
:1018D000028430BD70B5028C22F010020284028CAA
:1018E0008388048B24F4E04424F440760D884FF67A
:1018F000FF7404EA0525354322F020020E8904EA2C
:10190000061616434A8804EA02123243434EB04296
:1019100002D0484EB04217D122F080024E8904EA2C
:101920000616164326F040068A8804EA021232435D
:1019300023F4806323F400638E8904EA86061E4341
:10194000CB8904EA8303334383800583C9880187F5
:10195000028470BD70B5028C22F480720284028C05
:101960008388848B24F0700424F003040D882543BD
:1019700022F400720E894FF6FF7404EA062616431D
:101980004A8804EA02223243244EB04202D0294E51
:10199000B04217D122F400664A8904EA0222324397
:1019A00022F480668A8804EA0222324323F48053B8
:1019B00023F400538E8904EA06161E43CB8904EAF9
:1019C0000313334383808583C9888187028470BD74
:1019D00070B5028C22F480520284058C8288838B3D
:1019E00023F4E04323F440760C884FF6FF7303EAB8
:1019F0000424344325F400550E8903EA06362E43A9
:101A00004D8803EA05353543044EB04202D0094EF5
:101A1000B04226D122F480468A891FE0002C014082
:101A20000004004000080040000C0040001000408E
:101A30000014004000340140004C014000500140BF
:101A40000054014000180040001C004000200040ED
:101A500000400140004401400048014003EA821276
:101A6000324382808483C988A0F84010058470BD09
:101A7000828B22F440628283828B4FF6FF7303EAEB
:101A800001210A4382837047F0B5048C24F480540A
:101A90000484868B048C4FF6FF7505EA013726F423
:101AA000734605EA0222324305EA03331343F74A39
:101AB00090420ED0F64A90420BD0B0F1804F08D041
:101AC000F44A904205D0F44A904202D0F34A904240
:101AD00005D124F40051394341F4805104E024F449
:101AE00002420A4342F4805183830184F0BD828B19
:101AF00022F00C028283828B0A4382837047F0B506
:101B0000048C24F480740484858B048C4FF6FF7756
:101B100007EA012625F0F30507EA031313432B43D5
:101B2000DA4A90420ED0DA4A90420BD0B0F1804FA0
:101B300008D0D84A904205D0D74A904202D0D74A1E
:101B4000904205D124F40071314341F4807104E0E6
:101B500024F420620A4342F4807183830184F0BD3F
:101B6000028B22F440620283028B4FF6FF7303EA7A
:101B700001210A4302837047F0B5048C24F010045D
:101B80000484068B048C4FF6FF7505EA011726F4D2
:101B9000734605EA0333334305EA02221A43BB4B7B
:101BA00098420ED0BA4B98420BD0B0F1804F08D07B
:101BB000B84B984205D0B84B984202D0B74B9842E8
:101BC00005D124F02001394341F0100104E024F054
:101BD000A0030B4343F0100102830184F0BD028B8C
:101BE00022F00C020283028B0A430283704770B515
:101BF000048C24F001040484058B048C25F0F30587
:101C00004FF6FF7606EA031313432B439F4A904295
:101C10000ED09F4A90420BD0B0F1804F08D09D4A21
:101C2000904205D09C4A904202D09C4A904205D1F5
:101C300024F002020A4342F0010104E024F00A0207
:101C40000A4342F001010383018470BD70B505466B
:101C50000C468E48854209D08D48854206D0B5F1A4
:101C6000804F03D08B48854200D08B482088618804
:101C7000A288238958B1042811D0082817D02846F3
:101C8000FFF702FFE1882846BDE87040F0E62846ED
:101C9000FFF7ADFFE1882846BDE870409FE7284682
:101CA000FFF76AFFE1882846BDE8704058E72846FC
:101CB000FFF725FFE1882846BDE8704017E72DE9CA
:101CC000F04107460C46002501266188002900D115
:101CD0000225A288012A00D102262088238988B102
:101CE0003846FFF749FFE1883846FFF739FF238977
:101CF000324629463846FFF77AFFE1883846BDE884
:101D0000F0416CE73846FFF772FFE1883846FFF78D
:101D100066FF2389324629463846FFF72DFFE188C2
:101D20003846BDE8F0411BE710B50A884B88CC88DF
:101D30001A438B8823431A430B891A434B89898999
:101D40001A430A43A0F8442010BD4FF6FF7181806A
:101D500000210180C1804180017270470021018013
:101D600041808180C180018141818181C181704731
:101D700000210180418001228280C1800181704761
:101D80000021018041808180C18001814181818168
:101D90007047002904D0018841F00101018070479B
:101DA000018821F0010101807047002905D030F839
:101DB000441F41F400410180704730F8441FC1F3D3
:101DC0000E0101807047002A03D082890A43828174
:101DD000704782898A4382817047818270471143AC
:101DE000A0F848107047002A03D082890A438281F4
:101DF000704782898A4382817047018921F00701F7
:101E000001817047028922F070020A430281704703
:101E100000B503461846FFF7F5FF188940F00700A4
:101E2000188100BD70B50D4604461146602D0CD0DA
:101E300001222046FFF7DBFE29462046FFF7E2FF9E
:101E4000208940F00700208170BD01222046FFF765
:101E500093FEF1E730B50489E4B24FF6FF7505EA69
:101E6000032313430B432343038130BD10B50446C2
:101E70002046FFF7EFFF208920F0070040F0070021
:101E800020F0700040F07000208110BD002C014057
:101E9000003401400004004000080040000C0040F5
:101EA00010B504462046FFF7D5FF208940F4804056
:101EB0002081EAE7018582827047028822F0700261
:101EC0000A430280704770B50589048B068C25F0A3
:101ED00007050D434FF6FC410C4040F201110C4345
:101EE00026F022064FF6FF7101EA03111143314338
:101EF00005810483018470BD028B22F070020A43C5
:101F000002837047028B22F4E0424FF6FF7303EA2C
:101F10000121114301837047828B22F070020A4332
:101F200082837047828B22F4E0424FF6FF7303EA0C
:101F30000121114381837047002904D0018841F0B9
:101F4000800101807047018821F080010180704785
:101F5000002904D0818841F0040181807047818884
:101F600021F0040181807047002904D0818841F06C
:101F7000080181807047818821F0080181807047C5
:101F8000002904D0818841F0010181807047818857
:101F900021F0010181807047028B22F008020A4380
:101FA00002837047028B22F400624FF6FF7303EA4C
:101FB0000121114301837047828B22F008020A43FA
:101FC00082837047828B22F400624FF6FF7303EA2C
:101FD0000121114381837047028B22F004020A43DE
:101FE00002837047028B22F480624FF6FF7303EA8C
:101FF0000121114301837047828B22F004020A43BE
:1020000082837047828B22F480624FF6FF7303EA6B
:102010000121114381837047028B22F080020A4321
:1020200002837047028BC2F30E024FF6FF7303EA7E
:102030000121114301837047828B22F080020A4301
:1020400082837047828BC2F30E024FF6FF7303EA5E
:102050000121114381837047028C22F002020A435E
:1020600002847047028C22F008020A4302847047FF
:10207000028C22F020024FF6FF7303EA0111114394
:1020800001847047028C22F080024FF6FF7303EA4E
:102090000111114301847047028C22F400724FF643
:1020A000FF7303EA0121114301847047028C22F47B
:1020B00000624FF6FF7303EA012111430184704768
:1020C000028C22F400524FF6FF7303EA01311143F0
:1020D0000184704710B501238B40048C9C43048419
:1020E000038C8A4013430384CFE610B504238B404E
:1020F000048C9C430484038C8A4013430384C4E609
:1021000030B500F1180301248C40058CA5430584EB
:10211000002911D008290FD0091FC1F34E0018441F
:10212000016821F4E041016001684FF6FF7303EAA2
:1021300002221143016030BD03EB5100016821F020
:102140007001016001681143016030BD002904D0B5
:10215000018841F0020101807047018821F00201ED
:1021600001807047002904D0018841F004010180FA
:102170007047018821F0040101807047002904D0D4
:10218000818841F0800181807047818821F0800141
:1021900081807047028822F00802028002880A4388
:1021A00002807047828822F07002828082880A430F
:1021B00082807047028922F00702028102890A4365
:1021C00002817047028922F08002028102890A435B
:1021D000028170478184704781857047818670478E
:1021E0000187704781877047A0F8401070470288C8
:1021F00022F44072028002880A4302807047808E77
:102200007047008F7047808F7047B0F8400070476C
:10221000808C7047008D704702460020128A0A4267
:1022200000D001207047C943018270470246002058
:10223000138A0B4092890A40002B02D0002A00D05A
:1022400001207047C94301827047000010B5E14981
:1022500088420AD101218C032046FFF7A0F92046CD
:10226000BDE810400021FFF79AB9DB4988420AD146
:1022700001214C042046FFF79DF92046BDE810409F
:102280000021FFF797B9D54988420AD101218C0472
:102290002046FFF78FF92046BDE810400021FFF7E8
:1022A00089B9CF4988420AD10121CC042046FFF7E1
:1022B00081F92046BDE810400021FFF77BB9C949EC
:1022C00088420AD101210C052046FFF773F9204608
:1022D000BDE810400021FFF76DB910BD30B585B0E5
:1022E00004460D46208A4CF6FF710840E9880143F8
:1022F0002182A0894EF6F3110840A9882A8911434A
:102300006A8902431143A181A08A4FF6FF41084028
:10231000A9890143A1826846FFF7D3F8AD488442FA
:1023200001D1039800E00298A189090408D500EBC7
:10233000C00101EB001029684900B0FBF1F007E093
:1023400000EBC00101EB001029688900B0FBF1F03F
:102350006422B0FBF2F109010B096FF018056B4321
:1023600000EB8300A3891D044FF0320307D503EB74
:10237000C000B0FBF2F000F00700084306E003EBFA
:102380000010B0FBF2F000F00F000843208105B010
:1023900030BD4FF41651016000218180C180018160
:1023A0000C2242818181704710B5038A4FF2FF02EF
:1023B00013400A884C8822438C88C9880C432243E6
:1023C0001A43028210BD0021018041808180C180BA
:1023D0007047002904D0818941F400518181704700
:1023E000818921F400518181704710B540F66A134C
:1023F000C1F3421301F01F040121A140012B07D0BA
:10240000022B07D014303AB102680A43026010BDB3
:102410000C30F8E71030F6E702688A43026010BD1E
:10242000002A03D0828A0A4382827047828A8A43C2
:1024300082827047028A22F00F020282028A0A43D5
:1024400002827047828922F40062828182890A4373
:1024500082817047002904D0818941F00201818185
:102460007047818921F0020181817047028A22F040
:1024700020020282028A0A4302827047002904D0A5
:10248000018A41F4804101827047018A21F4804130
:1024900001827047C1F30801818070478088C0F3D2
:1024A00008007047818941F0010181817047028BEA
:1024B000D2B20283028B42EA012101837047028B70
:1024C00002F47F420283028B0A4302837047002991
:1024D00004D0818A41F0200181827047818A21F0F5
:1024E000200181827047002904D0818A41F01001C7
:1024F00081827047818A21F0100181827047002912
:1025000004D0818A41F0080181827047818A21F0DC
:10251000080181827047002904D0818941F400417B
:10252000818170478189C1F30E0181817047002943
:1025300004D0818A41F4006181827047818A21F44C
:10254000006181827047828A22F004028282828A3C
:102550000A4382827047002904D0818A41F0020137
:1025600081827047818A21F0020181827047024690
:10257000002012880A4200D0012070478A05C94312
:102580000180704770B5002440F66A12C1F342130F
:1025900001F01F05012606FA05F2012B0CD0022BD3
:1025A0000DD0838A1340090A8E40008830400BB159
:1025B00000B10124204670BD83891340F3E7038AEC
:1025C0001340F0E740F66A120A0A01219140C9431C
:1025D000018070470038014000440040004800403E
:1025E000004C004000500040704700000FB4044908
:1025F00010B503AA029800F03FF910BC5DF814FB77
:10260000680000202DE9F0410E46044600202062BB
:102610002046E168884730B3252805D0D4E9012158
:102620009047206A401CF2E7E1682046002788476F
:10263000050018D0A5F14100192802D820354FF423
:1026400000673246294620462760FDF7ABFD40B1C2
:10265000012804D0F61D26F007060836D8E7361DF7
:10266000D6E72846DAE7206ABDE8F0812DE9F04197
:102670000646002410687529314616A510D0AFF320
:102680000080002802DA404213A507E031688A077B
:1026900001D512A502E0490704D511A5012401E0E6
:1026A000AFF3008000210A2206F1240709E0B0FB05
:1026B000F2FCB0FBF2F302FB1C00303078541846F9
:1026C000491C0028F3D123462A463046BDE8F04194
:1026D00000F079B8000000002D0000002B00000081
:1026E000200000004FF000020429C0F0128010F01A
:1026F000030C00F0D580CCF1040CBCF1020F18BF24
:1027000000F8012BA8BF20F8022BA1EB0C0100F070
:10271000C7B85FEAC17C24BF00F8012B00F8012B89
:1027200048BF00F8012B70474FF0013C50F8042BD4
:1027300051F8043B9A4221D1A2EB0C03934313EAD4
:10274000CC1317D150F8042B51F8043B9A4215D101
:10275000A2EB0C03934313EACC130BD150F8042BD8
:1027600051F8043B9A4209D1A2EB0C03934313EABC
:10277000CC13DBD04FF00000704700BFD01A01BA75
:10278000B1FA81F101F0180122FA01F0CB40C1F158
:102790002001DBB2C0B2C01A2CFA01F3D11A914366
:1027A00011EAC311E6D17047704770477047704710
:1027B00010B500F09BF8006810BD10B5044600F09D
:1027C00095F8046010BD2DE9F0470D4699469246F4
:1027D000044600F124080168880604D5E06921F068
:1027E0001001216000E00120A84201DD471B00E04C
:1027F0000027A1697A1902EB0900081AA061207864
:10280000C00602D42046AFF30080002608E0D4E9D9
:1028100001211AF806009047206A401C761C2062AD
:102820004E45F4DB2078C0060AD52046AFF3008081
:1028300006E0D4E9012130209047206A401C206244
:10284000381EA7F10107F4DC07E0D4E9012118F8EC
:1028500005009047206A401C2062281EA5F1010552
:10286000F3DC2046AFF300802078000602D502207A
:10287000BDE8F0870120FBE7074B70B50D467B44B0
:1028800000F03DF80446284600F04CF810B14FF037
:10289000FF3070BD204670BD9DE2FFFF4FF000028B
:1028A00000B5134694469646203922BFA0E80C5046
:1028B000A0E80C50B1F12001BFF4F7AF090728BF21
:1028C000A0E80C5048BF0CC05DF804EB890028BF9D
:1028D00040F8042B08BF704748BF20F8022B11F0C6
:1028E000804F18BF00F8012B704700000048704768
:1028F0001002002001694A1C02610878704700B587
:102900008FB0CDE901310021059105497944CDE928
:10291000031011466846FFF775FE0FB000BD0000BA
:10292000E5FFFFFF007B00F0800070470048704724
:10293000100200207546FFF7F9FFAE460500694614
:10294000534620F00700854618B020B5FEF734FB4B
:10295000BDE820404FF000064FF000074FF00008A0
:102960004FF0000B21F00701AC46ACE8C009ACE821
:10297000C009ACE8C009ACE8C0098D46704710B585
:102980000446AFF300802046BDE81040FDF71CBCB4
:102990002DE9F04106460F4600F0A6FA041E0D464A
:1029A00018BF0120284320F00040C0F17F6000F1F3
:1029B000E040C00F0ED0301C18BF0120384320F07B
:1029C0000040C0F17F6000F1E040C00F04BF012073
:1029D000FFF7F3FE20462946BDE8F0812DE9C0410E
:1029E00030B4DFF8A0C23CEA111418BF3CEA13145B
:1029F00000F0EC8081EA03051CEA111444EAD57466
:102A000018BF1CEA131500F0C780A4EB05044FF0B3
:102A1000004545EAC12145EAC32341EA505143EA52
:102A2000525304F17F74994204F500344FEAC020F8
:102A30004FEAC22208BF904200F09C804FEA136523
:102A40000FF24016765D4FEA134506FB05F7C7F116
:102A5000807706FB07F74FEAD737A7FB0368764274
:102A6000C8F58038A7FB06CE38BFA8F1010807FBE0
:102A700008E64FF0000EA6FB028CE6FB03CEDCF16D
:102A8000000CCEF1004E38BFAEF1010EA6FB0C5883
:102A90004FF000074FF00005E6FB0E87A1FB08C6CC
:102AA000A0FB07CE16EB0E0645F10005E1FB07651E
:102AB00015F1E04E7EBFA4F580345FEA46066D4115
:102AC00016F1800745F100054FEA17274FEA066621
:102AD00047EA0567A6F1DE46B6F1805F4FEA1525A5
:102AE0001FD9384624F0010C05EBC471BCF1FE6F10
:102AF00001EB0C1102D8F0BCBDE8008124425CBFA0
:102B000001F5801E9EEAC47F02D4F0BCBDE80081BE
:102B1000244238D4F0BCA1F1C041BDE8004100F02E
:102B2000DDB94FEAD22242EA43524FEAD323A7FB50
:102B300002864FEAD02040EA415007FB03661EEAB6
:102B40000E0F4FEAD12105FB026658BFA6EB0056D7
:102B5000B6EB00564FEA520E4EEAC37E18EB0E0E4D
:102B600056EB530EBDD518EB02085E417F1C55F1A4
:102B70000005B6E74FF480154FF000074FF0000650
:102B80004FF00008ADE7F0BC4FF0000001F1C0418C
:102B900001F00041BDE8008111EA0C1F0CEA131599
:102BA00000D00CE013EA0C1F00F025804FF000006D
:102BB000F0BC81EA030101F00041BDE80081F0BCF6
:102BC000BDE8004181EA030100F088B9F0BCBDE82E
:102BD000004170B500F034F9097EFC3E00F007B802
:102BE00081EA03014FF0000001F00041704781EAE3
:102BF000030100F073B9F0BCBDE800414FF00000E4
:102C000021497047FFFDFBF9F7F5F4F2F0EEEDEB2B
:102C1000E9E8E6E4E3E1E0DEDDDBDAD8D7D5D4D3DA
:102C2000D1D0CFCDCCCBCAC8C7C6C5C4C2C1C0BF26
:102C3000BEBDBCBBBAB9B8B7B6B5B4B3B2B1B0AF2C
:102C4000AEADACABAAA9A8A8A7A6A5A4A3A3A2A110
:102C5000A09F9F9E9D9C9C9B9A99999897979695CB
:102C600095949393929191908F8F8E8E8D8C8C8B67
:102C70008B8A8989888887878685858484838382EF
:102C8000828181800000FF070000F87F4FEA410346
:102C90004FEA5353A3F58063D3F11E03C8BFD3F1AA
:102CA000210C0CDD4FF0004242EAC12242EA5052B0
:102CB00032FA03FC8CEAE17CACEBE1707047102B3C
:102CC000C4BF0020704703F5787CBCF1FF3F04D0FF
:102CD0006FF0004282EA2100704770B500F0B0F852
:102CE0004992248000207047F2E70000DFF848C1D5
:102CF00070B51CEA111E1EBF1CEA13159EEA0C0FCC
:102D000095EA0C0F00F06F8081EA030423EA4C136C
:102D10004EEAD47E21EA4C1141F4801143F4801331
:102D2000AE44A1FB024CA0FB0365AEF17F7E3619D9
:102D300055EB0C05A1FB034C4CF10003A0FB021C5E
:102D400016EB0C06654153F10003094218BF46F02B
:102D5000010613F4007F0BD14FEA03314FEA05302F
:102D6000340341EA155140EA16506FF003020AE0BD
:102D70004FEAC3214FEAC520F40241EA555140EA27
:102D800056506FF0020202EB2E4201EB025585EA2B
:102D9000CE710AD05FEA440C18BF24F0004450F111
:102DA000000041F1000120EAD47040F2FE7C62454F
:102DB00000D270BDA84214BF4FF080444FF0404491
:102DC000002E08BF0024BEF1806FA8BFA1F1C04152
:102DD000BDE8704080F282804FF0000001F1C041F8
:102DE00001F0004170479EEA0C0F0CEA131518BF62
:102DF00095EA0C0F06D04FF0000081EA030E0EF0AA
:102E0000004170BD00F01CF88900013E00F007B8D9
:102E100000F009B84FEA430C5FEA5C5C08D081EA35
:102E2000030100F05BB84FEA410C5FEA5C5CF6D14D
:102E30004FF00000014970470000FF070000F87FD5
:102E40000EF1020E2EF0030E5EF8046B364205D42E
:102E5000012A43EB030515F5001F12D8012841EBA9
:102E6000010C1CF5001F0CD80ED14FEAD17C15F5D2
:102E7000001F0CEB4C0C0CF1020C08BF4CEBD37C8C
:102E800004E04FF0080C01E04FEAD37C0CEB4C055A
:102E900026FA05F606F00706B6F1040C06D20EEB8C
:102EA000860CBDE870404CF0010C6047DFE80CF088
:102EB000090B02024FF000414FF00000A1F5002184
:102EC00070BD19461046012851EB010418BFD4F516
:102ED000001484BF002001F0004170BD0808A0F577
:102EE00000114FEA310170472DE9F04101F5801CD6
:102EF000BCF5001FC0F2C3804FEA115C21EA0C51FF
:102F00000CF1FD0C41F480115FEA5C0C0CF5C07C07
:102F100001D3400049413DA4890241EA9051870212
:102F20008E0E0A0CA45D04FB04F602FB06F6C6F145
:102F30004046A4FB0662F60D46EA422606FB06F46E
:102F4000A4FB01235242C3F1404338BF5B1EA6FBE2
:102F500002420024E6FB0324D20B42EA4446A6FBCD
:102F60000623A1FB02E2A3FB07E4A4184FF0000232
:102F700052F10002E3FB01426442C2F1404E38BF0D
:102F8000AEF1010EA6FB04234FF00002E6FB0E3269
:102F9000A2FB03464FF00004B61954F10004E2FB13
:102FA0000264A1FB06E6A4FB07E816EB08064FF057
:102FB000000858F10008E4FB01687642C8F1405867
:102FC00038BFA8F10108A2FB06E4A3FB08E52D1910
:102FD0004FF0000454F10004E2FB0854A1FB05E6A5
:102FE000A7FB04E818EB06084FF0000656F10006B0
:102FF000E1FB048618F1200556F10006A809A8F1A6
:103000001B08B10908F03F08B8F10A0F40EA8660D2
:103010001CD901EB0C51BDE8F08100BFFCF5EEE8D6
:10302000E2DDD8D3CFCBC7C3C0BDB9B6B4B1AEAC67
:10303000A9A7A5A3A19F9D9B9A9896959392908FDF
:103040008D8C8B898887868584838281A0FB00682C
:1030500000FB01F208EB4208B8EB872807D53418CB
:1030600058EB0104D5D5401C51F10001D1E7341AC9
:1030700078EB0104CDD4401E71F10001C9E75FEA8D
:103080004C0C5FEA9C5C0DD105D34FF0000001F0C1
:103090000041BDE8F081BDE8F04170B5FFF7D0FE1A
:1030A0006DDBFFBEBDE8F0414FF000000049704706
:1030B0000000F87F43004FEAD30C4FEA3C0C43403A
:1030C0001FBF40070CF1605113F0FE4F70471CF01A
:1030D000006F03D100200CF0004170470CF000435A
:1030E00043EA507010B540EACC0000F0A2F900BFEE
:1030F000000000924FEA0001FFF7F0BE4FF00041E0
:103100004FF00000A1F50021704700004FF47F0C44
:103110001CEAD0121EBF1CEAD11392EA0C0F93EAEC
:103120000C0F00F0858090EA010F48BF42F48072D6
:1031300040F4000C41F400002CF07F4120F07F406F
:1031400000B58142A2EB03020FF2081CACEB504E1B
:10315000C0F100009EF800E04FEA4E0E00FB0EFCAE
:1031600038BF49004FEA2C1C02F5FA020CFB0EF3A3
:103170004FEACE1E4FEA112C4FEAC1210EEB635EDF
:1031800042EB22420EFB0CFC4FEA1C5300FB0311E6
:103190004FEA112C4FEA01310EFB0CFC4FEADC4CDC
:1031A00000FB0C11C14228BF09184CEB03335DF83A
:1031B00004EB10EB410143EBC250B2F57C0F38BF7A
:1031C000704729D512F0F00F1CBF00F1C04000F08D
:1031D00000407047008182838485868788898B8C34
:1031E0008D8E8F919293959697999A9C9D9FA0A270
:1031F000A3A5A7A8AAACAEB0B2B3B5B7B9BCBEC0C0
:10320000C2C5C7C9CCCED1D4D7D9DCDFE2E6E9EC60
:10321000F0F3F7FAFE0000004FEA400C0CF1807C5E
:10322000BCF17E4F28BF7047B0F1C04000F047B9F5
:1032300090EA010F0CEAD11348BF42F48072624554
:1032400038BF634507D213F47F0F16D080EA010020
:1032500000F00040704710B500F0EBF8097EFC3E2E
:1032600000F005B880EA010000F00040704780EAF5
:10327000010000F0004000F022B912F47F0F04BFFB
:103280000248704780EA010000F019B90000C07FD1
:1032900041000B0ED3F19E0208D950F400034FEA0F
:1032A000032323FA02F048BF4042704710B500F0F4
:1032B000C0F800BF49922480002070476FF00042A0
:1032C00082EA200070470000C10DD1F19E0206DBAA
:1032D0004FEA002343F0004323FA02F07047004214
:1032E00007D54FEA4001B1F1FE4F02D24FF0000086
:1032F000704710B500F09DF8499224800020704777
:103300006FEA200070470000B0FA80F310FA03F271
:10331000C3F19D030AD0D90501EB1220530638BF33
:10332000704700F1010008BF20F001007047000065
:103330004FF47F0C1CEAD0121EBF1CEAD11392EA94
:103340000C0F93EA0C0F00F0478090EA010F48BF82
:1033500042F480724FF0004C4CEA00204CEA01210C
:1033600002EB0302A0FB0113A2F50002002918BF23
:1033700043F001035B0028BF4FEA330342EB2242D4
:103380005FEA132C4CEBC2502EBFBCEB436FB2F57F
:103390007C0F70474FEA036CBCF1004F08BF20F070
:1033A0000100B2F57C0F38BF70470BD582F0FF02E9
:1033B00012F5803FC8BF704700F1C040D8BF00F091
:1033C0000040704700F5000C5FEA4C0C48BF7047A6
:1033D000B0F1C04000F073B890EA010F0CEAD113CD
:1033E00048BF42F48072624538BF634504D280EA28
:1033F000010000F00040704710B500F01AF800BF5F
:103400008900013E00F007B800F009B85FEA410CFE
:103410005FEA1C6C08D080EA010000F050B85FEA57
:10342000400C5FEA1C6CF6D14FF00040A0F5800024
:1034300070470EF1020E2EF0030E5EF8044B24428C
:1034400004D44FEA4102B2F17F4F11D84FEA400352
:10345000B3F17F4F0CD80ED14FEAD07CB2F17F4F41
:103460000CEB4C0C0CF1020C08BF4CEBD17C04E0D3
:103470004FF0080C01E04FEAD17C0CEB4C0324FA2E
:1034800003F404F00704B4F1040C06D20EEB840C30
:10349000BDE810404CF0010C6047DFE80CF0070875
:1034A00002024FF00040A0F5800010BD0846420027
:1034B00018BFD2F1807288BF00F0004010BDFF211C
:1034C00041EAD050C0057047E834000800000020F1
:1034D000800000006C0100086835000880000020B2
:1034E000F00700008801000800A24A040000000064
:1034F00000000000010203040607080901000000A3
:1035000000000000000000000000000000000000BB
:1035100000000000000000000001000000000000AA
:10352000000000000000000000000000000000009B
:1035300000009501000000000000000000000000F5
:103540003200000090010000140000001400000090
:10355000000000000204060800000000010203044D
:0835600001020304060708093B
:0400000508000131BD
:00000001FF
