:020000040800F2
:1000000068070020AD0B0008290200082B02000839
:100010002D0200082F020008310200080000000035
:100020000000000000000000000000003302000893
:1000300035020008000000003702000839020008FD
:10004000C70B0008C70B0008C70B0008C70B000848
:10005000C70B0008C70B0008C70B0008C70B000838
:10006000C70B0008C70B0008C70B0008C70B000828
:10007000C70B0008C70B0008C70B0008C70B000818
:10008000C70B0008C70B0008C70B0008C70B000808
:10009000C70B0008C70B0008C70B0008C70B0008F8
:1000A000C70B0008C70B0008C70B0008C70B0008E8
:1000B000C70B0008C70B0008C70B0008C70B0008D8
:1000C000C70B0008C70B0008C70B0008C70B0008C8
:1000D000C70B0008450B0008C70B0008C70B00083A
:1000E000C70B0008C70B0008C70B0008C70B0008A8
:1000F000C70B0008C70B0008C70B0008C70B000898
:10010000C70B0008C70B0008C70B0008C70B000887
:10011000C70B0008C70B0008C70B0008C70B000877
:10012000C70B0008C70B0008C70B0008C70B000867
:1001300000F002F800F03FF80AA090E8000C8244BA
:100140008344AAF10107DA4501D100F034F8AFF297
:10015000090EBAE80F0013F0010F18BFFB1A43F0A5
:1001600001031847782C0000982C0000103A24BF97
:1001700078C878C1FAD8520724BF30C830C144BF0C
:1001800004680C607047000000230024002500264E
:10019000103A28BF78C1FBD8520728BF30C148BFEA
:1001A0000B607047642902F0E582002070471FB59C
:1001B0001FBD10B510BD02F0A5FB1146FFF7F7FFFC
:1001C00000F008F802F0C3FB03B4FFF7F2FF03BC32
:1001D00000F062FC08B500F013FC4FF4A06000F0E2
:1001E00005FD4FF4E13000F061FC00F0D3F8002091
:1001F000042308220721009000F03AF9074C084D2B
:10020000002000F0E1F80328FAD106A002F072FA0B
:1002100022462946012000F0F8FAF1E70AD71F41EB
:10022000713D5241414141007047FEE7FEE7FEE764
:10023000FEE7704770477047704700000CB500221A
:100240004C4800920192016841F4803101604FF402
:10025000A063016801F4003101910099491C0091EB
:10026000019911B900999942F3D10168890333D5F5
:100270000121019140490A6842F010020A600A68AF
:1002800022F003020A600A6842F002020A60416832
:10029000416041684160416841F48061416041686A
:1002A00021F47C114160416841F4E811416001682A
:1002B00041F08071016001688901FCD5416821F03D
:1002C00003014160416841F0020141604168C1F3AE
:1002D00081010229FAD10CBD01920CBD254810B54F
:1002E000016841F0010101604168244A1140416008
:1002F0000168234A11400160016821F480210160F6
:10030000416821F4FE0141604FF41F018160FFF755
:1003100095FF1C494FF00060086010BD154A10B5EC
:100320005068194B10F00C01184803D0042901D073
:10033000082901D0036012E05168536801F470117C
:100340004FF0020413F4803F04EB914102D0536854
:100350009B0301D50E4B00E00B4B594301605168E4
:100360000A4AC1F30311121D515C0268CA400260BF
:1003700010BD000000100240002002400000FFF805
:10038000FFFFF6FE08ED00E000127A0000000020FA
:1003900000093D0008B50121442000F0BEFE1820F0
:1003A000ADF8000048208DF8030069462D4800F0A4
:1003B000CCFC0120ADF8000028208DF80300694630
:1003C000294800F0C2FC08BD2DE9F041274C264F1A
:1003D000244D012608B1267001E0207878B1102163
:1003E000284600F008FD88B10821284600F003FDEA
:1003F00060B10121384600F0FEFC012806D0102132
:10040000284600F0F8FC01281DD028E00A2000F062
:1004100025FB002020701021284600F0ECFC58B18C
:100420000821284600F0E7FC48B10121384600F0D9
:10043000E2FC012805D012E00120BDE8F081022095
:10044000FBE70320F9E70821284600F0D4FC012847
:1004500005D10121384600F0CEFC00B926700020FD
:10046000EBE70000001801400008014014000020E4
:100470002DE9F04788B0894607461E46904601217F
:100480000420DDF840A000F048FE0121480600F0FD
:100490004DFE4FF48050ADF81C0003208DF81E0077
:1004A0001820484C8DF81F0007A9204600F04DFC8D
:1004B000E014ADF81C0048208DF81F0007A9204665
:1004C00000F043FC00248DF806408DF8084001251B
:1004D0008DF807408DF809508DF802A08DF80A407C
:1004E0008DF803708DF804808DF80B408DF8059021
:1004F000ADF800606946344800F071FE8DF8164092
:100500008DF817408DF81850ADF80C40ADF810403C
:10051000ADF80E40ADF81240ADF814408DF819500A
:1005200003A800F0D0FE08B00020BDE8F087F0B5C9
:1005300085B0002212238DF80820009301938DF8D6
:1005400009208DF80A106B4604E0845C9D18521C4B
:10055000EC7292B28A42F8D31B4F1946384600F02B
:100560006DFF0646002440F6FF7501E0641CA4B24E
:100570003146384600F0C1FF08B9AC42F6D3AC4270
:1005800002D3012005B0F0BD0020FBE730B50E4DD1
:10059000044685B00021284601F050F800280ED00E
:1005A0006A460021284600F0E6FF0021684642180E
:1005B000D27A6254491C0829F9D39DF80A0005B083
:1005C00030BD0000000801400064004008B54FF451
:1005D000C06000F00BFB36208DF8000001208DF884
:1005E00003008DF801008DF80200684600F003FB5F
:1005F00008BD3EB50C4605460121102000F096FDD1
:10060000641EADF80040184C6D1EADF804506946EC
:10061000204601F08DFB01221146204601F045FEE7
:100620003EBD10B5FFF7D2FF4821BDE810400A20BB
:10063000DFE710B50C4C0121204602F047F82046B8
:10064000BDE81040012101F01BBE10B5064C012190
:10065000204602F03BF82046BDE81040002101F0A2
:100660000FBE808CC0B27047001000402DE9F041F1
:1006700021F000400024C0F1FF40744F16460D46A3
:10068000C00F08D1084602F06FF920B1BD4202D276
:100690006F48854203DD6FA002F02CF8012426F09C
:1006A0000040C0F1FF40C00F05D1304602F05CF9B8
:1006B00008B1BE4203D371A002F01CF801247848AF
:1006C000864203DD77A002F015F8012482488542B6
:1006D00003DD82A002F00EF800E014B10020BDE8B6
:1006E000F0810120FBE770B58B4C15460E460128C2
:1006F00000D000202070084602F0A0F9C0B260705F
:1007000002F0BCF9314602F099FA844E314602F00B
:10071000C9F902F093F9A070284602F08FF9C0B22F
:10072000E07002F0ABF9294602F088FA314602F097
:10073000B9F902F083F92071774870BD7CB506469F
:1007400000252C466846FFF721FF38B912E0315DDD
:10075000641C01F0E0012944CDB2E4B2B4EB500FC7
:10076000F5D39DF80000A84204D16DA001F0C2FFAE
:1007700001207CBD00207CBD2DE9F0410025FFF764
:10078000B2FF07460821FFF7D2FE0646DFF8C48114
:10079000FFF74FFF70A001F0ADFF002474A0395D9A
:1007A00001F0A8FF641CE4B2082CF7D371A001F09B
:1007B000A1FFB6B170A001F09DFF3846FFF7BEFF64
:1007C00088B14046FFF74DFF0A280CD2FFF73DFFE6
:1007D0004046FFF746FF044671A001F08BFF20461C
:1007E0007DE777A0E7E7FFF730FF6D1CEDB20A2D3C
:1007F000294601D27E4800E07E4801F07BFF0821B7
:100800003846FFF794FE0646C2E770B514460D461B
:100810000646FFF72BFF002805D022462946304622
:10082000BDE87040A8E770BD70B57349734A0125F3
:100830000C4616462846FFF719FF002805D0324619
:1008400021462846BDE8704096E770BD00008080D4
:1008500000007F434572726F723A20496E76616C78
:1008600069642064697374616E636520706172618C
:100870006D6574657221200A000000004572726F78
:10088000723A20496E76616C6964207370656564A4
:1008900020706172616D6574657221200A0000002C
:1008A00000002041546865207370656564207061A4
:1008B00072616D6574657220657863656564732027
:1008C000746865206D6178696D756D2076616C75F1
:1008D0006521200A00000000000048424572726F46
:1008E000723A205468652064697374616E63652090
:1008F000706172616D6574657220657863656564A9
:100900007320746865206D6178696D756D207661FE
:100910006C7565200A000000150000200000C84228
:100920005468652072657475726E656420646174C4
:100930006120776173207375636365737366756C8B
:100940006C792072656365697665642121200D0AE2
:100950000000000000100040546869732074696D45
:1009600065207468652064617461206973A3BA00AE
:10097000202564000D0A000054686520636F6E74C2
:10098000726F6C20636F6D6D616E64207761732090
:1009900073656E74206661696C2021200D0A000069
:1009A000546869732074696D652C207468652064CF
:1009B0006174612069732073656E74200D0A0000F4
:1009C00054686520636F6E74726F6C20636F6D6D19
:1009D000616E64207761732073656E742073756334
:1009E0006365737366756C6C792021200D0A0000B5
:1009F000902D00083C2D00080000484042608140D6
:100A000010B56FF0040000F036F920482049006866
:100A1000B0FBF1F01F49C0B200EB40020870C2EB1E
:100A2000C0104FF6FF7202EAC000488010BD19499D
:100A3000097848434FF0E021486100238B61086941
:100A400040F0010008610869C20701D0C003FAD56F
:100A5000086920F0010008618B6170470D494988E1
:100A600048434FF0E021486100238B61086940F062
:100A7000010008610869C20701D0C003FAD50869FE
:100A800020F0010008618B61704700000000002029
:100A900000127A001E000020704740490A88520662
:100AA000FCD53E4AC1B2121D1180704770B5054693
:100AB00086B0012144F2040000F02FFB4FF40070D7
:100AC000ADF8100003248DF812401820344E8DF834
:100AD000130004A9304600F038F93015ADF81000C5
:100AE00004208DF8130004A9304600F02EF92520CB
:100AF0008DF814008DF815408DF8164001208DF802
:100B0000170005A800F077F80020ADF80400ADF854
:100B10000600ADF80800ADF80C000C201F4CADF835
:100B20000A0000956946204600F006FF012240F2C7
:100B30002551204600F07DFF0121204600F06FFF87
:100B400006B070BD70B5154C40F22551204601F03D
:100B500027F800280ED0204600F0BBFF114AC1B292
:100B60001088030406D444044FF0000306D50A2974
:100B700001D0138070BD40F400400DE00D2909D074
:100B8000C0F30D04084D401C80B229551080C728C1
:100B9000EFD870BD40F48040108070BD0038014037
:100BA00000080140220000203C0000200948804746
:100BB00009480047FEE7FEE7FEE7FEE7FEE7FEE73F
:100BC000FEE7FEE7FEE7FEE704480549054A064B57
:100BD00070470000DD0200083101000868010020B4
:100BE00068070020680300206803002028490843A4
:100BF00028490860704730B50F23C2780178012575
:100C0000F2B1244A126801F1E02102F4E062C2F577
:100C1000E062120AC2F10404D3404278A240847810
:100C20001C401443220181F80024007800F01F01C9
:100C30008D404009800000F1E020C0F8005130BD37
:100C400001F01F0085404809800000F1E020C0F855
:100C5000805130BD104A114001430E48001F016011
:100C600070470C4A121D0029116801D0014300E0B1
:100C70008143116070474FF0E0210428086903D0D8
:100C800020F004000861704740F00400FAE700001B
:100C90000000FA050CED00E080FFFF1F8F4910B542
:100CA000884206D10121042000F049FA00210420E5
:100CB0003BE08B49884206D10121082000F03FFA31
:100CC0000021082031E08749884206D10121102007
:100CD00000F035FA0021102027E08349884206D130
:100CE0000121202000F02BFA002120201DE07F4967
:100CF000884206D10121402000F021FA0021402045
:100D000013E07B49884206D10121802000F017FAC8
:100D10000021802009E0774988420AD18415012109
:100D2000204600F00CFA00212046BDE8104000F0FB
:100D300006BA10BD10B50121084600F000FA0021E6
:100D4000BDE81040012000F0FAB9F0B5CC780022DF
:100D500004F00F03E40601D58C7823430C784FF0A0
:100D60000F0C14F0FF0F4FF0010E1BD005680E881A
:100D70000EFA02F42640A64210D196000CFA06F7AD
:100D800025EA070703FA06F5CE783D43282E02D060
:100D9000482E02D002E0446100E00461521C082A9F
:100DA000E5D305600A88FF2A1CD94468002202F1B5
:100DB00008060EFA06F50E882E40AE420ED19600B9
:100DC0000CFA06F7BC4303FA06F7CE783C43282E0C
:100DD00000D14561CE78482E00D10561521C082A09
:100DE000E5D34460F0BD4FF6FF71018002218170B0
:100DF0000421C17070470246002092680A4200D068
:100E000001207047806880B2704702460020D26897
:100E10000A4200D001207047C06880B2704701616B
:100E20007047416170470AB1016170474161704785
:100E3000C160704741F48032826181618261816961
:100E4000806970472C4B10B51A684FF680742240A9
:100E500042EA00100843186010BD2849C861704775
:100E6000F0B5254C002801DAE36900E06368450D20
:100E70002E0185B2C0F30157B540C0F30342032FE2
:100E800005D0C6020AD503269640B34307E023F0F7
:100E90007062636823F07063636002E0AB4343F009
:100EA000706201B12A43002801DAE261F0BD62609C
:100EB000F0BD10B58A0721F003040F49120F214439
:100EC0000F238C6893409C438C608B689040034355
:100ED0008B6010BD0949C1F8DC0070470008014073
:100EE000000C0140001001400014014000180140B6
:100EF000001C014000200140000001400000204291
:100F0000A548016841F0010101604168A34A114010
:100F100041600168A24A11400160016821F480210A
:100F20000160416821F4FE0141604FF41F018160BE
:100F3000704799490A6822F480320A600A6822F4EC
:100F400080220A60B0F5803F07D0B0F5802F03D132
:100F5000086840F4A02008607047086840F48030BA
:100F6000F9E70346002059098B4A01290AD00229D2
:100F70000AD0516A03F01F02012393400B4200D0B4
:100F8000012070471168F5E7116AF3E718B50020F2
:100F90004FF4A06400903120FFF7E3FF0099491C53
:100FA0000091A14201D00028F5D03120FFF7D9FFF0
:100FB000002800D0012018BD774A116821F0F801FF
:100FC00041EAC00010607047764908607047724B74
:100FD0005A68084322F47C121043586070477149E4
:100FE000086670476C4A516821F003010143516063
:100FF00070476948406800F00C007047664A5168C5
:1010000021F0F001014351607047634A516821F4B7
:10101000E0610143516070475F4A516821F46051BB
:1010200041EAC000506070475B4A0029517A01D004
:10103000014300E08143517270475A49C1F8D8001A
:101040007047554A516821F440410143516070474F
:101050005149002281F8202081F82020012802D067
:10106000042802D1052081F8200070474E4908600D
:10107000704749490A6A02430A6270474A4944393B
:101080000860704730B5444A5168484B11F00C0174
:1010900003D0042901D0082901D0036012E051686F
:1010A000536801F470114FF0020413F4803F04EB15
:1010B000914102D053689B0301D53D4B00E03B4B6F
:1010C0005943016051680F2303EA1111394B5C5CED
:1010D0000168E14041605468072505EA14241C5D5D
:1010E00021FA04F48460546805EAD4241B5DD940D5
:1010F000C1605268032303EA92322E4B1B1F9A5C95
:10110000B1FBF2F1016130BD234A0029516901D0E0
:10111000014300E08143516170471F4A00299169F2
:1011200001D0014300E08143916170471A4A0029D0
:10113000D16901D0014300E08143D1617047164A73
:101140000029D16801D0014300E08143D16070479C
:10115000114A0029116901D0014300E08143116166
:10116000704711494039086070470E49C86470479C
:101170000949C87170470848416A41F0807141626D
:101180007047054A0146002092680A4200D00120BB
:101190007047014988727047001002400000FFF854
:1011A000FFFFF6FE000042428004424200127A0035
:1011B00000093D002C000020FE4910B588424FF088
:1011C000010101D14C0601E04FF080642046FFF799
:1011D000BFFF2046BDE810400021FFF7B9BF10B5A2
:1011E0000368002223F002030360036843F0010355
:1011F00003604FF6FF7300E0521C4468E40701D11E
:101200009A42F9D14268D2073ED08A79012A02680F
:101210003CD022F080020260CA79012A026838D0EC
:1012200022F0400202600A7A012A026834D022F0D9
:10123000200202604A7A012A026830D022F01002AD
:1012400002608A7A012A02682CD022F00802026029
:10125000CA7A012A026828D022F0040202608A7841
:10126000CC78920742EA04620C7942EA04424C7953
:10127000098842EA0452491E0A43C261016821F00A
:1012800001010160002114E0002010BD42F0800245
:10129000C1E742F04002C5E742F02002C9E742F050
:1012A0001002CDE742F00802D1E742F00402D5E790
:1012B000491C4268D20701D09942F9D14068C00761
:1012C000E2D1012010BDF0B5827ABB4D01219140E1
:1012D0002A6842F001022A60B74E1C3632688A43FF
:1012E0003260B54A047BB54B0C32A4B914688C4308
:1012F00014604488C78844EA0744877A03EBC70729
:10130000C7F840460488878844EA0744877A03EB95
:10131000C707C7F84446047B012C12D114680C435C
:101320001460847A026803EBC4044FEA3242C4F8C2
:101330004026847A426803EBC4034FEA3242C3F882
:1013400044269D4AC37A121D002B136806D00B4316
:101350001360994A0389143213B104E08B43F7E711
:1013600013688B4313600389012B02D113680B436D
:101370001360407B012802D1306808433060286840
:1013800020F001002860F0BD00218171C17101725F
:1013900041728172C1728170C17003210171022199
:1013A000417101210180704783490A6842F00102BE
:1013B0000A600A6843F60E739A430A600A6842EAB2
:1013C00000200860086820F00100086070470029CC
:1013D000016802D041F4803101E021F480310160E4
:1013E00070470029016813D041F080010160D0F8F6
:1013F000841141F48071C0F88411D0F8941141F443
:101400008071C0F89411D0F8A41141F4807112E0F9
:1014100021F080010160D0F8841121F48071C0F8BE
:101420008411D0F8941121F48071C0F89411D0F88F
:10143000A41121F48071C0F8A411704730B50246A0
:10144000002093685B0108D49068000101D5012059
:1014500003E09068C00044D5022002EB0012D2F8ED
:10146000803103F00103C2F880310B7AC3B3D2F8A4
:1014700080414D681C434B7A43EAC5031C43C2F8C4
:1014800080418B7A03F00F038B72D2F8843123F002
:101490000F03C2F88431D2F884318C7A2343C2F826
:1014A0008431CB7A8C7B0D7B43EA04634C7B240430
:1014B00044EA05242343C2F88831CB7B8C7C43EA81
:1014C00004634C7C097C240444EA01210B43C2F8E8
:1014D0008C31D2F8801141F00101C2F8801130BD89
:1014E00001E00420FBE7D2F880314C7A23430C88DA
:1014F00043EA4453C2F88031C3E7002221B10129F5
:1015000005D0022906D112E082682D4801E08268E8
:101510002C4802402C49501A8A4214D00ADCA2B14D
:101520006FF0806010180FD002280CD10FE0826895
:101530002648EEE7B0F5007F09D02549401803D0D2
:10154000B0F5003F03D00020704702207047012013
:10155000704741B101290AD0022903D1816841F4C1
:10156000000181607047816841F08001F9E781687E
:1015700041F40041F5E710B500EB0113D3F8B04199
:1015800014F004041472D3F8B04144D0E408546059
:10159000D3F8B04104F002045472D3F8B44104F01B
:1015A0000F049472D3F8B441240AD474D3F8B84128
:1015B000D4720FE00064004000660040006000400C
:1015C00003000004000300080001000800000310ED
:1015D0000001FFF7D3F8B841240A1473D3F8B841D7
:1015E000240C5473D3F8B841240E9473D3F8BC413F
:1015F000D473D3F8BC41240A1474D3F8BC41240C2E
:101600005474D3F8BC311B0E937439B1016941F0A5
:101610002001016110BD640D1460B9E7C16841F09B
:101620002001C16010BD21B1016941F020010161BB
:101630007047C16841F02001C16070470246002038
:1016400029B1012902D1106900F003007047D06868
:10165000FAE700234FF6FF7221B1012917D00229C2
:1016600024D03AE0016821F0020141F0010101605B
:1016700000E0521E416801F00301012901D0002A57
:10168000F7D1406800F00300012823D124E001686D
:1016900021F00301016000E0521E4168890701D07A
:1016A000002AF9D14068800714D115E0016821F0C3
:1016B000010141F00201016000E0521E416801F0A9
:1016C0000301022901D0002AF7D1406800F003008D
:1016D000022801D0002300E0012318467047026869
:1016E000002122F0010242F002020260406800F094
:1016F0000300022800D101210846704702684FF616
:10170000FF71002322F00202026000E0491E4268DD
:10171000920701D50029F9D14068800700D4012340
:10172000184670478069C0F3021000017047806955
:10173000000E70478069C0F307407047002A426975
:1017400001D00A4300E08A4342617047024600200C
:1017500011F4700F03D0926904E001207047CB01AF
:1017600004D552680A401103F7D170470B0101D527
:101770009268F7E78B0101D5D268F3E71269F1E7C8
:10178000534A914202D1002181617047C1F3130293
:101790008B0101D5C26070474B0101D502617047D2
:1017A000090101D5826070474260704702460020FF
:1017B00053690B424AD0B1F5807F3BD013DC082936
:1017C0002ED007DC012926D0022927D004293DD1BB
:1017D000D0682BE0102925D0202926D0402935D1EA
:1017E0001069102130E0B1F5004F2BD00BDCB1F5C2
:1017F000007F22D0B1F5806F22D0B1F5006F25D1E6
:101800009069702120E0B1F5803F11D0B1F5003F23
:101810001CD15068E5E790682E4915E0D06802E0D9
:10182000D068DEE7106903210EE0106908210BE0A3
:101830005068FBE79069012106E09069022103E00E
:10184000906900E05068042100F03BB8704730B563
:10185000082310240422B1F5007F1DD010DC2029BC
:1018600029D007DC012921D0042922D0082900D160
:10187000C46034E6402920D0B1F5807FF9D10BE077
:101880000025B1F5004F06D008DCB1F5806F03D01C
:10189000B1F5006FEDD18561426020E6B1F5803F82
:1018A0000DD0B1F5003FE4D1446018E609498160EC
:1018B00015E6C36013E6036111E604610FE64360B9
:1018C0000DE6024600200A4200D0012070470000C9
:1018D0007000F03001010100C44910B588420AD1FE
:1018E00001218C032046FFF72AFC2046BDE810406A
:1018F0000021FFF724BCBE49884202D101214C04DB
:1019000010E0BC49884202D101218C040AE0BA49A6
:10191000884202D10121CC0404E0B84988420AD1AE
:1019200001210C052046FFF713FC2046BDE81040BE
:101930000021FFF70DBC10BD30B50446008A85B00C
:101940000D464CF6FF710840E98801432182A089C9
:101950004EF6F3110840A9882A8911436A89024387
:101960001143A181A08A4FF6FF410840A989014394
:10197000A1826846FFF786FB9C48844201D1039808
:1019800000E00298A189090400EBC00101EB0010FE
:10199000296801D5490000E08900B0FBF1F064221C
:1019A000B0FBF2F109010B096FF018056B4300EB76
:1019B0008300A3891D044FF0320306D503EBC0005A
:1019C000B0FBF2F000F0070005E003EB0010B0FB05
:1019D000F2F000F00F000843208105B030BD4FF455
:1019E0001651016000218180C18001810C22428159
:1019F0008181704710B5028A4FF2FF031A400B88AD
:101A00004C8823438C88C9880C43234313430382A7
:101A100010BD0021018041808180C1807047002974
:101A2000818902D041F4005101E021F4005181810B
:101A3000704710B5C1F3421301F01F040121A1400A
:101A4000012B07D0022B07D01430002A026805D0E2
:101A50000A4304E00C30F8E71030F6E78A430260EE
:101A600010BD002A828A01D00A4300E08A438282A4
:101A70007047028A22F00F020282028A0A4302821F
:101A80007047828922F40062828182890A438281BE
:101A900070470029818902D041F0020101E021F064
:101AA000020181817047028A22F020020282028AAA
:101AB0000A43028270470029018A02D041F4804122
:101AC00001E021F4804101827047C1F30801818067
:101AD00070478088C0F308007047818941F0010198
:101AE00081817047028BD2B20283028B42EA0121CC
:101AF00001837047028B02F47F420283028B0A4308
:101B0000028370470029818A02D041F0200101E060
:101B100021F02001818270470029818A02D041F0A2
:101B2000100101E021F01001818270470029818AB3
:101B300002D041F0080101E021F0080181827047E4
:101B40000029818902D041F4004101E0C1F30E0176
:101B5000818170470029818A02D041F4006101E04F
:101B600021F4006181827047828A22F0040282821D
:101B7000828A0A43828270470029818A02D041F01A
:101B8000020101E021F0020181827047024600203B
:101B900012880A4200D001207047C9430180704773
:101BA00070B501F01F0501260024C1F3421306FAA7
:101BB00005F2012B0FD0022B0FD0838A4FEA11219F
:101BC0000088134206FA01F600EA060001D000B1CF
:101BD0000124204670BD8389F0E7038AEEE70A0AF4
:101BE00001219140C9430180704700000038014045
:101BF0000044004000480040004C004000500040BD
:101C0000F94910B5884202D10121C41486E0B0F12F
:101C1000804F09D0F54988420DD101210220FFF7FC
:101C200097FA0021022064E001210846FFF790FAAC
:101C3000002101205DE0EE49884206D10121042007
:101C4000FFF786FA0021042053E0EA49884206D1D2
:101C500001210820FFF77CFA0021082049E0E6492D
:101C6000884206D101211020FFF772FA00211020CE
:101C70003FE0E249884206D101212020FFF768FABF
:101C80000021202035E0DE49884202D101214414A0
:101C900044E0DC49884202D10121CC043EE0DA492B
:101CA000884202D101210C0538E0D849884202D18E
:101CB00001214C0532E0D649884206D1012140205D
:101CC000FFF746FA0021402013E0D249884206D1AE
:101CD00001218020FFF73CFA0021802009E0CE4955
:101CE00088420AD1841501212046FFF731FA0021EC
:101CF0002046BDE81040FFF72BBAC849884202D100
:101D000001210C040AE0C649884202D101214C0499
:101D100004E0C44988420AD101218C042046FFF71F
:101D20000EFA2046BDE810400021FFF708BA10BDAA
:101D300030B50288AC4CB24DA0420DD0A8420BD0B9
:101D4000B0F1804F08D0A94B984205D0A84B9842DB
:101D500002D0A84B984203D122F070034A881A435C
:101D6000A54B984206D0A54B984203D022F440736D
:101D7000CA881A4302808A8882850A880285A0421E
:101D80000AD0A84208D0A54A904205D0A44A904261
:101D900002D0A44A904201D1097A018601218182B0
:101DA00030BD30B5028C22F001020284028C83889F
:101DB000048B22F0020224F073050C882C430D8959
:101DC00015434A882A43884DA8420BD08C4DA8421F
:101DD00008D0924DA84205D0914DA84202D0914D15
:101DE000A8420DD122F008054A8923F440732A4302
:101DF00022F004058A882A438D891D43CB892B4311
:101E000083800483C9888186028430BD70B5028CCA
:101E100022F010020284028C8388048B0D8824F443
:101E2000E6464FF6FF7404EA052535430E8922F095
:101E3000200204EA061616434A8804EA02123243D4
:101E4000694EB04202D06E4EB04215D122F08006EB
:101E50004A8923F4406304EA0212324322F0400626
:101E60008A8804EA021232438E8904EA86061E43F7
:101E7000CB8904EA8303334383800583C9880187C0
:101E8000028470BD70B5028C22F480720284028CD0
:101E90008388848B0D8824F0730425430E894FF6C4
:101EA000FF7422F4007204EA062616434A8804EA04
:101EB000022232434C4EB04202D0514EB04215D1B4
:101EC00022F400664A8923F4405304EA0222324392
:101ED00022F480668A8804EA022232438E8904EA68
:101EE00006161E43CB8904EA03133343838085839C
:101EF000C9888187028470BD70B5028C22F480523B
:101F00000284058C8288838B0C8823F4E6464FF686
:101F1000FF7303EA0424344325F400560D8903EAD1
:101F2000053535434E8803EA06362E432E4DA8422A
:101F300002D0334DA84205D122F480458A8903EAB4
:101F400082122A4382808483C988A0F840100684C4
:101F500070BD828B22F440628283828B4FF6FF73C6
:101F600003EA01210A4382837047828B22F00C022C
:101F70008283828B0A4382837047028B22F4406201
:101F80000283028B4FF6FF7303EA01210A430283A7
:101F90007047F0B5048C24F010040484078B048C83
:101FA0004FF6FF7527F4734705EA03333B4305EA11
:101FB00002221A430C4B05EA011698420ED0104B30
:101FC00098420BD0B0F1804F08D0084B984205D012
:101FD000074B984202D0074B984225D124F02001AC
:101FE000314341F0100124E0002C01400004004086
:101FF00000080040000C00400010004000140040A9
:1020000000340140004C01400050014000540140A8
:1020100000180040001C004000200040004001402B
:10202000004401400048014024F0A0030B4343F06A
:10203000100102830184F0BD028B22F00C020283A6
:10204000028B0A430283704770B5048C24F00104AC
:102050000484058B048C4FF6FF7606EA03131343C2
:1020600025F0F305F84A2B4390420ED0F74A9042F0
:102070000BD0B0F1804F08D0F54A904205D0F54A18
:10208000904202D0F44A904202D124F0020201E0D0
:1020900024F00A020A4342F001010383018470BD67
:1020A0002DE9F84F0D4604460888E74FDFF89CC33A
:1020B000DFF89C83DFF89C934988AA882B894FF02E
:1020C000804A48B304282FD04FF6FF76082893465D
:1020D00032D0208C9E4620F480502084A38B208C0C
:1020E00006EA0132009223F4734306EA0B221A43F4
:1020F00006EA0E331343BC420AD0644508D0544567
:1021000006D0444504D04C4502D0D34A944242D133
:1021100020F40050009940E02046FFF795FFE98841
:102120002046BDE8F84F87E72046FFF732FFE988F1
:102130002046BDE8F84F20E7208C20F480702084F2
:10214000B4F81CE0208C06EA031306EA01222EF004
:10215000F30E43EA0B0343EA0E030092BC420AD09B
:10216000644508D0544506D0444504D04C4502D0BF
:10217000B94A944203D120F40070009901E020F4A0
:102180002060084340F48070A3832084E9882046BF
:10219000BDE8F84FE9E620F40240084340F48050DF
:1021A000A3832084E9882046BDE8F84FD1E62DE9D5
:1021B000F0410C46002649880746012501B9022650
:1021C000A288012A00D102252088238900283846C8
:1021D00010D0FFF7DEFEE1883846FFF7CEFE2389F8
:1021E0002A4631463846FFF72FFFE1883846BDE8DA
:1021F000F04121E7FFF728FFE1883846FFF71CFF91
:1022000023892A4631463846FFF7C3FEE18838461F
:10221000BDE8F041B1E610B50A884B88CC881A4376
:102220008B8823431A430B891A434B8989891A43A4
:102230000A43A0F8442010BD4FF6FF7181800021B1
:102240000180C1804180017270470021018041807E
:102250008180C180018141818181C18170470021DC
:102260000180418001228280C1800181704700216C
:10227000018041808180C1800181418181817047DD
:102280000029018802D041F0010101E021F00101A3
:1022900001807047002930F8441F02D041F400410A
:1022A00001E0C1F30E0101807047002A828901D04C
:1022B0000A4300E08A43828170478182704711435C
:1022C000A0F848107047002A828901D00A4300E034
:1022D0008A4382817047018921F00701018170479B
:1022E000028922F070020A430281704700B503465A
:1022F000FFF7F6FF188940F00700188100BD70B5A0
:1023000016460D46602904464FF0010231460AD0B8
:10231000FFF79AFE29462046FFF7E2FF208940F0AA
:102320000700208170BDFFF734FEF3E730B5048964
:102330004FF6FF7505EA03231343E4B20B4323432F
:10234000038130BD10B50446FFF7F0FF208940F04F
:102350007700208110BD10B50446FFF7E7FF208904
:1023600040F48040208110BD018582827047028840
:1023700022F070020A430280704770B50589048B11
:10238000068C25F007050D434FF6FC410C4040F24A
:1023900001110C434FF6FF7101EA031126F02206EA
:1023A0001143314305810483018470BD028B22F007
:1023B00070020A4302837047028B4FF6FF7322F4C8
:1023C000E04203EA0121114301837047828B22F02E
:1023D00070020A4382837047828B4FF6FF7322F4A8
:1023E000E04203EA012111438183704700290188FB
:1023F00002D041F0800101E021F0800101807047AE
:102400000029818802D041F0040101E021F004019B
:10241000818070470029818802D041F0080101E0E5
:1024200021F00801818070470029818802D041F0A5
:10243000010101E021F0010181807047028B22F04F
:1024400008020A4302837047002C01400034014017
:102450000004004000080040000C0040028B4FF6D2
:10246000FF7322F4006203EA012111430183EAE7CA
:10247000828B22F008020A438283E4E7828B4FF6C4
:10248000FF7322F4006203EA012111438183DAE73A
:10249000028B22F004020A430283D4E7028B4FF638
:1024A000FF7322F4806203EA012111430183CAE72A
:1024B000828B22F004020A438283C4E7828B4FF6A8
:1024C000FF7322F4806203EA012111438183BAE79A
:1024D000028B22F080020A430283B4E7028B4FF69C
:1024E000FF73C2F30E0203EA012111430183AAE73D
:1024F000828B22F080020A438283A4E7828B4FF60C
:10250000FF73C2F30E0203EA0121114381839AE7AC
:10251000028C22F002020A43028494E7028C22F029
:1025200008020A4302848EE7028C4FF6FF7322F002
:10253000200203EA01111143018484E7028C4FF663
:10254000FF7322F0800203EA0111114301847AE74C
:10255000028C4FF6FF7322F4007203EA012111434B
:10256000018470E7028C4FF6FF7322F4006203EAE5
:1025700001211143018466E7028C4FF6FF7322F4B8
:10258000005203EA0131114301845CE710B50123D5
:10259000048C8B409C430484038C8A401343038443
:1025A00010BD10B50423048C8B409C430484038C21
:1025B0008A401343038410BD30B50124058C00F11B
:1025C00018038C40A543058489B108290FD0091F41
:1025D000C1F34E001844016821F4E0410160016834
:1025E0004FF6FF7303EA02221143016030BD03EB93
:1025F0005100016821F0700101600168F4E70029D1
:10260000018802D041F0020101E021F002010180C5
:1026100019E70029018802D041F0040101E021F00E
:10262000040101800FE70029818802D041F0800178
:1026300001E021F08001818005E7028822F0080294
:10264000028002880A430280FDE6828822F070023E
:10265000828082880A438280F5E6028922F007029E
:10266000028102890A430281EDE6028922F080029A
:10267000028102890A430281E5E68184E3E68185DD
:10268000E1E68186DFE60187DDE68187DBE6A0F80B
:102690004010D8E6028822F44072028002880A4381
:1026A0000280D0E6808ECEE6008FCCE6808FCAE630
:1026B000B0F84000C7E6808CC5E6008DC3E6024650
:1026C0000020128A0A4200D00120BCE6C9430182E0
:1026D000B9E602460020138A92890B4202EA0102FF
:1026E00002D0002A00D00120ADE6C9430182AAE64B
:1026F000704700000FB4044910B503AA029800F017
:10270000D3F810BC5DF814FB240000202DE9F04143
:102710000E460446002020622046E168884730B318
:10272000252805D0D4E901219047206A401CF2E712
:10273000E168204600278847050018D0A5F1410030
:10274000192802D820354FF4006732462946204622
:102750002760FDF727FD40B1012804D0F61D26F0C3
:1027600007060836D8E7361DD6E72846DAE7206A96
:10277000BDE8F0812DE9F041064600241068752976
:10278000314616A510D0AFF30080002802DA40428F
:1027900013A507E031688A0701D512A502E04907B1
:1027A00004D511A5012401E0AFF3008000210A2225
:1027B00006F1240709E0B0FBF2FCB0FBF2F302FBE8
:1027C0001C00303078541846491C0028F3D12346A9
:1027D0002A463046BDE8F04100F00CB80000000089
:1027E0002D0000002B000000200000007047704703
:1027F000704770472DE9F0470D46994692460446CA
:1028000000F124080168880604D5E06921F0100170
:10281000216000E00120A84201DD471B00E0002705
:10282000A1697A1902EB0900081AA0612078C00694
:1028300002D42046AFF30080002608E0D4E901214D
:102840001AF806009047206A401C761C20624E450C
:10285000F4DB2078C0060AD52046AFF3008006E0FE
:10286000D4E9012130209047206A401C2062381EA4
:10287000A7F10107F4DC07E0D4E9012118F805000D
:102880009047206A401C2062281EA5F10105F3DC58
:102890002046AFF300802078000602D50220BDE874
:1028A000F0870120FBE70000074B70B50D467B4425
:1028B00000F011F80446284600F020F810B14FF05F
:1028C000FF3070BD204670BDE9E1FFFF01694A1C81
:1028D00002610878704700B58FB0CDE90131002161
:1028E000059105497944CDE9031011466846FFF783
:1028F0000DFF0FB000BD0000E5FFFFFF007B00F003
:1029000080007047754600F02BF8AE46050069461A
:10291000534620F00700854618B020B5FEF754F95D
:10292000BDE820404FF000064FF000074FF00008D0
:102930004FF0000B21F00701AC46ACE8C009ACE851
:10294000C009ACE8C009ACE8C0098D46704710B5B5
:102950000446AFF300802046BDE81040FDF734BCCC
:1029600000487047040100206FEAD05010F0FF00CB
:1029700000D001207047000090EA010F48BF81F0AD
:10298000004100F16C81421A3CBF801A89184FEA5D
:10299000D0524FF07F4C1CEA410FA2EBD15318BF2D
:1029A0009CEA026F00F03B804FF0004C4CEA0020A4
:1029B0004CEA012121FA03FC10EB0C0C1ED202F1AF
:1029C000FF325FEA1C2040EBC25038BF70471CF05A
:1029D0007F0F4FEA400C18BFBCF17F4F38BF7047E4
:1029E000C3F12003994008BF20F00100BCF17F4FE4
:1029F00038BF7047A0F1C04000F01BB94FEA3C005F
:102A0000000A40EBC25028BF1CF0FF0F4FEA400CF9
:102A1000E6D018BFBCF17F4F38BF7047EAE79CEAA9
:102A2000026F05D010EA5C0F08BF00F0004070474D
:102A300010B500F0B8F800BF64FBBE3EC10DD1F187
:102A40009E0206DB4FEA002343F0004323FA02F024
:102A50007047004207D54FEA4001B1F1FE4F02D264
:102A60004FF00000704710B500F09DF849922480A7
:102A7000002070476FEA200070470000B0FA80F332
:102A800010FA03F2C3F19D030AD0D90501EB12201D
:102A9000530638BF704700F1010008BF20F0010065
:102AA000704700004FF47F0C1CEAD0121EBF1CEAD6
:102AB000D11392EA0C0F93EA0C0F00F0478090EAD2
:102AC000010F48BF42F480724FF0004C4CEA0020E6
:102AD0004CEA012102EB0302A0FB0113A2F5000264
:102AE000002918BF43F001035B0028BF4FEA3303FE
:102AF00042EB22425FEA132C4CEBC2502EBFBCEBE0
:102B0000436FB2F57C0F70474FEA036CBCF1004F86
:102B100008BF20F00100B2F57C0F38BF70470BD51D
:102B200082F0FF0212F5803FC8BF704700F1C0403D
:102B3000D8BF00F00040704700F5000C5FEA4C0C75
:102B400048BF7047B0F1C04000F073B890EA010F81
:102B50000CEAD11348BF42F48072624538BF634526
:102B600004D280EA010000F00040704710B500F088
:102B70001AF800BF8900013E00F007B800F009B85C
:102B80005FEA410C5FEA1C6C08D080EA010000F0AB
:102B900050B85FEA400C5FEA1C6CF6D14FF0004081
:102BA000A0F5800070470EF1020E2EF0030E5EF8C5
:102BB000044B244204D44FEA4102B2F17F4F11D8B2
:102BC0004FEA4003B3F17F4F0CD80ED14FEAD07CCF
:102BD000B2F17F4F0CEB4C0C0CF1020C08BF4CEB2C
:102BE000D17C04E04FF0080C01E04FEAD17C0CEB03
:102BF0004C0324FA03F404F00704B4F1040C06D2E5
:102C00000EEB840CBDE810404CF0010C6047DFE88F
:102C10000CF0070802024FF00040A0F5800010BD44
:102C20000846420018BFD2F1807288BF00F0004011
:102C300010BDFF2141EAD050C005704780F0004030
:102C400090EA010F7FF59FAE81F0004100F007B8D8
:102C500090EA010F48BF81F000413FF594AE421A5F
:102C600004D882F00042A0EB020011444FEAD05297
:102C70004FF07F4C1CEA410FA2EBD15318BF9CEAE6
:102C8000026F4AD04FF0004C4CEA00204CEA012180
:102C900021FA03FCB0EB0C0C0FD412F0FE0F36D06F
:102CA0005FEA4C001DD5001240EBC25038BF7047A0
:102CB0001CF03F0F18BF70470BE0A2F101025FEA62
:102CC0001C2040EBC25038BF70471CF07F0F18BF6C
:102CD0007047C3F12003994014BF401E20F001004B
:102CE000704780084FEA122308BF7047B0FA80FC93
:102CF000A2EB0C02CCF1280C60FA0CF093EA122F34
:102D000004BF00EBC25070474FEAC3707047130A0C
:102D10005FEADC1008BF7047F6E79CEA026F04D058
:102D200010EA5C0F08BF0020704710B5FFF73BFFAB
:102D300040DFF63E81F00040704700004552524FA0
:102D400052205468652074696D652069732067722C
:102D50006561746572207468616E20326D73206FD6
:102D600072207468652064617461207265636569AE
:102D700076656420697320696E636F72726563742F
:102D800020256474682074696D650D0A00000000D8
:102D90005468652074696D65206973206772656188
:102DA000746572207468616E20326D73206F7220BA
:102DB0007468652064617461207265636569766515
:102DC0006420697320696E636F7272656374202575
:102DD0006474682074696D650D0A0000FC2D00089C
:102DE000000000203C0000006C010008382E0008A4
:102DF0003C0000202C0700008801000800A24A04C3
:102E0000000000000000000001020304060708099A
:102E100001000000000000000000000000000000B1
:102E20000000000002040608000000000102030484
:082E3000010203040607080972
:0400000508000131BD
:00000001FF
