:020000040800F2
:1000000010C900202D020008832B00087B2B00085C
:100010007F2B00083D090008DD39000800000000C2
:10002000000000000000000000000000853600080D
:1000300041090008000000004302000845020008D2
:10004000470200084702000847020008470200086C
:10005000470200084702000847020008470200085C
:10006000470200084702000847020008470200084C
:10007000470200084702000847020008470200083C
:10008000470200084702000847020008470200082C
:10009000470200084702000847020008470200081C
:1000A000470200084702000847020008470200080C
:1000B0004702000847020008893600084702000886
:1000C00047020008470200084702000847020008EC
:1000D00047020008B9390008470200084702000833
:1000E00047020008470200084702000847020008CC
:1000F00047020008470200084702000847020008BC
:1001000047020008470200084702000847020008AB
:10011000470200084702000847020008470200089B
:10012000470200084702000847020008470200088B
:1001300000F002F800F06BF80AA090E8000C82448E
:100140008344AAF10107DA4501D100F060F8AFF26B
:10015000090EBAE80F0013F0010F18BFFB1A43F0A5
:100160000103184770330100903301000A444FF037
:10017000000C10F8013B13F0070408BF10F8014B06
:100180001D1108BF10F8015B641E05D010F8016B4B
:10019000641E01F8016BF9D113F0080F1EBF10F8AF
:1001A000014BAD1C0C1B09D16D1E58BF01F801CBD2
:1001B000FAD505E014F8016B01F8016B6D1EF9D555
:1001C0009142D6D37047000000230024002500266A
:1001D000103A28BF78C1FBD8520728BF30C148BFAA
:1001E0000B607047642900F03981752900F0368171
:1001F000782900F06F81632900F03383732900F0C0
:100200003883002070471FB51FBD10B510BD00F02A
:1002100063FB1146FFF7F7FF0AF022F900F081FBBC
:1002200003B4FFF7F2FF03BC03F0FDFB094880476E
:1002300009480047FEE7FEE7FEE7FEE7FEE7FEE7C8
:10024000FEE7FEE7FEE7FEE704480549054A064BE0
:1002500070470000873600083101000810C30020F5
:1002600010C9002010C5002010C50020704753EAB7
:10027000020C00F069802DE9F04B4FF00006002BD6
:100280001FBFB3FA83F503FA05F424FA05F65E40BE
:1002900012BF1643B2FA82F502FA05F4C5F1200541
:1002A0001EBF22FA05FC44EA0C04203556EA044C31
:1002B0004FEA144418BF641C4FF000084FF00009C7
:1002C000904271EB030C39D3002919BFB1FA81F7C1
:1002D00001FA07F6B0FA80F700FA07F6C7F120072F
:1002E0001EBF20FA07FC46EA0C062037B6FBF4FCDA
:1002F000A7EB0507103F07F01F0BCBF120060CFA08
:100300000BFB2CFA06F644BFB3460026202FA4BFF1
:100310005E464FF0000B5BEA060C08BF4FF0010B86
:1003200019EB0B09ABFB027C48EB0608C01B06FB74
:1003300002CC0BFB03CC71EB0C01C1E70B46024670
:1003400041464846BDE8F08B13B54FF000004FF032
:100350000001AFF30080BDE81C40704710B54C10A1
:1003600084EA530404D54042C1F1000138BF491E5C
:100370001B4204D55242C3F1000338BF5B1EFFF796
:1003800076FF14F0804F04D04042C1F1000138BF25
:10039000491E14F0004F04D05242C3F1000338BF8D
:1003A0005B1E10BD0FB4044910B503AA029800F0FB
:1003B00065FA10BC5DF814FB0C00002070B5044613
:1003C00085690068C10601D5302600E02026C007F7
:1003D00007D070BDD4E9012130469047206A401C07
:1003E00020626D1EF6D570BD70B504468569007833
:1003F000C00707D170BDD4E9012120209047206AB1
:10040000401C20626D1EF6D570BD70B50C460546C9
:10041000012A05D02878800600D5EA69002302E089
:10042000012305E05B1C934202D2E05C0028F9D175
:10043000A869E618C01AA861286A184428622846E4
:10044000FFF7BCFF04E0D5E9012114F8010B904748
:10045000B442F8D32846FFF7C7FF70BD2DE9F0413D
:100460000646002410687529314616A510D0AFF352
:100470000080002802DA404213A507E031688A07AD
:1004800001D512A502E0490704D511A5012401E018
:10049000AFF3008000210A2206F1240709E0B0FB37
:1004A000F2FCB0FBF2F302FB1C003030785418462B
:1004B000491C0028F3D123462A463046BDE8F041C6
:1004C00000F06CB9000000002D0000002B000000BF
:1004D0002000000070B504460D4621461068AFF3B9
:1004E00000802188090502D50F4A7A4402E00E4AAD
:1004F0007A440E32002104F1240305E000F00F06D7
:100500000009965D5E54491C0028F7D1207800232D
:10051000000704D5702D02D009B102231132204604
:10052000BDE8704000F03AB9522D01002DE9F05FAE
:10053000894604464FF0000ADFF874B1FB44C0F866
:1005400020A02046E1688847002874D0252806D0DE
:10055000D4E901219047206A401C2062F1E700267F
:100560005F462046E16888472028054607DB312D95
:1005700005D2781910F8200C08B10643F1E7B0074E
:1005800001D526F00406C4F81CA00027C4F818A062
:100590002A2D09D0284603F03FFA38B304EB870828
:1005A000303DC8F8185019E059F8041B204604EBF8
:1005B00087029161E1688847012F054618D1E069FB
:1005C000002820DA26F020061DE0D8F8180000EBFD
:1005D000800005EB40003038C8F818002046E1687C
:1005E0008847054603F018FA0028EED1012F0AD0FB
:1005F0002E2D08D12046E16888477F1C0546022F32
:1006000046F02006C4DBA069002803DA404246F029
:100610000106A061F00701D026F010066C2D0BD06A
:10062000682D09D04C2D39D06A2D35D0742D35D098
:100630007A2D33D016E038E0E1682F46204688470F
:10064000B842054609D16C2F26D04FF48060E1688E
:10065000064320468847054604E06C2F1AD04FF425
:10066000807006430DB3A5F14100192802D820354A
:1006700046F400664A462946204626604E46FFF765
:10068000B1FD80B101280BD0F61D26F0070000F166
:10069000080956E74020E4E78020D8E70020D6E7A5
:1006A00006F104094DE7284652E7206ABDE8F09FAD
:1006B000282D010040EA0103024630B59B0710D106
:1006C0004FF0013400E008C208C91D1B9D4315EA24
:1006D000C41FF8D013F0FF0102F8011B0DD01B0A54
:1006E000F8E711F8013B002B02F8013B05D011F8A7
:1006F000013B002B02F8013BF3D130BD421E12F842
:10070000013F002BFBD111F8013B002B02F8013B0C
:10071000F9D170474FF0013C50F8042B51F8043BDD
:100720009A4221D1A2EB0C03934313EACC1317D1C5
:1007300050F8042B51F8043B9A4215D1A2EB0C035C
:10074000934313EACC130BD150F8042B51F8043B1C
:100750009A4209D1A2EB0C03934313EACC13DBD0EA
:100760004FF00000704700BFD01A01BAB1FA81F112
:1007700001F0180122FA01F0CB40C1F12001DBB2F7
:10078000C0B2C01A2CFA01F3D11A914311EAC31175
:10079000E6D1704770477047704770472DE9F047C2
:1007A0000D4699469246044600F1240801688806E1
:1007B00004D5E06921F01001216000E00120A84289
:1007C00001DD471B00E00027A1697A1902EB09004F
:1007D000081AA0612078C00602D42046FFF7EEFD7B
:1007E000002608E0D4E901211AF806009047206AA3
:1007F000401C761C20624E45F4DB2078C0060AD5EA
:100800002046FFF7DBFD06E0D4E9012130209047C8
:10081000206A401C2062381EA7F10107F4DC07E0C3
:10082000D4E9012118F805009047206A401C206295
:10083000281EA5F10105F3DC2046FFF7D5FD207841
:10084000000602D50220BDE8F0870120FBE710B5C5
:10085000436913B1AFF3008001E0FFF7D6FD01203B
:1008600010BD127800F124010A7000224A700122A2
:10087000EDE711684FF0FF32E9E70000074B70B574
:100880000D467B4400F011F80446284600F020F89D
:1008900010B14FF0FF3070BD204670BD1F630000E7
:1008A00001694A1C02610878704700B58FB0CDE934
:1008B00001310021059105497944CDE90310114624
:1008C0006846FFF733FE0FB000BD0000E5FFFFFFF5
:1008D000007B00F080007047754600F02BF8AE46B4
:1008E00005006946534620F00700854618B020B53C
:1008F000FFF7AAFCBDE820404FF000064FF00007CC
:100900004FF000084FF0000B21F00701AC46ACE8B7
:10091000C009ACE8C009ACE8C009ACE8C0098D4624
:10092000704710B50446AFF300802046BDE8104084
:10093000FFF776BC00487047ACC2002000BFFEE75E
:100940007047000070B50446B3F5804F13D1D1E96C
:10095000000540EA05108D6840EA05208D692843AE
:100960008D8940EA054054F82250064E3540284310
:1009700044F8220003E06FF0704044F822000020A9
:1009800070BD00000000F0CF70B50246086852F854
:10099000200020F001000E6842F826008868082830
:1009A00001D1402300E00023486818438E6830439B
:1009B000CE6830430E6930434E693043CE693043D0
:1009C0000E6A30434E6A30438E6A3043CE6A3043FB
:1009D0000E6B40EA060488690443486B0443074DE4
:1009E00045F4806545F4E025086852F82000A843E6
:1009F00020430E6842F82600002070BD7FFB0800EF
:100A000010B50346D1E9000440EA04108C6840EABE
:100A100004208C8940EA0444088A401E44EA0054B9
:100A2000087D801E44EA00608C692043541C53F802
:100A3000244004F040442043541C43F82400002088
:100A400010BD000070B50446002594F8210002286E
:100A500003D00420A0630125C1E02068006820F0D5
:100A60000E00216808602068006820F001002168FD
:100A700008605C492068884252D95A497839206810
:100A8000884201D1012047E05649643920688842F4
:100A900001D1102040E0534950392068884201D1EB
:100AA000801539E04F493C392068884201D18014D3
:100AB00032E04C4928392068884202D14FF4803016
:100AC0002AE0484914392068884202D14FF4801046
:100AD00022E044492068884201D140041CE0424998
:100AE0002068884201D1012016E03F491431206876
:100AF000884201D110200FE03B492831206888420C
:100B000001D1801508E038493C312068884201D184
:100B1000801401E04FF480303349091F086051E030
:100B2000304978392068884201D1012047E02D49B9
:100B300064392068884201D1102040E029495039A9
:100B40002068884201D1801539E026493C39206867
:100B5000884201D1801432E0224928392068884235
:100B600002D14FF480302AE01E49143920688842AF
:100B700002D14FF4801022E01A492068884201D146
:100B800040041CE018492068884201D1012016E089
:100B9000154914312068884201D110200FE0124914
:100BA00028312068884201D1801508E00E493C3187
:100BB0002068884201D1801401E04FF48030094957
:100BC00080394860012084F8210000BF002084F8AB
:100BD000200000BF606B10B12046616B884728463B
:100BE00070BD0000800002400804024010B50446B9
:100BF000A0B204F09FF810BD2DE9F847024600238B
:100C00009C467BE14FF0010808FA03F4D1F800801C
:100C100008EA0400A0427DD1DFF8F4A2D1F80480F4
:100C2000A8EB0A09D0453AD014DCB8F1030F50D034
:100C300009DCB8F1000F31D0B8F1010F1CD0B8F1C8
:100C4000020F49D120E0B8F1110F18D0B8F1120FFE
:100C500042D11EE0B9F5881F25D006DCB9F5803FEA
:100C600020D0B9F5801F37D11AE0B9F5001F18D090
:100C7000B9F5041F30D117E0D1F80CC02DE0D1F840
:100C80000C8008F1040C28E0D1F80C8008F1080C65
:100C900023E0D1F80C8008F10C0C1EE000BF00BF6F
:100CA00000BF00BF00BF00BFD1F80880B8F1000F3F
:100CB00002D14FF0040C0BE0D1F80880B8F1010F1D
:100CC00003D14FF0080C146102E04FF0080C54619E
:100CD00003E04FF0000C00E000BF00BFFF2801D888
:100CE000904601E002F104084646FF2802D84FEA88
:100CF000830803E0A3F108084FEA88084746D6F8BE
:100D000000804FF00F0909FA07F928EA09080CFAE0
:100D100007F900E07AE048EA0908C6F80080D1F84F
:100D2000048008F08058B8F1805F6FD100BFDFF811
:100D3000E481D8F8188048F00108DFF8D891C9F8A4
:100D40001880C846D8F8188008F00108CDF800804F
:100D500000BF00BF4FEAB9384FEA930958F829504D
:100D60004FEA83784FEA18794FF00F0808FA09F82C
:100D700025EA0805DFF8A081424502D14FF00008BE
:100D800024E0DFF89881424502D14FF001081DE0D0
:100D9000DFF88C81424502D14FF0020816E0DFF8FF
:100DA0008481424502D14FF003080FE0DFF87881DB
:100DB000424502D14FF0040808E0DFF87081424557
:100DC00002D14FF0050801E04FF006084FEA8379A1
:100DD0004FEA197908FA09F848EA0505DFF8508161
:100DE0004FEA930948F82950D1F8048008F4803874
:100DF000B8F5803F0BD1DFF83C81D8F8008048EA95
:100E00000008DFF83091C9F800800AE075E0DFF8EB
:100E10002481D8F8008028EA0008DFF81891C9F882
:100E20000080D1F8048008F40038B8F5003F0ED1F6
:100E3000DFF8008108F10408D8F8008048EA0008CB
:100E4000DFF8F09009F10409C9F800800DE0DFF83F
:100E5000E48008F10408D8F8008028EA0008DFF8E8
:100E6000D49009F10409C9F80080D1F8048008F48D
:100E70008018B8F5801F0ED1DFF8B88008F1080897
:100E8000D8F8008048EA0008DFF8A89009F10809BE
:100E9000C9F800800DE0DFF89C8008F10808D8F858
:100EA000008028EA0008DFF88C9009F10809C9F8E9
:100EB0000080D1F8048008F40018B8F5001F0ED1A6
:100EC000DFF8708008F10C08D8F8008048EA0008C4
:100ED000DFF8609009F10C09C9F800800DE0DFF837
:100EE000548008F10C08D8F8008028EA0008DFF8E0
:100EF000449009F10C09C9F800805B1CD1F800800E
:100F000028FA03F8B8F1000F7FF47CAEBDE8F8874B
:100F1000000011100010024000080140000C0140C8
:100F2000001001400014014000180140001C014065
:100F30000800014000040140024693680B400BB1D9
:100F4000012000E00020704710B5C26821EA0203CA
:100F500002EA010443EA0443036110BD0AB10161DE
:100F600001E00B040361704701480068704700000E
:100F70001400002010B50848006840F01000064931
:100F80000860052000F080F80F2000F007F800F05E
:100F90002BF8002010BD00000020024070B5044670
:100FA0000E4800784FF47A71B1FBF0F00C490968F3
:100FB000B1FBF0F5284601F08DFB08B1012070BDB2
:100FC000102C07D200222146501E00F01EF80548C2
:100FD000046001E00120F2E70020F0E71C0000209F
:100FE0000000002018000020704701460846002835
:100FF00009DB00F01F0301229A4043099B0003F123
:10100000E023C3F8002100BF70472DE9F05F804660
:101010000D461646002702F0E3FC074639462A46ED
:10102000334601F00700C0F1070ABAF1040F02D9F4
:101030004FF0040A01E0C0F1070AD14600F1040AAA
:10104000BAF1070F02D24FF0000A01E0A0F1030A43
:10105000D4464FF0010A0AFA09FAAAF1010A0AEA8B
:10106000020A0AFA0CFA4FF0010B0BFA0CFBABF177
:10107000010B0BEA030B4AEA0B042146404602F03F
:10108000B7FCBDE8F09F000000BF00F00702064B70
:1010900019684FF6FF031940044B0B4343EA022142
:1010A000014B196000BF70470CED00E00000FA052D
:1010B00070B504460D460CB9012070BD5A48006851
:1010C00000F00700A8420ED25748006820F0070041
:1010D0002843554908600846006800F00700A84208
:1010E00001D00120E9E7207800F0020002281DD19C
:1010F000207800F00400042805D14C48406840F4F2
:10110000E0604A494860207800F00800082805D1CE
:101110004648406840F4605044494860434840684D
:1011200020F0F000A168084340494860207800F0B2
:10113000010078B36068012806D13C48006800F4DB
:10114000003090B90120B8E76068022806D137481E
:10115000006800F0007040B90120AEE73348006835
:1011600000F0020008B90120A7E73048406820F0ED
:101170000300616808432D494860FFF7F5FE064605
:1011800009E0FFF7F1FE801B41F28831884202D965
:10119000032092E707E02548406800F00C006168F2
:1011A000B0EB810FEDD12048006800F00700A842A5
:1011B0000ED91D48006820F0070028431A4908602E
:1011C0000846006800F00700A84201D0012074E73B
:1011D000207800F00400042807D11448406820F467
:1011E000E060E168084311494860207800F0080099
:1011F000082808D10D48406820F46050216940EA71
:10120000C1000A49486000F03FF808494968C1F345
:101210000311074A515CC840064908600648006847
:10122000FFF7BCFE002048E700200240001002400B
:1012300010D40008000000201800002001480068B9
:10124000704700000000002000B5FFF7F7FF0449D9
:101250004968C1F30221034A515CC84000BD000047
:101260000010024020D4000800B5FFF7E7FF044952
:101270004968C1F3C221034A515CC84000BD000067
:101280000010024020D40008F0B585B00FF26C0CBD
:101290009CE8E01001A8A0E8E0101CA52D680095CE
:1012A00000210022002300240020194D696801F06C
:1012B0000C05F5B1042D02D0082D19D101E0154817
:1012C00019E001ADC1F38346AC5D01F4803555B141
:1012D0000F4D6D68C5F340451DF805200D4D654364
:1012E000B5FBF2F302E00C4D04FB05F3184602E0F7
:1012F00000BF084800BF00BF05B0F0BD02030405F1
:10130000060708090A0B0C0D0E0F10100102000051
:101310000010024000127A0000093D00F8B50446B2
:101320000CB90120F8BD207800F00100002878D029
:10133000F848406800F00C0004280CD0F5484068DC
:1013400000F00C00082811D1F248406800F4803009
:10135000B0F5803F0AD1EF48006800F40030002863
:101360005FD0606800285CD10120DBE700BF6068C7
:10137000B0F5803F06D1E748006840F48030E54989
:10138000086028E0606858B9E248006820F48030BE
:10139000E04908600846006820F4802008601AE0F0
:1013A0006068B0F5A02F0BD1DA48006840F48020C7
:1013B000D84908600846006840F4803008600AE0B8
:1013C000D448006820F48030D2490860084600689C
:1013D00020F48020086000BF606888B1FFF7C4FD7A
:1013E000054606E0FFF7C0FD401B642801D9032035
:1013F00098E7C848006800F400300028F2D010E0F8
:10140000FFF7B2FD054606E0FFF7AEFD401B64287E
:1014100001D9032086E7BF48006800F400300028A7
:10142000F2D1207800F00200022857D1B948406874
:1014300000F00C0050B1B748406800F00C000828DC
:1014400018D1B448406800F4803098B9B1480068B9
:1014500000F0020020B12069012801D0012061E7DD
:10146000AC48006820F0F800616940EAC100A94971
:10147000086033E02069E8B10120A7490860FFF760
:1014800073FD054606E0FFF76FFD401B022801D9FA
:10149000032047E79F48006800F002000028F2D0D0
:1014A0009C48006820F0F800616940EAC100994951
:1014B000086013E0002098490860FFF755FD0546D5
:1014C00006E0FFF751FD401B022801D9032029E760
:1014D0009048006800F002000028F2D1207800F067
:1014E000080008282DD1A069B8B101208B490860F7
:1014F000FFF73AFD054606E0FFF736FD401B0228E0
:1015000001D903200EE78348406A00F0020000285A
:10151000F2D0012001F036FB13E000207F49086083
:10152000FFF722FD054606E0FFF71EFD401B0228DF
:1015300001D90320F6E67748406A00F0020000284F
:10154000F2D1207800F00400042873D100277148FC
:10155000C06900F0805070B900BF6E48C06940F0AB
:1015600080506C49C8610846C06900F08050009006
:1015700000BF00BF01276A48006800F48070B0B95E
:101580006748006840F4807065490860FFF7ECFC2C
:10159000054606E0FFF7E8FC401B642801D903205C
:1015A000C0E65F48006800F480700028F2D000BFF9
:1015B000E068012806D15748006A40F0010055490B
:1015C000086227E0E06858B95248006A20F001003C
:1015D000504908620846006A20F00400086219E0D9
:1015E000E06805280BD14B48006A40F004004949E7
:1015F00008620846006A40F0010008620AE04548B7
:10160000006A20F00100434908620846006A20F0A1
:101610000400086200BFE068A0B1FFF7A5FC054622
:1016200009E0FFF7A1FC401B41F28831884202D952
:10163000032077E622E03748006A00F00200002825
:10164000EFD012E0FFF790FC054608E0FFF78CFCB6
:10165000401B41F28831884201D9032062E62D48BF
:10166000006A00F002000028F0D1012F05D12948BE
:10167000C06920F080502749C86100BFE069C8B345
:101680002448406800F00C00082860D0E069022877
:1016900048D1002020490866FFF766FC054606E0B1
:1016A000FFF762FC401B022801D903203AE61948E3
:1016B000006800F000700028F2D1206AB0F5803F89
:1016C00007D11448406820F40030A168084311494C
:1016D0004860D4E9080108430E49496821F47411AF
:1016E00008430C49486001200B490866FFF73CFCA1
:1016F000054607E03DE0FFF737FC401B022801D913
:1017000003200FE60348006800F000700028F2D0C4
:101710002FE00000001002400000424280044242DC
:1017200000700040002014490866FFF71DFC0546C4
:1017300006E0FFF719FC401B022801D90320F1E560
:101740000E48006800F000700028F2D111E0E06956
:10175000012800D1E6E50948466806F48031206A90
:10176000814204D106F47011606A814201D00120E7
:10177000D8E50020D6E500000000424200100240FB
:1017800010B50246506E800F0870506EC0F3836033
:101790004870506EC0F301608870506E000CC870C5
:1017A000B2F86400000A087192F864004871906E03
:1017B000000DC880906EC0F3034008726820805A04
:1017C000C0F3C03048726820805AC0F380308872FD
:1017D0006820805AC0F34030C8726820805AC0F335
:1017E0000030087300204873506C002836D1682000
:1017F000805A8005030DD06E43EA90700861D06E68
:10180000C0F3C2600875D06EC0F302604875D06E38
:10181000C0F342508875D06EC0F38240C875D06E58
:10182000C0F3C23008760869401C50650B7E506DCD
:1018300003F007039B1C01249C4060435065087A19
:1018400000F00F03012098409065D2E915035B0A70
:101850005843D0654FF40073136621E0506C0128A3
:1018600013D16820805C8006830AD06E43EA104062
:1018700008610869401C83025365536DD3654FF4BA
:1018800000739365936D13660AE02E48136898639E
:10189000906B40F080509063012082F8340010BDBE
:1018A0006C20805AC0F3803001F8190F6C20805AE8
:1018B000C0F3C61048706C20805C00F07F00887018
:1018C000106FC00FC870106FC0F341700871106FB7
:1018D000C0F382604871106FC0F383508871106F3D
:1018E000C0F34050C87100200872106FC0F3004070
:1018F00048727020805AC0F3C03088727020805ABD
:10190000C0F38030C8727020805AC0F34030087332
:101910007020805AC0F3003048737020805AC0F3A2
:10192000812088737020805AC0F30120C873702012
:10193000805CC0F346000874012048741939002007
:10194000ADE70000FF054000F8B504460020009018
:101950006946204601F0FAFD054615B1A06B284303
:10196000A0630098C0F343263046F8BD10B5044686
:101970000CB9012010BD94F8340020B90020207764
:10198000204600F053F8032084F83400204600F08D
:101990000BF808B10120EDE70020A06320630120CF
:1019A00084F834000020E5E770B58AB004460020D2
:1019B000049005900690079008907620099007A85B
:1019C00007C88DE80700206804A90EC901F013F9C3
:1019D000064616B101200AB070BD00201249086009
:1019E000206801F022F901200F49A039C1F8A000B8
:1019F000204601F045FD05463DB1012084F8340044
:101A0000A06B2843A0630120E5E7204601F0B6FC67
:101A100005463DB1012084F83400A06B2843A06343
:101A20000120D8E70020D6E7A000304210B586B0EC
:101A300004464F49206888427ED100BF4D48406926
:101A400040F480604B4948610846406900F480607A
:101A5000019000BF00BF00BF00BF0846806940F092
:101A6000100088610846806900F01000019000BFF6
:101A700000BF00BF00BF00BF0846806940F01000F3
:101A800088610846806900F01000019000BF00BF27
:101A900000BF00BF00BF0846806940F010008861A9
:101AA0000846806900F01000019000BF00BF00BF31
:101AB00000BF00BF0846806940F0100088610846FA
:101AC000806900F01000019000BF00BF00BF00BFA0
:101AD00000BF0846806940F01000886108468069B0
:101AE00000F01000019000BF00BF00BF00BF00BFAA
:101AF0000846806940F0200088610846806900F04F
:101B00002000019000BF00BF00BF88150290022096
:101B10000390012004900320059002A91648FFF7C6
:101B20006BF84FF40070029002A91348FFF764F8B5
:101B30004FF48060029000E018E002A90E48FFF721
:101B40005BF84FF40060029002A90B48FFF754F8CD
:101B50004FF48050029002A90748FFF74DF8042087
:101B6000029002A90548FFF747F800BF06B010BD74
:101B700000800140001002400010014000140140AC
:101B80002DE9FF4F89B004468B469946DDF858A0F1
:101B9000FFF7EAF902900B9800905D46BBF1000F49
:101BA00007D1A06B40F00060A06301200DB0BDE83C
:101BB000F08F94F8340001287ED10020A0630098B3
:101BC00000EB0901E06D814205D9A06B40F0007087
:101BD000A0630120EAE7032084F834000020216894
:101BE000C862606C012802D00098400200904FF457
:101BF0000071206801F07AF88046B8F1000F0AD031
:101C00008E4821688863A06B40EA0800A063012029
:101C100084F83400CAE74FF0FF3003904FEA4920C0
:101C2000049090200590022006900020079001204B
:101C3000089003A9206800F0B9FFB9F1010F07D996
:101C4000022020632068009901F09CF8804606E09D
:101C5000012020632068009901F0B0F88046B8F1B7
:101C6000000F0DD0754821688863A06B40EA08001A
:101C7000A063012084F8340000202063012095E750
:101C8000049E3AE02068406B00F40040F0B1EEB1F1
:101C90000020019017E0206800F0D0FF07462F7069
:101CA0006D1C761E380A28706D1C761E380C287044
:101CB0006D1C761E380E00E0BAE028706D1C761E92
:101CC0000198401C019001980828E4D3FFF74CF9D3
:101CD0000299401A504502D2BAF1000F0DD157486F
:101CE00021688863A06B40F00040A063012084F865
:101CF000340000202063032058E72068406B40F246
:101D00002A3108400028BDD02068406B00F4807064
:101D1000D0B1B9F1010F17D9606C032814D0206835
:101D200001F0F0F88046B8F1000F0DD0434821686B
:101D30008863A06B40EA0800A063012084F83400A7
:101D400000202063012031E72068406B00F008008C
:101D500068B13A4821688863A06B40F00800A0632E
:101D6000012084F834000020206301201EE7206851
:101D7000406B00F0020068B1304821688863A06BB6
:101D800040F00200A063012084F8340000202063AA
:101D900001200BE72068406B00F0200068B1274865
:101DA00021688863A06B40F02000A063012084F8C4
:101DB0003400002020630120F8E629E0206800F0CC
:101DC0003DFF07462F706D1C761E380A28706D1C6B
:101DD000761E380C28706D1C761E380E28706D1C0F
:101DE000761EFFF7C1F80299401A504502D2BAF1A7
:101DF000000F0DD1114821688863A06B40F00040AE
:101E0000A063012084F83400002020630120CDE687
:101E10002068406B00F4001008B1002ECED140F2D3
:101E20003A5021688863012084F834000020BDE620
:101E3000A06B40F00050A0630120B7E6FF05400012
:101E40002DE9F04F89B00446894693469846FFF73E
:101E50008BF80290DA464E46B9F1000F07D1A06B1D
:101E600040F00060A063012009B0BDE8F08F94F855
:101E7000340001287ED10020A0630AEB0801E06D48
:101E8000814205D9A06B40F00070A0630120EBE710
:101E9000032084F8340000202168C862606C0128A7
:101EA00001D04FEA4A2A4FF40071206800F01EFF6B
:101EB00005464DB1764821688863A06B2843A0632E
:101EC000012084F83400CFE74FF0FF3003904FEA51
:101ED0004820049090200590002006900790012053
:101EE000089003A9206800F061FEB8F1010F07D93E
:101EF000202020635146206801F022F8054606E0C4
:101F0000102020635146206801F036F8054665B17F
:101F10005F4821688863A06B2843A063012084F890
:101F200034000020206301209EE7049F43E02068E6
:101F3000406B00F4804040B33FB30020019021E0AB
:101F400030780090761C7F1E3078009941EA00209E
:101F50000090761C7F1E3078009941EA0040009086
:101F6000761C7F1E3078009941EA00600090761C54
:101F70007F1E00E085E06946206800F077FE01984A
:101F8000401C019001980828DAD3FEF7EDFF029972
:101F9000411A1298814201D2129860B93C482168D6
:101FA0008863A06B2843A063012084F834000020DC
:101FB0002063032058E72068406B40F21A31084044
:101FC0000028B4D02068406B00F48070B8B1B8F13C
:101FD000010F14D9606C032811D0206800F092FF23
:101FE000054665B12A4821688863A06B2843A06331
:101FF000012084F8340000202063012034E72068A9
:10200000406B00F0080068B1214821688863A06B2C
:1020100040F00800A063012084F834000020206311
:10202000012021E72068406B00F0020068B11848E9
:1020300021688863A06B40F00200A063012084F84F
:1020400034000020206301200EE72068406B00F080
:10205000100068B10E4821688863A06B40F0100042
:10206000A063012084F83400002020630120FBE6F7
:1020700040F23A5021688863012084F8340000203F
:10208000F2E6A06B40F00050A0630120ECE60000F7
:10209000FF05400010B504460CB9012010BD606A70
:1020A00038B96068B0F5827F00D105E00021E161B8
:1020B00002E0002121616161A06AB0F5005F00D1FA
:1020C00000BF94F8510028B9002084F85000204641
:1020D00000F04AF8022084F851002068006820F0DF
:1020E000400021680860A08800F48270218901F412
:1020F00004410843A18901F400610843217C01F0F7
:1021000002010843217D01F001010843218B01F404
:1021100000710843217F01F0380108432021095D47
:1021200001F080010843218D01F40051084321682A
:1021300008600421A06901EA104021684860A06A93
:10214000B0F5005F03D1A08D80B2216808612068DE
:10215000C06920F400602168C8610020606501202A
:1021600084F85100002099E710B586B00446514923
:10217000206888424DD100BF00BF4F48806940F0C1
:1021800008004D4988610846806900F00800019008
:1021900000BF00BF00BF00BF00BF0846806940F01D
:1021A000080088610846806900F00800019000BFBF
:1021B00000BF00BF00BF00BF0846806940F00800B4
:1021C00088610846806900F00800019000BF00BFE8
:1021D00000BF4FF4005002900220039001200490B1
:1021E0000320059002A93548FEF706FD4FF4804014
:1021F00002900020039002A93048FEF7FDFC4FF446
:10220000004002900220039002A92C48FEF7F4FC43
:102210004DE02B492068884249D100BF00BF2648C5
:10222000806940F00400244988610846806900F014
:102230000400019000BF00BF00BF00BF00BF084600
:10224000806940F0040088610846806900F004005D
:10225000019000BF00BF00BF00BF00BF08468069FB
:1022600040F0040088610846806900F00400019095
:1022700000BF00BF00BF2020029002200390012079
:1022800004900320059002A90E48FEF7B5FC4020FB
:1022900002900020039002A90A48FEF7ADFC8020BE
:1022A00002900220039002A90648FEF7A5FC06B0A2
:1022B00010BD00000038004000100240000C01403A
:1022C00000300140000801402DE9FF5F04468846C8
:1022D00091461D460E9E012002900020019000BFF5
:1022E00094F85000012803D1022004B0BDE8F09F0B
:1022F000012084F8500000BFFEF736FE074694F830
:1023000051B060680390AA46BBF1010F0BD003984F
:10231000B0F5827F04D1A06810B9BBF1040F02D0E0
:10232000022001903DE1B8F1000F03D0B9F1000F98
:1023300000D015B90120019033E194F85100042830
:1023400002D0052084F8510000206065C4F8389060
:10235000E587A587C4F83080E586A586206460649B
:10236000A06AB0F5005F0DD100BF2068006820F4BE
:102370000050216808602068006840F4005021681F
:10238000086000BF2068006800F04000402805D0C9
:102390002068006840F0400021680860E068B0F5FF
:1023A000006F56D1606810B1BAF1010F09D1206BEE
:1023B00000882168C860206B801C2063E08E401E6E
:1023C000E0863FE02068806800F0020002281CD10F
:1023D000E08ED0B10298012817D1206B00882168C7
:1023E000C860206B801C2063E08E401EE0860020C9
:1023F0000290E08E48B9A06AB0F5005F05D1206870
:10240000006840F48050216808602068806800F00F
:10241000010068B1E08F58B12068C068A16B0880E6
:10242000A06B801CA063E08F401EE087012002901B
:10243000FEF79AFDC01BB04204D3701C10B10320FC
:102440000190AEE0E08E0028BCD1E08F0028B9D129
:1024500056E0606810B1BAF1010F09D1206B007825
:1024600021680873206B401C2063E08E401EE086CC
:1024700040E02068806800F0020002281CD1E08E55
:10248000D0B10298012817D1206B00782168087319
:10249000206B401C2063E08E401EE08600200290EE
:1024A000E08E48B9A06AB0F5005F05D120680068E9
:1024B00040F48050216808602068806800F00100C6
:1024C00068B1E08F58B12068C068A16B0870A06B3C
:1024D000401CA063E08F401EE08701200290FEF7C1
:1024E00043FDC01BB04201D3701C00B916B90320D4
:1024F000019056E0E08E0028BBD1E08F0028B8D1D3
:10250000A06AB0F5005F10D1334601221146204683
:10251000009701F04BF830B1606D40F0020060654B
:10252000032001903DE02068C06820688068C0F307
:102530000010E8B1204601F035F8012814D1606D93
:1025400040F00200606500BF2068006820F4005081
:10255000216808602068006840F400502168086025
:1025600000BF0120019003E04FF6EF702168886002
:102570003A463146204601F001F820B10120019091
:10258000202060650DE0A06850B900BF00200090D9
:102590002068C068009020688068009000BF00BF7D
:1025A00000BF012084F8510000BF002084F85000D3
:1025B00000BF019899E670B504460E4615461CB159
:1025C000A069B0F5807F01D1012070BD94F8410071
:1025D00028B9002084F84000204600F01FF804F1DC
:1025E00008012068FEF7D0F93146A2682068FEF79E
:1025F00007FA2946236BD4E90102FEF7A3F9A16883
:10260000206850F8210040F00100A268216841F8DC
:102610002200012084F841000020D6E710B586B0E2
:10262000044600BF1E48406940F480701C49486160
:102630000846406900F48070019000BF00BF00BFF1
:102640000846806940F0200088610846806900F0F3
:102650002000019000BF00BF00BF0846806940F025
:10266000400088610846806900F04000019000BF8A
:1026700000BF4CF2037002900220039001200490EE
:102680000320059002A90748FEF7B6FA4FF68070BE
:10269000029002A90448FEF7AFFA06B010BD000090
:1026A000001002400014014000180140042808D125
:1026B0004FF0E021096941F004014FF0E02211617F
:1026C00007E04FF0E021096921F004014FF0E0221A
:1026D0001161704770B504462546681EB0F1807FD1
:1026E00001D301200FE0681E4FF0E02148610F2167
:1026F0004FF0FF3001F07CF900204FF0E0218861BD
:1027000007200861002070BD10B504460CB90120F7
:1027100010BD94F83D0028B9002084F83C00204604
:1027200000F025F8022084F83D00211D206800F00B
:10273000CDFF012084F8460000BF84F83E0001214F
:102740003F200155402001554120015500BF00BFE9
:10275000012084F8420043200155442001554520C2
:10276000015500BF012084F83D000020D0E77047EC
:10277000014691F83D00012801D001207047022058
:1027800081F83D000868C06840F001000B68D8601F
:10279000164B0868984213D0154B086898420FD022
:1027A0000868B0F1804F0BD0124B0868984207D0F0
:1027B000114B0868984203D0104B086898420CD11E
:1027C0000868806800F00702062A0CD008680068D4
:1027D00040F001000B68186005E00868006840F0F0
:1027E00001000B6818600020C8E70000002C0140C1
:1027F000003401400004004000080040000C00408C
:10280000704700002DE9F0470446206805682068FD
:10281000C668206847694FF00008C14605F00F08F8
:10282000B8F1000F0AD105F0200038B106F0200001
:1028300020B1204600F0C2FFBDE8F087B8F1000FDC
:1028400071D007F0010018B906F4907000286AD022
:1028500005F0010030B106F4807018B1E06B40F073
:102860000100E06305F0040030B107F0010018B189
:10287000E06B40F00200E06305F0020030B107F0C9
:10288000010018B1E06B40F00400E06305F00800BF
:1028900048B106F0200010B907F0010018B1E06B54
:1028A00040F00800E063E06B68B305F0200028B159
:1028B00006F0200010B1204600F080FF206840693B
:1028C000C0F38019E06B00F0080010B9B9F1000FF7
:1028D00022D0204600F052FF2068406900F04000FE
:1028E000B0B12068406920F0400021684861606B09
:1028F00050B11848616B4863606BFEF7A3F810B1E4
:10290000606B416B88470CE02046FFF779FF08E0D9
:102910002046FFF775FF04E02046FFF771FF002017
:10292000E06389E7FFE705F0800030B106F0800042
:1029300018B1204601F010F87EE705F0400030B1F4
:1029400006F0400018B1204600F028FF74E700BFF1
:1029500072E700006937000810B504460CB9012081
:1029600010BDA06900B100E000BF94F8390028B99B
:10297000002084F83800204600F028F8242084F84D
:1029800039002068C06820F400502168C8602046E3
:1029900000F064FF2068006920F49040216808611D
:1029A0002068406920F02A00216848612068C068DA
:1029B00040F400502168C8600020E063202084F8C3
:1029C000390084F83A000020CAE7000010B586B04C
:1029D00004462849206888424AD100BF00BF2648E3
:1029E000806940F00400244988610846806900F04D
:1029F0000400019000BF00BF00BF00BF00BF084639
:102A0000806940F0040088610846806900F0040095
:102A1000019000BF00BF00BF00BF00BF0846806933
:102A200040F4804088610846806900F4804001904D
:102A300000BF00BF00BF4815029002200390012094
:102A400004900320059002A90C48FEF7D5F84FF436
:102A5000806002900020039002A90848FEF7CCF89D
:102A60002520FEF7C2FA032211462520FEF7CDFAF3
:102A700006B010BD003801400010024000080140BF
:102A800010B5034693F83A0020282FD101B10AB9B6
:102A9000012010BD00BF93F83800012801D10220A9
:102AA000F7E7012083F8380000BF99629A85DA853C
:102AB0000020D863222083F83A0000BF002083F86A
:102AC000380000BF1868C06840F480701C68E0607F
:102AD0001868406940F001001C6860611868C068AF
:102AE00040F020001C68E0600020D2E70220D0E720
:102AF0001D4A0168914236D11C49098801F4004100
:102B000089BB1A49098801F4804171B118490978D3
:102B10000A2903D00021154A118024E013490988AD
:102B200041F40041114A11801DE0114909780D2935
:102B300006D10E49098841F480410C4A118012E007
:102B40000B490978094A1288C2F30D02094B9954BE
:102B500006490988491C054A118011460988C72978
:102B600001DD002111807047003801401000002075
:102B700012000020C4010020704700BFFEE700BF24
:102B8000FEE7704708B508490968C9084FF47A722A
:102B9000B1FBF2F14143009100BF00BF00994A1E12
:102BA00000920029F9D108BD0000002010B50246AE
:102BB00000230868506248689062D1E9020420430B
:102BC0000C6920434C6920430343D06A20F0F7008E
:102BD0001843D062002010BD01460869C0B270479A
:102BE0000146086800F003007047024602F1140035
:102BF0004318186870470FB410B504460021DDE98A
:102C000003021043059A1043069A1043079A104393
:102C1000089A10430143606847F6FF6290430843F7
:102C20006060002010BC5DF814FB10B50446032062
:102C300020600220FDF7DAFF002010BD0146D1F828
:102C40008000704710B50246002308689060D1E903
:102C500001042043CC6820430C6920430343D0681F
:102C60006FF30B001843D060002010BD02460868C7
:102C7000C2F880000020704770B586B005460C464B
:102C800001943720029040200390002004904FF4DC
:102C90008060059001A92846FFF7D4FF41F28832F1
:102CA0003721284600F0A4F90646304606B070BD2C
:102CB00070B586B005460C460B482043019029208C
:102CC000029040200390002004904FF48060059013
:102CD00001A92846FFF7B6FF284600F091FA0646FC
:102CE000304606B070BD00000000108070B586B0A0
:102CF00005460C46019410200290402003900020CD
:102D000004904FF48060059001A92846FFF79AFFD0
:102D100041F288321021284600F06AF90646304612
:102D200006B070BD30B585B004460020009001901B
:102D3000029003904FF48060049069462046FFF7AC
:102D400081FF204600F034F90546284605B030BD25
:102D500030B585B004464FF4D5700090082001903E
:102D600040200290002003904FF480600490694658
:102D70002046FFF767FF204600F0CAFA05462846BE
:102D800005B030BD70B586B005460C4601941220E2
:102D9000029040200390002004904FF48060059042
:102DA00001A92846FFF74EFF41F28832122128463A
:102DB00000F01EF90646304606B070BD70B586B00C
:102DC00005460C46019411200290402003900020FB
:102DD00004904FF48060059001A92846FFF732FF68
:102DE00041F288321121284600F002F906463046A9
:102DF00006B070BDF0B585B0064614461D46009479
:102E00000720019040200290002003904FF4806042
:102E1000049069463046FFF715FF41F288320721DA
:102E2000304600F0E5F80746384605B0F0BD30B54D
:102E300085B004460020009002200190C02002903E
:102E4000002003904FF48060049069462046FFF70D
:102E5000F9FE204600F0A2F90546284605B030BD2F
:102E600070B586B005460C46019409200290C0203A
:102E70000390002004904FF48060059001A928463B
:102E8000FFF7E0FE284600F089F90646304606B016
:102E900070BD70B586B005460C4601940D200290B9
:102EA00040200390002004904FF48060059001A919
:102EB0002846FFF7C7FE41F288320D21284600F070
:102EC00097F80646304606B070BD70B586B0054628
:102ED0000C46002001900320029040200390002027
:102EE00004904FF48060059001A92846FFF7AAFEE0
:102EF00022460321284600F0AFF90646304606B0C8
:102F000070BD000030B585B00446002000900C2054
:102F1000019040200290002003904FF480600490C4
:102F200069462046FFF78EFE044A0C21204600F039
:102F30005FF80546284605B030BD000000E1F50504
:102F400070B586B005460C460194192002904020C9
:102F50000390002004904FF48060059001A928465A
:102F6000FFF770FE41F288321921284600F040F840
:102F70000646304606B070BD70B586B005460C46B4
:102F800001941820029040200390002004904FF4F8
:102F90008060059001A92846FFF754FE41F288326F
:102FA0001821284600F024F80646304606B070BDC9
:102FB00001460E480068C0084FF47A73B0FBF3F086
:102FC00041F2883300FB03F200BF101EA2F10102A0
:102FD00002D14FF000407047486B00F0800000289D
:102FE000F3D0C52088630020F5E700000000002032
:102FF0002DE9F04305460F46904666480068C00834
:103000004FF47A71B0FBF1F000FB08F900BFB9F1A1
:103010000000A9F1010903D14FF00040BDE8F083A1
:103020006E6B06F045000028F1D006F40060002821
:10303000EDD1686B00F0040010B10420A863EDE747
:10304000686B00F0010010B10120A863E6E7C5201D
:10305000A8632846FFF7C0FDB84201D00120DDE794
:1030600000212846FFF7C1FD04464B48204008B91F
:103070000020D3E704F00040B0F1004F02D14FF040
:103080000070CBE704F08040B0F1804F01D14020C8
:10309000C4E704F00050B0F1005F01D18020BDE72B
:1030A00004F08050B0F1805F02D14FF48070B5E73A
:1030B00004F00060B0F1006F02D14FF40070ADE792
:1030C00004F08060B0F1806F02D14FF48060A5E71A
:1030D00004F08070B0F1807F02D14FF400609DE772
:1030E00004F40000B0F5000F02D14FF4805095E7D2
:1030F00004F48000B0F5800F02D14FF400508DE74A
:1031000004F40010B0F5001F02D14FF4804085E7B1
:1031100004F48010B0F5801F02D14FF400407DE729
:1031200004F48020B0F5802F02D14FF4003075E711
:1031300004F40030B0F5003F02D14FF480206DE779
:1031400004F48030B0F5803F02D14FF4002065E7F1
:1031500004F40040B0F5004F02D14FF480105DE759
:1031600004F48040B0F5804F02D14FF4001055E7D1
:1031700004F40050B0F5005F02D14FF480004DE739
:1031800004F00800082801D1000547E74FF480301B
:1031900044E700000000002008E0FFFD10B50146F4
:1031A00016480068C0084FF47A74B0FBF4F041F29E
:1031B000883400FB04F300BF181EA3F1010302D101
:1031C0004FF0004010BD4A6B02F045000028F3D0DC
:1031D00002F400600028EFD1486B00F0040010B149
:1031E00004208863EEE7486B00F0010010B1012075
:1031F0008863E7E7C52088630020E3E7000000203C
:1032000010B5014613480068C0084FF47A74B0FB4B
:10321000F4F041F2883400FB04F300BF181EA3F160
:10322000010302D14FF0004010BD4A6B02F045008F
:103230000028F3D002F400600028EFD1486B00F0C2
:10324000040010B104208863EEE7C52088630020E5
:10325000EAE70000000000202DE9F04304460F4695
:1032600090462A480068C0084FF47A71B0FBF1F02C
:1032700041F2883100FB01F900BFB9F10000A9F16A
:10328000010903D14FF00040BDE8F083666B06F002
:1032900045000028F1D006F400600028EDD1606BF5
:1032A00000F0040010B10420A063EDE7606B00F0B3
:1032B000010010B10120A063E6E72046FFF78CFC77
:1032C000B84201D00120DFE7C520A06300212046DD
:1032D000FFF78BFC054605F4604020B9280CA8F8E0
:1032E00000000020D0E705F48040B0F5804F02D107
:1032F0004FF40050C8E705F40040B0F5004F02D18C
:103300004FF48050C0E74FF48030BDE7000000204C
:1033100010B5014618480068C0084FF47A74B0FB35
:10332000F4F041F2883400FB04F300BF181EA3F14F
:10333000010302D14FF0004010BD4A6B02F045007E
:103340000028F3D002F400600028EFD1486B00F0B1
:10335000040010B104208863EEE7486B00F0010020
:1033600010B101208863E7E7486B00F0400008B126
:10337000402088630020DFE70000002030B58FB0D8
:103380000446012003902068FFF72AFC18B94FF08B
:1033900080600FB030BD606C03281BD02068FFF741
:1033A00046FD05460DB12846F3E700212068FFF7EA
:1033B0001CFC606704212068FFF717FCA067082148
:1033C0002068FFF712FCE0670C212068FFF70DFC76
:1033D00080210851606C032807D003A92068FFF7FB
:1033E00074FD05460DB12846D3E7606C032820D054
:1033F000BDF80C1021655022125B11042068FFF704
:103400002FFD05460DB12846C3E700212068FFF7D0
:10341000ECFB606604212068FFF7E7FBA06608214B
:103420002068FFF7E2FBE0660C212068FFF7DDFB78
:10343000206704212068FFF7D8FB010DE16404A98F
:103440002046FEF79DF910B14FF08050A1E75020C3
:10345000005B01040A4600232068FFF7CBFC054609
:103460000DB1284695E7D4E90412A069CDE9001210
:10347000029094E80F00FFF7BEFB002089E70000F0
:10348000F8B5044600200090002600272068FFF7CA
:1034900049FC05460DB12846F8BD2068FFF758FCE9
:1034A000054645B10021A1642068FFF73BFC0546B5
:1034B0001DB12846F0E70121A164A06C012808D1C4
:1034C00000212068FFF7D8FB054615B14FF080506A
:1034D000E2E71DE000212068FFF7CEFB05460DB1B5
:1034E0002846D9E718492068FFF7E2FB054615B1E1
:1034F0004FF08050D0E700212068FFF776FB0646AA
:10350000012080EAD67080F001070098401C0090EE
:103510004FF6FF710098884201D2002FDAD04FF6A3
:10352000FF710098884202D34FF08070B4E706F034
:103530008040B0F1804F02D10120606401E00020A2
:1035400060640020A8E70000000010C170B50446C8
:103550000D4615B94FF0006070BD5022125B11048A
:103560002068FFF796FC06460EB13046F4E70021CE
:103570002068FFF73AFB28600020EDE7F8B5044625
:103580000D4616462B46002280212046009600F06C
:103590000DF828B1606D40F0200060650320F8BD93
:1035A0000020FCE701460120704700002DE9F84F9C
:1035B00004460D4690461E46DDF82890FDF7D4FCE3
:1035C000A0EB0900371AFDF7CFFC82462C480068B3
:1035D000C0F3CB307843009045E0701C002842D007
:1035E000FDF7C2FCA0EB0A00B84200D2A7BB2068DE
:1035F000406820F0E000216848606068B0F5827F94
:103600000DD1A068B0F5004F03D0A068B0F5806F71
:1036100005D12068006820F0400021680860A06A99
:10362000B0F5005F0DD100BF2068006820F40050A5
:10363000216808602068006840F400502168086034
:1036400000BF012084F8510000BF002084F8500022
:1036500000BF0320BDE8F88FFFE7009800B90027FE
:103660000098401E0090206880682840A84201D140
:10367000012000E000204045AFD10020EAE7000033
:10368000000000207047704710B50E480068C06801
:1036900000F0010078B10C49086980470020094911
:1036A0000968486200BF642006490968C86264214D
:1036B0000448C16000BF6FF0010002490968086159
:1036C00010BD000064C20020D000002010B50268C8
:1036D000204B98420ED0204B98420BD0B0F1804F37
:1036E00008D01E4B984205D01D4B984202D01D4B6E
:1036F000984203D122F070024B681A43154B98424E
:103700000ED0154B98420BD0B0F1804F08D0134B20
:10371000984205D0124B984202D0124B984203D1E6
:1037200022F44072CB681A4322F080034C6943EACA
:10373000040202608B68C3620B688362054B984287
:1037400002D0054B984201D10B6903630123436109
:1037500010BD0000002C0140003401400004004076
:1037600000080040000C004070B505466C6A00205F
:10377000E085E0842046FFF743F870BD0168C96822
:1037800021F490710268D1600168496921F001015A
:1037900002685161202180F83A10704710B5044644
:1037A0002068C06820F040002168C860202084F8AC
:1037B00039002046FFF7E0F9002010BD70B504463F
:1037C00094F83A00222847D1A068B0F5805F0CD168
:1037D000206950B90025A66A20684068C0F3080037
:1037E0003080A06A801CA06215E0A56A0026A0684F
:1037F000B0F5805F03D0A06828B9206918B92068A7
:103800004068287004E02068406800F07F0028705D
:10381000A06A401CA062E08D401E80B2E085C8B95D
:103820002068C06820F020002168C8602068C06857
:1038300020F480702168C8602068406920F0010091
:1038400021684861202084F83A002046FFF750F9AB
:10385000002070BD0020FCE70220FAE770B50446A6
:103860002168096921F44051E2681143226811611D
:103870002269A1681143626941EA02052168C968A9
:1038800041F20C62914329432268D1602168496961
:1038900021F44071A2691143226851612D4A2168C7
:1038A000914202D1FDF7E0FC01E0FDF7CDFC00EB19
:1038B000C00101EB001162689200B1FBF2F100EB74
:1038C000C00202EB001263689B00B2FBF3F26423B8
:1038D000B2FBF3F202EBC20303EB0212A1EB820193
:1038E000322202EB01116422B1FBF2F101F0F0018E
:1038F00000EBC00202EB001263689B00B2FBF3F224
:103900006423B2FBF3F201EB021200EBC00101EB06
:10391000001163689B00B1FBF3F100EBC00303EB04
:1039200000136668B600B3FBF6F36426B3FBF6F348
:1039300003EBC30606EB0313A1EB8301322303EB76
:1039400001116423B1FBF3F101F00F01114422686E
:10395000916070BD00380140014691F8390021287E
:1039600028D18868B0F5805F0BD1086948B90A6A28
:103970001088C0F308000B685860086A801C086251
:1039800005E00B6A581C086218780B685860C88CF0
:10399000401E80B2C88458B90868C06820F0800012
:1039A0000B68D8600868C06840F040000B68D860B9
:1039B000002070470220FCE710B50648FEF722FF02
:1039C00000BF012204490348FFF75AF80028F8D144
:1039D00010BD00008C0200201200002000BFFEE796
:1039E00002480068C0F30220704700000CED00E0C0
:1039F00010B5002804DB0A07130E054A135406E02D
:103A00000A07140E034A00F00F031B1FD45410BD05
:103A100000E400E018ED00E030380A2801D201206F
:103A200070470020704700BF7047000070B5082045
:103A300000F054F90546092000F050F9044644F618
:103A40006771601A8C421DD00DDCA4F58040A0F592
:103A5000A270A8B1102812D0B0F53F6F11D0B0F508
:103A6000416F24D10AE0A0F2E67060B1A0F6FF60D9
:103A7000B0B1A0F580501938C8B909E000BF00BF47
:103A800000BF00BF00BF7D20B5FBF0F080B270BD6D
:103A90004FF6FF70854202D140F28350F7E700BF36
:103AA00068014FF47A71B0FBF1F080B2EFE7E410F7
:103AB00004F00304032C01D1012400E00024034896
:103AC00000EB4410290B30F81100E0E71A2E010832
:103AD00010B541F6056000F0F5F810BD10B50024F2
:103AE000042000F0FBF80446204610BD00B585B068
:103AF00000BF00BF3148806940F040002F49886115
:103B00000846806900F04000009000BF00BF00BF81
:103B100000BF00BF0846806940F080008861084609
:103B2000806900F08000009000BF00BF00BF00BFB0
:103B300000BF0846806940F08000886108468069BF
:103B400000F08000009000BF00BF00BF00BF00BFBA
:103B50000846806940F0100088610846806900F0DE
:103B60001000009000BF00BF00BF40200190012066
:103B7000029003900320049001A91148FDF73CF83E
:103B80008020019001A90F48FDF736F840200190F0
:103B900001A90C48FDF730F84FF4005001900020C7
:103BA0000290012003900320049001A90648FDF72C
:103BB00023F807F015FD002005B000BD00100240FD
:103BC00000180140001C0140001001402DE9F047A1
:103BD0000446884600252DE02846691C8DB234F83D
:103BE00010702846691C8DB234F8106006F400404D
:103BF00088B1C6F30E062846691C8DB234F81090C1
:103C000003E0F8B2494600F003FB301EA6F10101C3
:103C10008EB20FD0F5E708E02846691C8DB234F863
:103C20001090F8B2494600F0F3FA301EA6F10101F7
:103C30008EB2F1D14545CFDBBDE8F08710B500F07D
:103C40008BF84FF40261002000F0E2FA00BF4FF45D
:103C500000511A48FDF770F90028F8D000F0D3FAA7
:103C600000BF002240211648FDF778F900BF4D2023
:103C700000F0BEFAEA2000F0BBFA6D2000F0B8FABE
:103C8000542000F0B5FA002000F0B2FA002000F055
:103C9000AFFA002000F0ACFA002000F0A9FA96205C
:103CA00001F048F800BF012240210548FDF756F910
:103CB00000BF082000F012F810BD00000010014005
:103CC000001C014070B504462146072000F0A0FA10
:103CD000062000F003F80546284670BD70B505467D
:103CE000002400BF4FF400511948FDF725F90028C2
:103CF000F8D000F088FA00BF012240211548FDF7F6
:103D00002DF900BF00BF002280211248FDF726F9DF
:103D100000BF032000F06CFA284600F069FAFF208B
:103D200000F066FA04464FF6FF7000EA0424FF2014
:103D300000F05EFA204484B200BF012280210548D1
:103D4000FDF70CF900BF00F059FA204670BD0000E5
:103D500000100140001C014010B5002400BF0022EB
:103D600040211948FDF7FAF800BF142000F0E2FFE7
:103D700000BF012240211548FDF7F0F800BF00BF49
:103D8000012280211148FDF7E9F800BF00BF0122A0
:103D900040210D48FDF7E2F800BF04E0601CC4B20A
:103DA000322000F0E3FF4FF400510948FDF7C4F85A
:103DB00008B9C82CF2DB142000F0BCFFC82C01DBD2
:103DC000012010BD0020FCE700180140001C01404C
:103DD0000010014010B50021042000F019FA002164
:103DE000042000F015FA10BD70B588B0002604E07C
:103DF00000200DF80600701CC6B2202EF8DB002053
:103E0000FFF76CFF044644F0080444F00404214624
:103E1000002000F0FDF900250EE0684600F040F8B3
:103E200050B905F1200085B20020FFF757FF044686
:103E300004F0080000B902E0B5F5006FEDDB00BF4B
:103E4000B5F5006F19DA09F059F9C4B2002604E09B
:103E5000E0B20DF80600701CC6B2202EF8DB00257B
:103E600006E0684600F01CF810B905F1200085B2A4
:103E700040F604008542F4DB01E000F073F908200D
:103E8000FFF72CFF04460920FFF728FF204484B2E7
:103E90001CB1FFF761FF00F065F908B070BD0000CC
:103EA00070B505464FF400510F48FDF745F8B0B125
:103EB00000BF002240210D48FDF750F800BF00244C
:103EC00004E0285D00F094F9601CC4B2202CF8DBFB
:103ED00000BF012240210548FDF740F801E0012024
:103EE00070BD0020FCE7000000100140001C0140F4
:103EF00010B50A49087800F062F8084C2379E27896
:103F0000A178607800F032F82146487900F008F88E
:103F10002146887900F01DF810BD0000290000201E
:103F200070B505460020FFF7D9FE044624F01004C2
:103F300024F0800405F0010008B144F0100405F0FD
:103F4000020008B144F080042146002000F060F92E
:103F500070BD10B5044610214CF2170000F08EF928
:103F600021014CF2190000F089F910BD2DE9F0474C
:103F700006460F4690461D460024A5F108004FFA5C
:103F800080F909F00F044FF6FF7000EA041408F0FE
:103F90000F0004444FF6FF7000EA041407F00F000E
:103FA00004444FF6FF7000EA041406F00F002044AA
:103FB00084B22146022000F02BF9BDE8F08770B5ED
:103FC00005460024C5F1FE0084B24FF6FF7000EAFA
:103FD0000424C5F1FE00204484B221460B2000F0E9
:103FE00017F970BD10B5FFF7B7FE42F220010B20A4
:103FF00000F00EF94FF40261002000F009F900BF53
:104000004FF400515548FCF797FF0028F8D000F016
:10401000FAF800BF002240215148FCF79FFF00BF83
:10402000532000F0E5F8EF2000F0E2F86E2000F0F9
:10403000DFF8242000F0DCF8002000F0D9F80020A0
:1040400000F0D6F8002000F0D3F8002000F0D0F8FF
:10405000642000F06FFE00BF012240214048FCF7C1
:104060007DFF00BF00BF002240213D48FCF776FFE6
:1040700000BF452000F0BCF8782000F0B9F86920B6
:1040800000F0B6F8742000F0B3F8002000F0B0F8AB
:10409000002000F0ADF8002000F0AAF8002000F0A9
:1040A000A7F8642000F046FE00BF012240212C4802
:1040B000FCF754FF00BF00BF002240212848FCF756
:1040C0004DFF00BF532000F093F8EF2000F090F870
:1040D0006E2000F08DF8442000F08AF8002000F0F7
:1040E00087F8002000F084F8002000F081F800201C
:1040F00000F07EF8642000F01DFE00BF0122402188
:104100001748FCF72BFF00BF00BF002240211448D6
:10411000FCF724FF00BF452000F06AF8782000F08B
:1041200067F8692000F064F8742000F061F800205E
:1041300000F05EF8002000F05BF8002000F058F876
:10414000002000F055F8642000F0F4FD00BF0122CB
:1041500040210348FCF702FF00BF10BD00100140E2
:10416000001C014010B5002400BF4FF400511F484F
:10417000FCF7E2FE0028F8D0FF2000F039F8002418
:104180000DE040F60401002000F042F8022000F0AB
:10419000D1FD2046611CCCB2642800DD05E0002082
:1041A000FFF79CFDB0F5006FEBD100BF00BF4FF4EF
:1041B00000510E48FCF7C0FE0028F8D000240AE0A9
:1041C0004FF41841032000F023F82046611CCCB2C4
:1041D000642800DD05E00320FFF780FDB0F5184FEF
:1041E000EED100BF142000F0A5FD10BD001001406D
:1041F00010B50446204607F031FA10BD10B5022074
:1042000007F048FA10BD10B5042007F043FA10BDBE
:1042100070B505460C4600BF4FF400511548FCF739
:104220008BFE0028F8D0FFF7EEFF00BF01224021EF
:104230001148FCF793FE00BF00BF002280210E480A
:10424000FCF78CFE00BF0220FFF7D2FF2846FFF7E5
:10425000CFFF2012FFF7CCFFE0B2FFF7C9FF00BF8E
:10426000012280210448FCF779FE00BFFFF7C6FF5A
:1042700070BD000000100140001C014070B50446F4
:104280000D4621460720FFF7C3FF00BF4FF4005142
:104290000448FCF751FE0028F8D029460620FFF715
:1042A000B7FF70BD00100140F0B595B0064600277D
:1042B0004FF49071002006F07DFC044631466846BC
:1042C00001F0B9FF0546BDB9B4B113E02146684617
:1042D00002F021F905460DB9A07E00B90BE004F10A
:1042E0001A0001F063FD054605F0F000402801D1F9
:1042F000781C87B2EAE700BF2146002006F048FCA0
:10430000384615B0F0BD0000FEB505460024002675
:104310005B48008830B900205A490880FFF786FBC7
:1043200057490880FFF7DAFB04465648008810B961
:1043300054480480A3E0534800888442FAD0002CFB
:10434000F8D050480480FFF771FB06464C480088BF
:10435000864201D04A4806803C2094FBF0F74FF497
:104360007840802110220223CDE9002102903A46B4
:10437000C8210A2005F077FE4FF478400021102371
:104380003A22CDE90010C8211A2005F097FD3C2003
:1043900094FBF0F100FB11474FF47840802110228C
:1043A0000223CDE9002102903A46C821222005F0DF
:1043B0005AFE4FF47840002110232F22CDE900103F
:1043C000C821322005F07AFD2D48008840B12C48E4
:1043D0000088B5FBF0F07D21B0FBF1F084B200E085
:1043E00000243C2094FBF0F74FF478408021102209
:1043F0000223CDE9002102903A46C8213A2005F077
:1044000032FE4FF47840002110233A22CDE900100B
:10441000C8214A2005F052FD3C2094FBF0F100FB3E
:1044200011474FF47840802110220223CDE900216A
:1044300002903A46C821522005F015FE4FF478400C
:10444000802110220423CDE9002102900C4802882B
:10445000C821782005F007FE4FF478400AA1102209
:104460001346CDE900210290C8221146982005F09C
:10447000C5FD00BF20210648FCF766FD00BFFEBD5C
:1044800006000020040000204B6270730000000052
:10449000000C01402DE9F84F82464FF0000800263D
:1044A0004FF41671002006F085FB05464FF480514D
:1044B000002006F07FFB074607B105B9FF26002E56
:1044C00056D1FFF791FCFFF713FDFFF783FC504631
:1044D00001F06CFC0446432C04D141F239512A48C6
:1044E000FFF774FB01225146284601F01FFD0446E8
:1044F000002C3CD1FFF782FE32E06B464FF4805235
:104500003946284601F0F3FE04464FF0000800BF8C
:1045100007EB0800FFF7C4FC20B908F120001FFAE0
:1045200080F812E0002002F059FE81464846B9F1B9
:10453000010F02D0022804D101E0012601E0022689
:1045400000BF00BF2869FFF7DFFEB8F5805FDFDB43
:10455000BDF80000B0F5805F00D10CB1012601E08C
:10456000002ECAD000BF284601F0A2FC00E0FF26C2
:104570003946002006F00CFB2946002006F008FB17
:104580003046BDE8F88F000028D400082DE9F04738
:1045900004460D4690469946AD1E606B00EB153AF9
:1045A000C5F3C80605F0070101208840C7B200BF67
:1045B00051460AF1010A204606F004FA10B1012022
:1045C000BDE8F08700BF00BF04F13C00805D3840CB
:1045D00008B1012000E00020484501D10220EFE7AA
:1045E00004F13C00805D784004F13C0188550120D5
:1045F000E070A8F10100B0F1000800D1E0E7780612
:10460000000E071EE0D10127701C0646B0F5007FA2
:10461000D9D30026CCE7000070B504460D46002033
:10462000E070401EA0632946204606F0CBF908B191
:10463000042070BD04F23A2005F01CFE4AF6552114
:10464000884201D00320F4E70B2214A104F13C00BE
:1046500005F026FF08B90120EBE794F83C00E928B3
:1046600007D094F83C00EB2803D094F83C00E828ED
:1046700011D103220CA104F1720005F011FF08B959
:104680000020D6E7052209A104F18E0005F008FFFD
:1046900008B90020CDE70220CBE70000EB7690457B
:1046A000584641542020200046415400464154338E
:1046B00032000000024600E0521C107810B1107861
:1046C0008842F9D1107870472DE9F84F8246154697
:1046D0001E46DAF800000090DAF8500000F10409F4
:1046E0004FF40072002328463146FBF7C0FD074611
:1046F0000098B0F80AC0624600233846FBF7B7FDC1
:10470000834600BF59F8044B14B90020BDE8F88F68
:10471000A34500D204E0ABEB040B09F10409F1E777
:1047200000BFD9F800005844F0E70246891ED0695E
:10473000801E884201D8002070475389106B03FB0C
:104740000100F9E72DE9F04780460C4604F11A0014
:1047500005F090FD10B10020BDE8F087207800F052
:104760003F00401E00EB800101EBC0054FF0010946
:10477000002621E01849895D081905F07BFD0746F0
:10478000B9F1000F11D0FF2D0BD8384602F064F8B4
:10479000824629466D1C38F8110002F05DF882450A
:1047A00001D00020D8E7B94605E04FF6FF708742F8
:1047B00001D00020D0E7761C0D2EDBD3207800F04E
:1047C000400038B1B9F1000F04D038F8150008B135
:1047D0000020C1E70120BFE7D03101082DE9F047F3
:1047E00006468A463468BAF1000F0AD1D4F814801C
:1047F000B8F1000F02D0E069404516D84FF001082B
:1048000013E05146304602F041FA0746022F02D229
:104810000120BDE8F087781C08B93846F9E7E0695F
:10482000B84201D93846F4E7D046A06908B900205B
:10483000EFE7207804284ED101224146204602F0BD
:10484000A0F805460DB1681C08B92846E1E7012328
:104850001A4629462046FFF799FE8146B9F1020F14
:1048600001D10120D5E7B9F1010F02D14FF0FF309E
:10487000CFE7BAF1000F02D10220F0710CE0F0791D
:10488000022809D108F10100854205D0B068A8EBE3
:104890000000B0610320F071F079022869D00AF1BC
:1048A0000100854207D1F06910B1F069401C00E0B9
:1048B0000220F0615DE0F06908B90120F0612A464C
:1048C0005146304602F03BF88146B9F1000F50D115
:1048D0000120F0614DE00025D04519D108F1010516
:1048E000E069A84200D802252946304602F0CEF9F8
:1048F0000746012F01D0781C08B9384689E73FB137
:104900006769022F03D3E069B84200D9B846002591
:10491000E5B9454600BF6D1CE069A84204D80225F0
:10492000454501D9002074E72946304602F0AEF92A
:10493000074607B909E0012F01D0781C08B93846AD
:1049400067E74545E7D1002063E700BF4FF0FF323E
:104950002946204606F098FB8146B9F1000F08D1A0
:10496000BAF1000F05D02A465146204606F08CFBCE
:104970008146B9F1000F0DD16561D4E90610801EA2
:10498000814202D8A069401EA061207940F0010058
:10499000207107E0B9F1010F02D14FF0FF3000E0C4
:1049A00001200546284634E72DE9F34F85B08146BE
:1049B000069800680290D9F80000D0F80CA00025F5
:1049C00000BF02A807F014F983460BF1010018B9E3
:1049D000062007B0BDE8F08FBBF5803F05D34FEA56
:1049E0001B4228466D1C2AF810201FFA8BF4202C3D
:1049F00003DB2F2C01D05C2C00D111E0802C06DAD7
:104A0000214679A0FFF756FE08B10620E1E7FF2D09
:104A100001D30620DDE728466D1C2AF81040D0E7B8
:104A200000BF202C01DA04260CE0002602E00298E8
:104A3000401C0290029800782F28F8D00298007845
:104A40005C28F4D002990698016008E0681E3AF8E4
:104A50001040202C02D02E2C00D002E06D1E002D24
:104A6000F4D100BF00202AF815000DB90620B0E7E8
:104A7000002700E07F1C3AF817002028FAD01FB961
:104A80003AF817002E2801D146F0030600E06D1E0B
:104A900025B1681E3AF810002E28F8D10B222021EB
:104AA00009F1400005F01BFD4FF00008CDF8108023
:104AB0000820039000BF38467F1C3AF8104004B924
:104AC00066E0202C03D02E2C04D1AF4202D046F059
:104AD0000306F0E7DDE90310884201D2AF4216D1A8
:104AE00003980B2802D146F0030651E0AF4201D0F3
:104AF00046F00306AF4200D94AE02F460820049052
:104B00000B2003904FEA88604FEA1068D3E7802CAF
:104B10000ADB46F00206204601F09EFE4FF46A7161
:104B2000019001F057FE0446FF2C11DD0398401E52
:104B30000499884204D846F0030603980490BAE723
:104B400022120498411C049109F140010A5418E012
:104B500024B1214627A0FFF7ADFD18B15F2446F030
:104B600003060EE0412C03DB5A2C01DC48F002085E
:104B7000612C06DB7A2C04DC48F00108A4F120004B
:104B800084B20498411C049109F140010C5492E74D
:104B900000BF99F84000E52802D1052089F84000BF
:104BA0000398082803D14FEA88604FEA106808F09C
:104BB0000C000C2803D008F00300032801D146F0B4
:104BC000020606F0020048B908F0010008B146F0FC
:104BD000100608F0040008B146F008064B2000F863
:104BE00009600020F5E60000222A3A3C3E3F7C7F27
:104BF000000000002B2C3B3D5B5D00002DE9F047E1
:104C000004460E4640220021204605F068FC85201F
:104C10002070C02084F820004025002080460746F0
:104C20004FF0010900BFC12228466D1C225400220A
:104C300028466D1C225400BFB9F1000F06D036F88B
:104C40001700B0F1000901D0781CC7B260194946BD
:104C500006F0E6FEAD1C05F01F000028ECD108F1BF
:104C6000010000F0FF0836F817000028DBD184F8B7
:104C7000237008F101006070304608F064FA824643
:104C8000514604F1240006F0CBFEBDE8F087000099
:104C900001460B48007888420FDC0948407888427A
:104CA00001DB0120704706488078884205DC044813
:104CB000C078884201DB0120F4E70020F2E7000021
:104CC000DD310108014610480079884219DC0E48A0
:104CD0004079884201DB012070470B488079884287
:104CE00005DC0948C079884201DB0120F4E7064869
:104CF000007A884205DC0448407A884201DB0120C2
:104D0000EAE70020E8E70000DD31010810B50446BD
:104D100000204FF0E0210861FDF7C8FC2046E117B4
:104D200004EB5171C1F3CF01014A118010BD0000A5
:104D30000800002070B504464FF47A7094FBF0F53B
:104D400094FBF0F100FB114603E0074800F00EF879
:104D50006D1E002DF9D12EB14FF47A7106FB01F0D2
:104D600000F004F870BD000040420F000146114AF7
:104D700012884A434FF0E0235A6100229A611A4692
:104D8000126942F001021A6100BF4FF0E02210697F
:104D900000F001021AB100F48032002AF5D04FF081
:104DA000E022126922F001024FF0E0231A61002292
:104DB0009A617047080000200EB54FF4784008A1B2
:104DC00010221346CDE900210290C8228C210A202E
:104DD00005F014F94FF47A70FFF7ACFF0EBD000038
:104DE0004D656D6F72792074657374000EB54FF464
:104DF000784008A110221346CDE900210290C82274
:104E00008C210A2005F0FAF84FF47A70FFF792FF30
:104E10000EBD000053696E6520776176652074656C
:104E2000737400003EB504460D464FF4784080216F
:104E300010220323CDE9002102902246DC210A2022
:104E400005F011F94FF47840002110232F22CDE90D
:104E50000010DC21222005F031F84FF47840802149
:104E600010220323CDE9002102902A46DC212A20CA
:104E700005F0F9F82A4621460148FBF793FA3EBDB2
:104E80007C3201083EB504464FF478400EA1102252
:104E90001346CDE900210290C822DC21782005F0DC
:104EA000ADF84FF47840802110220223CDE9002193
:104EB00002902246DC21982005F0D5F8214604A076
:104EC000FBF770FA3EBD0000564F4C3A0000000060
:104ED00043757272656E7420766F6C756D653A25D8
:104EE000640D0A000EB5FEF701FE0446002C26D024
:104EF00052A0FBF757FA21E04FF4784056A1102258
:104F00001346CDE900210290C82261210A2005F054
:104F100075F84FF4FA70FFF70DFF4FF6FF7052A1CE
:104F200010221346CDE900210290C82261210A20F7
:104F300005F064F84FF4FA70FFF7FCFEDCE706F0CA
:104F400041FC04466CB14DA0FBF72CFA08E000BF11
:104F500020215248FBF7F8FF00BFC820FFF7EAFE08
:104F6000F5E7002005F07EFD012005F07BFD00F057
:104F70007DFF4B49012208684AA100F0ADFF484976
:104F80000122486848A100F0A7FF01F0EBFD0446AC
:104F9000DCB14FF4784045A110221346CDE9002141
:104FA0000290C822A0210A2005F028F8C820FFF7A7
:104FB000C1FE4FF6FF704223F022A02100900A208C
:104FC00004F0B6FBC820FFF7B5FE3BA0FBF7EAF9FB
:104FD0004FF478403BA110221346CDE90021029006
:104FE000C82261210A2005F009F8FFF7E5FEFEF767
:104FF00025FE0546294636A0FBF7D4F9FFF7F6FE55
:10500000FEF7F0FF4FF6FF7017A110221346CDE90F
:1050100000210290C8228C210A2004F0EFFF0BE04F
:1050200000F060F800BF20211C48FBF78DFF00BF97
:105030004FF4FA70FFF77EFEF2E7000041544B2D6B
:105040004D4F3130353320696E6974206661696C6B
:105050006564210D0A0000004D4F31303533204585
:1050600072726F7221212100202020202020202018
:1050700020202020202020202020000041544B2DE3
:105080004D4F31303533207372616D5F696E6974D5
:10509000206661696C6564210D0A0000000C014006
:1050A00034000020303A0000313A0000466F6E7440
:1050B000204572726F7221004D4F31303533204FD1
:1050C0004B0D0A004D4F31303533204F4B0000005F
:1050D00052616D20546573743A3058253034580D40
:1050E0000A0000002DE9F04F9BB04FF0000B1BE0D1
:1050F0004FF4784099A110221346CDE90021029087
:10510000C822A0210A2004F079FFC820FFF712FE70
:105110004FF6FF70CE23F022A02100900A2004F069
:1051200007FBC820FFF706FE92A106A801F083F84E
:105130000028DDD18FA0FFF7B7F807461BE04FF43A
:1051400078408FA110221346CDE900210290C82299
:10515000A0210A2004F052FFC820FFF7EBFD4FF614
:10516000FF709223F022BE2100901E2004F0E0FA8E
:10517000C820FFF7DFFD002FE1D04FF49071002031
:1051800005F018FD044640F2FF11002005F012FD65
:1051900081467900002005F00DFD80461BE04FF4AC
:1051A00078407BA110221346CDE900210290C8224D
:1051B000A0210A2004F022FFC820FFF7BBFD4FF614
:1051C000FF709223F022BE2100901E2004F0B0FA5E
:1051D000C820FFF7AFFD002CE1D0B9F1000FDED001
:1051E000B8F1000FDBD0FEF7B7FDFEF7BBFFDC2008
:1051F0006E490870084600786438052190FBF1F08C
:10520000C0B20490FFF73EFE5AA106A801F013F8C1
:105210000646EEB9002519E0129880B205902146A5
:1052200006A801F078F906460EB9A07E00B90EE096
:1052300004F11A0000F0BAFD064606F0F00040281E
:1052400004D1059828F81500681C85B2E4E700BF72
:10525000002548A106A800F0EEFF06466CE038F8ED
:10526000151006A800F04EFC214606A801F053F9DF
:1052700006460EB9A07E00B960E04DA14846FBF796
:1052800019FA04F11A014846FBF738FA4FF6FF7095
:1052900000904A480288CE23B4210A2004F048FA3C
:1052A0004FF478410022102304F11A00CDE90132B5
:1052B00003910090414800881E3882B2B4210A2030
:1052C00006F09CFD3EA0FBF76DF804F11A0145A025
:1052D000FBF768F8691C88B23946FFF7A3FD40A0C8
:1052E000FBF760F84846FFF7D5F88246BAF1020F9F
:1052F00006D115B1681E85B20CE0781E85B209E0B2
:10530000BAF1010F05D1681C85B2BD4202DB002550
:1053100000E013E00A20FFF70DFD0BF1010000F0A3
:10532000FF0BBBF1190F07D100BF20213848FBF755
:105330000BFE00BF4FF0000B002E90D000BF2146A7
:10534000002005F025FC4946002005F021FC4146DF
:10535000002005F01DFC1BB0BDE8F08F4D555349F2
:10536000432066696C6520666F6C646572206572A7
:10537000726F7200303A2F4D5553494300000000C0
:105380004E6F206D757369632066696C65730000EC
:105390006D656D6F727920616C6C6F636174696F9C
:1053A0006E206661696C65640000000029000020C1
:1053B000303A2F4D555349432F000000140300206D
:1053C0002A2A2A2A2A2A2A2A2A2A2A2A2A2A2A2A3D
:1053D0002A2A2A2A2A2A2A2A2A2A2A2A2A2A2A2A2D
:1053E0000D0A0000506C6179696E673A20257320C0
:1053F000202020204B696C6F626974207261746593
:105400003A20313431314B6270730D0A00000000D4
:10541000000C01402DE9F04104460E46D4F800800E
:105420000021204600F06EFB05465DBB002700BF53
:105430004046A16B05F0C6FA054605B121E098F893
:105440000000042805D1E06B0078012121EAD0108A
:1054500009E0E06B0078E52802D0E06B007808B93D
:10546000012000E0002020B1781C0746B04201D1A5
:1054700007E000270121204600F041F90546002DF4
:10548000D6D000BF042D00D107252846BDE8F08105
:105490002DE9F04704468946204606F059FB10B135
:1054A0000120BDE8F08749462046FFF73EF9074650
:1054B000A7634FF40072002104F13C0005F00FF8DF
:1054C00060894FF40041B1EB402F01D8084601E05C
:1054D0006089400206464FF0000800E07608B6F505
:1054E000007F05D9304601F022F9B0F10008F5D06F
:1054F000B6F5007F17D932460021404604F0EFFF91
:10550000760A002500E035446089A84207D97A1957
:1055100060783346414600F0FDFB0028F3D040465A
:1055200001F00CF910E004F13C080126002500E030
:1055300035446089A84207D97A19607833464146D4
:1055400000F0E8FB0028F3D06089A84201D00120D8
:10555000A7E70020A5E72DE9F04F85B004462568B0
:105560000021204600F0CEFA07461FB1384605B0AC
:10557000BDE8F08F287804284CD1E86807F0E3FDF7
:1055800001903EE0296901F1240004F073FE0199C5
:10559000884200D035E0286990F8230003904FF04E
:1055A000400A002002901FE00AF01F0008B90AF12B
:1055B000020A296901EB0A0004F05CFE009001F088
:1055C0004BF98346EA68029932F8110001F044F978
:1055D000834500D00BE00398401EC0B203900AF14F
:1055E000020A0298401C029003980028DCD100BFF8
:1055F000039828B9E968029831F8100000B906E06C
:1056000000BF0021204600F0EAF8071EBAD000BF14
:105610003846ACE74FF0FF09CDF810904FF0FF305F
:10562000E06400BF2846A16B05F0CCF9074607B13E
:1056300062E0E06B06780EB904275DE0E06BC07AAB
:1056400000F03F0884F80680E52E05D008F0080039
:1056500040B1B8F10F0F05D04FF0FF094FF0FF3008
:10566000E06442E0B8F10F0F22D14B20005D00F062
:105670004000A0BB06F0400038B1E06B407B0490D6
:1056800006F0BF06B146206BE0644E450CD1E06BDE
:10569000417B0498814207D1E16BE868FFF752F83B
:1056A00010B1A9F1010000E0FF2000F0FF091CE0AB
:1056B000B9F1000F06D1E06B06F0F1F904998842C8
:1056C00000D119E04B20005D00F0010040B90B2231
:1056D00004F14001E06B04F0E3FE08B90CE004E0E3
:1056E0004FF0FF094FF0FF30E0640021204600F04A
:1056F00006F80746002F95D000BF384637E72DE95A
:10570000F041044688462768206B00F1200638786F
:10571000042801D1800601E04FF40010B04201D806
:105720000020A063A06B10B90420BDE8F081C6F38F
:10573000080000284AD1A06B401CA063606B38B9F8
:105740003889B0EB561F41D80020A0630420ECE755
:105750007889401E00EA5620002837D12046616B28
:1057600001F094FA0546012D01D80220DDE7681CFE
:1057700008B90120D9E7F869A84221D8B8F1000F8B
:1057800003D10020A0630420CFE72046616BFFF720
:1057900025F805460DB90720C7E7012D01D10220E4
:1057A000C3E7681C08B90120BFE729463846FFF760
:1057B0006FFE08B10120B8E7E07940F00400E07125
:1057C000656329463846FEF7B0FFA0632663C6F33B
:1057D000080107F13C000844E0630020A5E72DE93B
:1057E000F05F04468846042627684FF0FF0AD34638
:1057F0006CE03846A16B05F0E5F8064606B168E0B6
:10580000E06B05780DB9042663E03878042814D1DC
:10581000B8F1000F02D0832D51D15AE0852D4ED121
:10582000206BE064204604F093FD064626B93869F3
:10583000007900F03F00A0714BE0E06BC07A00F00F
:105840003F0984F80690E52D0AD02E2D08D029F0C6
:105850002000082801D1012000E00020404502D0AE
:105860004FF0FF0A2BE0B9F10F0F1CD105F04000FB
:1058700038B1E06B90F80DB005F0BF05AA46206B7B
:10588000E06455450BD1E06B407B584507D1E16B97
:10589000F86805F0B3FB10B1AAF1010000E0FF20A9
:1058A00000F0FF0A0BE0BAF1000F04D1E06B06F044
:1058B000F6F8584502D04FF0FF30E06409E00021CF
:1058C0002046FFF71CFF064606B102E0A06B002849
:1058D0008FD100BF0EB10020A0633046BDE8F09F1D
:1058E0002DE9F04F99B0044626684B20005D00F08A
:1058F000A00018B1062019B0BDE8F08F4FF0000BE2
:1059000001E00BF1010BF06830F81B000028F8D122
:105910003078042866D10BF10E000F21B0FBF1F0B6
:1059200000F1020949462046FFF774FD05460DB116
:105930002846E0E7A9F101002022216B02FB1010AC
:10594000E064E07900F00400002845D0E07920F020
:105950000400E071204600F0D7FF05460DB128464F
:10596000C9E74FF0FF322046616B00F0E8FF0546C3
:105970000DB12846BFE7A06870B32146684604F021
:10598000C7FC05460DB12846B5E770894002D4E949
:105990000431181841F10001C4E90401D4E9047389
:1059A000316901F138003A4606F00CF8D4E9047385
:1059B000316901F128003A4606F004F8E07940F038
:1059C0000100316981F82100684606F02FF805468C
:1059D0000DB128468FE700BFD6E90310FFF70EF997
:1059E000002088E70C2204F1400115A804F06AFDAC
:1059F0009DF85F0000F0010028B340214B200155C5
:105A00004FF0010A0EE0534615A904F14000F26878
:105A100001F0D6F82046FFF79EFD054605B104E0EB
:105A20000AF1010ABAF1640FEDD300BFBAF1640FB5
:105A300001D107205FE7042D01D028465BE79DF8E0
:105A40005F104B2001559DF85F0000F0020030B15F
:105A50000BF10C000D21B0FBF1F0401C00E0012027
:105A6000814649462046FFF7D5FC054675BBA9F19E
:105A70000100B0F1000929D0206BA0EB49112046AC
:105A800000F040F805460DBB04F1400006F007F8B1
:105A9000149000BF3046A16B04F094FF054605B199
:105AA00013E009F0FF02E16BF068149B05F08EFB38
:105AB0000120F07000212046FFF721FE054625B9A0
:105AC000A9F10100B0F10009E4D100BFC5B9304629
:105AD000A16B04F077FF054695B920220021E06B09
