:020000040800F2
:10000000200E00202D020008D52300082D22000814
:10001000D123000841090008212A0008000000003F
:10002000000000000000000000000000192400088B
:10003000150A000800000000D723000871240008FA
:10004000470200084702000847020008470200086C
:10005000470200084702000847020008470200085C
:10006000470200084702000847020008470200084C
:10007000470200084702000847020008470200083C
:10008000470200084702000847020008470200082C
:10009000470200084702000847020008470200081C
:1000A000470200084702000847020008470200080C
:1000B00047020008D124000809250008470200086B
:1000C00047020008470200084702000847020008EC
:1000D00047020008B529000847020008F529000872
:1000E00047020008470200084702000847020008CC
:1000F00047020008470200084702000847020008BC
:1001000047020008470200084702000847020008AB
:10011000470200084702000847020008470200089B
:10012000470200084702000847020008470200088B
:1001300000F002F800F06BF80AA090E8000C82448E
:100140008344AAF10107DA4501D100F060F8AFF26B
:10015000090EBAE80F0013F0010F18BFFB1A43F0A5
:1001600001031847604C0000804C00000A444FF027
:10017000000C10F8013B13F0070408BF10F8014B06
:100180001D1108BF10F8015B641E05D010F8016B4B
:10019000641E01F8016BF9D113F0080F1EBF10F8AF
:1001A000014BAD1C0C1B09D16D1E58BF01F801CBD2
:1001B000FAD505E014F8016B01F8016B6D1EF9D555
:1001C0009142D6D37047000000230024002500266A
:1001D000103A28BF78C1FBD8520728BF30C148BFAA
:1001E0000B607047642900F0B380752900F0B0807F
:1001F000782900F0E980632900F02583732900F055
:100200002A83002070471FB51FBD10B510BD00F038
:1002100064FB1146FFF7F7FF02F072FC00F082FB6F
:1002200003B4FFF7F2FF03BC02F01FFC094880474C
:1002300009480047FEE7FEE7FEE7FEE7FEE7FEE7C8
:10024000FEE7FEE7FEE7FEE704480549054A064BE0
:1002500070470000792400083101000820080020C0
:10026000200E0020200A0020200A002070470000F5
:100270000FB4044910B503AA029800F0F1FA10BCBB
:100280005DF814FB440000200FB41CB5074B06AA10
:100290007B4469460090059800F0B3FA0020694657
:1002A00000F0C2FA1CBC5DF814FB000095050000CC
:1002B00070B5044685690068C10601D5302600E0A6
:1002C0002026C00707D070BDD4E9012130469047F1
:1002D000206A401C20626D1EF6D570BD70B50446C4
:1002E00085690078C00707D170BDD4E901212020BD
:1002F0009047206A401C20626D1EF6D570BD70B517
:100300000C460546012A05D02878800600D5EA6902
:10031000002302E0012305E05B1C934202D2E05C73
:100320000028F9D1A869E618C01AA861286A1844FB
:1003300028622846FFF7BCFF04E0D5E9012114F844
:10034000010B9047B442F8D32846FFF7C7FF70BDB2
:100350002DE9F0410646002410687529314616A59E
:1003600010D0AFF30080002802DA404213A507E066
:1003700031688A0701D512A502E0490704D511A505
:10038000012401E0AFF3008000210A2206F12407D6
:1003900009E0B0FBF2FCB0FBF2F302FB1C003030D2
:1003A00078541846491C0028F3D123462A46304683
:1003B000BDE8F04100F0C6B9000000002D000000CB
:1003C0002B0000002000000070B504460D462146B9
:1003D0001068AFF300802188090502D50F4A7A44DE
:1003E00002E00E4A7A440E32002104F1240305E0B3
:1003F00000F00F060009965D5E54491C0028F7D1F5
:1004000020780023000704D5702D02D009B1022303
:1004100011322046BDE8704000F094B9FA42000065
:100420002DE9F05F894604464FF0000ADFF874B109
:10043000FB44C0F820A02046E1688847002874D01B
:10044000252806D0D4E901219047206A401C20626B
:10045000F1E700265F462046E168884720280546E8
:1004600007DB312D05D2781910F8200C08B10643AE
:10047000F1E7B00701D526F00406C4F81CA0002758
:10048000C4F818A02A2D09D0284602F0E7FA38B39C
:1004900004EB8708303DC8F8185019E059F8041BE0
:1004A000204604EB87029161E1688847012F0546E9
:1004B00018D1E069002820DA26F020061DE0D8F8DF
:1004C000180000EB800005EB40003038C8F8180039
:1004D0002046E1688847054602F0C0FA0028EED1C0
:1004E000012F0AD02E2D08D12046E16888477F1CB5
:1004F0000546022F46F02006C4DBA069002803DA77
:10050000404246F00106A061F00701D026F0100637
:100510006C2D0BD0682D09D04C2D39D06A2D35D0DB
:10052000742D35D07A2D33D016E038E0E1682F46AF
:1005300020468847B842054609D16C2F26D04FF493
:100540008060E168064320468847054604E06C2F3A
:100550001AD04FF4807006430DB3A5F1410019285D
:1005600002D8203546F400664A46294620462660D1
:100570004E46FFF737FE80B101280BD0F61D26F05E
:10058000070000F1080956E74020E4E78020D8E79B
:100590000020D6E706F104094DE7284652E7206A15
:1005A000BDE8F09FD042000030B505460B462A4614
:1005B00013F8014B12F8010B08B1A042F8D01CB19E
:1005C000002802D06D1CF1E7284630BD10B5431C51
:1005D00002E010F8011B71B18107FAD14FF001322E
:1005E00002C88C1A8C4314EAC211F9D0C01A0A0648
:1005F00003D0C01E10BDC01A10BD0A0401D0801E59
:1006000010BD0902FCD0401E10BD032A40F230800C
:1006100010F0030C00F0158011F8013BBCF1020F43
:10062000624498BF11F801CB00F8013B38BF11F8C4
:10063000013BA2F1040298BF00F801CB38BF00F8DB
:10064000013B11F0030300F02580083AC0F0088058
:1006500051F8043B083A51F804CBA0E80810F5E73C
:10066000121D5CBF51F8043B40F8043BAFF300801F
:10067000D20724BF11F8013B11F801CB48BF11F894
:10068000012B24BF00F8013B00F801CB48BF00F864
:10069000012B704710B5203AC0F00B80B1E818501C
:1006A000203AA0E81850B1E81850A0E81850BFF45C
:1006B000F5AF5FEA027C24BFB1E81850A0E81850FB
:1006C00044BF18C918C0BDE810405FEA827C24BF4F
:1006D00051F8043B40F8043B08BF7047D20728BFDD
:1006E00031F8023B48BF11F8012B28BF20F8023B2C
:1006F00048BF00F8012B70474FF000020429C0F0FA
:10070000128010F0030C00F0BF80CCF1040CBCF19F
:10071000020F18BF00F8012BA8BF20F8022BA1EB95
:100720000C0100F0B1B85FEAC17C24BF00F8012BD6
:1007300000F8012B48BF00F8012B70477047704745
:10074000704770472DE9F0470D469946924604469A
:1007500000F124080168880604D5E06921F0100141
:10076000216000E00120A84201DD471B00E00027D6
:10077000A1697A1902EB0900081AA0612078C00665
:1007800002D42046FFF794FD002608E0D4E90121B9
:100790001AF806009047206A401C761C20624E45DD
:1007A000F4DB2078C0060AD52046FFF781FD06E07D
:1007B000D4E9012130209047206A401C2062381E75
:1007C000A7F10107F4DC07E0D4E9012118F80500DE
:1007D0009047206A401C2062281EA5F10105F3DC29
:1007E0002046FFF77BFD2078000602D50220BDE8F9
:1007F000F0870120FBE7000001694A1C02610878CC
:10080000704700B58FB0CDE9013100210591054950
:100810007944CDE9031011466846FFF701FE0FB099
:1008200000BD0000E5FFFFFF0A6802F8010B0A6047
:10083000704710B5436913B1AFF3008001E0FFF7D3
:100840005EFD012010BD127800F124010A70002223
:100850004A700122EDE711684FF0FF32E9E700002E
:10086000074B70B50D467B44FFF7CBFF0446284687
:1008700000F02FF810B14FF0FF3070BD204670BD72
:100880007B2200004FF0000200B5134694469646C6
:10089000203922BFA0E80C50A0E80C50B1F1200193
:1008A000BFF4F7AF090728BFA0E80C5048BF0CC041
:1008B0005DF804EB890028BF40F8042B08BF70479F
:1008C00048BF20F8022B11F0804F18BF00F8012B11
:1008D0007047007B00F080007047754600F02CF8F0
:1008E000AE4605006946534620F00700854618B01D
:1008F00020B5FFF7A9FCBDE820404FF000064FF0FF
:1009000000074FF000084FF0000B21F00701AC4644
:10091000ACE8C009ACE8C009ACE8C009ACE8C00963
:100920008D46704710B50446AFF300802046BDE801
:100930001040FFF775BC000000487047C00700205A
:1009400000BFFEE72DE9F04188B004460D4616468B
:100950001F46DDF838801148114908601C2201A9A2
:100960000F48001DFFF796FE0D484760C0F808804D
:10097000C4600661456100210176417681760121DE
:10098000C17600210177417700F01AF918B10120F2
:1009900008B0BDE8F0810020FAE7000000640040E4
:1009A0009803002000B58BB000200690079001202E
:1009B000089000200190029003900490059001207F
:1009C00009900E200A9001A9104800F074F808B1AF
:1009D00000BFFEE70D4800F0E7F908B100BFFEE7F1
:1009E00002210A4800F052F808B100BFFEE740F2C9
:1009F000213007490860012048600020C8608860F5
:100A000002200861002008750BB000BD980300208B
:100A1000C0030020704770B504460D460023002631
:100A20000021224601E0481CC1B2505C10B1505C6C
:100A30003D28F8D150184078222801D0002070BD00
:100A400019E001E0481CC1B2505C10B1505C222892
:100A5000F8D10B46481CC1B201E0481CC1B2505C41
:100A600010B1505C2228F8D10E46481CC1B2681E55
:100A7000051E00D102E0505C0028E2D100BF9E427A
:100A800002DD581C1044DAE70020D8E710B5024612
:100A900092F82030012B01D0022B06D1106840695A
:100AA000084314686061002010BD506A40F4802043
:100AB00050620120F8E7F0B504460A46216894F830
:100AC0002050012D01D0022D74D1D1F8000240F048
:100AD0000100C1F80002107D00F01F06012000FA9D
:100AE00006F3D1F81C029843C1F81C02D069C8B9BA
:100AF000D1F80C029843C1F80C02908880B2968914
:100B000040EA064601F51070576940F837601088D2
:100B100080B2168940EA064601F51070576900EB6D
:100B2000C7004660D069012819D1D1F80C021843DA
:100B3000C1F80C02908880B2168840EA064601F59A
:100B40001070576940F83760908980B2168940EA82
:100B5000064601F51070576900EBC70046609069C2
:100B600028B9D1F804029843C1F8040204E0D1F88E
:100B700004021843C1F80402106928B9D1F814021C
:100B80009843C1F8140204E0D1F814021843C1F8E4
:100B90001402106A012804D1D1F81C021843C1F8CC
:100BA0001C02D1F8000220F00100C1F80002002070
:100BB000F0BDFFE7606A40F4802060620120F7E743
:100BC00070B504460CB9012070BD94F8200010B92E
:100BD000204600F0AFF82068006820F0020021688D
:100BE000086000F093FB05460DE000F08FFB401B12
:100BF0000A2808D9606A40F400306062052084F851
:100C000020000120E0E72068406800F00200002892
:100C1000EBD12068006840F001002168086000F016
:100C200075FB05460DE000F071FB401B0A2808D952
:100C3000606A40F400306062052084F820000120E2
:100C4000C2E72068406800F001000028EBD0207E59
:100C5000012806D12068006840F080002168086003
:100C600005E02068006820F0800021680860607E50
:100C7000012806D12068006840F040002168086023
:100C800005E02068006820F0400021680860A07E30
:100C9000012806D12068006840F020002168086023
:100CA00005E02068006820F0200021680860E07EF0
:100CB000012806D12068006820F010002168086033
:100CC00005E02068006840F0100021680860207F7F
:100CD000012806D12068006840F0080021680860FB
:100CE00005E02068006820F0080021680860607F47
:100CF000012806D12068006840F0040021680860DF
:100D000005E02068006820F0040021680860D4E94C
:100D10000201084321690843616908436168491E6B
:100D200008432168C86100206062012084F8200027
:100D3000002049E710B586B0044600BF1848C069D6
:100D400040F000701649C8610846C06900F00070A4
:100D5000019000BF00BF00BF0846806940F004005A
:100D600088610846806900F00400019000BF00BF60
:100D70008814029002200390012004900320059023
:100D800002A9084800F014F94FF400600290002016
:100D9000039002A9034800F00BF906B010BD000053
:100DA000001002400008014070B5044694F820008D
:100DB000012822D1022084F820002068006820F059
:100DC00001002168086000F0A1FA05460DE000F07E
:100DD0009DFA401B0A2808D9606A40F4003060621E
:100DE000052084F82000012070BD2068406800F0D4
:100DF00001000028EBD16062F6E7606A40F4002051
:100E000060620120F0E7000070B50446002594F808
:100E10002100022803D00420A0630125C1E020683E
:100E2000006820F00E00216808602068006820F04B
:100E30000100216808605C492068884252D95A49FB
:100E400078392068884201D1012047E05649643949
:100E50002068884201D1102040E053495039206871
:100E6000884201D1801539E04F493C3920688842D9
:100E700001D1801432E04C4928392068884202D1DF
:100E80004FF480302AE0484914392068884202D162
:100E90004FF4801022E044492068884201D1400488
:100EA0001CE042492068884201D1012016E03F49F8
:100EB00014312068884201D110200FE03B492831CD
:100EC0002068884201D1801508E038493C3120680B
:100ED000884201D1801401E04FF480303349091F6A
:100EE000086051E0304978392068884201D10120FA
:100EF00047E02D4964392068884201D1102040E044
:100F0000294950392068884201D1801539E02649A5
:100F10003C392068884201D1801432E022492839C6
:100F20002068884202D14FF480302AE01E491439EB
:100F30002068884202D14FF4801022E01A492068CC
:100F4000884201D140041CE018492068884201D140
:100F5000012016E0154914312068884201D1102083
:100F60000FE0124928312068884201D1801508E03D
:100F70000E493C312068884201D1801401E04FF4D1
:100F80008030094980394860012084F8210000BF81
:100F9000002084F8200000BF606B10B12046616B18
:100FA0008847284670BD00008000024008040240C7
:100FB0002DE9F847024600239C467BE14FF00108EB
:100FC00008FA03F4D1F8008008EA0400A0427DD1B9
:100FD000DFF8F4A2D1F80480A8EB0A09D0453AD092
:100FE00014DCB8F1030F50D009DCB8F1000F31D098
:100FF000B8F1010F1CD0B8F1020F49D120E0B8F1CF
:10100000110F18D0B8F1120F42D11EE0B9F5881FA8
:1010100025D006DCB9F5803F20D0B9F5801F37D147
:101020001AE0B9F5001F18D0B9F5041F30D117E048
:10103000D1F80CC02DE0D1F80C8008F1040C28E0A8
:10104000D1F80C8008F1080C23E0D1F80C8008F1ED
:101050000C0C1EE000BF00BF00BF00BF00BF00BF00
:10106000D1F80880B8F1000F02D14FF0040C0BE06A
:10107000D1F80880B8F1010F03D14FF0080C1461CA
:1010800002E04FF0080C546103E04FF0000C00E068
:1010900000BF00BFFF2801D8904601E002F104081C
:1010A0004646FF2802D84FEA830803E0A3F1080868
:1010B0004FEA88084746D6F800804FF00F0909FA32
:1010C00007F928EA09080CFA07F900E07AE048EA8B
:1010D0000908C6F80080D1F8048008F08058B8F1FB
:1010E000805F6FD100BFDFF8E481D8F8188048F046
:1010F0000108DFF8D891C9F81880C846D8F81880D8
:1011000008F00108CDF8008000BF00BF4FEAB938F1
:101110004FEA930958F829504FEA83784FEA187933
:101120004FF00F0808FA09F825EA0805DFF8A08152
:10113000424502D14FF0000824E0DFF89881424593
:1011400002D14FF001081DE0DFF88C81424502D149
:101150004FF0020816E0DFF88481424502D14FF0DB
:1011600003080FE0DFF87881424502D14FF0040810
:1011700008E0DFF87081424502D14FF0050801E038
:101180004FF006084FEA83794FEA197908FA09F80F
:1011900048EA0505DFF850814FEA930948F82950DD
:1011A000D1F8048008F48038B8F5803F0BD1DFF81F
:1011B0003C81D8F8008048EA0008DFF83091C9F88F
:1011C00000800AE075E0DFF82481D8F8008028EA82
:1011D0000008DFF81891C9F80080D1F8048008F4FD
:1011E0000038B8F5003F0ED1DFF8008108F104089F
:1011F000D8F8008048EA0008DFF8F09009F1040907
:10120000C9F800800DE0DFF8E48008F10408D8F8A0
:10121000008028EA0008DFF8D49009F10409C9F831
:101220000080D1F8048008F48018B8F5801F0ED132
:10123000DFF8B88008F10808D8F8008048EA00080C
:10124000DFF8A89009F10809C9F800800DE0DFF87F
:101250009C8008F10808D8F8008028EA0008DFF828
:101260008C9009F10809C9F80080D1F8048008F4CD
:101270000018B8F5001F0ED1DFF8708008F10C08D7
:10128000D8F8008048EA0008DFF8609009F10C09FE
:10129000C9F800800DE0DFF8548008F10C08D8F898
:1012A000008028EA0008DFF8449009F10C09C9F829
:1012B00000805B1CD1F8008028FA03F8B8F1000F19
:1012C0007FF47CAEBDE8F8870000111000100240EA
:1012D00000080140000C01400010014000140140D2
:1012E00000180140001C01400800014000040140BA
:1012F000024693680B400BB1012000E000207047CC
:101300000AB1016101E00B04036170470148006804
:101310007047000034000020034800680349097842
:101320000844014908607047340000203C00002058
:1013300010B50848006840F0100006490860052014
:1013400000F080F80F2000F007F800F02BF80020E4
:1013500010BD00000020024070B504460E48007821
:101360004FF47A71B1FBF0F00C490968B1FBF0F56C
:10137000284600F0F7FB08B1012070BD102C07D201
:1013800000222146501E00F01EF80548046001E0CE
:101390000120F2E70020F0E73C00002030000020B0
:1013A00038000020704701460846002809DB00F09D
:1013B0001F0301229A4043099B0003F1E023C3F875
:1013C000002100BF70472DE9F05F80460D461646AC
:1013D000002701F027FB074639462A46334601F02D
:1013E0000700C0F1070ABAF1040F02D94FF0040A4E
:1013F00001E0C0F1070AD14600F1040ABAF1070F73
:1014000002D24FF0000A01E0A0F1030AD4464FF0E7
:10141000010A0AFA09FAAAF1010A0AEA020A0AFA10
:101420000CFA4FF0010B0BFA0CFBABF1010B0BEAC2
:10143000030B4AEA0B042146404601F0FBFABDE8E3
:10144000F09F000000BF00F00702064B19684FF63E
:10145000FF031940044B0B4343EA0221014B19607F
:1014600000BF70470CED00E00000FA0570B50446BF
:101470000D460CB9012070BD5A48006800F0070005
:10148000A8420ED25748006820F00700284355496B
:1014900008600846006800F00700A84201D001205B
:1014A000E9E7207800F0020002281DD1207800F042
:1014B0000400042805D14C48406840F4E0604A49E3
:1014C0004860207800F00800082805D146484068A8
:1014D00040F46050444948604348406820F0F000C0
:1014E000A168084340494860207800F0010078B3C3
:1014F0006068012806D13C48006800F4003090B9CB
:101500000120B8E76068022806D13748006800F07B
:10151000007040B90120AEE73348006800F00200D7
:1015200008B90120A7E73048406820F0030061684F
:1015300008432D494860FFF7E9FE064609E0FFF73A
:10154000E5FE801B41F28831884202D9032092E7F0
:1015500007E02548406800F00C006168B0EB810F9F
:10156000EDD12048006800F00700A8420ED91D48C0
:10157000006820F0070028431A4908600846006800
:1015800000F00700A84201D0012074E7207800F0A5
:101590000400042807D11448406820F4E060E168A2
:1015A000084311494860207800F00800082808D155
:1015B0000D48406820F46050216940EAC1000A49A2
:1015C000486000F03FF808494968C1F30311074A31
:1015D000515CC8400649086006480068FFF7BCFE39
:1015E000002048E70020024000100240104300089D
:1015F00030000020380000200148006870470000DB
:101600003000002000B5FFF7F7FF04494968C1F337
:101610000221034A515CC84000BD00000010024096
:101620002043000800B5FFF7E7FF04494968C1F30C
:10163000C221034A515CC84000BD000000100240B6
:1016400020430008F0B585B00FF26C0C9CE8E01068
:1016500001A8A0E8E0101CA52D680095002100223B
:10166000002300240020194D696801F00C05F5B134
:10167000042D02D0082D19D101E0154819E001AD63
:10168000C1F38346AC5D01F4803555B10F4D6D68F3
:10169000C5F340451DF805200D4D6543B5FBF2F33C
:1016A00002E00C4D04FB05F3184602E000BF0848B9
:1016B00000BF00BF05B0F0BD02030405060708091E
:1016C0000A0B0C0D0E0F101001020000001002405A
:1016D00000127A0000093D00F8B504460CB901205B
:1016E000F8BD207800F00100002878D0F848406864
:1016F00000F00C0004280CD0F548406800F00C0005
:10170000082811D1F248406800F48030B0F5803FDD
:101710000AD1EF48006800F4003000285FD060680C
:1017200000285CD10120DBE700BF6068B0F5803F96
:1017300006D1E748006840F48030E549086028E0B9
:10174000606858B9E248006820F48030E0490860D9
:101750000846006820F4802008601AE06068B0F550
:10176000A02F0BD1DA48006840F48020D8490860E7
:101770000846006840F4803008600AE0D4480068F9
:1017800020F48030D24908600846006820F48020A8
:10179000086000BF606888B1FFF7B8FD054606E045
:1017A000FFF7B4FD401B642801D9032098E7C8481F
:1017B000006800F400300028F2D010E0FFF7A6FD2A
:1017C000054606E0FFF7A2FD401B642801D903206F
:1017D00086E7BF48006800F400300028F2D1207886
:1017E00000F00200022857D1B948406800F00C0010
:1017F00050B1B748406800F00C00082818D1B44830
:10180000406800F4803098B9B148006800F00200E8
:1018100020B12069012801D0012061E7AC480068AF
:1018200020F0F800616940EAC100A949086033E08E
:101830002069E8B10120A7490860FFF767FD054668
:1018400006E0FFF763FD401B022801D9032047E7AC
:101850009F48006800F002000028F2D09C48006811
:1018600020F0F800616940EAC1009949086013E07E
:10187000002098490860FFF749FD054606E0FFF79C
:1018800045FD401B022801D9032029E79048006844
:1018900000F002000028F2D1207800F008000828AB
:1018A0002DD1A069B8B101208B490860FFF72EFD4A
:1018B000054606E0FFF72AFD401B022801D9032058
:1018C0000EE78348406A00F002000028F2D00120B1
:1018D00000F082FD13E000207F490860FFF716FD4D
:1018E000054606E0FFF712FD401B022801D9032040
:1018F000F6E67748406A00F002000028F2D120782E
:1019000000F00400042873D100277148C06900F07A
:10191000805070B900BF6E48C06940F080506C497B
:10192000C8610846C06900F08050009000BF00BF49
:1019300001276A48006800F48070B0B96748006801
:1019400040F4807065490860FFF7E0FC054606E05A
:10195000FFF7DCFC401B642801D90320C0E65F4888
:10196000006800F480700028F2D000BFE068012811
:1019700006D15748006A40F001005549086227E047
:10198000E06858B95248006A20F0010050490862E6
:101990000846006A20F00400086219E0E0680528A3
:1019A0000BD14B48006A40F00400494908620846E0
:1019B000006A40F0010008620AE04548006A20F031
:1019C0000100434908620846006A20F004000862EA
:1019D00000BFE068A0B1FFF799FC054609E0FFF7FA
:1019E00095FC401B41F28831884202D9032077E6FA
:1019F00022E03748006A00F002000028EFD012E031
:101A0000FFF784FC054608E0FFF780FC401B41F22D
:101A10008831884201D9032062E62D48006A00F02F
:101A200002000028F0D1012F05D12948C06920F01B
:101A300080502749C86100BFE069C8B324484068A6
:101A400000F00C00082860D0E069022848D100208E
:101A500020490866FFF75AFC054606E0FFF756FCEA
:101A6000401B022801D903203AE61948006800F01B
:101A700000700028F2D1206AB0F5803F07D11448E9
:101A8000406820F40030A168084311494860D4E957
:101A9000080108430E49496821F4741108430C49B0
:101AA000486001200B490866FFF730FC054607E057
:101AB0003DE0FFF72BFC401B022801D903200FE675
:101AC0000348006800F000700028F2D02FE000000A
:101AD0000010024000004242800442420070004078
:101AE000002014490866FFF711FC054606E0FFF7E1
:101AF0000DFC401B022801D90320F1E50E480068C7
:101B000000F000700028F2D111E0E069012800D156
:101B1000E6E50948466806F48031206A814204D12E
:101B200006F47011606A814201D00120D8E50020DE
:101B3000D6E500000000424200100240042808D10F
:101B40004FF0E021096941F004014FF0E0221161FA
:101B500007E04FF0E021096921F004014FF0E02295
:101B60001161704770B504462546681EB0F1807F4C
:101B700001D301200FE0681E4FF0E02148610F21E2
:101B80004FF0FF3000F056FF00204FF0E021886159
:101B900007200861002070BD7047704710B50446EB
:101BA0000CB9012010BD94F83D0028B9002084F83C
:101BB0003C00204600F00CF8022084F83D00211D76
:101BC000206800F0C3FC012084F83D000020E9E714
:101BD00038B504460D492068884215D100BF0C482D
:101BE000C06940F002000A49C8610846C06900F0B7
:101BF0000200009000BF00BF012211461D20FFF728
:101C0000E2FB1D20FFF7CFFB38BD000000040040C1
:101C10000010024001460868C06840F001000B68EF
:101C2000D8600868806800F00702062A05D00868B6
:101C3000006840F001000B68186000207047704792
:101C400010B5044620680069C0F34000D8B1206890
:101C5000C068C0F34000B0B16FF0020021680861B5
:101C6000012020772068806900F0030018B1204629
:101C7000FFF7E5FF05E0204600F0ADF8204600F054
:101C8000ABF80020207720680069C0F38000D8B14D
:101C90002068C068C0F38000B0B16FF00400216814
:101CA0000861022020772068806900F4407018B134
:101CB0002046FFF7C4FF05E0204600F08CF82046E0
:101CC00000F08AF80020207720680069C0F3C00087
:101CD000D8B12068C068C0F3C000B0B16FF0080090
:101CE00021680861042020772068C06900F00300A3
:101CF00018B12046FFF7A3FF05E0204600F06BF87F
:101D0000204600F069F80020207720680069C0F3C1
:101D10000010D8B12068C068C0F30010B0B16FF0F7
:101D2000100021680861082020772068C06900F44D
:101D3000407018B12046FFF782FF05E0204600F012
:101D40004AF8204600F048F8002020772068006913
:101D500000F0010058B12068C06800F0010030B107
:101D60006FF0010021680861204600F036F8206815
:101D70000069C0F3C01058B12068C068C0F3C0103B
:101D800030B16FF08000216808612046FFF704FF42
:101D900020680069C0F3801058B12068C068C0F3A3
:101DA000801030B16FF0400021680861204600F0DB
:101DB00015F820680069C0F3401058B12068C06869
:101DC000C0F3401030B16FF0200021680861204658
:101DD000FFF7E3FE10BD70477047704770477047CC
:101DE00001460022002391F8392091F83A3042EA66
:101DF000030070472DE9F047044620680568206815
:101E0000C668206847694FF00008C14605F00F0812
:101E1000B8F1000F0AD105F0200038B106F020001B
:101E200020B1204600F038FCBDE8F087B8F1000F83
:101E30006DD007F0010018B906F49070002866D044
:101E400005F0010030B106F4807018B1E06B40F08D
:101E50000100E06305F0040030B107F0010018B1A3
:101E6000E06B40F00200E06305F0020030B107F0E3
:101E7000010018B1E06B40F00400E06305F00800D9
:101E800030B107F0010018B1E06B40F00800E063EA
:101E9000E06B68B305F0200028B106F0200010B117
:101EA000204600F0F9FB20684069C0F38019E06B20
:101EB00000F0080010B9B9F1000F22D0204600F060
:101EC000CBFB2068406900F04000B0B12068406959
:101ED00020F0400021684861606B50B11748616B89
:101EE0004863606BFEF790FF10B1606B416B8847F1
:101EF0000CE02046FFF773FF08E02046FFF76FFF76
:101F000004E02046FFF76BFF0020E0638CE705F05C
:101F1000800030B106F0800018B1204600F0E0FCEF
:101F200082E705F0400030B106F0400018B12046CD
:101F300000F0A2FB78E700BF76E700004526000826
:101F400010B504460CB9012010BDA06900B100E035
:101F500000BF94F8390028B9002084F838002046E2
:101F600000F028F8242084F839002068C06820F4A4
:101F700000502168C860204600F0E2FB206800693C
:101F800020F49040216808612068406920F02A0010
:101F9000216848612068C06840F400502168C8602A
:101FA0000020E063202084F8390084F83A00002003
:101FB000CAE7000010B586B004462549206888426B
:101FC00044D100BF2348806940F004002149886162
:101FD0000846806900F00400019000BF00BF00BF08
:101FE0000846806940F4804088610846806900F4B2
:101FF0008040019000BF00BF00BF0846806940F0EC
:10200000010088610846806900F00100019000BF6E
:1020100000BF481502900220039001200490032085
:10202000059002A90C48FEF7C3FF4FF480600290B0
:102030000020039002A90848FEF7BAFF2520FFF709
:10204000B2F9032211462520FFF7BDF906B010BDF5
:1020500000380140001002400008014010B503465E
:1020600093F83A0020282FD101B10AB9012010BD00
:1020700000BF93F83800012801D10220F7E70120C2
:1020800083F8380000BF99629A85DA850020D8630A
:10209000222083F83A0000BF002083F8380000BFF8
:1020A0001868C06840F480701C68E0601868406977
:1020B00040F001001C6860611868C06840F02000B2
:1020C0001C68E0600020D2E70220D0E71D4A0168CA
:1020D000914236D11C49098801F4004189BB1A4953
:1020E000098801F4804171B1184909780A2903D09F
:1020F0000021154A118024E01349098841F4004168
:10210000114A11801DE0114909780D2906D10E49A7
:10211000098841F480410C4A118012E00B4909788A
:10212000094A1288C2F30D02094B995406490988DD
:10213000491C054A118011460988C72901DD002183
:102140001180704700380140480000204A000020FC
:10215000900200202DE9F84304460D4616461F461E
:102160004FF0000994F8390020285CD105B116B968
:102170000120BDE8F88300BF94F83800012801D1A0
:102180000220F6E7012084F8380000BF0020E06359
:10219000212084F83900FFF7B9F88146A684E68447
:1021A0002BE0E08C401EE084A068B0F5805F16D183
:1021B0004B46002280212046009700F0C5FB08B165
:1021C0000320D6E7A846B8F80000C0F3080021684D
:1021D0004860206908B9AD1C0FE06D1C0DE04B464E
:1021E000002280212046009700F0AEFB08B10320BA
:1021F000BFE715F8010B21684860E08C0028D0D1BA
:102200004B46002240212046009700F09DFB08B17C
:102210000320AEE7202084F8390000BF002084F8B6
:10222000380000BFA5E70220A3E7704700BFFEE724
:1022300000B585B000BF1A48806940F00400184915
:1022400088610846806900F00400009000BF00BF6C
:1022500000BF0846806940F04000886108468069F8
:1022600000F04000009000BF00BF0120019000205E
:102270000290022003900320049001A90948FEF770
:1022800097FE182001900020029001200390032067
:10229000049001A90448FEF78BFE05B000BD0000C4
:1022A00000100240000801400018014010B504462B
:1022B000012C01D1234908702248007858B310211D
:1022C0002148FFF715F850B108211F48FFF710F813
:1022D00028B101211D48FFF70BF801281BD10A2066
:1022E00000F0D0FB00201749087010211648FEF7B7
:1022F000FFFF08B9012010BD08211348FEF7F8FFC1
:1023000008B90220F7E701211048FEF7F1FF012884
:1023100015D10320EFE710210B48FEF7E9FF012854
:102320000DD108210848FEF7E3FF012807D101215C
:102330000648FEF7DDFF10B90120024908700020B1
:10234000D9E700004B0000200018014000080140C0
:1023500000B585B000BF1B48806940F008001949EE
:1023600088610846806900F00800009000BF00BF47
:1023700000BF0846806940F04000886108468069D7
:1023800000F04000009000BF00BF2020019001201D
:10239000029003900320049001A90B48FEF708FE69
:1023A0002020019001A90948FEF702FE0122202108
:1023B0000548FEF7A5FF012220210448FEF7A0FFF3
:1023C00005B000BD00100240000C014000180140A3
:1023D00000BFFEE77047704708B508490968C9089B
:1023E0004FF47A72B1FBF2F14143009100BF00BF9C
:1023F00000994A1E00920029F9D108BD3000002042
:1024000010B54FF480720249024800F042FC10BD42
:102410007404002074050020704730B58FB0054665
:10242000002401200590000406900020079002205F
:102430000C90C1030D910E9505A8FFF74DF90446C8
:102440000CB100BFFEE70F20009002200190002099
:1024500002904FF4806003900020049002216846AF
:10246000FFF704F804460CB100BFFEE70FB030BD23
:1024700010B5FEF751FF10BD1148006840F0010093
:102480000F490860084640680E4908400C494860FA
:10249000084600680C490840094908600846006879
:1024A00020F4802008600846406820F4FE00486060
:1024B0004FF41F008860C80304490860704700009B
:1024C000001002400000FFF8FFFFF6FE08ED00E0FC
:1024D00010B50248FFF7B4FB10BD0000F403002064
:1024E00070B505460C460648064908600846446033
:1024F00000218160C5600161FFF750FB70BD0000E5
:1025000000040040F403002010B50E480068C068C5
:1025100000F0010078B10C490869804700200949A2
:102520000968486200BF642006490968C8626421DE
:102530000448C16000BF6FF00100024909680861EA
:1025400010BD0000800700209C00002010B502682C
:10255000204B98420ED0204B98420BD0B0F1804FC8
:1025600008D01E4B984205D01D4B984202D01D4BFF
:10257000984203D122F070024B681A43154B9842DF
:102580000ED0154B98420BD0B0F1804F08D0134BB2
:10259000984205D0124B984202D0124B984203D178
:1025A00022F44072CB681A4322F080034C6943EA5C
:1025B000040202608B68C3620B688362054B984219
:1025C00002D0054B984201D10B690363012343619B
:1025D00010BD0000002C0140003401400004004008
:1025E00000080040000C004038B504460D4600BF0E
:1025F0001148C06940F004000F49C8610846C0692D
:1026000000F00400009000BF00BF032211461E200E
:10261000FEF7D9FE1E20FEF7C6FE084808490860EE
:102620000846456000218160C4600161FFF7B6FA89
:102630000348FFF7EFFA38BD0010024000080040E1
:102640008007002070B505466C6A0020E085E084B4
:102650002046FFF7C4FB70BD0168C96821F4907182
:102660000268D1600168496921F001010268516185
:10267000202180F83A10704710B504462068C068E1
:1026800020F040002168C860202084F839002046EE
:10269000FFF7CBFD002010BD70B5044694F83A005A
:1026A00022284AD1A068B0F5805F13D1A56A2069BD
:1026B00040B920684068C0F308002880A06A801CE8
:1026C000A06219E020684068C0B22880A06A401C5F
:1026D000A06211E0206938B920684068C1B2A26ADE
:1026E000501CA062117007E02068406800F07F0174
:1026F000A26A501CA0621170E08D401E80B2E0857D
:10270000C8B92068C06820F020002168C86020682F
:10271000C06820F480702168C8602068406920F09B
:10272000010021684861202084F83A002046FFF724
:10273000CDFC002070BD0020FCE70220FAE700007D
:1027400070B504462168096921F44051E2681143DB
:10275000226811612269A1681143626941EA020598
:102760002168C96841F20C62914329432268D16013
:102770002168496921F44071A269114322685161BD
:10278000564A2168914254D1FEF74CFF00EBC0013C
:1027900001EB001162689200B1FBF2F100EBC002A4
:1027A00002EB001263689B00B2FBF3F26423B2FBFE
:1027B000F3F202EBC20303EB0212A1EB820132221D
:1027C00002EB01116422B1FBF2F101F0F00100EB28
:1027D000C00202EB001263689B00B2FBF3F26423B9
:1027E000B2FBF3F201EB021200EBC00101EB0011AE
:1027F00063689B00B1FBF3F100EBC00303EB001334
:102800006668B600B3FBF6F36426B3FBF6F303EB9E
:10281000C30606EB0313A1EB8301322303EB011183
:102820006423B1FBF3F101F00F01114422689160C0
:1028300053E0FEF7E7FE00EBC00101EB0011626818
:102840009200B1FBF2F100EBC00202EB00126368F0
:102850009B00B2FBF3F26423B2FBF3F202EBC20380
:1028600003EB0212A1EB8201322202EB011164227E
:10287000B1FBF2F101F0F00100EBC00202EB00123B
:1028800063689B00B2FBF3F26423B2FBF3F201EB4B
:10289000021200EBC00101EB001163689B00B1FB69
:1028A000F3F100EBC00303EB00136668B600B3FB63
:1028B000F6F36426B3FBF6F303EBC30606EB031350
:1028C000A1EB8301322303EB01116423B1FBF3F18C
:1028D00001F00F0111442268916070BD0038014081
:1028E000014691F8390021282CD18868B0F5805F25
:1028F0000FD10A6A1088C0F308000B685860086995
:1029000018B9086A801C086209E0086A401C08625D
:1029100005E00B6A581C086218780B685860C88C70
:10292000401E80B2C88458B90868C06820F0800092
:102930000B68D8600868C06840F040000B68D86039
:10294000002070470220FCE72DE9F04104460D46C7
:1029500017469846069E21E0701CF8B12EB1FEF78E
:10296000D5FCA0EB0800B04218D92068C06820F45C
:10297000D0702168C8602068406920F0010021689B
:102980004861202084F8390084F83A0000BF002014
:1029900084F8380000BF0320BDE8F081206800689B
:1029A0002840A84201D1012000E00020B842D3D045
:1029B0000020F1E710B500240C48FFF71BFA00BF18
:1029C00001E0641C00BF0948FFF70AFA2028F8D18B
:1029D00000BF002401E0641C00BF01220449034839
:1029E000FFF73CFB0028F6D100BF10BD58030020C4
:1029F0004A00002008B5084800680068C0F340108D
:102A000048B1054800684068C0B20090012269469C
:102A1000024800F02BF908BD3404002074050020A2
:102A200000BFFEE702480068C0F3022070470000C4
:102A30000CED00E010B5002804DB0A07130E054A70
:102A4000135406E00A07140E034A00F00F031B1F7D
:102A5000D45410BD00E400E018ED00E030380A283E
:102A600001D2012070470020704700BF704700006E
:102A700010B504460420FFF761F80148046010BD5A
:102A80004000002030B50446002504E04FF47A7081
:102A900000F004F86D1CA542F8D330BD70B50346B4
:102AA00000224FF0E02675690D4E366803FB06F4F0
:102AB0004FF0E026B16910E04FF0E026B06988429F
:102AC0000BD0884202D20E1A324402E02E1A0E4473
:102AD00032440146A24200D300E0EDE700BF70BDE2
:102AE0004000002000BF054A126802F04002002AA0
:102AF000F9D0C2B2014B1B1D1A607047003801406B
:102B000008B500260024FEF713FC4FF4E010FFF791
:102B100084FC4820FFF7ACFF4FF4E13000F08AFA64
:102B20002C48416854208847FFF712FCFFF780FBD0
:102B3000002004235A044FF4E0010090FDF702FF47
:102B4000FDF730FF47216320FFF7CAFC032000F0A8
:102B500027F93EE00020FFF7A9FB0546012D0AD129
:102B60001D49C868FDF732FDC7B21B49C868394620
:102B700000F016FB00E000BF00BF0BE02146621C26
:102B800094B2164A8818012100F086FAB4F5007F45
:102B900000DB002400F02EF80028EFD1002C07DD28
:102BA00021460E4800F062FA0DA0FDF761FB0024FB
:102BB0000A20FFF767FF701CC6B2142096FBF0F1E5
:102BC00000FB116028B907480068C0430649C1F8F6
:102BD0009401BFE79C000020180000209001002015
:102BE0000D0A0000940123420000234201460868B8
:102BF0007047000010B5044800F051F808B90120F2
:102C000010BD0020FCE700007405002000B503465D
:102C1000184600F005F89988081A401E80B200BDD9
:102C20000146C8880A89904204DBC8880A89801A4C
:102C300080B2704788880A89801ACA88104480B296
:102C4000F7E770B50B46002100BF0CE05C5CC6885E
:102C50000568AC55C488641C858894FBF5F605FBB3
:102C60001644C480491C9142F0DB70BDF0B50546A6
:102C70000E4614462846FFF7C9FF0746A74201DA69
:102C80000120F0BD224631462846FFF7DAFF00203A
:102C9000F7E7016082800023C3800381704701460B
:102CA000C8880A89904201D1012070470020FCE7C2
:102CB000F0B503460F46144600251846FFF7B0FF4F
:102CC0000646A64200DD264600250CE01989186854
:102CD000405C78551889401C998890FBF1F201FB03
:102CE000120018816D1CB542F0DB3046F0BD0000CB
:102CF0002DE9F04106460F46144600254FF40071B9
:102D00001F48FDF7F9FCFFF77BFB3046FDF75EFC43
:102D100080464146304600F03BF830E039461848DE
:102D2000FDF742FC10B10120BDE8F08115A1144867
:102D3000FDF73AFC08B10020F6E713A11048FDF7B3
:102D400033FC10B14FF0FF30EEE7FFF753FF60B1F7
:102D500029466D1C0A4A8818012100F09DF9B5F535
:102D6000007F0CD34FF0FF30DEE7641E24B9FFF77D
:102D700047FB6FF00100D7E76420FFF783FECDE744
:102D8000800500204F4B00004552524F520000007A
:102D900070B505460C46E1B2284600F001FA70BD58
:102DA00030B585B0054600BF00BF4648806940F099
:102DB0000400444988610846806900F004000090DE
:102DC00000BF00BF00BF00BF00BF0846806940F0E1
:102DD000040088610846806900F00400009000BF8C
:102DE00000BF00BF00BF0846806940F00100886155
:102DF0000846806900F00100009000BF00BF00BFDE
:102E00003149486820F0E06040F00070486000BF41
:102E10004FF40040019001200290039003200490A1
:102E200001A92A48FEF7C4F800BF0122D1032748B0
:102E3000FEF766FA00BF10200190012003900020E9
:102E4000029001A92148FEF7B3F84FF4E13000F0F9
:102E50002FF900BF00F08AF80028FBD1062D28D2F8
:102E6000DFE805F003090F151B210C21184800F0BD
:102E70003BF804461EE00D21164800F035F80446E4
:102E800018E00C21144800F02FF8044612E00D2140
:102E9000124800F029F804460CE01121104800F017
:102EA00023F8044606E001210E4800F01DF8044610
:102EB00000E000BF00BF1CB16FF0010005B030BDE5
:102EC0000020FBE700100240000001400008014024
:102ED00028430008B843000854440008E4440008AC
:102EE000804500084C4600082DE9F04105460E4695
:102EF0000027002432E004EB440105EB810148681F
:102F0000FDF764FB04EB440105EB8101896808448B
:102F1000A0F1010804EB440155F8212004EB440121
:102F200005EB810148684146FFF7E2FE0746012FA5
:102F300000D112E004EB440155F8212004EB4401D8
:102F400005EB8101886807A1FFF7D2FE0746002F35
:102F500002DA601CBDE8F08100BF641CB442CADB29
:102F60000020F7E70D0A4F4B0000000070B58AB053
:102F70004FF0FF340025242218A101A8FDF78AFB99
:102F800005221FA120A0FFF7B3FE044614B1681E5E
:102F90000AB070BD02212048FDF73DFD0546C5B1D0
:102FA0001E48FDF713FB0646324629461B48FDF72F
:102FB0002CFB1A4A1AA101A8FDF766F9052210A1F7
:102FC00001A8FFF795FE0446002C05DA4FF0FF300C
:102FD000DEE74FF0FF30DBE70020D9E741542B411B
:102FE000545F494E544F3D2246462D46462D464697
:102FF0002D46462D30312D3032220D0A00000000C2
:103000000D0A4F4B0D0A000041542B5345415243CA
:10301000483F0D0A00000000800500204C00002001
:1030200041542B41545F494E544F3D222573220D8C
:103030000A00000010B5044609480A49086008461D
:10304000446000218160C160016181610C214161A6
:10305000FEF776FF012204490248FEF7FFFF10BD8C
:1030600000380140580300204A00002010B50246F5
:10307000002000BF0BE000BF064B1B6803F04003BD
:10308000002BF9D0135C034C241D2360401C8842A4
:10309000F1D310BD0038014070B504460D462A46F4
:1030A00021460248FFF704FE70BD000074050020B1
:1030B00010B586B0044600BF00BF3548806940F0B7
:1030C0000800334988610846806900F008000190D3
:1030D00000BF00BF00BF00BF00BF0846806940F0CE
:1030E000080088610846806900F00800019000BF70
:1030F00000BF00BF00BF00BF0846C06940F4802089
:10310000C8610846C06900F48020019000BF00BF7C
:1031100000BF0815029002200390012004900320B4
:10312000059002A91B48FDF743FF4FF40060029091
:103130000020039002A91748FDF73AFF16481749E7
:1031400008600846446000218160C16001618161BE
:103150000C214161FEF7F4FE10480068C06820F0C1
:1031600040000E490968C8600C480068C06840F01B
:1031700020000A490968C8602720FEF714F90322D5
:1031800000212720FEF71FF9FFF73AF906B010BD1E
:1031900000100240000C01400048004034040020B0
:1031A00070B504460D464FF47A732A46214602480C
:1031B000FEF7D0FF70BD00003404002030B595B09C
:1031C000054613AB12AA09A9284600F03FFA0446A7
:1031D00014B1204615B030BD0020149026E02249DD
:1031E00009689DF8502001EBC20113AB11AA486891
:1031F00001A900F02BFA04460CB12046EAE709A920
:1032000001A800F0E1FC60B99DF844009DF8481069
:10321000884201DD0220DDE79DF8500012498875E3
:103220000AE09DF85000401CC0B214900E48007D8A
:103230009DF850108842D2DC00BF0B48007D9DF8FD
:103240005010884201D10420C4E714A9284600F098
:10325000DDFA04460CB12046BCE79DF85000024957
:1032600048750020B6E700009C0000202DE9F041E1
:103270009AB09C48847D007DA04202DC1AB0BDE873
:10328000F0819849096801EBC40106AB07AA4868B8
:1032900008A900F0DBF908A993A0FCF7E9FF0026D4
:1032A00044E09048008B0121B1400840D8B1222170
:1032B0008FA0FCF7DDFF304600F02EFB894924315A
:1032C000471839468BA0FCF7D3FF222188A0FCF7D2
:1032D000CFFF304600F020FB82492431084410A97A
:1032E00041F8260018E0304600F016FB7D492431F5
:1032F000085810A941F826007A48C07D30B910A8B6
:1033000050F826107CA0FCF7B3FF05E010A850F899
:1033100026107AA0FCF7ACFF9DF81C00401EB042BE
:1033200002D078A0FCF7A4FF701CC6B29DF81C0068
:103330008642B6DB74A0FCF79BFF00F03FFB6948B8
:10334000407D0B280DD2DFE800F0060D151E273258
:103350003F4E5F7287006349096851F83400804727
:10336000054690E05F4A126852F83410109888477A
:10337000054688E05B4B1B6853F83420DDE91001FB
:10338000904705467FE0574F3F6857F8343010A804
:1033900007C89847054676E0DFF848C1DCF800C06A
:1033A0005CF8347010A80FC8B84705466BE0149855
:1033B000DFF830C10090DCF800C05CF8347010A871
:1033C0000FC8B84705465EE0DDE91401DFF814C117
:1033D000CDE90001DCF800C05CF8347010A80FC81B
:1033E000B84705464FE0DDE914121698DFF8F4C03F
:1033F000CDE900120290DCF800C05CF8347010A82F
:103400000FC8B84705463EE0DDE91423DDE9161094
:10341000DFF8D0C0CDE90023CDE90210DCF800C010
:103420005CF8347010A80FC8B84705462BE0DDE9FA
:103430001523DDE91710CDE90123CDE90310149818
:10344000DFF8A0C00090DCF800C05CF8347010A871
:103450000FC8B847054616E0DDE91623DDE9181068
:10346000CDE90223CDE90410DDE91401DFF874C0D1
:10347000CDE90001DCF800C05CF8347010A80FC87A
:10348000B847054600BF00BF00F056FA9DF8180087
:1034900001280CD11348C07D20B929461BA0FCF798
:1034A000E7FE07E029461BA0FCF7E2FE02E018A0B9
:1034B000FCF7DEFE0B4890F8EC0088B10948D0F824
:1034C000F0000A21B0FBF1F201FB12070548D0F829
:1034D000F000B0FBF1F83A46414611A0FCF7C8FEF7
:1034E00000BFCBE69C0000200D0A257328000000D9
:1034F0002563000025730000256C640030582558B2
:10350000000000002C000000290000003D256C7523
:103510003B0D0A003D305825583B0D0A00000000C5
:1035200046756E6374696F6E2052756E2054696DB6
:10353000653A25642E2531646D730D0A0000000084
:10354000F0B50346154600200022002600245BE06B
:103550001F782C2F01D104B901221F78292F01D007
:103560001F780FB904B950E0002E3AD11F78302FE0
:1035700002DB1F78392F17DD1F782D2F14D01F780D
:103580002B2F11D01F78612F02DB1F78662F0BDDE8
:103590001F78412F02DB1F78462F05DD1F78582F3B
:1035A00002D01F78782F0CD102B12EE01F78612F46
:1035B00003DB1F78203F0F7001E01F780F70491C5C
:1035C0001FE01F78222F04D102B11EE00126012442
:1035D00017E01F78202F14D01F782C2F11D0FF2632
:1035E00013E01F78222F00D1002402B10DE044B176
:1035F0001F785C2F02D15B1C471CF8B21F780F703C
:10360000491C471CF8B25B1CA2E700BF00270F70E3
:103610002E70F0BD10B50446002010700BE020782D
:103620000870641C491C1078401C10701078984277
:1036300001DB012010BD2078202802D0207800284E
:10364000EDD10020087000BFF4E700002DE9FF4F26
:1036500085B0804689460027002004900390012011
:1036600002904FF0000B002544461DE020782028F2
:1036700016D005F07F00052812DA0DB945F0800557
:1036800005F07F00042803D120782A2800D00EE01E
:10369000207805F07F010DF80100681CC5B202E03A
:1036A000852D00D103E0641C20780028DED100BF06
:1036B0008DB1002005F07F010DF8010051A1684691
:1036C00000F082FA18B900210898017002E0012187
:1036D0000898017000254FF0000A444614E0641C6D
:1036E0000AF1010000F0FF0A2078202802D020789B
:1036F0002A2809D1204600F0D9F90646282E03D001
:103700002A2E01D0CDF810A02078282802D02078C9
:103710000028E4D14446049810B10498401C0444A5
:103720004FF0000A002654E0207810B94FF0010A4B
:1037300050E02078282803D116B9781CC7B213E0CE
:103740002078292808D13EB917B1781EC7B201E008
:103750004FF0010A47B93DE02078222804D10EB984
:10376000012000E00020064647B9207820282FD00D
:10377000207889F8000009F1010929E020782C2837
:1037800004D101200290681CC5B214E020782028E2
:1037900011D0207828280ED04DB9BBF1050F06DADC
:1037A00020780DF80B000BF1010000F0FF0B0298E0
:1037B000401CC0B20290012F0AD10298022807D102
:1037C0000298401CC0B202900398401CC0B2039003
:1037D000641CA9E700BF0398012809D100200DF857
:1037E0000B0008A1684600F0EFF908B9002003902B
:1037F000079903980870002089F80000504609B026
:10380000BDE8F08F766F6964000000002DE9F04399
:10381000B5B005460F460024002604E000213D48CF
:103820008155701CC6B20A2EF8DB06E06D1C2878A4
:1038300018B9012035B0BDE8F08328782828F5D1E3
:103840006D1C61E034AA69462846FFF779FE0646FA
:1038500035449DF8D00020B1012827D0FF284CD155
:1038600049E09DF8000000B333A9684600F029F94B
:1038700006460EB10220DDE7204600F04DF825494E
:103880000A31339A0A50A1F12400008B0121A14092
:10389000884320491A39088304211E480155601CB9
:1038A000C4B20A2C01DD0320C4E726E0684600F01C
:1038B000A7F9401C00F0FF08204600F02DF815493C
:1038C0000A3100EB01094946684600F08EF91148BB
:1038D0001A38018B0120A040014388B20D491A39E2
:1038E00008830C4800F80480601CC4B20A2C01DD77
:1038F00003209FE701E002209CE700BF28782928E9
:1039000001D0287800B900E09CE700BF3C7000209F
:1039100090E70000B600002002460020002105E0EC
:10392000044B5B5C0344D8B24B1CD9B29142F7DB29
:1039300070470000B60000200E480068006900F0E3
:10394000010040B10C48D0F8F0004FF6FF71084478
:103950000949C1F8F0000848D0F8F00005490968A5
:10396000496A08440449C1F8F0000846D0F8F0005C
:1039700070470000800700209C00002010B504461E
:1039800004EBC40000EB04100122C2EB800081B202
:103990004FF47A70FEF728FE01200149C87510BD6A
:1039A0009C00002010B50246012000E050430B1E91
:1039B000A1F10104E1B2F9D110BD00006FF00100E6
:1039C00009490968086100BF000C07490968C86215
:1039D00001460548C16000BF0020034909684862EC
:1039E0000249C1F8F0007047800700209C000020C9
:1039F00070B51D48008800F40040002833D01A48F4
:103A000005780020194948551948816817488847A2
:103A100004461CB91649C868804721E0134800F0E5
:103A2000FBF80546012D00D02C46CCB1012C06D068
:103A3000022C08D0032C0AD0042C10D10BE00DA0CE
:103A4000FCF716FC0BE00EA0FCF712FC07E00FA041
:103A5000FCF70EFC03E010A0FCF70AFC00BF00BF5F
:103A600000200149088070BD48000020900200201D
:103A70009C000020BAAFCAFDB4EDCEF3210D0A00C0
:103A8000B2CECAFDB4EDCEF3210D0A00B2CECAFD0E
:103A9000CCABB6E0210D0A00CEB4D5D2B5BDC6A5DB
:103AA000C5E4B5C4BAAFCAFD210D0A000146491CE0
:103AB00000E0491C0878202801D10029F9D10878B4
:103AC00070472DE9F04F05460F4600264FF00A09D2
:103AD000B3462C460020386034E02078392802DCD8
:103AE0002078302811DA28782D2802D028782B2841
:103AF00000D156B12078462802DC2078412804DA2B
:103B00002078582817D1012E15D12078412801DBC3
:103B10004FF0100928782D2803D14FF0020B6D1CAF
:103B20000FE028782B2803D14FF0010B6D1C08E023
:103B3000701CC6B205E0207800B904E00120BDE8A1
:103B4000F08F641CC9E700BF2C46B9F1100F0FD1EC
:103B5000032E01DA0220F2E72078302806D16078BF
:103B6000582803D1A41CB01EC6B204E00320E6E727
:103B70000EB90420E3E71BE00EB1701EC6B2207838
:103B8000392806DC2078302803DB2078A0F1300AC1
:103B900002E02078A0F1370A31464846FFF702FFDD
:103BA00039680AFB00103860641C207800B900E016
:103BB000E2E700BFBBF1020F04D13868C0F1000892
:103BC000C7F800800020BAE702460AE010780B78B8
:103BD000984201D001207047107800B902E0521CD1
:103BE000491CF3E700BF0020F5E706E002780A7001
:103BF000027802B902E0401C491CF7E700BF704799
:103C00000146002005E00A7802B903E0421CD0B268
:103C1000491CF8E700BF704710B58CB004461E235E
:103C20000BAA03A92046FFF7F5FC0090009810B1FD
:103C300001200CB010BD9DF82C00044400200B9016
:103C40000EE040489DF82C2050F8221003A8FFF702
:103C5000BBFF00B908E09DF82C00401CC0B20B90DF
:103C60009DF82C000728ECD300BF9DF82C000728F6
:103C700063D2DFE800F004053C5E6564630000BFCA
:103C800031A0FCF7F5FA31A0FCF7F2FA3FA0FCF7FF
:103C9000EFFA4EA0FCF7ECFA5CA0FCF7E9FA6BA097
:103CA000FCF7E6FA79A0FCF7E3FA87A0FCF7E0FA64
:103CB0008CA0FCF7DDFA94A0FCF7DAFA98A0FCF7E8
:103CC000D7FA9DA0FCF7D4FAA2A0FCF7D1FAA8A0DD
:103CD000FCF7CEFAB4A0FCF7CBFAC1A0FCF7C8FA07
:103CE000CCA0FCF7C5FAD8A0FCF7C2FAA2E216A055
:103CF000FCF7BEFAE4A0FCF7BBFA00200B900EE044
:103D0000F14800689DF82C2000EBC2004168EFA04C
:103D1000FCF7AEFA9DF82C00401CC0B20B90EA48AC
:103D2000007D9DF82C108842EADC07A0FCF7A0FA81
:103D300080E205A0FCF79CFACCE179E24DE221E2B9
:103D4000F4E10000600000200D0A00002D2D2D2D53
:103D50002D2D2D2D2D2D2D2D2D2D2D2D2D2D2D2D93
:103D60002D2D2D2D55534D4152542056332E332D8C
:103D70002D2D2D2D2D2D2D2D2D2D2D2D2D2D2D2D73
:103D80002D2D2D2D2D2D2D200D0A00002020202041
:103D900055534D415254CAC7D3C9414C49454E545D
:103DA000454BBFAAB7A2B5C4D2BBB8F6C1E9C7C9D3
:103DB000B5C4B4AEBFDAB5F7CAD4BBA5BDBBD7E9AD
:103DC000BCFE2CCDA8B9FD200D0A0000CBFC2CC4F4
:103DD000E3BFC9D2D4CDA8B9FDB4AEBFDAD6FACA12
:103DE000D6B5F7D3C3B3CCD0F2C0EFC3E6B5C4C8E1
:103DF000CEBACEBAAFCAFD2CB2A2D6B4D0D02ED293
:103E0000F2B4CB2CC4E3BFC90D0A0000D2D4CBE678
:103E1000D2E2B8FCB8C4BAAFCAFDB5C4CAE4C8EBB4
:103E2000B2CECAFD28D6A7B3D6CAFDD7D628313020
:103E30002F3136BDF8D6C62CD6A7B3D6B8BACAFD30
:103E400029A1A2D7D6B7FBB4AE0D0A00A1A2BAAF82
:103E5000CAFDC8EBBFDAB5D8D6B7B5C8D7F7CEAA72
:103E6000B2CECAFD292CB5A5B8F6BAAFCAFDD7EEB9
:103E7000B6E0D6A7B3D63130B8F6CAE4C8EBB2CEB6
:103E8000CAFD2CB2A2D6A7B3D60D0A00BAAFCAFD9E
:103E9000B7B5BBD8D6B5CFD4CABE2ED6A7B3D6B287
:103EA000CECAFDCFD4CABEBDF8D6C6C9E8D6C3B9FE
:103EB000A6C4DC2CD6A7B3D6BDF8D6C6D7AABBBB42
:103EC000B9A6C4DC2E0D0A00BCBCCAF5D6A7B3D671
:103ED0003A7777772E6F70656E6564762E636F6DB7
:103EE0000D0A000055534D415254D3D037B8F6CF88
:103EF000B5CDB3C3FCC1EE28B1D8D0EBD0A1D0B4BE
:103F0000293A0D0A000000003F3A202020202020FE
:103F1000BBF1C8A1B0EFD6FAD0C5CFA20D0A000000
:103F200068656C703A202020BBF1C8A1B0EFD6FACA
:103F3000D0C5CFA20D0A00006C6973743A2020200E
:103F4000BFC9D3C3B5C4BAAFCAFDC1D0B1ED0D0A64
:103F50000A00000069643A2020202020BFC9D3C392
:103F6000BAAFCAFDB5C44944C1D0B1ED0D0A0A00CB
:103F70006865783A20202020B2CECAFD3136BDF8DF
:103F8000D6C6CFD4CABE2CBAF3B8FABFD5B8F12B77
:103F9000CAFDD7D6BCB4D6B4D0D0BDF8D6C6D7AA41
:103FA000BBBB0D0A0A0000006465633A2020202094
:103FB000B2CECAFD3130BDF8D6C6CFD4CABE2CBAF7
:103FC000F3B8FABFD5B8F12BCAFDD7D6BCB4D6B476
:103FD000D0D0BDF8D6C6D7AABBBB0D0A0A000000D8
:103FE00072756E74696D653A312CBFAAC6F4BAAFAA
:103FF000CAFDD4CBD0D0BCC6CAB13B302CB9D8B1E5
:10400000D5BAAFCAFDD4CBD0D0BCC6CAB13B0D0A1D
:104010000A000000C7EBB0B4D5D5B3CCD0F2B1E004
:10402000D0B4B8F1CABDCAE4C8EBBAAFCAFDC3FB8D
:10403000BCB0B2CECAFDB2A2D2D4BBD8B3B5BCFC20
:10404000BDE1CAF82E0D0A002D2D2D2D2D2D2D2D63
:104050002D2D2D2D2D2D2D2D2D2D2D2D2D2D2D2D90
:104060002D2D414C49454E54454B2D2D2D2D2D2D9B
:104070002D2D2D2D2D2D2D2D2D2D2D2D2D2D2D2D70
:104080002D2D2D200D0A00002D2D2D2D2D2D2D2D0A
:104090002D2D2D2D2D2D2D2D2D2D2D2D2D2D2D2D50
:1040A0002DBAAFCAFDC7E5B5A52D2D2D2D2D2D2D72
:1040B0002D2D2D2D2D2D2D2D2D2D2D2D2D2D2D2D30
:1040C0002D2D2D2D200D0A009C00002025730D0A9A
:1040D0000000000059A0FCF7CBF800200B901AE07C
:1040E000664909689DF82C2001EBC20101AB02AAC8
:1040F000486803A9FFF7AAFA604800689DF82C10E9
:1041000050F8312003A95EA0FCF7B2F89DF82C000E
:10411000401CC0B20B905948007D9DF82C1088427D
:10412000DEDCAFF2DC30FCF7A3F883E0AFF2E8307E
:10413000FCF79EF80BAA03A92046FFF701FA9DF8A9
:104140002C00C8B9694603A8FFF7BBFC0B909DF88B
:104150002C0020B94FA00099FCF78AF80EE09DF8DA
:104160002C00042801D0022063E54DA0FCF780F864
:1041700001204249C87501E002205AE547A0FCF73A
:1041800077F857E045A0FCF773F80BAA03A920467F
:10419000FFF7D6F99DF82C00C8B9694603A8FFF7C8
:1041A00090FC0B909DF82C0020B942A00099FCF7E0
:1041B0005FF80EE09DF82C00042801D0022038E5BD
:1041C0003FA0FCF755F800202C49C87501E00220FB
:1041D0002FE532A0FCF74CF82CE030A0FCF748F8B3
:1041E0000BAA03A92046FFF7ABF99DF82C00C8B92C
:1041F000694603A8FFF765FC0B909DF82C0078B981
:104200001E49009881F8EC00084690F8EC0018B1BF
:1042100030A0FCF72DF807E035A0FCF729F803E003
:10422000022006E5022004E51CA0FCF721F801E0CD
:104230000120FEE400BF0020FBE400002D2D2D2D09
:104240002D2D2D2D2D2D2D2D2D2D2D2D2D2D2D2D9E
:104250002D2D2D2D2DBAAFCAFD204944202D2D2DF9
:104260002D2D2D2D2D2D2D2D2D2D2D2D2D2D2D2D7E
:104270002D2D2D2D2D2D2D2D200D0A009C000020E3
:1042800025732069642069733A0D0A305825303847
:10429000580D0A004845583A305825580D0A000074
:1042A0003136BDF8D6C6B2CECAFDCFD4CABE210DB6
:1042B0000A0000004445433A256C750D0A000000D1
:1042C0003130BDF8D6C6B2CECAFDCFD4CABE210D9C
:1042D0000A00000052756E2054696D652043616CC0
:1042E00063756C6174696F6E204F4E0D0A0000009B
:1042F00052756E2054696D652043616C63756C6105
:1043000074696F6E204F46460D0A000001607047C9
:104310000000000000000000010203040607080975
:104320000000000001020304050000008C4C00089E
:10433000244B000805000000E84B0008604B000813
:10434000050000000C4D0008DC49000805000000D5
:10435000984C0008344B000805000000A44C0008ED
:10436000E848000805000000404C0008FC47000831
:1043700005000000204D00086C4800080500000002
:104380000C4C0008544A000805000000D84C0008F6
:10439000B04A000805000000504C000834480008EE
:1043A000050000001C4C00081C4800080500000027
:1043B000304C0008304C0008050000008C4C000810
:1043C000244B000805000000E84B0008984B00084B
:1043D00005000000B44C0008084900080500000072
:1043E000F84C00087449000805000000984C0008CB
:1043F000344B000805000000A44C00084C4800089D
:1044000005000000404C0008FC47000805000000C3
:10441000204D00086C480008050000000C4C000806
:10442000344A000805000000D84C0008B04A0008D3
:1044300005000000504C000834480008050000004A
:104440001C4C00081C48000805000000304C000807
:10445000304C0008050000008C4C0008244B00087C
:1044600005000000E84B0008444B00080500000070
:104470000C4D00089049000805000000984C000809
:10448000D44A000805000000A44C0008E8480008D1
:1044900005000000404C0008FC4700080500000033
:1044A000204D00086C480008050000000C4C000876
:1044B000744A000805000000D84C0008B04A000803
:1044C00005000000504C00083448000805000000BA
:1044D0001C4C00081C48000805000000304C000877
:1044E000304C0008050000008C4C0008244B0008EC
:1044F00005000000E84B00087C4B000805000000A8
:10450000B44C0008A848000805000000F84C00085A
:104510007449000805000000984C0008344B00085E
:1045200005000000A44C00088848000805000000B1
:10453000404C0008FC47000805000000204D000822
:10454000C8480008050000000C4C0008144A000888
:1045500005000000D84C0008B04A00080500000023
:10456000504C000834480008050000001C4C0008AE
:104570001C48000805000000304C0008304C0008C2
:10458000050000008C4C0008244B000805000000CA
:10459000E84B0008944A000805000000984C000809
:1045A000344B000805000000A44C00084C480008EB
:1045B00005000000404C0008FC4700080500000012
:1045C000204D00086C48000805000000C44C00089D
:1045D00050490008050000000C4C0008F449000890
:1045E00005000000D84C0008B04A00080500000093
:1045F000504C000834480008050000001C4C00081E
:104600001C48000805000000644C00080C4B000822
:1046100005000000784C0008E44A0008050000008E
:10462000E44C0008A849000805000000F84B000809
:10463000C049000805000000D44B000828490008C4
:1046400005000000304C0008304C00080500000058
:104650008C4C0008244B000805000000E84B0008C3
:10466000B44B000805000000984C0008344B0008CB
:1046700005000000A44C00084C480008050000009C
:10468000404C0008FC47000805000000204D0008D1
:104690006C48000805000000C44C000850490008A0
:1046A000050000000C4C0008F4490008050000005B
:1046B000D84C0008B04A000805000000504C000823
:1046C00034480008050000001C4C00081C48000885
:1046D00005000000304C0008304C00083031323307
:1046E0003435363738394142434445464030580026
:1046F0003031323334353637383961626364656658
:1047000040307800040000080000000000000002B3
:1047100000010000100000005443505F434C4F550F
:1047200044200000446174612066726F6D20323352
:10473000332E302E302E3600434C4F55442E414CF4
:1047400049454E54454B2E434F4D00005544505F54
:1047500053455256455200005544505F434C49451D
:104760004E5400005544505F4D554C5449434153FD
:1047700054000000446174612066726F6D205443E0
:10478000505F536572766572206D6F64650000003E
:10479000446174612066726F6D205544505F5365AB
:1047A00072766572206D6F6465000000446174610B
:1047B0002066726F6D205443505F436C69656E7460
:1047C000206D6F6465000000446174612066726F43
:1047D0006D205544505F436C69656E74206D6F6445
:1047E000650000005443505F5365727665720000A7
:1047F0005443505F436C69656E74000041542B4E06
:1048000045544D41534B3D223235352E3235352EF0
:104810003235352E30220D0A0000000041542B5550
:104820004152545F5041434B54494D453D22353030
:10483000220D0A0041542B554152545F5041434BC5
:104840004C454E3D223530220D0A000041542B5379
:10485000544154494349503D223139322E31363882
:104860002E33302E313930220D0A000041542B47AF
:104870004154455741593D223139322E3136382E77
:1048800033302E31220D0A0041542B5354415449E8
:104890004349503D223139322E3136382E312E31B6
:1048A0003031220D0A00000041542B52454D4F5427
:1048B0004549503D223139322E3136382E312E3194
:1048C0003031220D0A00000041542B474154455716
:1048D00041593D223139322E3136382E312E313088
:1048E00031220D0A0000000041542B535441544919
:1048F0004349503D223139322E3136382E33302E55
:10490000323031220D0A000041542B52454D4F5494
:104910004549503D223139322E3136382E33302E32
:10492000323031220D0A000041542B41544B59556D
:104930004E44455649443D223635313132353936BB
:10494000313130393639343236383031220D0A00BF
:1049500041542B444E535F5345525645523D2231EC
:1049600031342E3131342E3131342E313134220D67
:104970000A00000041542B52454D4F54455F504FA3
:1049800052543D223130303036220D0A00000000F2
:1049900041542B4C4F43414C5F504F52543D2231B8
:1049A00030303036220D0A0041542B434C4F5544D1
:1049B0005F504F52543D223539363636220D0A00AB
:1049C00041542B41544B4C494E4B5057443D22319E
:1049D00032333435363738220D0A000041542B4C1F
:1049E0004F43414C5F504F52543D223231303139A8
:1049F000220D0A0041542B4D4F44554E414D453D2B
:104A00002241544B2D434C4F55442D4D4F44220DC4
:104A10000A00000041542B4D4F44554E414D453D39
:104A20002241544B2D544350434C492D4D4F442269
:104A30000D0A000041542B4D4F44554E414D453D0C
:104A40002241544B2D554450434C492D4D4F442247
:104A50000D0A000041542B4D4F44554E414D453DEC
:104A60002241544B2D5544505345562D4D4F442211
:104A70000D0A000041542B4D4F44554E414D453DCC
:104A80002241544B2D5443505352562D4D4F4422E6
:104A90000D0A000041542B4554485F4D4F443D22C0
:104AA0005443505F434C4F5544220D0A0000000010
:104AB00041542B554152543D223131353230302250
:104AC0002C2231222C2238222C224E4F4E45220DF0
:104AD0000A00000041542B444843503D224F4646B3
:104AE000220D0A0041542B434F4C55445F444F4D17
:104AF00041494E3D22434C4F55442E414C49454E71
:104B000054454B2E434F4D220D0A000041542B4378
:104B10004C4F55445F4C494E4B5F454E3D224F4EE6
:104B2000220D0A0041542B4543484F3D224F4E224F
:104B30000D0A000041542B444843503D224F4E2261
:104B40000D0A000041542B4554485F4D4F443D220F
:104B50005443505F534552564552220D0A000000FF
:104B600041542B4554485F4D4F443D225544505FBE
:104B7000534552564552220D0A00000041542B4520
:104B800054485F4D4F443D225443505F434C494588
:104B90004E54220D0A00000041542B4554485F4DED
:104BA0004F443D225544505F434C49454E54220DDD
:104BB0000A00000041542B4554485F4D4F443D22AC
:104BC0005544505F4D554C544943415354220D0AAE
:104BD0000000000041542B41544B59554E4445565A
:104BE00049443F0D0A00000041542B4554485F4D95
:104BF0004F443F0D0A00000041542B41544B4C4997
:104C00004E4B5057443F0D0A0000000041542B4DBD
:104C10004F44554E414D453F0D0A000041542B5520
:104C20004152545F5041434B54494D453F0D0A009A
:104C300041542B5550444154453F0D0A000000009B
:104C400041542B4E45544D41534B3F0D0A0000003B
:104C500041542B554152545F5041434B4C454E3FBC
:104C60000D0A000041542B434C4F55445F4C494EB4
:104C70004B5F454E3F0D0A0041542B434F4C55446A
:104C80005F444F4D41494E3F0D0A000041542B45B2
:104C900043484F3F0D0A000041542B444843503FC6
:104CA0000D0A000041542B53544154494349503F8D
:104CB0000D0A000041542B52454D4F544549503F79
:104CC0000D0A000041542B444E535F534552564544
:104CD000523F0D0A0000000041542B554152543FF1
:104CE0000D0A000041542B434C4F55445F504F5226
:104CF000543F0D0A0000000041542B52454D4F54C3
:104D0000455F504F52543F0D0A00000041542B4C58
:104D10004F43414C5F504F52543F0D0A000000007A
:104D200041542B474154455741593F0D0A0000005B
:104D30003F000000646563006964000072756E7472
:104D4000696D650068656C70000000006C697374C3
:104D50000000000068657800766F696420777269EA
:104D600074655F61646472287533322061646472B3
:104D70002C7533322076616C2900000075333220A7
:104D8000726561645F6164647228753332206164A6
:104D900064722900766F69642064656C61795F6D67
:104DA0007328753136206E6D73290000766F696443
:104DB0002064656C61795F757328753332206E7578
:104DC00073290000E44D000800000020900100005D
:104DD0006C010008604E000890010020900C00005B
:104DE000C8010008134C471B0858041AE4041AF0C1
:104DF000041A18041A64041A90041AC8041A7404D1
:104E00001AAC041A38041A2404115324F43210E2A0
:104E100001CD0146462D033113304D1B0844041AC1
:104E20004C041A38041A54041A34041A3C0413EDBE
:104E30002B1B087C081B0D4384190813852A1B08AB
:104E400094081A9D081AAC08227C14207D39140895
:104E5000BD3114086D321B08F10CFA047701CE0045
:0400000508000131BD
:00000001FF
