:020000040800F2
:10000000580C002049010008D9260008D126000814
:10001000D5260008E9090008852C0008000000002A
:100020000000000000000000000000001D27000884
:10003000610B000800000000DB260008752700089F
:100040006301000863010008630100086301000800
:1000500063010008630100086301000863010008F0
:1000600063010008630100086301000863010008E0
:1000700063010008630100086301000863010008D0
:1000800063010008630100086301000863010008C0
:1000900063010008630100086301000863010008B0
:1000A00063010008630100086301000863010008A0
:1000B00063010008D52700086301000863010008F8
:1000C0006301000863010008630100086301000880
:1000D00063010008192C000863010008592C00086E
:1000E0006301000863010008630100086301000860
:1000F0006301000863010008630100086301000850
:10010000630100086301000863010008630100083F
:10011000630100086301000863010008630100082F
:10012000630100086301000863010008630100081F
:10013000DFF810D000F046FC00480047D93900082D
:10014000AFF30080580C002006488047064800475F
:10015000FEE7FEE7FEE7FEE7FEE7FEE7FEE7FEE777
:10016000FEE7FEE77D2700083101000840EA0103B1
:100170009B0703D009E008C9121F08C0042AFAD25D
:1001800003E011F8013B00F8013B521EF9D2704721
:10019000D2B201E000F8012B491EFBD270470022C9
:1001A000F6E710B513460A4604461946FFF7F0FF76
:1001B000204610BD30B505462A460B4612F8010B05
:1001C00013F8014B08B1A042F8D01CB1002802D0AE
:1001D0006D1CF1E7284630BD421C10F8011B0029B8
:1001E000FBD1801A7047F0B480EA0102D40F4200BC
:1001F000B2EB410F02D20246084611464A0042D0F5
:10020000C30DDDB2C1F3C752AD1A202D35DAC1F3EB
:10021000160141F4000204B15242C5F1200602FA6F
:1002200006F12A411044B3EBD05F23D0C4B1012DB5
:10023000A0EBC35009DCF0BC4FF0004202EAC3520D
:10024000DBB200F5000000F093BA400000F18070CE
:1002500000EBC350A0F1807040EAD170490009E082
:10026000490841EAC071A0EBC35000F50000400806
:1002700000EBC350F0BC00F072BA6142012202EB05
:100280004101001BF6E7F0BC704781F00041AAE78E
:1002900080F00040A7E780EA010210B502F00043B9
:1002A000400022D04A001FD0010E01EB1261C0F3C2
:1002B0005600C2F3560240F4000042F40002A0FBD4
:1002C000022000047F39140400D0401C50EA124080
:1002D00001D44000491EC2B20C0604EBD010401CF1
:1002E0004008802A02D003E0002010BD20F0010069
:1002F000002900DA0020184310BD2DE9FE4F80468A
:1003000081EA0300C00F0C46009021F0004123F069
:100310000045B8EB0200A94105D24046214690466F
:100320001C460B46024623F00040104347D0270DE1
:10033000C7F30A00C3F30A510290401A0190402803
:100340006BDAC3F3130040F4801B0098924620B18F
:100350000023D2EB030A63EB0B0B01985946C0F163
:100360004002504600F0CAF906460D46504659462E
:10037000019A00F0E2F910EB08006141002487EADD
:10038000115284EAE7731A4340D0009A62B3019A8B
:10039000012A4FEA075215DC001B61EB02014FF006
:1003A000004202EA0752CDE90042001C41F58011EB
:1003B00032462B4600F019FA03B0BDE8F08F4046F4
:1003C0002146F9E7001B61EB0201001C41F5801397
:1003D00000185B412018A2F5001747EB030140EA23
:1003E000D570B6196D4111E06D084FEA360645EA41
:1003F000C0754FEA0752001B61EB0201001C41F57A
:10040000801149084FEA30000019514132462B460D
:1004100003B0BDE8F04F00F0D9B9009801224000C8
:100420000023D0EB020263EBE073009821464FEA11
:10043000E074B8EB000061EB0401E9E783F00043EE
:100440005BE781F0004158E72DE9FE4F81EA0304A4
:1004500004F0004421F0004100944FF0000B23F021
:10046000004350EA01045ED052EA03045BD0C3F3B8
:100470000A54C1F30A552C44A4F2F3340194A0FBAE
:100480000254C1F3130141F48011C3F3130343F485
:10049000801301FB024400FB034E840A970A44EADE
:1004A000815447EA8357A4FB076802958D0A05FB30
:1004B00007854FEA932C04FB0C542705029D4FEA55
:1004C000065847EA1637B5EB08056EEB070C870EA2
:1004D000920E47EA811742EA8312A7FB0201B6EBAC
:1004E0000B0164EB00042B0D43EA0C335E1844EB64
:1004F0001C50DA465146E7FB0201C5F313044FEAEC
:100500000B3343EA14534FEA0432019C43EA0603D7
:10051000A4F10C040294009CCDE900B400F065F94C
:1005200003B0BDE8F08F00200146F9E7C10F80EA73
:10053000E0700844CA079623002100F019B99623F9
:100540000022114600F014B90EB5C10F80EAE07028
:100550000844CA07002140F233438DE80E000A46E2
:100560000B4600F042F903B000BD0EB540F2334136
:1005700002910021CDE900110A460B4600F035F941
:1005800003B000BD00F0004220F00040C10DC0F3F8
:10059000160040F400007F2901DA002070479629F8
:1005A00003DCC1F19601C84001E096398840002A79
:1005B000F4D04042704720F00040C10DC0F3160057
:1005C00040F400007F2901DA00207047962903DCFF
:1005D000C1F19601C8407047963988407047C1F311
:1005E0000A5210B5C1F3130140F2FF3341F48011F8
:1005F0009A4201DA002010BD40F233439A42A2F23F
:10060000334203DC524200F088F810BD904010BD28
:1006100000F0004230F000400AD0C10D01F56071D9
:10062000C0F3160042EA0151C20840071143704767
:1006300000200146704701F0004330B421F0004132
:1006400050EA010206D00A0DA2F56072C1F313014F
:10065000002A02DC30BC00207047440F44EAC10489
:10066000C100E01830BC00EBC25000F078B830B5E3
:100670000B46014600202022012409E021FA02F560
:100680009D4205D303FA02F5491B04FA02F52844FA
:10069000151EA2F10102F1DC30BD2DE9F05F054627
:1006A000002092469B4688460646814640241BE031
:1006B000284641464746224600F02FF853465A4600
:1006C000C01A914110D311461846224600F016F880
:1006D0002D1A67EB01084F4622460120002100F049
:1006E0000DF817EB00094E41201EA4F10104DFDCD8
:1006F000484631462A464346BDE8F09F202A04DB9F
:10070000203A00FA02F1002070479140C2F1200324
:1007100020FA03F3194390407047202A04DB203A63
:1007200021FA02F00021704721FA02F3D040C2F111
:1007300020029140084319467047202A06DBCB1758
:10074000203A41FA02F043EAE07306E041FA02F38C
:10075000D040C2F120029140084319467047002959
:10076000A8BF7047401C490008BF20F00100704737
:1007700010B4B0FA80FC00FA0CF050EA010404BF97
:1007800010BC704749B1CCF1200421FA04F411FAED
:100790000CF118BF012121430843A3EB0C01CB1D31
:1007A0004FEA00614FEA102042BF002010BC7047A2
:1007B00000EBC35010440029A4BF10BC7047401C7C
:1007C000490008BF20F0010010BC704710B5141E8E
:1007D00073F1000408DA401C41F1000192185B41FA
:1007E0001A4301D120F0010010BD2DE9F04D9246D1
:1007F0009B4611B1B1FA81F202E0B0FA80F22032E8
:100800009046FFF77BFF04460F4640EA0A0041EAA4
:100810000B0153465A46084313D0114653EA0100D0
:1008200019D0C8F140025046FFF777FF05460E4643
:10083000504659464246FFF761FF084305D0012064
:1008400004E020463946BDE8F08D0020054346EA25
:10085000E0762C4337430A986305E40AA0EB0800CE
:100860000022FD0A44EA47540A3002D5002001461E
:10087000E9E7010510196941DDE9084500196941F9
:10088000BDE8F04DA2E72DE9F04D81EA030404F044
:10089000004B21F0004514464FF0000A23F00041C0
:1008A00050EA050220D054EA01021DD0C5F30A57D0
:1008B0000246C5F31303C1F31300C1F30A5640F413
:1008C000801543F48013A7EB0608101BD64608F2E8
:1008D000FD3873EB050002D308F1010801E092181E
:1008E0005B41B8F1000F03DA00200146BDE8F08D4E
:1008F00000204FF48011064684460EE0171B73EB70
:10090000050705D3121B63EB050306434CEA010CF4
:1009100049084FEA300092185B4150EA0107EDD1D7
:1009200052EA030012D082EA040083EA0501084378
:1009300005D0101BAB4106D20122002306E00022A5
:100940004FF0004302E06FF0010253101AEB060073
:100950004CEB085110EB0A0041EB0B01BDE8F04DE8
:10096000FFF734BFC1F30A52C1F3130140F2FF3362
:1009700041F480119A4202DA00200146704740F2A9
:1009800033439A42A2F2334202DC5242FFF7C5BE21
:10099000FFF7B4BE30B5041E71F1000404DB4FF064
:1009A0000044404264EB0101141E73F1000405DBB6
:1009B0001C464FF00043524263EB0403994208BFC8
:1009C000904230BD064C074D06E0E06840F0010360
:1009D00094E8070098471034AC42F6D3FFF7ACFB1D
:1009E000284D0008484D000800BFFEE72DE9F04102
:1009F00088B004460D4616461F46DDF8388011487B
:100A0000114908601C2201A90F48001DFFF7AEFB29
:100A10000D484760C0F80880C46006614561002148
:100A20000176417681760121C176002101774177F7
:100A300000F003FB18B1012008B0BDE8F0810020F0
:100A4000FAE70000006400404C0200207CB5054637
:100A500000210E4800F005FA012801D0F1207CBDEC
:100A60006B460B4A0021094800F00FFA08B1F2204A
:100A7000F5E7002403E01DF804002855641C044831
:100A80000069A042F7D80248007CE8E74C02002049
:100A90008C020020FEB506460D46174600240020B5
:100AA0001149086008464760042088600020C8603B
:100AB0000846056100BF04E0305D0DF80400601CCD
:100AC000C4B2AC42F8DB02AB6A460749074800F003
:100AD00098F808B10120FEBD00BF044800F092FA6A
:100AE0000328FAD10020F6E7740200204C0200200F
:100AF00000B58BB0002006900790012008900020E0
:100B000001900290039004900590012009900E201E
:100B10000A9001A9104800F01FF908B100BFFEE7D4
:100B20000D4800F07FFB08B100BFFEE702210A4834
:100B300000F052F808B100BFFEE740F2FF7007492D
:100B4000086048600020C8608860022008610020BA
:100B500008750BB000BD00004C020020740200209C
:100B6000704770B504460D4600230026002122463A
:100B700001E0481CC1B2505C10B1505C3D28F8D176
:100B800050184078222801D0002070BD19E001E003
:100B9000481CC1B2505C10B1505C2228F8D10B4601
:100BA000481CC1B201E0481CC1B2505C10B1505C9D
:100BB0002228F8D10E46481CC1B2681E051E00D17D
:100BC00002E0505C0028E2D100BF9E4202DD581CCA
:100BD0001044DAE70020D8E710B5024692F820303A
:100BE000012B01D0022B06D110684069084314681C
:100BF0006061002010BD506A40F4802050620120E6
:100C0000F8E7F0B504460D461E4694F820702068BB
:100C10008368A86800B900E000BF012F01D0022F4F
:100C20007CD103F0806030B903F0006018B903F0A4
:100C30008050002873D0C3F30161022905D9606A8E
:100C400040F4000060620120F0BD01208840306067
:100C5000A86860B9B5F800C0E86840EA4C5C206854
:100C600000F5C07000EB0110C0F800C00FE0D5E93E
:100C700001C040EACC00D5F80CC040EA0C00D4F822
:100C800000C00CF5C07C0CEB011CCCF80000D5F8C2
:100C900010C0206800F5C07000EB0110C0F804C05F
:100CA000287D01280ED1206800F5C07000EB0110EE
:100CB000406840F4807C206800F5C07000EB0110B3
:100CC000C0F804C0D079000692F806C040EA0C4093
:100CD00092F805C040EA0C2C10794CEA000C206810
:100CE00000F5C07000EB0110C0F80CC0D078000611
:100CF00092F802C040EA0C4092F801C040EA0C2091
:100D000092F800C040EA0C00D4F800C00CF5C07C9A
:100D10000CEB011CCCF80800206801E016E00FE0A5
:100D200000F5C07000EB0110006840F0010C206875
:100D300000F5C07000EB0110C0F800C0002083E790
:100D4000606A40F40010606201207DE7606A40F450
:100D500080206062012077E7F0B504460A462168EA
:100D600094F82050012D01D0022D74D1D1F8000249
:100D700040F00100C1F80002107D00F01F060120C4
:100D800000FA06F3D1F81C029843C1F81C02D0699E
:100D9000C8B9D1F80C029843C1F80C02908880B20F
:100DA000968940EA064601F51070576940F83760A9
:100DB000108880B2168940EA064601F5107057691E
:100DC00000EBC7004660D069012819D1D1F80C02A8
:100DD0001843C1F80C02908880B2168840EA064693
:100DE00001F51070576940F83760908980B2168914
:100DF00040EA064601F51070576900EBC7004660EF
:100E0000906928B9D1F804029843C1F8040204E0BB
:100E1000D1F804021843C1F80402106928B9D1F8C6
:100E200014029843C1F8140204E0D1F814021843E4
:100E3000C1F81402106A012804D1D1F81C02184329
:100E4000C1F81C02D1F8000220F00100C1F8000234
:100E50000020F0BDFFE7606A40F48020606201205E
:100E6000F7E710B50246002092F82030012B01D0A0
:100E7000022B09D121B91468E46804F0030003E0EF
:100E80001468246904F0030010BD70B5044694F89A
:100E90002050012D01D0022D7DD151B92068C068AC
:100EA00000F0030080B9606A40F400106062012025
:100EB00070BD2068006900F0030028B9606A40F442
:100EC000001060620120F3E7206800F5D87000EBA5
:100ED0000110006800F004009060906840B920683C
:100EE00000F5D87000EB01100068400D106007E0BD
:100EF000206800F5D87000EB01100068C008506051
:100F0000206800F5D87000EB0110006800F00200C6
:100F1000D060206800F5D87000EB0110406800F048
:100F20000F001061206800F5D87000EB01104068D8
:100F300000F47F40000A9061206800F5D87000EB53
:100F400001104068000C5061206800F5D87000EB7B
:100F5000011080681870206800F5D87000EB01104F
:100F6000806800F47F40000A5870206800F5D8704F
:100F700000EB0110806800F47F00000C987020687E
:100F800000F5D87000EB01108068000ED870206862
:100F900000F5D87000E02FE000EB0110C068187178
:100FA000206800F5D87000EB0110C06800F47F40A5
:100FB000000A5871206800F5D87000EB0110C06875
:100FC00000F47F00000C9871206800F5D87000EBE9
:100FD0000110C068000ED87131B92068C06840F0B7
:100FE00020002668F06005E02068006940F02000DD
:100FF0002668306100205BE7606A40F48020606210
:10100000012055E70146002091F82020012A01D057
:10101000022A11D10B689B6803F0806303B1401C66
:101020000B689B6803F0006303B1401C0B689B686E
:1010300003F0805303B1401C704770B504460CB9EF
:10104000012070BD94F8200010B9204600F0B0F8DF
:101050002068006820F002002168086000F08CFB26
:1010600005460DE000F088FB401B0A2808D9606A9D
:1010700040F400306062052084F820000120E0E7A1
:101080002068406800F002000028EBD1206800686A
:1010900040F001002168086000F06EFB05460DE09D
:1010A00000F06AFB401B0A2808D9606A40F400304F
:1010B0006062052084F820000120C2E720684068B3
:1010C00000F001000028EBD0207E012806D1206826
:1010D000006840F080002168086005E02068006832
:1010E00020F0800021680860607E012806D1206819
:1010F000006840F040002168086005E02068006852
:1011000020F0400021680860A07E012806D12068F8
:10111000006840F020002168086005E02068006851
:1011200020F0200021680860E07E012806D12068B8
:10113000006820F010002168086005E02068006861
:1011400040F0100021680860207F012806D1206847
:10115000006840F008002168086005E02068006829
:1011600020F0080021680860607F012806D120680F
:10117000006840F004002168086005E0206800680D
:1011800020F0040021680860D4E9020108432169C5
:101190000843616908436168491E08432168C861C2
:1011A00000206062012084F82000002049E7000050
:1011B00010B586B0044600BF1848C06940F0007002
:1011C0001649C8610846C06900F00070019000BF70
:1011D00000BF00BF0846806940F0040088610846EF
:1011E000806900F00400019000BF00BF88140290E5
:1011F00002200390012004900320059002A90848D2
:1012000000F014F94FF4006002900020039002A94E
:10121000034800F00BF906B010BD000000100240BA
:101220000008014070B5044694F82000012822D13E
:10123000022084F820002068006820F00100216866
:10124000086000F099FA05460DE000F095FA401BA1
:101250000A2808D9606A40F400306062052084F8EA
:101260002000012070BD2068406800F001000028C7
:10127000EBD16062F6E7606A40F400206062012012
:10128000F0E7000070B50446002594F8210002281C
:1012900003D00420A0630125C1E02068006820F08D
:1012A0000E00216808602068006820F001002168B5
:1012B00008605C492068884252D95A4978392068C8
:1012C000884201D1012047E05649643920688842AC
:1012D00001D1102040E0534950392068884201D1A3
:1012E000801539E04F493C392068884201D180148B
:1012F00032E04C4928392068884202D14FF48030CE
:101300002AE0484914392068884202D14FF48010FD
:1013100022E044492068884201D140041CE042494F
:101320002068884201D1012016E03F49143120682D
:10133000884201D110200FE03B49283120688842C3
:1013400001D1801508E038493C312068884201D13C
:10135000801401E04FF480303349091F086051E0E8
:10136000304978392068884201D1012047E02D4971
:1013700064392068884201D1102040E02949503961
:101380002068884201D1801539E026493C3920681F
:10139000884201D1801432E02249283920688842ED
:1013A00002D14FF480302AE01E4914392068884267
:1013B00002D14FF4801022E01A492068884201D1FE
:1013C00040041CE018492068884201D1012016E041
:1013D000154914312068884201D110200FE01249CC
:1013E00028312068884201D1801508E00E493C313F
:1013F0002068884201D1801401E04FF4803009490F
:1014000080394860012084F8210000BF002084F862
:10141000200000BF606B10B12046616B88472846F2
:1014200070BD000080000240080402402DE9F8472A
:10143000024600239C467BE14FF0010808FA03F4C2
:10144000D1F8008008EA0400A0427DD1DFF8F4A2C0
:10145000D1F80480A8EB0A09D0453AD014DCB8F1E1
:10146000030F50D009DCB8F1000F31D0B8F1010FF3
:101470001CD0B8F1020F49D120E0B8F1110F18D0FB
:10148000B8F1120F42D11EE0B9F5881F25D006DC55
:10149000B9F5803F20D0B9F5801F37D11AE0B9F5F2
:1014A000001F18D0B9F5041F30D117E0D1F80CC0D7
:1014B0002DE0D1F80C8008F1040C28E0D1F80C8064
:1014C00008F1080C23E0D1F80C8008F10C0C1EE0A8
:1014D00000BF00BF00BF00BF00BF00BFD1F8088041
:1014E000B8F1000F02D14FF0040C0BE0D1F80880E6
:1014F000B8F1010F03D14FF0080C146102E04FF076
:10150000080C546103E04FF0000C00E000BF00BF86
:10151000FF2801D8904601E002F104084646FF2862
:1015200002D84FEA830803E0A3F108084FEA8808CD
:101530004746D6F800804FF00F0909FA07F928EA64
:1015400009080CFA07F900E07AE048EA0908C6F849
:101550000080D1F8048008F08058B8F1805F6FD126
:1015600000BFDFF8E481D8F8188048F00108DFF800
:10157000D891C9F81880C846D8F8188008F0010832
:10158000CDF8008000BF00BF4FEAB9384FEA930999
:1015900058F829504FEA83784FEA18794FF00F082E
:1015A00008FA09F825EA0805DFF8A081424502D1CA
:1015B0004FF0000824E0DFF89881424502D14FF057
:1015C00001081DE0DFF88C81424502D14FF002088E
:1015D00016E0DFF88481424502D14FF003080FE0A6
:1015E000DFF87881424502D14FF0040808E0DFF8C7
:1015F0007081424502D14FF0050801E04FF0060826
:101600004FEA83794FEA197908FA09F848EA05059B
:10161000DFF850814FEA930948F82950D1F8048047
:1016200008F48038B8F5803F0BD1DFF83C81D8F85A
:10163000008048EA0008DFF83091C9F800800AE02D
:1016400075E0DFF82481D8F8008028EA0008DFF888
:101650001891C9F80080D1F8048008F40038B8F572
:10166000003F0ED1DFF8008108F10408D8F80080AF
:1016700048EA0008DFF8F09009F10409C9F8008091
:101680000DE0DFF8E48008F10408D8F8008028EACB
:101690000008DFF8D49009F10409C9F80080D1F8F6
:1016A000048008F48018B8F5801F0ED1DFF8B880E8
:1016B00008F10808D8F8008048EA0008DFF8A89088
:1016C00009F10809C9F800800DE0DFF89C8008F1F5
:1016D0000808D8F8008028EA0008DFF88C9009F1A3
:1016E0000809C9F80080D1F8048008F40018B8F59A
:1016F000001F0ED1DFF8708008F10C08D8F80080C8
:1017000048EA0008DFF8609009F10C09C9F8008088
:101710000DE0DFF8548008F10C08D8F8008028EAC2
:101720000008DFF8449009F10C09C9F800805B1C3F
:10173000D1F8008028FA03F8B8F1000F7FF47CAEEE
:10174000BDE8F887000011100010024000080140B9
:10175000000C01400010014000140140001801403D
:10176000001C014008000140000401400AB1016171
:1017700001E00B04036170470148006870470000F6
:10178000040000200348006803490978084401491F
:1017900008607047040000200C00002010B50848C5
:1017A000006840F0100006490860052000F080F84D
:1017B0000F2000F007F800F02BF8002010BD00000B
:1017C0000020024070B504460E4800784FF47A714C
:1017D000B1FBF0F00C490968B1FBF0F5284600F0C8
:1017E000F7FB08B1012070BD102C07D20022214662
:1017F000501E00F01EF80548046001E00120F2E7E9
:101800000020F0E70C00002000000020080000206D
:10181000704701460846002809DB00F01F0301223B
:101820009A4043099B0003F1E023C3F8002100BF65
:1018300070472DE9F05F80460D461646002701F0FF
:1018400047FA074639462A46334601F00700C0F1F9
:10185000070ABAF1040F02D94FF0040A01E0C0F1FF
:10186000070AD14600F1040ABAF1070F02D24FF07D
:10187000000A01E0A0F1030AD4464FF0010A0AFA77
:1018800009FAAAF1010A0AEA020A0AFA0CFA4FF066
:10189000010B0BFA0CFBABF1010B0BEA030B4AEA51
:1018A0000B042146404601F01BFABDE8F09F000002
:1018B00000BF00F00702064B19684FF6FF031940FE
:1018C000044B0B4343EA0221014B196000BF7047F0
:1018D0000CED00E00000FA0570B504460D460CB9A9
:1018E000012070BD5A48006800F00700A8420ED2DF
:1018F0005748006820F0070028435549086008460B
:10190000006800F00700A84201D00120E9E7207834
:1019100000F0020002281DD1207800F00400042805
:1019200005D14C48406840F4E0604A49486020785E
:1019300000F00800082805D14648406840F460508F
:10194000444948604348406820F0F000A1680843DB
:1019500040494860207800F0010078B360680128B1
:1019600006D13C48006800F4003090B90120B8E787
:101970006068022806D13748006800F0007040B95E
:101980000120AEE73348006800F0020008B90120EA
:10199000A7E73048406820F00300616808432D49FC
:1019A0004860FFF7E9FE064609E0FFF7E5FE801B09
:1019B00041F28831884202D9032092E707E02548A6
:1019C000406800F00C006168B0EB810FEDD1204859
:1019D000006800F00700A8420ED91D48006820F0FA
:1019E000070028431A4908600846006800F007000D
:1019F000A84201D0012074E7207800F004000428F8
:101A000007D11448406820F4E060E16808431149B8
:101A10004860207800F00800082808D10D48406888
:101A200020F46050216940EAC1000A49486000F092
:101A30003FF808494968C1F30311074A515CC8409F
:101A40000649086006480068FFF7BCFE002048E72A
:101A500000200240001002408843000800000020DF
:101A600008000020014800687047000000000020C6
:101A700000B5FFF7F7FF04494968C1F30221034AA3
:101A8000515CC84000BD00000010024098430008AF
:101A900000B5FFF7E7FF04494968C1F3C221034AD3
:101AA000515CC84000BD000000100240984300088F
:101AB000F0B585B00FF26C0C9CE8E01001A8A0E82E
:101AC000E0101CA52D6800950021002200230024B1
:101AD0000020194D696801F00C05F5B1042D02D004
:101AE000082D19D101E0154819E001ADC1F3834675
:101AF000AC5D01F4803555B10F4D6D68C5F34045BF
:101B00001DF805200D4D6543B5FBF2F302E00C4DC9
:101B100004FB05F3184602E000BF084800BF00BF01
:101B200005B0F0BD02030405060708090A0B0C0DF9
:101B30000E0F1010010200000010024000127A0087
:101B400000093D00F8B504460CB90120F8BD207825
:101B500000F00100002878D0F848406800F00C0040
:101B600004280CD0F548406800F00C00082811D17A
:101B7000F248406800F48030B0F5803F0AD1EF4869
:101B8000006800F4003000285FD0606800285CD155
:101B90000120DBE700BF6068B0F5803F06D1E74871
:101BA000006840F48030E549086028E0606858B972
:101BB000E248006820F48030E04908600846006888
:101BC00020F4802008601AE06068B0F5A02F0BD1E7
:101BD000DA48006840F48020D84908600846006868
:101BE00040F4803008600AE0D448006820F4803077
:101BF000D24908600846006820F48020086000BFD1
:101C0000606888B1FFF7B8FD054606E0FFF7B4FD50
:101C1000401B642801D9032098E7C848006800F4F5
:101C200000300028F2D010E0FFF7A6FD054606E0E0
:101C3000FFF7A2FD401B642801D9032086E7BF48B7
:101C4000006800F400300028F2D1207800F0020093
:101C5000022857D1B948406800F00C0050B1B7488D
:101C6000406800F00C00082818D1B448406800F41F
:101C7000803098B9B148006800F0020020B12069B6
:101C8000012801D0012061E7AC48006820F0F8008D
:101C9000616940EAC100A949086033E02069E8B100
:101CA0000120A7490860FFF767FD054606E0FFF73A
:101CB00063FD401B022801D9032047E79F480068C5
:101CC00000F002000028F2D09C48006820F0F800E4
:101CD000616940EAC1009949086013E00020984911
:101CE0000860FFF749FD054606E0FFF745FD401B8C
:101CF000022801D9032029E79048006800F002007B
:101D00000028F2D1207800F0080008282DD1A06921
:101D1000B8B101208B490860FFF72EFD054606E0AB
:101D2000FFF72AFD401B022801D903200EE7834854
:101D3000406A00F002000028F2D0012000F0CEFC42
:101D400013E000207F490860FFF716FD054606E016
:101D5000FFF712FD401B022801D90320F6E6774861
:101D6000406A00F002000028F2D1207800F0040060
:101D7000042873D100277148C06900F0805070B901
:101D800000BF6E48C06940F080506C49C861084689
:101D9000C06900F08050009000BF00BF01276A4872
:101DA000006800F48070B0B96748006840F4807043
:101DB00065490860FFF7E0FC054606E0FFF7DCFC3C
:101DC000401B642801D90320C0E65F48006800F486
:101DD00080700028F2D000BFE068012806D1574883
:101DE000006A40F001005549086227E0E06858B9F0
:101DF0005248006A20F00100504908620846006A13
:101E000020F00400086219E0E06805280BD14B4877
:101E1000006A40F00400494908620846006A40F040
:101E2000010008620AE04548006A20F001004349C9
:101E300008620846006A20F00400086200BFE068FB
:101E4000A0B1FFF799FC054609E0FFF795FC401BA0
:101E500041F28831884202D9032077E622E03748F0
:101E6000006A00F002000028EFD012E0FFF784FCC7
:101E7000054608E0FFF780FC401B41F288318842AC
:101E800001D9032062E62D48006A00F00200002814
:101E9000F0D1012F05D12948C06920F08050274991
:101EA000C86100BFE069C8B32448406800F00C0076
:101EB000082860D0E069022848D10020204908663F
:101EC000FFF75AFC054606E0FFF756FC401B0228C8
:101ED00001D903203AE61948006800F00070002894
:101EE000F2D1206AB0F5803F07D11448406820F451
:101EF0000030A168084311494860D4E9080108434B
:101F00000E49496821F4741108430C4948600120C6
:101F10000B490866FFF730FC054607E03DE0FFF798
:101F20002BFC401B022801D903200FE60348006860
:101F300000F000700028F2D02FE0000000100240F6
:101F400000004242800442420070004000201449D8
:101F50000866FFF711FC054606E0FFF70DFC401B85
:101F6000022801D90320F1E50E48006800F0007056
:101F70000028F2D111E0E069012800D1E6E5094826
:101F8000466806F48031206A814204D106F470115B
:101F9000606A814201D00120D8E50020D6E500002A
:101FA0000000424200100240042808D14FF0E02116
:101FB000096941F004014FF0E022116107E04FF0A0
:101FC000E021096921F004014FF0E022116170471E
:101FD00070B504462546681EB0F1807F01D301200C
:101FE0000FE0681E4FF0E02148610F214FF0FF30F5
:101FF00000F076FE00204FF0E021886107200861A4
:10200000002070BD7047704710B504460CB9012020
:1020100010BD94F83D0028B9002084F83C0020460B
:1020200000F00CF8022084F83D00211D206800F02B
:10203000EDFB012084F83D000020E9E738B50446B7
:102040000D492068884215D100BF0C48C06940F096
:1020500002000A49C8610846C06900F00200009009
:1020600000BF00BF032201211D20FFF7E2FB1D205E
:10207000FFF7CFFB38BD0000000400400010024015
:102080000146022081F83D000868806800F00702E0
:10209000062A05D00868006840F001000B68186047
:1020A000012081F83D00002070470146022081F8A0
:1020B0003D0000BF0868006A41F21112104050B99B
:1020C0000868006A9210104028B90868006820F07B
:1020D00001000A68106000BF012081F83D00002067
:1020E0007047704710B5044620680069C0F340008F
:1020F000D8B12068C068C0F34000B0B16FF00200F2
:1021000021680861012020772068806900F00300C1
:1021100018B12046FFF7E5FF05E0204600F0ADF8D6
:10212000204600F0ABF80020207720680069C0F35B
:102130008000D8B12068C068C0F38000B0B16FF0F3
:10214000040021680861022020772068806900F47B
:10215000407018B12046FFF7C4FF05E0204600F0AC
:102160008CF8204600F08AF800202077206800696B
:10217000C0F3C000D8B12068C068C0F3C000B0B1DF
:102180006FF0080021680861042020772068C0698A
:1021900000F0030018B12046FFF7A3FF05E020463A
:1021A00000F06BF8204600F069F8002020772068E6
:1021B0000069C0F30010D8B12068C068C0F30010F7
:1021C000B0B16FF010002168086108202077206806
:1021D000C06900F4407018B12046FFF782FF05E0A7
:1021E000204600F04AF8204600F048F8002020770A
:1021F0002068006900F0010058B12068C06800F054
:10220000010030B16FF0010021680861204600F044
:1022100036F820680069C0F3C01058B12068C06863
:10222000C0F3C01030B16FF0800021680861204613
:10223000FFF7E8FE20680069C0F3801058B12068FD
:10224000C068C0F3801030B16FF0400021680861B1
:10225000204600F015F820680069C0F3401058B11E
:102260002068C068C0F3401030B16FF020002168D2
:1022700008612046FFF7C7FE10BD704770477047E2
:102280007047704701460022002391F8392091F8E9
:102290003A3042EA030070472DE9F04704462068CF
:1022A00005682068C668206847694FF00008C14685
:1022B00005F00F08B8F1000F0AD105F0200038B181
:1022C00006F0200020B1204600F018FBBDE8F087A2
:1022D000B8F1000F6DD007F0010018B906F4907046
:1022E000002866D005F0010030B106F4807018B106
:1022F000E06B40F00100E06305F0040030B107F04E
:10230000010018B1E06B40F00200E06305F002004C
:1023100030B107F0010018B1E06B40F00400E06359
:1023200005F0080030B107F0010018B1E06B40F093
:102330000800E063E06B68B305F0200028B106F008
:10234000200010B1204600F0D9FA20684069C0F39F
:102350008019E06B00F0080010B9B9F1000F22D02D
:10236000204600F0ABFA2068406900F04000B0B1B0
:102370002068406920F0400021684861606B50B1DE
:102380001748616B4863606BFEF77CFF10B1606BB0
:10239000416B88470CE02046FFF773FF08E02046BA
:1023A000FFF76FFF04E02046FFF76BFF0020E063BC
:1023B0008CE705F0800030B106F0800018B12046AF
:1023C00000F0C0FB82E705F0400030B106F04000AD
:1023D00018B1204600F082FA78E700BF76E70000E7
:1023E000A928000810B504460CB9012010BDA06949
:1023F00000B100E000BF94F8390028B9002084F84B
:102400003800204600F028F8242084F8390020689D
:10241000C06820F400502168C860204600F0C2FA6D
:102420002068006920F490402168086120684069B4
:1024300020F02A00216848612068C06840F40050FC
:102440002168C8600020E063202084F8390084F807
:102450003A000020CAE7000010B586B004462549BE
:102460002068884244D100BF2348806940F00400BE
:10247000214988610846806900F00400019000BF8E
:1024800000BF00BF0846806940F48040886108466C
:10249000806900F48040019000BF00BF00BF084683
:1024A000806940F0010088610846806900F0010001
:1024B000019000BF00BF4815029002200390012048
:1024C00004900320059002A90C48FEF7AFFF4FF4DB
:1024D000806002900020039002A90848FEF7A6FF42
:1024E0002520FFF796F9032211462520FFF7A1F9D1
:1024F00006B010BD00380140001002400008014045
:1025000010B5034693F83A0020282FD101B10AB93B
:10251000012010BD00BF93F83800012801D102202E
:10252000F7E7012083F8380000BF99629A85DA85C1
:102530000020D863222083F83A0000BF002083F8EF
:10254000380000BF1868C06840F480701C68E06004
:102550001868406940F001001C6860611868C06834
:1025600040F020001C68E0600020D2E70220D0E7A5
:102570001D4A0168914236D11C49098801F4004185
:1025800089BB1A49098801F4804171B11849097859
:102590000A2903D00021154A118024E01349098833
:1025A00041F40041114A11801DE0114909780D29BB
:1025B00006D10E49098841F480410C4A118012E08D
:1025C0000B490978094A1288C2F30D02094B995444
:1025D00006490988491C054A118011460988C729FE
:1025E00001DD0021118070470038014018000020F3
:1025F0001A000020440100202DE9F84304460D464E
:1026000016461F464FF0000994F8390020285CD187
:1026100005B116B90120BDE8F88300BF94F8380071
:10262000012801D10220F6E7012084F8380000BF1C
:102630000020E063212084F83900FFF79DF88146EF
:10264000A684E6842BE0E08C401EE084A068B0F510
:10265000805F16D14B46002280212046009700F073
:10266000A5FA08B10320D6E7A846B8F80000C0F3E1
:10267000080021684860206908B9AD1C0FE06D1C96
:102680000DE04B46002280212046009700F08EFA94
:1026900008B10320BFE715F8010B21684860E08C02
:1026A0000028D0D14B46002240212046009700F060
:1026B0007DFA08B10320AEE7202084F8390000BF7E
:1026C000002084F8380000BFA5E70220A3E7704788
:1026D00000BFFEE700BFFEE77047704708B5084936
:1026E0000968C9084FF47A72B1FBF2F141430091D5
:1026F00000BF00BF00994A1E00920029F9D108BD11
:102700000000002010B54FF480720249024801F029
:10271000E4FA10BD2803002028040020704730B5DB
:102720008FB005460024012005900004069000208B
:10273000079002200C90C1030D910E9505A8FFF79C
:1027400001FA04460CB100BFFEE70F200090022002
:102750000190002002904FF48060039000200490CC
:1027600002216846FFF7B8F804460CB100BFFEE747
:102770000FB030BD10B5FFF705F810BD1148006867
:1027800040F001000F490860084640680E490840C3
:102790000C494860084600680C490840094908602F
:1027A0000846006820F4802008600846406820F44D
:1027B000FE0048604FF41F008860C80304490860A9
:1027C00070470000001002400000FFF8FFFFF6FE17
:1027D00008ED00E010B50248FFF784FC10BD0000D2
:1027E000A802002070B505460C4606480649086058
:1027F0000846446000218160C5600161FFF704FC68
:1028000070BD000000040040A802002010B502685E
:10281000204B98420ED0204B98420BD0B0F1804F05
:1028200008D01E4B984205D01D4B984202D01D4B3C
:10283000984203D122F070024B681A43154B98421C
:102840000ED0154B98420BD0B0F1804F08D0134BEF
:10285000984205D0124B984202D0124B984203D1B5
:1028600022F44072CB681A4322F080034C6943EA99
:10287000040202608B68C3620B688362054B984256
:1028800002D0054B984201D10B69036301234361D8
:1028900010BD0000002C0140003401400004004045
:1028A00000080040000C004070B505466C6A00202E
:1028B000E085E0842046FFF7E4FC70BD0168C9684C
:1028C00021F490710268D1600168496921F0010129
:1028D00002685161202180F83A10704710B5044613
:1028E0002068C06820F040002168C860202084F87B
:1028F00039002046FFF7EBFE002010BD70B50446FE
:1029000094F83A0022284AD1A068B0F5805F13D12C
:10291000A56A206940B920684068C0F30800288093
:10292000A06A801CA06219E020684068C0B22880BC
:10293000A06A401CA06211E0206938B92068406894
:10294000C1B2A26A501CA062117007E02068406802
:1029500000F07F01A26A501CA0621170E08D401E41
:1029600080B2E085C8B92068C06820F020002168E6
:10297000C8602068C06820F480702168C860206842
:10298000406920F0010021684861202084F83A0065
:102990002046FFF7EDFD002070BD0020FCE702207F
:1029A000FAE7000070B504462168096921F4405136
:1029B000E2681143226811612269A16811436269CA
:1029C00041EA02052168C96841F20C62914329433A
:1029D0002268D1602168496921F44071A2691143DC
:1029E00022685161564A2168914254D1FFF750F84C
:1029F00000EBC00101EB001162689200B1FBF2F143
:102A000000EBC00202EB001263689B00B2FBF3F222
:102A10006423B2FBF3F202EBC20303EB0212A1EB5D
:102A20008201322202EB01116422B1FBF2F101F0CA
:102A3000F00100EBC00202EB001263689B00B2FBE6
:102A4000F3F26423B2FBF3F201EB021200EBC001DC
:102A500001EB001163689B00B1FBF3F100EBC003D5
:102A600003EB00136668B600B3FBF6F36426B3FB12
:102A7000F6F303EBC30606EB0313A1EB830132234A
:102A800003EB01116423B1FBF3F101F00F011144D9
:102A90002268916053E0FEF7EBFF00EBC00101EB11
:102AA000001162689200B1FBF2F100EBC00202EB90
:102AB000001263689B00B2FBF3F26423B2FBF3F2F3
:102AC00002EBC20303EB0212A1EB8201322202EB02
:102AD00001116422B1FBF2F101F0F00100EBC00240
:102AE00002EB001263689B00B2FBF3F26423B2FBBB
:102AF000F3F201EB021200EBC00101EB001163687D
:102B00009B00B1FBF3F100EBC00303EB001366681D
:102B1000B600B3FBF6F36426B3FBF6F303EBC30690
:102B200006EB0313A1EB8301322303EB01116423B2
:102B3000B1FBF3F101F00F0111442268916070BD07
:102B400000380140014691F8390021282CD18868CD
:102B5000B0F5805F0FD10A6A1088C0F308000B68D7
:102B60005860086918B9086A801C086209E0086A98
:102B7000401C086205E00B6A581C086218780B6854
:102B80005860C88C401E80B2C88458B90868C068B4
:102B900020F080000B68D8600868C06840F04000F2
:102BA0000B68D860002070470220FCE72DE9F04157
:102BB00004460D4617469846069E21E0701CF8B163
:102BC0002EB1FEF7D9FDA0EB0800B04218D920685D
:102BD000C06820F4D0702168C8602068406920F087
:102BE000010021684861202084F8390084F83A0007
:102BF00000BF002084F8380000BF0320BDE8F0814A
:102C0000206800682840A84201D1012000E000208F
:102C1000B842D3D00020F1E710B500240C48FFF7EC
:102C20003BFB00BF01E0641C00BF0948FFF72AFB23
:102C30002028F8D100BF002401E0641C00BF01225D
:102C400004490348FFF75CFC0028F6D100BF10BD23
:102C50000C0200201A00002008B50848006800682F
:102C6000C0F3401048B1054800684068C0B2009009
:102C700001226946024801F01DF808BDE802002063
:102C80002804002000BFFEE70FB4054B10B503A9D0
:102C9000044A029800F00AF910BC5DF814FB000029
:102CA00035390008140000200FB4084B10B504A9F2
:102CB00002AA039800F0FAF8044602A9002000F0E6
:102CC00078FC204610BC5DF814FB0000B33500080A
:102CD00002480068C0F30220704700000CED00E0DD
:102CE00010B5002804DB0A07130E054A135406E04A
:102CF0000A07140E034A00F00F031B1FD45410BD23
:102D000000E400E018ED00E002E008C8121F08C16E
:102D1000002AFAD170477047002001E001C1121F5C
:102D2000002AFBD1704700002DE9FF5F82B000212F
:102D3000DDE90430020DDDF840B0034318D044F65D
:102D40001050A2F2FF3242431514119801281FD0EF
:102D5000A5EB0B00401C5FEA000A4FF000064E4F47
:102D6000DFF83891B046504615D5CAF1000413E09B
:102D7000119801244AA3012801D16FEA0B0102989E
:102D8000119AC0E90031C0E9024206B0BDE8F09FE7
:102D9000CBF10000DFE704460021404A491842EB2E
:102DA0000450CDE9001012E0E00707D032463B4660
:102DB00040464946FDF748FB8046894632463B4639
:102DC00010461946FDF740FB06460F466410002CDE
:102DD000EAD1DDE90401DDE90023BAF1000F06DAEA
:102DE000FDF732FB42464B46FDF72EFB05E0FDF7B3
:102DF0004AFD42464B46FDF746FD04460E4600227C
:102E0000284BFDF7C7FD03D84FF0FF30014607E020
:102E10000022254B20463146FDF76FFAFDF7A2FD53
:102E2000102409E0002C0ADB0A220023FDF735FC00
:102E3000039B30321A55641E50EA0102F2D1641C21
:102E4000039AC4F111031444119A012A03D00122F8
:102E500008430DD10AE0084304D000204FF0110BC5
:102E6000119072E7A3EB0B056D1E0DE05B4504DDD1
:102E70004FF0000205F1010504E003DA4FF0000213
:102E8000A5F10105002AECD002981199C0E90231A0
:102E9000C0E9004579E70000000014400000F03F61
:102EA000300000000000F0430000E03F2DE9FF4F3C
:102EB00095B09A46884606460025EEE1252877D14A
:102EC00000242746F94A0121039400E0044316F840
:102ED000013F203B01FA03F01042F7D130782A2855
:102EE00011D06FF02F033078A0F13002092A16D8E4
:102EF000039A44F0020402EB820203EB4202104404
:102F0000761C0390EFE758F8042B0392002A03DAAB
:102F1000504244F40054039044F00204761C30788C
:102F20002E2816D116F8010F44F004042A280DD0DB
:102F30006FF02F023078A0F13003092B09D807EB8E
:102F4000870302EB4303C718761CF3E758F8047BAA
:102F5000761C30786C280FD006DC4C2817D06828F7
:102F60000DD06A2814D104E0742810D07A280FD12B
:102F70000DE044F400140AE044F4801401E044F449
:102F800040147278824202D104F58014761C761CBB
:102F9000307866280BD013DC582877D009DC00285D
:102FA00075D04528F6D04628F4D047281AD193E1A9
:102FB00018E0632835D0642879D0652812D18BE1D8
:102FC000702873D008DC6728F1D069286FD06E288C
:102FD0000DD06F2806D1ACE073282CD0752874D0A2
:102FE000782853D05246179990476D1C54E1C4F38A
:102FF0000250022809D003280DD0D8F80010042868
:103000000DD00D6008F1040846E1D8F80010EA1769
:10301000C1E90052F6E7D8F800100D80F2E70D7014
:10302000F0E718F8041B8DF8001000208DF801005F
:10303000EB46012003E058F804BB4FF0FF30610776
:103040004FF0000102D40DE009F101018946B942B7
:103050000FDA8145F8DB1BF809100029F4D108E0EC
:1030600009F1010189468142FADB1BF809100029A8
:10307000F6D103985346A0EB090721463846179A24
:1030800000F080FA284400EB090507E044E008E17D
:103090000DE01BF8010B524617999047B9F1010951
:1030A000F7D2534621463846179AF2E039E00A2112
:1030B000C4F302524FF0000B0091022A06D058F8D8
:1030C000040BC117032A09D00AE023E008F1070026
:1030D00020F00702F2E80201904605E000B2C117B5
:1030E000042A01D140B2C117002906DA0A4600219C
:1030F000404261EB02012D2202E0220504D52B2281
:103100008DF80420012203E0E20701D02022F7E736
:10311000914657E00A2100E010214FF0000B00918A
:103120000BE010214FF0000B44F00404082700913D
:1031300003E008204FF0000B0090C4F30252022A73
:1031400005D058F8040B0021032A08D008E008F144
:10315000070020F00702F2E80201904603E080B287
:10316000042A00D1C0B24FF0000922072AD53278D4
:10317000702A07D0DDF800C08CF0100C5CEA0B0C54
:1031800005D00EE040228DF80420012208E050EA2C
:10319000010306D030238DF804308DF8052002227B
:1031A0009146009B83F0080353EA0B030AD150EACF
:1031B000010201D1620705D530228DF804204FF0BD
:1031C00001097F1E3278582A04D039A20C920CAA29
:1031D00002920BE03BA2F9E75B46009AFDF75DFA2D
:1031E0000C9B9B5C029A521E0292137050EA0102E1
:1031F000F2D1029804A9081A00F1200B600702D549
:1032000024F4803400E001275F4502DDA7EB0B00CA
:1032100000E0002000EB0B01009003984944401AA5
:103220000390E00306D453462146179A039800F012
:10323000A9F90544002706E001A85246C05D179988
:1032400090476D1C7F1C4F45F6DBE0030CD55346C1
:103250002146179A039800F095F9054404E03020C0
:103260005246179990476D1C0099481E00900029FE
:10327000F5DC08E00298029952460078491C029158
:10328000179990476D1CBBF10001ABF1010BF1DC0C
:103290005BE100F065F90544761C307800287FF486
:1032A0000DAE19B02846BDE8F08F000009280100D6
:1032B00030313233343536373839616263646566AC
:1032C000000000003031323334353637383941426E
:1032D0004344454600000000600700D4062708F17B
:1032E000070020F00700F0E80223804603F0004CBE
:1032F0005FEA0C0001D097A009E0200501D596A057
:1033000005E0E00701D095A001E0AFF24C0013907A
:10331000307823F0004365280CD006DC452809D01E
:1033200046281DD047287FD13BE0662818D0672863
:103330007AD136E00021112F01DB112000E0781C4A
:10334000CDE9000104A90CA8FFF7EEFCDDE90D01B1
:103350000C9A4FF0000B07F10109109200914EE01A
:103360004FF000400097CDE9011004A90CA8FFF729
:10337000DBFCDDE90D020C9B0F994FF0000B914631
:103380001093009211B9791C00EB0109B7EB090009
:1033900003D4C0F1FF3B07F10109A9EB070001903D
:1033A00042E0012F00DA01270021112F01DD112059
:1033B00000E03846CDE9000104A90CA8FFF7B4FCF1
:1033C000DDE90D010C9A00914FF0000BB946109207
:1033D00021070FD4009A4A4503DA914601E0A9F18A
:1033E0000109B9F1010F05DD109AA9F10101515C44
:1033F0003029F4D0B84202DA10F1040F03DA0121C7
:10340000CDE9011010E0002803DC8344A9EB0001A2
:1034100002E0411C494500DD8946A0EB0B00401C41
:1034200001904FF000400290200705D401984845D4
:1034300002DB4FF0FF30019000208DF84B00029826
:103440000DF14B07B0F1004F25D002200C902B203E
:103450000D90029800280CDA404202902D200D9029
:1034600007E00A210298FDF702F93031029007F8CF
:10347000011D0C99481E0C900029F2DC02980028CE
:10348000EFD1791E0D980870307800F0200040F0E0
:10349000450007F8020D11A8C01BC01D029013982B
:1034A000007800B1012000EB0901019801EBE07107
:1034B000029801440398401A401E0390E00306D48A
:1034C00053462146179A039800F05CF80544139878
:1034D000007818B15246179990476D1CE00323D528
:1034E00053462146179A039800F04CF805441BE018
:1034F000BBF1000F07DB0098584504DD10981799C1
:1035000010F80B0001E017993020524690470198BF
:103510000BF1010B401E05F10105019004D12E2095
:103520005246179990476D1CB9F10001A9F10109A4
:10353000DEDC05E017F8010B5246179990476D1C29
:103540000299481E02900029F4DC53462146179A3E
:1035500003989EE62D0000002B00000020000000D4
:103560002DE9F041044600251E461746880404D480
:1035700005E039462020B0476D1C641EF9D5284669
:10358000BDE8F0812DE9F041044600251E46904635
:10359000C80301D5302700E02027880404D505E0C2
:1035A00041463846B0476D1C641EF9D52846BDE833
:1035B000F0810A68531C0B60107070472DE9FF5FA3
:1035C000564800F0FFF856480078012875D1554854
:1035D00000785549087053490879FCF7C6FF04463E
:1035E000524A534BFCF730FFCDE902014D49C878F0
:1035F000FCF7BBFF80464F4A4F4BFCF725FF0446C4
:103600000D4648498978474A527802EB820201EB1D
:103610004200FCF799FF064622462B46FCF76DFE5A
:10362000CDE90001DDE90223FCF767FE8246FDF7E4
:1036300002F8424908603B49087AFCF796FF0646C3
:103640003A4A3B4BFCF700FF04460D463549C87922
:10365000FCF78BFF8246374A374BFCF7F5FE0646F0
:103660000F46304989792F4A527902EB820201EBE9
:103670004200FCF769FF804632463B46FCF73DFEC0
:1036800022462B46CDE90001FCF737FECDE90201C9
:10369000FCF7D1FF2A4908604FF46E4308460268E0
:1036A000264801682048007800F04CFB00201C49A7
:1036B000087009211B48FCF772FD22480078012898
:1036C00029D121490978642251431F4A527802EBDB
:1036D000820201EB42011C4A92788818FCF726FF0F
:1036E000164908601848C0780F49087017481449EF
:1036F00008604FF4905308460268104801680A4871
:10370000007800F01FFB00200E4908700E480021D1
:10371000016041600172BDE8FF9F00003406002097
:103720002500002040060020270000207B14AE4723
:10373000E17A843F9A9999999999B93F2800002094
:103740002C0000202600002049060020CDCC8C3F14
:1037500010B504460420FEF727FC0148046010BDA4
:103760001000002030B50446002504E04FF47A70C4
:1037700000F004F86D1CA542F8D330BD70B50346C7
:1037800000224FF0E02675690D4E366803FB06F403
:103790004FF0E026B16910E04FF0E026B0698842B2
:1037A0000BD0884202D20E1A324402E02E1A0E4486
:1037B00032440146A24200D300E0EDE700BF70BDF5
:1037C000100000207FB50546002498E04F4800789F
:1037D000072815D2DFE800F00415263A5B7289004D
:1037E000012203A94A4800F087FA9DF80C0031280D
:1037F00003D101204549087002E0002043490870C8
:103800007CE0012203A9424800F076FA9DF80C0002
:10381000372803D102203D49087002E000203B49CF
:1038200008706BE0012203A9394800F065FA9DF8A1
:103830000C00302806D103203449087035A0FFF76A
:1038400023FA02E000203149087057E0012203A961
:103850002F4800F051FA9DF80C006D2803D1042088
:103860002A49087012E09DF80C00732803D1052046
:10387000264908700AE09DF80C00702803D1062044
:103880002249087002E000202049087036E0092231
:1038900069461F4800F030FA002406E01DF80400D5
:1038A000303820490855601CC4B2092CF6DB0120D1
:1038B0001D4908700020154908701FE0092269465B
:1038C000134800F019FA002406E01DF8040030380F
:1038D00016490855601CC4B2092CF6DB01201449B6
:1038E000087000200949087008E004226946084869
:1038F00000F002FA00200549087000BF00BF04482C
:1039000000F0F1F900283FF461AF7FBD24000020F2
:1039100034060020B7A2CFD6CFFBCFA2CDB7330D50
:103920000A00000040060020250000204906002073
:103930002600002000BF054A126802F04002002A5B
:10394000F9D0C2B2014B1B1D1A607047003801400C
:103950000146486AC0B270472DE9FC410646002482
:10396000002700256846FDF771F80446BCB100BF8A
:1039700006E0705D00F0E0003844C7B2681CC5B2D4
:1039800004EBD471B5EB610FF3DB9DF80000B84296
:1039900005D104A0FFF778F90120BDE8FC810020E3
:1039A000FBE700005468652072657475726E65648B
:1039B000206461746120776173207375636365733C
:1039C0007366756C6C7920726563656976656421D0
:1039D00021200D0A000000000EB500242AA103C911
:1039E000CDE90101FDF7DAFE4FF4E010FEF797FE96
:1039F0004820FFF7ADFE4FF4E13000F001FC6420F9
:103A0000FFF7B0FE002004235A044FF4E0010090B9
:103A1000FCF7ECFFFDF76CF847216320FEF7E2FEB0
:103A20001BA0FFF731F9032000F096FA19A0FFF769
:103A30002BF96420FFF796FE00F0CCF823E00AE0B3
:103A40002146641C144A8818012100F00BFCB4F5CF
:103A5000007F00DB002400F0C9F80028F0D1002C22
:103A600011DD21460C4800F0E7FB0CA0FFF70CF934
:103A7000A0B2094900F0C6F8FFF7A0FD002402211A
:103A800001A800F073FCDAE76F6B0D0A000000007C
:103A90006B6F00006F6B0000440000200D0A0000F7
:103AA0002DE9F04786B004468A469146012C02D1A2
:103AB0004349087009E0012C03D1002040490870F7
:103AC00003E0012C01DD3E4804705046FCF773FD15
:103AD0003B4948704878FCF732FD07465146FCF7F1
:103AE000D7FB06463749FCF7D6FB0546FCF74AFDEF
:103AF000334988708878FCF738FD0546324A334BE5
:103B0000FCF7A2FCCDE902012D494878FCF717FD2E
:103B100006465146FCF7BCFB0546FCF779FDCDE9AE
:103B20000001DDE90223FCF789FC07460022284B4F
:103B3000FCF78AFCCDE90401FCF751FD2049C8706F
:103B40004846FCF738FD1E4908710879FCF7F7FC78
:103B500007464946FCF79CFB06461A49FCF79BFBC7
:103B60000546FCF70FFD164948714879FCF7FDFC46
:103B70000746154A154BFCF767FC05460E461049EB
:103B80000879FCF7DCFC80464946FCF781FB0746D8
:103B9000FCF73EFD2A463346CDE90001FCF74EFC1A
:103BA00000220B4BCDE90201FCF74EFCCDE90401EC
:103BB000FCF715FD02498871084606B0BDE8F0879C
:103BC0001B000020000020419A9999999999B93FCA
:103BD0000000594000B54FF400720249024800F05D
:103BE0007CF800BD340400203406002010B50448E1
:103BF00000F079F808B9012010BD0020FCE70000B2
:103C00002804002070B504460D46002622462946A9
:103C1000094800F04FF8084800F026F806463146FB
:103C200006A0FFF731F8044800F014F806463146C4
:103C300005A0FFF729F870BD34060020CAB9D3C328
:103C4000C1CB256409090000BBB9D3D025640D0A96
:103C50000000000000B50346184600F005F89988FA
:103C6000081A401E80B200BD0146C8880A899042E9
:103C700004DBC8880A89801A80B2704788880A895C
:103C8000801ACA88104480B2F7E770B50B4600214D
:103C900000BF0CE05C5CC6880568AC55C488641C39
:103CA000858894FBF5F605FB1644C480491C9142B7
:103CB000F0DB70BDF0B505460E4614462846FFF70A
:103CC000C9FF0746A74201DA0120F0BD224631466E
:103CD0002846FFF7DAFF0020F7E701608280002323
:103CE000C380038170470146C8880A89904201D188
:103CF000012070470020FCE72DE9F041044688468A
:103D0000154600262046FFF7AFFF0746AF4200DD0D
:103D10002F460520FFF726FD00260DE021892068AB
:103D2000405C08F806002089401CA18890FBF1F255
:103D300001FB12002081761CBE42EFDB3846BDE855
:103D4000F08100002DE9FC5F0746884691461D463C
:103D50000026B2460024A346002001904A46414670
:103D60003846FFF79DFE00902A4608210098FCF790
:103D700091FE834600BF00202B49086000F0D4F874
:103D800000BFBBF1000F43D140E027482438FFF7C4
:103D9000DFFD0646314625A0FEF776FF0098FFF7C7
:103DA000DBFD80B1322E0EDA00F0CAF81E4824384E
:103DB000FFF7CEFD019021A0FEF766FF4FF0000A4D
:103DC0000198BDE8FC9F00F0BBF8601CC4B20A2C4F
:103DD0000ADA21462148FEF757FF2A4608210098B3
:103DE000FCF758FE8346C6E74FF0010A0AE0214679
:103DF0001B48FEF749FF2A4608210098FCF74AFEB7
:103E00008346B8E7BAF1010FF1D000E0BDE709E061
:103E10002A4608210098FCF73DFE834611A0FEF7D4
:103E200033FFAEE70198CCE72404004076616C755F
:103E300065206973202564200D0A000054686973A9
:103E40002074696D652C207468652064617461203C
:103E500069732073656E74200D0A0000A84700087E
:103E60005447000852657472792073656E64696EF8
:103E70006720200D0A0000002DE9F04106460F469C
:103E8000144600254FF400711F48FCF788F9FEF72F
:103E900039FC3046FCF7A0F980464146304600F038
:103EA0003BF830E039461848FCF784F910B101209E
:103EB000BDE8F08115A11448FCF77CF908B1002099
:103EC000F6E713A11048FCF775F910B14FF0FF3079
:103ED000EEE7FFF78BFE60B129466D1C0A4A881891
:103EE000012100F0BFF9B5F5007F0CD34FF0FF3092
:103EF000DEE7641E24B9FEF705FC6FF00100D7E78A
:103F00006420FFF72FFCCDE7520600204F4B000046
:103F10004552524F5200000070B505460C46E1B2C2
:103F2000284600F023FA70BD10B500200249086051
:103F30000248FEF7A5F810BD10040040A8020020BA
:103F400010B50020024908600248FEF7AEF810BD27
:103F500010040040A802002030B585B0054600BF1F
:103F600000BF4948806940F004004749886108461D
:103F7000806900F00400009000BF00BF00BF00BFD8
:103F800000BF0846806940F00400886108468069E7
:103F900000F00400009000BF00BF00BF00BF084653
:103FA000806940F0010088610846806900F00100E6
:103FB000009000BF00BF00BF3449486820F0E060B7
:103FC00040F00070486000BF4FF4004001900120B5
:103FD000029003900320049001A92D48FDF726FAD2
:103FE00000BF0122D1032A48FDF7C0FB00BF10200B
:103FF0000190012003900020029001A92448FDF7C0
:1040000015FA4FF4E13000F039F922A0FEF73CFE3A
:1040100000BF00F091F80028FBD11FA0FEF734FE8E
:10402000062D28D2DFE805F003090F151B210C210E
:104030001A4800F03FF804461EE00D21184800F031
:1040400039F8044618E00C21164800F033F804460D
:1040500012E00D21144800F02DF804460CE0112167
:10406000124800F027F8044606E00121104800F04D
:1040700021F8044600E000BF00BF1CB16FF0010052
:1040800005B030BD0020FBE70010024000000140F9
:10409000000801403000000031000000A04300088B
:1040A00030440008CC4400085C450008F84500088E
:1040B000C44600082DE9F04105460E4600270024BD
:1040C00032E004EB440105EB81014868FCF784F819
:1040D00004EB440105EB810189680844A0F1010863
:1040E00004EB440155F8212004EB440105EB810168
:1040F00048684146FFF7C0FE0746012F00D112E095
:1041000004EB440155F8212004EB440105EB810147
:10411000886807A1FFF7B0FE0746002F02DA601C8F
:10412000BDE8F08100BF641CB442CADB0020F7E7A1
:104130000D0A4F4B0000000070B58AB04FF0FF34FD
:104140000025242218A101A8FCF710F805221FA1C0
:1041500020A0FFF791FE044614B1681E0AB070BD9E
:1041600002212048FCF7FDFC0546C5B11E48FCF7BE
:1041700033F80646324629461B48FBF7F7FF1A4A32
:104180001AA101A8FEF790FD052210A101A8FFF7D2
:1041900073FE0446002C05DA4FF0FF30DEE74FF0E7
:1041A000FF30DBE70020D9E741542B41545F494EF3
:1041B000544F3D2246462D46462D46462D46462D19
:1041C00030312D3032220D0A000000000D0A4F4B15
:1041D0000D0A000041542B5345415243483F0D0AFC
:1041E00000000000520600203000002041542B4106
:1041F000545F494E544F3D222573220D0A000000A2
:1042000010B5044609480A49086008464460002180
:104210008160C160016181610C214161FEF7E2F8BA
:10422000012204490248FEF76BF910BD0038014035
:104230000C0200201A00002010B50246002000BF2A
:104240000BE000BF064B1B6803F04003002BF9D0C6
:10425000135C034C241D2360401C8842F1D310BD25
:104260000038014070B504460D462A4621460248F2
:10427000FFF742FD70BD00002804002010B586B095
:10428000044600BF00BF3548806940F0080033494C
:1042900088610846806900F00800019000BF00BFF7
:1042A00000BF00BF00BF0846806940F00800886179
:1042B0000846806900F00800019000BF00BF00BF01
:1042C00000BF00BF0846C06940F48020C8610846AE
:1042D000C06900F48020019000BF00BF00BF081536
:1042E000029002200390012004900320059002A96F
:1042F0001B48FDF79BF84FF40060029000200390EC
:1043000002A91748FDF792F81648174908600846B1
:10431000446000218160C160016181610C214161C3
:10432000FEF760F810480068C06820F040000E49B1
:104330000968C8600C480068C06840F020000A495D
:104340000968C8602720FDF764FA032200212720AE
:10435000FDF76FFAFEF7D6F906B010BD0010024067
:10436000000C014000480040E802002070B50446FF
:104370000D464FF47A732A4621460248FEF73CF96F
:1043800070BD0000E80200200000000000000000F6
:1043900001020304060708090000000001020304EB
:1043A00005000000844C00081C4B000805000000BC
:1043B000E04B0008584B000805000000044D0008C1
:1043C000D449000805000000904C00082C4B000860
:1043D000050000009C4C0008804800080500000013
:1043E000384C0008F447000805000000184D00088C
:1043F0006448000805000000044C00084C4A00080E
:1044000005000000D04C0008A84A00080500000084
:10441000484C00082C48000805000000144C000817
:104420001448000805000000284C0008284C00082B
:1044300005000000844C00081C4B0008050000002B
:10444000E04B0008904B000805000000AC4C000851
:10445000A048000805000000F04C00086C49000866
:1044600005000000904C00082C4B000805000000DF
:104470009C4C00084448000805000000384C000827
:10448000F447000805000000184D000864480008C3
:1044900005000000044C00082C4A0008050000003C
:1044A000D04C0008A84A000805000000484C00084D
:1044B0002C48000805000000144C000814480008AF
:1044C00005000000284C0008284C000805000000EA
:1044D000844C00081C4B000805000000E04B00085D
:1044E0003C4B000805000000044D00088849000806
:1044F00005000000904C0008CC4A000805000000B0
:104500009C4C00088048000805000000384C00085A
:10451000F447000805000000184D00086448000832
:1045200005000000044C00086C4A0008050000006B
:10453000D04C0008A84A000805000000484C0008BC
:104540002C48000805000000144C0008144800081E
:1045500005000000284C0008284C00080500000059
:10456000844C00081C4B000805000000E04B0008CC
:10457000744B000805000000AC4C00080849000816
:1045800005000000F04C00086C4900080500000020
:10459000904C00082C4B0008050000009C4C0008C3
:1045A000E848000805000000384C0008F4470008FF
:1045B00005000000184D000828490008050000000B
:1045C000044C00080C4A000805000000D04C00080C
:1045D000A84A000805000000484C00082C480008C4
:1045E00005000000144C00081448000805000000F5
:1045F000284C0008284C000805000000844C0008E6
:104600001C4B000805000000E04B00088C4A000825
:1046100005000000904C00082C4B0008050000002D
:104620009C4C00084448000805000000384C000875
:10463000F447000805000000184D00086448000811
:1046400005000000BC4C00084849000805000000B7
:10465000044C0008EC49000805000000D04C00089C
:10466000A84A000805000000484C00082C48000833
:1046700005000000144C0008144800080500000064
:104680005C4C0008044B000805000000704C00085A
:10469000DC4A000805000000DC4C0008A0490008C6
:1046A00005000000F04B0008B849000805000000B4
:1046B000CC4B0008C048000805000000284C00084A
:1046C000284C000805000000844C00081C4B000822
:1046D00005000000E04B0008AC4B0008050000009E
:1046E000904C00082C4B0008050000009C4C000872
:1046F0004448000805000000384C0008F447000852
:1047000005000000184D000864480008050000007E
:10471000BC4C00084849000805000000044C000893
:10472000EC49000805000000D04C0008A84A000829
:1047300005000000484C00082C4800080500000057
:10474000144C00081448000805000000284C00081C
:10475000284C00084552524F522054686520746915
:104760006D65206973206772656174657220746875
:10477000616E20326D73206F7220746865206461F1
:104780007461207265636569766564206973206968
:104790006E636F7272656374202564746820746937
:1047A0006D650D0A000000005468652074696D6530
:1047B0002069732067726561746572207468616E28
:1047C00020356D73206F7220746865206461746198
:1047D00020726563656976656420697320696E631C
:1047E0006F727265637420256474682074696D65E6
:1047F0000D0A000041542B4E45544D41534B3D2270
:104800003235352E3235352E3235352E30220D0AE1
:104810000000000041542B554152545F5041434B1E
:1048200054494D453D223530220D0A0041542B5547
:104830004152545F5041434B4C454E3D223530224E
:104840000D0A000041542B53544154494349503DF3
:10485000223139322E3136382E33302E3139302252
:104860000D0A000041542B474154455741593D2200
:104870003139322E3136382E33302E31220D0A00A6
:1048800041542B53544154494349503D223139320C
:104890002E3136382E33302E323031220D0A0000C0
:1048A00041542B52454D4F544549503D22313932E8
:1048B0002E3136382E33302E323031220D0A0000A0
:1048C00041542B41544B59554E44455649443D2281
:1048D0003635313132353936313130393639343295
:1048E00036383031220D0A0041542B53544154497B
:1048F0004349503D223139322E3136382E312E3156
:104900003032220D0A00000041542B52454D4F54C5
:104910004549503D223139322E3136382E312E3133
:104920003032220D0A00000041542B4741544557B4
:1049300041593D223139322E3136382E312E313027
:1049400032220D0A0000000041542B444E535F53A5
:1049500045525645523D223131342E3131342E31BB
:1049600031342E313134220D0A00000041542B52D3
:10497000454D4F54455F504F52543D2231303030F9
:1049800036220D0A0000000041542B4C4F43414C8D
:104990005F504F52543D223130303036220D0A00E4
:1049A00041542B434C4F55445F504F52543D223598
:1049B00039363636220D0A0041542B41544B4C49AE
:1049C0004E4B5057443D223132333435363738223E
:1049D0000D0A000041542B4C4F43414C5F504F5245
:1049E000543D223231303139220D0A0041542B4DD1
:1049F0004F44554E414D453D2241544B2D434C4F64
:104A000055442D4D4F44220D0A00000041542B4DBA
:104A10004F44554E414D453D2241544B2D5443503A
:104A2000434C492D4D4F44220D0A000041542B4D5B
:104A30004F44554E414D453D2241544B2D55445018
:104A4000434C492D4D4F44220D0A000041542B4D3B
:104A50004F44554E414D453D2241544B2D554450F8
:104A60005345562D4D4F44220D0A000041542B4D05
:104A70004F44554E414D453D2241544B2D544350DA
:104A80005352562D4D4F44220D0A000041542B45E0
:104A900054485F4D4F443D225443505F434C4F5563
:104AA00044220D0A0000000041542B554152543D50
:104AB00022313135323030222C2231222C22382240
:104AC0002C224E4F4E45220D0A00000041542B442B
:104AD0004843503D224F4646220D0A0041542B4385
:104AE0004F4C55445F444F4D41494E3D22434C4F3E
:104AF00055442E414C49454E54454B2E434F4D2273
:104B00000D0A000041542B434C4F55445F4C494E15
:104B10004B5F454E3D224F4E220D0A0041542B451E
:104B200043484F3D224F4E220D0A000041542B4472
:104B30004843503D224F4E220D0A000041542B4560
:104B400054485F4D4F443D225443505F53455256A5
:104B50004552220D0A00000041542B4554485F4D38
:104B60004F443D225544505F534552564552220D05
:104B70000A00000041542B4554485F4D4F443D22EC
:104B80005443505F434C49454E54220D0A000000E7
:104B900041542B4554485F4D4F443D225544505F8E
:104BA000434C49454E54220D0A00000041542B4508
:104BB00054485F4D4F443D225544505F4D554C5431
:104BC0004943415354220D0A0000000041542B4137
:104BD000544B59554E44455649443F0D0A00000078
:104BE00041542B4554485F4D4F443F0D0A0000008F
:104BF00041542B41544B4C494E4B5057443F0D0AA6
:104C00000000000041542B4D4F44554E414D453F4F
:104C10000D0A000041542B554152545F5041434B03
:104C200054494D453F0D0A0041542B5550444154C1
:104C3000453F0D0A0000000041542B4E45544D41A4
:104C4000534B3F0D0A00000041542B554152545F15
:104C50005041434B4C454E3F0D0A000041542B43FD
:104C60004C4F55445F4C494E4B5F454E3F0D0A003B
:104C700041542B434F4C55445F444F4D41494E3FA7
:104C80000D0A000041542B4543484F3F0D0A0000D8
:104C900041542B444843503F0D0A000041542B53CC
:104CA000544154494349503F0D0A000041542B528E
:104CB000454D4F544549503F0D0A000041542B4487
:104CC0004E535F5345525645523F0D0A00000000B7
:104CD00041542B554152543F0D0A000041542B437F
:104CE0004C4F55445F504F52543F0D0A0000000096
:104CF00041542B52454D4F54455F504F52543F0D38
:104D00000A00000041542B4C4F43414C5F504F521E
:104D1000543F0D0A0000000041542B4741544557B1
:104D200041593F0D0A000000484D000800000020D6
:104D300044000000082D00088C4D000844000020AD
:104D4000140C0000182D00080024F40000000000DE
:104D50001000000001000000000000000000000042
:104D60000000000000000000000000000000000043
:104D7000000000000000000046462D46462D464635
:0C4D80002D46462D46462D4646000000FC
:0400000508000131BD
:00000001FF
