:020000040800F2
:10000000A006002069010008EB0900081D0900088E
:10001000E9090008D9070008951B00080000000046
:10002000000000000000000000000000DF110008D8
:10003000DB07000800000000D90D000829160008A1
:100040007F0100087F0100087F0100087F01000890
:100050007F0100087F0100087F0100087F01000880
:100060007F0100087F0100087F0100087F01000870
:100070007F0100087F0100087F0100087F01000860
:100080007F0100087F0100087F0100087F01000850
:100090007F0100087F0100087F0100087F01000840
:1000A0007F0100087F0100087F0100087F01000830
:1000B0007F0100087F0100087F0100087F01000820
:1000C0007F0100087F0100087F0100087F01000810
:1000D0007F01000839160008611600087F0100083A
:1000E0007F0100087F0100087F0100080000000078
:1000F0000000000000000000000000000000000000
:1001000000000000000000007F0100087F010008DF
:100110007F0100087F0100087F0100087F010008BF
:100120007F0100087F0100087F0100087F010008AF
:100130007F0100087F0100087F0100087F0100089F
:100140007F0100087F0100087F0100087F0100088F
:10015000DFF810D000F02CF900480047D11B000850
:10016000AFF30080A006002005480047FEE7FEE749
:10017000FEE7FEE7FEE7FEE7FEE7FEE7FEE7FEE757
:100180005101000840EA01039B0703D009E008C9B8
:10019000121F08C0042AFAD203E011F8013B00F84C
:1001A000013B521EF9D270470FB400B58DB010A9B3
:1001B00009900B9000914FF0FF300A9000200C90B6
:1001C00005480690054807906A4609A80F9900F06F
:1001D000C1F80DB05DF814FB710300088F0300082F
:1001E0002DE9FF5F1D464FF0FF3BD5E901469146E3
:1001F0005F464FF00008A9697F1C01988847296A6B
:10020000824688470028F6D1BAF1FF3F0CD024F48B
:10021000C064002E19DD600614D5BAF12B0F09D089
:10022000BAF12D0F0ED103E0584604B0BDE8F09F9F
:1002300044F48064A9697F1C01988847761E824631
:10024000002E02DDBAF1300F03D0B9F1000F26D035
:1002500032E0A969761E44F400747F1C0198884737
:100260008246002E05DDBAF1780F06D0BAF1580F9C
:1002700003D0B9F1000F10D01EE0B9F1000F02D089
:10028000B9F1100F18D1A969761E24F400747F1CEF
:10029000019888478246102002E0082000E00A20EA
:1002A000814609E008FB0908A969761E44F4007438
:1002B0007F1C019888478246002E05DD494650463E
:1002C00000F034F80028EDDAE96901988847A005C4
:1002D00002D46FF00100A8E7E00725D1600613D52E
:1002E000600502D5C8F1000000E0404629680A1DFB
:1002F0002A600968220501D5087015E0220701D59A
:10030000088011E008600FE02868011D296000687E
:10031000210502D580F8008006E0210702D5A0F86B
:10032000008001E0C0F8008038467EE73A2800D21D
:10033000303820F02002412A01D3A2F13700884250
:1003400001D34FF0FF307047026811441378016009
:1003500018467047D1600449516104491162002177
:100360001161114600F03CB849030008D5030008AC
:10037000426842B1016811F8013B23B1521EC0E945
:100380000012184670470121C160881E70474268FC
:100390005AB1C368016843B983688B4205D0491ECE
:1003A000521CC0E90012002070474FF0FF30704728
:1003B000064C074D06E0E06840F0010394E80700B2
:1003C00098471034AC42F6D3FFF7C6FE3021000840
:1003D00050210008C0B24FF4F05100F099B900006C
:1003E0002DE9F34F8BB04FF0000801F10C000C46E3
:1003F0004FF0010B46460DF1080A01906269012198
:1004000001989047051E2DD0252D2CD0216A8847B4
:10041000C0B16269012101989047216A884700288C
:10042000F7D1411E62690198904700E0761CA169EE
:100430000B988847216A88470028F7D1E1690B9813
:100440008847DBE7A1690B9888470746A84201D196
:10045000761CD3E7E1690B9888477F1C02D1B8F17D
:10046000000F6FD047E1002762693D463946019889
:1004700090472A2804D162690121019890470125FB
:10048000DFF888926269012101989047A0F130015C
:100490000A290AD24F45E5DC07EB870100EB41074B
:1004A000303FDFD445F01005ECE7E90601D46FF0EA
:1004B00000476C280AD04C2814D0682815D06A2828
:1004C0000DD074281CD07A281AD01DE06269012151
:1004D000019890476C2802D045F0040514E045F0DF
:1004E00002050DE045F020050AE06269012101984E
:1004F0009047682802D045F0080505E045F40065FE
:100500006269012101989047C4E9015765283DD0EF
:1005100019DC58287AD00CDC452837D004DC252893
:1005200026D0412831D131E046282FD047282CD180
:100530002CE05B2877D0612828D063287CD0642801
:1005400023D15AE0D1E06F2848D008DC66281DD0BE
:1005500067281BD0692821D06E2816D127E0702883
:1005600045D0732868D0752847D078280DD14DE044
:10057000A1690B988847054625283FF469AFE169D2
:100580000B9888476D1C3FF46AAFB4E023466A4677
:100590006FF001000B99AFF300809FE045F0400041
:1005A0006060A80723464FF0000236D43EE0E8071B
:1005B0007FF447AF2068011D21600068290501D53F
:1005C00006701BE7290701D5068017E7A90703D5A1
:1005D000F117C0E9006111E706600FE745F0400040
:1005E0006060A80723464FF0080216D41EE040F6CC
:1005F0000E0125EA0100606016E045F040006060F1
:10060000A80723464FF00A0207D40FE045F0400048
:100610006060A80708D5234610226FF001000B99EF
:10062000AFF300805AE007E0234610226FF001008C
:100630000B99FFF7D5FD51E04FF000094F464B46AF
:10064000632802D05B2807D041E02079C00601D49E
:100650000120A06001273AE06269012101989047DA
:100660005E2805D14FF0010962694946019890471B
:10067000216939B900210A46534643F82120491C13
:100680000829FADBB0B3216969B9C11700EBD1625F
:1006900053110AEB830122F01F02821A01200B681A
:1006A000904003430B6062690121019890475D28E7
:1006B000E8D1B9F1000F09D00020514651F82020AF
:1006C000D24341F82020401C0828F7DB02AB224629
:1006D00000976FF001000B99AFF3008000280CDA4F
:1006E000401C08D1BBF1000F05D04FF0FF300DB01A
:1006F000BDE8F08FFFE74046F9E7E90701D108F1CF
:10070000010806444FF0000B78E60000CCCCCC0C7E
:100710007F2801D9002208E0064A02EB5002C007F8
:10072000127800D1120902F00F0201209040084017
:1007300070470000F01F000870B5054616460C46CD
:10074000EE2000F04DFDB12000F04AFD232000F026
:1007500047FD280A00F044FDE8B200F041FD200A00
:1007600000F03EFDE0B200F03BFD304600F038FD09
:10077000FF2000F035FDFC2000F032FDFF2000F0EE
:100780002FFDBDE87040FF2000F02ABD70B5054682
:100790000C46EE2000F024FDB12000F021FD2020C9
:1007A00000F01EFD280A00F01BFDE8B200F018FD65
:1007B000200A00F015FDE0B200F012FDFF2000F06D
:1007C0000FFDFC2000F00CFDFF2000F009FDBDE84E
:1007D0007040FF2000F004BDFEE7704704490A683E
:1007E00022F010020A600A6802430A6070470000A3
:1007F00000200240034A116801F0380101431160F2
:100800007047000000200240F0B5CA78002502F0D1
:100810000F03D20601D58A7813430A784FF00F0EE2
:1008200012F0FF0F4FF001021CD004680F8802FA8B
:1008300005F63740B74211D14FEA850C0EFA0CF796
:1008400024EA070703FA0CF43C43CF78282F02D0A0
:10085000482F02D002E0466100E006616D1C082DC1
:10086000E4D304600C88FF2C1ED944685FF00006B6
:1008700006F1080702FA07F50F882F40AF420FD1A3
:100880004FEA860C0EFA0CF7BC4303FA0CF73C4314
:10089000CF78282F00D14561CF78482F00D105614E
:1008A000761C082EE4D34460F0BD016170472DE949
:1008B000F0410646984617460D46EE20069C00F08D
:1008C0008FFCB12000F08CFC322000F089FC300A53
:1008D00000F086FCF0B200F083FC280A00F080FCF7
:1008E000E8B200F07DFC384600F07AFC200A00F007
:1008F00077FCE0B200F074FC2146404600F086FC34
:10090000FF2000F06DFCFC2000F06AFCFF2000F0EE
:1009100067FCBDE8F041FF2000F062BCFEE72DE976
:10092000F04105461E4617460C46EE2000F058FCE6
:10093000B12000F055FC602000F052FC280A00F0C5
:100940004FFCE8B200F04CFC200A00F049FCE0B299
:1009500000F046FC3146384600F058FCFF2000F01D
:100960003FFCFC2000F03CFCFF2000F039FCBDE81F
:10097000F041FF2000F034BC08B54FF4C06000F037
:100980006DF825208DF8000001208DF801006846E3
:1009900000F032F808BD000038B50121482000F011
:1009A000B7FA2024ADF8004010208DF80300032092
:1009B0000B4D8DF8020069462846FFF725FF2021E0
:1009C0002846FFF772FFADF80040064C6946204606
:1009D000FFF71AFF20212046FFF767FF38BD000010
:1009E000000C014000180140FEE77047012202217F
:1009F000032000F024BC000070B50F23C4780178F8
:100A00000122F4B1144C2468457804F4E064C4F580
:100A1000E064240AC4F10406E3408478B5401C4035
:100A20002C4301F1E021230181F80034007800F02B
:100A30001F018A404009800000F1E020C0F8002139
:100A400070BD01F01F0082404809800000F1E020E5
:100A5000C0F8802170BD00000CED00E002490843A1
:100A600002490860704700000000FA050CED00E044
:100A700038B50125444C0B2812D0082819D00D2870
:100A800013D1042962D005290FD1E278012100F0A9
:100A9000C8FC2279BDE8384002210D2000F0C1BC1D
:100AA000022903D0032900D1E56138BD0020E061AF
:100AB00038BD0E29FCD10095012307210820A26A28
:100AC00000F0D9FC0095082101230846E26A00F0F5
:100AD000D2FC0095012309210820626B00F0CBFCB9
:100AE000009501230A210820A26B00F0C4FC0095A8
:100AF00001230B210820E26B00F0BDFC00950123CF
:100B00000C210820A26900F0B6FC206B90B10128EE
:100B100012D0022812D0032812D0042812D005289F
:100B200012D00628C4D119A2BDE838400D210820F2
:100B300000F0E6BC16A2F7E716A2F5E716A2F3E767
:100B400016A2F1E716A2EFE716A2EDE760780628F5
:100B500001D800220EE0C11F052901D8012209E0B9
:100B6000A0F10D01052901D8022203E01338042861
:100B700004D8032203210D2000F053FC6078E070BC
:100B8000A078207138BD000000000020C1F90000ED
:100B9000C8D50000D2BB0000B6FE0000C8FD0000B2
:100BA000CBC40000CEE50000F0B5DDE9065404F04A
:100BB0000F07240904EB840407EB4407194C059E36
:100BC000A76100F00F07000900EB800007EB400071
:100BD000A06201F00F00090901EB810100EB410067
:100BE000E062110902F00F0001EB810100EB41000E
:100BF0002063190903F00F0001EB810100EB4100B4
:100C00006063310906F00F0001EB810100EB410048
:100C1000A063290905F00F0001EB810100EB410001
:100C2000E063F0BD0000002010B53B4C86B0032807
:100C3000E08005D10122114600F001FB00F06FFBBE
:100C4000E088092802D10121FFF7A0FDE0880E28E5
:100C500008D132A30FCB8DE80F006A4601210E2088
:100C600000F04EFCE0880F2844D100231A460121F1
:100C700000F07BFA0122002311460F2000F075FAE4
:100C80000023022201210F2000F06FFA002303222B
:100C900001210F2000F069FA0023042201210F2016
:100CA00000F063FA0023052201210F2000F05DFA15
:100CB0000023062201210F2000F057FA002307220B
:100CC00001210F2000F051FA4FF4FA6000F072FF9A
:100CD00000231A4601210F2000F00DFA0122002303
:100CE00011460F2000F007FA0023022201210F20F5
:100CF00000F001FAE08812280CD114220B49684652
:100D0000FFF740FA01220321122000F098FA68460A
:100D100000F063F806B010BD000000207777772E52
:100D2000677A2D64632E636F6D000000741E0008E7
:100D30000D2806D10348012900D14270022900D1B3
:100D4000827070470000002038B5144607280CD187
:100D500005290AD1042100F0F7FA012000900023B0
:100D600022460621072000F086FB38BD7CB51346DD
:100D70000D46042824D1002401AA12A1184601948A
:100D8000FFF712FA022D1BD10198002801DA019415
:100D900004E04FF4BE71884200DD0191012400237C
:100DA000009402210420019A00F065FB01980123C0
:100DB00000EBD070421005210420009400F05BFB92
:100DC0007CBD0000256C6400082804D1072902D1ED
:100DD000642000F05EBA7047704770B50546002485
:100DE000EE2000F0FDF935B1285D00F0F9F9641C42
:100DF000E4B2132CF8D3FF2000F0F2F9FC2000F04D
:100E0000EFF9FF2000F0ECF9BDE87040FF2000F0A2
:100E1000E7B90000FEB50489867A64BA2404B0F804
:100E2000031044EA0626C47A4BBA4578B0F8051098
:100E300026438778C279294C49BA0D2D12DD0F2D32
:100E400010D0552D45D0B12D0DD0F72D0AD1A07958
:100E5000227AE1798DE8070063792279E178A07838
:100E6000FFF7A2FEFEBD012F0BD0103A0C2AF9D2DB
:100E7000DFE802F00C13061B06060629060606220A
:100E8000F0E71846BDE8FE40FFF7CEBE427A03B059
:100E90001846BDE8F040FFF7EBBD03B000F10802D3
:100EA000BDE8F0401846FFF761BF03B03246BDE829
:100EB000F0401846FFF748BF027A03B01846BDE875
:100EC000F040FFF735BF03B01846BDE8F040FFF72C
:100ED0007BBFBDE8FE40FFF789BD00005C0000203D
:100EE000044A0029D16901D0014300E08143D16166
:100EF0007047000000100240044A0029116901D027
:100F0000014300E08143116170470000001002407E
:100F1000044A0029916901D0014300E081439161B5
:100F20007047000000100240044A0029D16801D037
:100F3000014300E08143D16070470000001002408F
:100F40000C48016841F00101016041680A4A114002
:100F500041600168094A11400160016821F4802163
:100F60000160416821F4FE0141604FF41F0181607E
:100F700070470000001002400000FFF8FFFFF6FE7F
:100F800030B51F494A6812F00C031E4A03D0042BE7
:100F900001D0082B21D002604A680F231A4C03EAC3
:100FA0001212A35C0268DA4042604B68072505EA2A
:100FB0001323E35C22FA03F383604B6805EAD3232F
:100FC000E35CDA40C2604968032303EA9131231FDE
:100FD000595CB2FBF1F1016130BD4A684B6802F423
:100FE00070124FF0020413F4803F04EB924202D0DF
:100FF0004B689B0301D5054B00E0024B5A43CAE7FF
:101000000010024000127A004400002000093D0058
:101010000246002053090949012B0BD0022B0BD0AB
:10102000D1F8241002F01F02012393400B4200D09C
:10103000012070470968F5E7096AF3E700100240EC
:101040000248406800F00C007047000000100240A9
:10105000034A516821F0F0010143516070470000DC
:101060000010024001490860704700000000424241
:10107000034A516821F4E061014351607047000068
:101080000010024003494A6822F4605242EAC0005C
:101090004860704700100240014908667047000030
:1010A00000004242034A5368084323F47C13184368
:1010B0005060704700100240034A516821F003015C
:1010C00001435160704700000010024010B5EE204F
:1010D00000F086F8822000F083F8FF2000F080F80E
:1010E000FC2000F07DF8FF2000F07AF8BDE8104009
:1010F000FF2000F075B82DE9F04107461D469046E7
:101100000E460024EE2000F06BF8B12000F068F8E5
:10111000512000F065F8380A00F062F8F8B200F0EB
:101120005FF8300A00F05CF8F0B200F059F84FEACE
:10113000182000F055F808F0FF0000F051F835B124
:10114000285D00F04DF8641CE4B2072CF8D3FF20B2
:1011500000F046F8FC2000F043F8FF2000F040F8D3
:10116000BDE8F041FF2000F03BB82DE9F041074613
:101170001D4690460E460024EE2000F031F8B120C6
:1011800000F02EF8502000F02BF8380A00F028F874
:10119000F8B200F025F8300A00F022F8F0B200F0C2
:1011A0001FF84FEA182000F01BF808F0FF0000F0CD
:1011B00017F835B1285D00F013F8641CE4B2072C71
:1011C000F8D3FF2000F00CF8FC2000F009F8FF2015
:1011D00000F006F8BDE8F041FF2000F001B87047CC
:1011E00010B5094C0146204600F01AFB802120462C
:1011F00000F08EFA0028F9D04021204600F088FA4D
:101200000028F9D010BD00000044004070B50D4624
:101210000646002404E0305DFFF7E2FF641CA4B240
:10122000AC42F8D370BD000010B5044603E000BF27
:10123000FFF7D6FF641C20780028F9D110BD70B5E7
:10124000054616460C46EE20FFF7CAFFB120FFF711
:10125000C7FF1020FFF7C4FF280AFFF7C1FFE8B25D
:10126000FFF7BEFF200AFFF7BBFFE0B2FFF7B8FFB2
:101270003046FFF7B5FFFF20FFF7B2FFFC20FFF776
:10128000AFFFFF20FFF7ACFFBDE87040FF20FFF786
:10129000A7BF10B50446EE20FFF7A2FF6120FFF7BD
:1012A0009FFF2046FFF79CFFFF20FFF799FFFC20E0
:1012B000FFF796FFFF20FFF793FFBDE81040FF20E8
:1012C000FFF78EBF70B5064614460D46EE20FFF7B9
:1012D00087FFB120FFF784FF1820FFF781FF300A56
:1012E000FFF77EFFF0B2FFF77BFF280AFFF778FFDA
:1012F000E8B2FFF775FF200AFFF772FFE0B2FFF7D1
:101300006FFFFF20FFF76CFFFC20FFF769FFFF2056
:10131000FFF766FFBDE87040FF20FFF761BF10B523
:10132000EE20FFF75DFF0420FFF75AFFFF20FFF7D5
:1013300057FFFC20FFF754FFFF20FFF751FFBDE8E8
:101340001040FF20FFF74CBF70B5064614460D460F
:10135000EE20FFF745FFB120FFF742FF1020FFF717
:101360003FFF300AFFF73CFFF0B2FFF739FF280AD2
:10137000FFF736FFE8B2FFF733FF200EFFF730FF2D
:10138000C4F30740FFF72CFFC4F30720FFF728FF43
:10139000E0B2FFF725FFFF20FFF722FFFC20FFF759
:1013A0001FFFFF20FFF71CFFBDE87040FF20FFF785
:1013B00017BF10B50446EE20FFF712FFB120FFF76C
:1013C0000FFF0020FFF70CFF200AFFF709FFE0B234
:1013D000FFF706FFFF20FFF703FFFC20FFF700FFEA
:1013E000FF20FFF7FDFEBDE81040FF20FFF7F8BE2D
:1013F00010B50446EE20FFF7F3FEB320FFF7F0FE32
:101400002046FFF7EDFEFF20FFF7EAFEFC20FFF786
:10141000E7FEFF20FFF7E4FEBDE81040FF20FFF7E6
:10142000DFBE70B5054616460C46EE20FFF7D8FE27
:10143000B120FFF7D5FE1020FFF7D2FE280AFFF7F4
:10144000CFFEE8B2FFF7CCFE200AFFF7C9FEE0B2FC
:10145000FFF7C6FE3046FFF7C3FEFF20FFF7C0FED2
:10146000FC20FFF7BDFEFF20FFF7BAFEBDE870408D
:10147000FF20FFF7B5BE2DE9F04106461F46144692
:101480000D46EE20DDF81880FFF7AAFEB120FFF729
:10149000A7FE0720FFF7A4FE300AFFF7A1FEF0B277
:1014A000FFF79EFE280AFFF79BFEE8B2FFF798FEC3
:1014B0000FB1012000E00020FFF792FE08F00F00BE
:1014C00040F08000FFF78CFE200EFFF789FEC4F38A
:1014D0000740FFF785FEC4F30720FFF781FEE0B267
:1014E000FFF77EFEFF20FFF77BFEFC20FFF778FE74
:1014F000FF20FFF775FEBDE8F041FF20FFF770BE4B
:1015000070B5054616460C46EE20FFF769FEB12081
:10151000FFF766FE1020FFF763FE280AFFF760FE64
:10152000E8B2FFF75DFE200AFFF75AFEE0B2FFF7D0
:1015300057FE3046FFF778FEFF20FFF751FEFC20F4
:10154000FFF74EFEFF20FFF74BFEBDE87040FF2087
:10155000FFF746BE10B5FFF7F3FC0120FFF782FD51
:101560002120FFF755FD0028FAD01020FFF736F9AB
:101570000220FFF73FF90020FFF76AFD0020FFF788
:1015800081FD4FF48060FFF773FD4FF420110020C0
:10159000FFF788FD0120FFF77FFD3920FFF738FDB9
:1015A0000028FAD00220FFF787FD00BFFFF748FDB3
:1015B0000828FBD110BD70B5064614460D46EE2036
:1015C000FFF70EFEB120FFF70BFE1020FFF708FE1D
:1015D000300AFFF705FEF0B2FFF702FE280AFFF718
:1015E000FFFDE8B2FFF7FCFD200AFFF7F9FDE0B2CE
:1015F000FFF7F6FDFF20FFF7F3FDFC20FFF7F0FDFE
:10160000FF20FFF7EDFDBDE87040FF20FFF7E8BDCC
:101610004FF0E0210428086903D020F0040008619D
:10162000704740F00400FAE702480168491C016075
:10163000704700000800002010B5084C40F225510A
:10164000204600F06CF8002807D0204600F0E4F8AF
:10165000BDE81040C0B200F073BB10BD00380140BF
:1016600010B5084C40F22551204600F058F80028EB
:1016700007D0204600F0D0F8BDE81040C0B200F01E
:101680005FBB10BD004400400029818902D041F4B5
:10169000005101E021F4005181817047174910B5D4
:1016A00088420AD101218C032046FFF73DFC2046E9
:1016B000BDE810400021FFF737BC1149884202D134
:1016C00001214C0410E00F49884202D101218C0411
:1016D0000AE00D49884202D10121CC0404E00B4903
:1016E00088420AD101210C052046FFF705FC20465F
:1016F000BDE810400021FFF7FFBB10BD00380140DE
:101700000044004000480040004C004000500040B1
:101710000246002012880A4200D00120704730B5EE
:1017200001F01F0201240025C1F3421304FA02F262
:10173000012B0FD0022B0FD0838A4FEA1121008892
:10174000134204FA01F400EA040001D000B10125BB
:10175000284630BD8389F0E7038AEEE710B5C1F370
:10176000421301F01F040121A140012B07D0022BDD
:1017700007D01430002A026805D00A4304E00C3078
:10178000F8E71030F6E78A43026010BD30B5044632
:10179000008A85B00D464CF6FF710840E988014388
:1017A0002182A1894EF6F3100140A8882A891043AE
:1017B0006A890A431043A081A08A4FF6FF4108407E
:1017C000A9890143A1826846FFF7DAFB11488442E8
:1017D00001D1039800E00298642200EBC00101EB04
:1017E000001029686FF018058900B0FBF1F0B0FB1C
:1017F000F2F109010B096B4300EB8300322303EB89
:101800000010B0FBF2F000F00F000843208105B09B
:1018100030BD0000003801408088C0F308007047E8
:10182000C1F308018180704730B5044685B00121BD
:101830000520FFF76DFB01218803FFF769FB4FF4DB
:101840000070ADF8100018208DF813000320194D1A
:101850008DF8120004A92846FEF7D6FF2815ADF82A
:10186000100004208DF8130004A92846FEF7CCFFD1
:10187000114D2846FFF712FF0020ADF80400ADF827
:101880000600ADF80800ADF80C000C20ADF80A0019
:10189000009469462846FFF779FF012240F225515E
:1018A0002846FFF75BFF01212846FFF7EDFE05B054
:1018B00030BD000000080140003801402DE9F04132
:1018C000AF4C01260025E088C2B0042832D1E06880
:1018D0004FF47A7790FBF7F107FB11020023062102
:1018E00004200096FFF7C7FDE068002390FBF7F1A6
:1018F00007FB1102072104200096FFF7BCFDA1A2FF
:1019000001210420FFF7FCFDE068401CE060B842C4
:1019100000DBE560E068411EB1F5F97F02D84FF4C5
:10192000784203E0B0F5FA7F04DB1F220621042091
:10193000FFF7C8FCE088062810D1206990B1012883
:1019400071D1A089022182B20620FFF734FEE0683F
:10195000001FE060002801DCE5602561E0880828C0
:1019600010D02FE0A089022182B20620FFF723FECB
:10197000E0684FF48271001DE0608842EEDBC4E94C
:101980000316EBE7A0683221B0FBF1F201FB120075
:10199000002848D1FFF79AFBA1690A2091FBF0F2D9
:1019A00000FB1212092A05D091FBF0F200FB121085
:1019B00010B107E0666205E0606A012802D1FFF716
:1019C00068FC6562E08802274FF064080A2859D154
:1019D000A1684046B1FBF0F208FB121109B9216A77
:1019E00031B1A168B1FBF0F200FB121189B113E033
:1019F000002205210920FFF722FC012202210920F3
:101A0000FFF71DFC002201210920FEF795FE26624A
:101A100038E0216A012907D0A168B1FBF0F200FB90
:101A2000121191B114E07EE0002202210920FFF79B
:101A300006FC012203210920FFF701FC01221146C7
:101A40000920FEF779FE27621CE0216A02291FD0D7
:101A5000A168B1FBF0F208FB1210002863D1206AE4
:101A6000032860D1002204210920FFF7E8FB0122AE
:101A700005210920FFF7E3FB032201210920FEF7DE
:101A80005BFE2562E0884FF480760B2812D029E0B7
:101A9000002203210920FFF7D2FB012204210920A3
:101AA000FFF7CDFB022201210920FEF745FE0320AE
:101AB0002062E7E7E069C8B3012834D1B422334992
:101AC00001A8FEF75FFB0097616901A84318002297
:101AD00001210B20FEF7EBFE6069801C6061B428D9
:101AE00000DB6561E08810281DD1A168B1FBF8F228
:101AF00008FB1210002816D1E06960B3012812D14A
:101B00002249B422B4316846FEF73CFB61690123E7
:101B10000DEB010219461020FEF701FF6069401C21
:101B200060615A2829DA42B0BDE8F081FFE7324609
:101B3000174901A8FEF726FB0097616901A8431821
:101B4000002201210B20FEF7B2FE6069801C60615B
:101B5000FF28C6DAC6E732460D496846FEF712FB93
:101B6000616901230DEB010219461020FEF7D7FE33
:101B70006069401C6061FF28D5DB6561D3E7000028
:101B800000000020BBFAB7BF31300000881E0008FB
:101B900030200008FEE702E008C8121F08C1002A32
:101BA000FAD170477047002001E001C1121F002ADE
:101BB000FBD1704730B5054A11680A23B0FBF3F436
:101BC00015686D1AAC42F9D230BD00000800002043
:101BD0000025FFF7BFFCFEF7CFFE00F0DDF84FF465
:101BE00096442046FFF720FE204600F0EBF8FEF773
:101BF000D3FE00F0B5F8334E4FF00008C6F89481DC
:101C0000A011FFF7D7FF304C4FF0010BB14614275E
:101C100000E0AEBBC820FFF7CDFF0020FFF7E8FBD8
:101C2000C820FFF7C7FF0320FFF7C3FBC820FFF75B
:101C3000C1FF012211460320FFF701FBC820FFF777
:101C4000B9FF002202210320FFF7F9FAC820FFF7AD
:101C5000B1FF032101220846FFF7F1FA4FF47A7031
:101C6000FFF7A8FF0420FFF7A4FB0120FFF7C0FB4C
:101C7000C820FFF79FFF0126C9F894B1DFF84CA0F8
:101C80004021134800F026F8010006D0C9F89481DD
:101C9000CAF894810E48FFF7BDF8207840B1A068DB
:101CA000401B0A2804D384F80080A568FFF706FECD
:101CB000A168B1FBF7F007FB10100028A9D1FFF7CE
:101CC000FDFDA6E700802142000000200000234225
:101CD0005C0000202DE9F0470027884681463C46FD
:101CE000144E154D20E070883188884206D0114985
:101CF000091D445C401CC0F308007080288808B9A6
:101D0000EE2C11D1404503D209F80040401C288038
:101D100068680A4944EA00206860884204D128883B
:101D20006F602F80BDE8F08700F026F80028DAD138
:101D3000F8E700009C00002054000020FFFCFF009A
:101D4000064910B50B884C885A1CC2F3080294420D
:101D500002D00C1D18550A8010BD00009C00002008
:101D60000349002048800880024948600880704785
:101D70009C00002054000020064801884088081A72
:101D800000F50070C11700EBD1516FF30801401A44
:101D900080B270479C00002010B56FF00400FFF780
:101DA00037FC4FF0E02005494161054AF02182F8F7
:101DB000141D002181610721016110BDFF52070040
:101DC0000FE000E02DE9F0418046012186B0480493
:101DD000FFF786F801210420FFF79AF8234E3046DA
:101DE000FFF75CFC0425ADF8105003248DF8124079
:101DF00018201F4F8DF8130004A93846FEF704FD84
:101E00000820ADF810008DF8135004A93846FEF7ED
:101E1000FBFC0021ADF80810ADF804100C20ADF863
:101E20000610ADF80C10ADF80A00CDF80080694638
:101E30003046FFF7ABFC26208DF814008DF81540D6
:101E40008DF8164001208DF8170005A8FEF7D4FD87
:101E5000012240F225513046FFF780FC0121304637
:101E6000FFF712FC06B0BDE8F0810000004400401E
:101E70000008014094613A2F736F756E64732F30C0
:101E8000312E6D70330000000009121B242D363FE7
:101E900048515A636C757E879099A2ABB4BDC6CF8A
:101EA000D8E1EAF3FC0009121B242D363F48515AB1
:101EB000636C757E879099A2ABB4BDC6CFD8E1EABA
:101EC000F3FC0009121B242D363F48515A636C75F0
:101ED0007E879099A2ABB4BDC6CFD8E1EAF3FC00EF
:101EE00009121B242D363F48515A636C757E87902A
:101EF00099A2ABB4BDC6CFD8E1EAF3FC0009121B2E
:101F0000242D363F48515A636C757E879099A2AB59
:101F1000B4BDC6CFD8E1EAF3FC0009121B242D366C
:101F20003F48515A636C757E879099A2ABB4BDC689
:101F3000CFD8E1EAF3FC0000000000000009121B0A
:101F4000242D363F48515A636C757E879099A2AB19
:101F5000B4BDC6CFD8E1EAF3FC0009121B242D362C
:101F60003F48515A636C757E879099A2ABB4BDC649
:101F7000CFD8E1EAF3FC0009121B242D363F48516B
:101F80005A636C757E879099A2ABB4BDC6CFD8E179
:101F9000EAF3FC0009121B242D363F48515A636CAA
:101FA000757E879099A2ABB4BDC6CFD8E1EAF3FCA9
:101FB0000009121B242D363F48515A636C757E87E9
:101FC0009099A2ABB4BDC6CFD8E1EAF3FC000912E8
:101FD0001B242D363F48515A636C757E879099A219
:101FE000ABB4BDC6CFD8E1EAF3FC000000000000AE
:101FF000DDDDDDDDDCBBBBDDDDDDDDDDDDDDDDDD56
:102000009888888888888888777777777788888895
:10201000855555566666666666666666666888882D
:102020008333333222222222222222222228888D26
:10203000010101010102030406080A0D0F1316191C
:102040001D21262A2F34393E44494F555B61676D67
:1020500073797F868C92989EA4AAB0B6BBC1C6CB7A
:10206000D0D5D9DEE2E6E9ECF0F2F5F7F9FBFCFDBC
:10207000FEFEFEFEFEFDFCFBF9F7F5F2F0ECE9E6F4
:10208000E2DED9D5D0CBC6C1BBB6B0AAA49E989289
:102090008C868079736D67615B554F49443E393456
:1020A0002F2A26211D1916130F0D0A0806040302F4
:1020B000010101010102030406080A0D0F1316199C
:1020C0001D21262A2F34393E44494F555B61676DE7
:1020D00073797F868C92989EA4AAB0B6BBC1C6CBFA
:1020E000D0D5D9DEE2E6E9ECF0F2F5F7F9FBFCFD3C
:1020F000FEFEFEFEFEFDFCFBF9F7F5F2F0ECE9E674
:10210000E2DED9D5D0CBC6C1BBB6B0AAA49E989208
:102110008C868079736D67615B554F49443E3934D5
:102120002F2A26211D1916130F0D0A080604030273
:1021300050210008000000205C000000961B0008F1
:10214000AC2100085C00002044060000A61B00082B
:10215000000000000000000000000000000000007F
:10216000000000000000000001000000000000006E
:10217000000000000000000000000000000000005F
:10218000000000000000000000000000000000004F
:102190000204060800000000010203040102030417
:0C21A00006070809000000000000000015
:04000005080001519D
:00000001FF
