:020000040800F2
:10000000E8C9002075960008E90E0008EB0E00080C
:10001000EF0E0008F30E0008F70E000800000000C5
:10002000000000000000000000000000FB0E0008BF
:10003000FD0E000800000000FF0E0008010F000880
:100040008F9600088F9600088F9600088F960008FC
:100050008F9600088F9600088F9600088F960008EC
:100060008F9600088F9600088F9600088F960008DC
:100070008F9600088F9600088F9600088F960008CC
:100080008F9600088F9600088F9600088F960008BC
:100090008F9600088F9600088F9600088F960008AC
:1000A0008F9600088F9600088F9600088F9600089C
:1000B0008F9600088F960008EDFD00088F960008C7
:1000C0008F9600088F9600088F9600088F9600087C
:1000D0008F960008EB950008656C00088F96000865
:1000E0008F9600088F9600088F9600088F9600085C
:1000F0008F9600088F9600088F9600088F9600084C
:100100008F9600085D8800088F9600088F9600087B
:100110008F9600088F9600088F960008A16B000844
:100120008F9600088F9600088F9600088F9600081B
:1001300000F002F800F0B0F80AA090E8000C824449
:100140008344AAF10107DA4501D100F0A5F8AFF226
:10015000090EBAE80F0013F0010F18BFFB1A43F0A5
:1001600001031847985A0100B85A01000A444FF099
:10017000000C10F8013B13F0070408BF10F8014B06
:100180001D1108BF10F8015B641E05D010F8016B4B
:10019000641E01F8016BF9D113F0080F1EBF10F8AF
:1001A000014BAD1C0C1B09D16D1E58BF01F801CBD2
:1001B000FAD505E014F8016B01F8016B6D1EF9D555
:1001C0009142D6D37047000000230024002500266A
:1001D000103A28BF78C1FBD8520728BF30C148BFAA
:1001E0000B6070476E2911F0B683702911F0EB8017
:1001F000662913F08284652913F07F84672913F040
:100200007C846129AFF3008003681B0A28BF41F09A
:100210008001692911F05C80642911F059807529E9
:1002200011F056806F2911F0AE84782911F0B78053
:10023000E92911F04984E42911F04684F52911F0E7
:100240004384EF2911F0AB84F82911F0B6800368DC
:10025000DB0928BF41F08001632911F0B8837329BD
:1002600011F0BD83E32911F06187F32911F066874E
:10027000002070471FB511F0BBFF040000200021D3
:1002800012F094FC401C60600020002112F078FC09
:10029000E0601FBD10B510BD11F07CFF1146FFF7E7
:1002A000E9FF00F006FC12F059F803B4FFF7F2FF83
:1002B00003BC09F03FF9000038B504464FF6FF7063
:1002C0000090FE480288A0237821002003F009FF57
:1002D000204608F0A9FD0546F02010232A46782183
:1002E0000090002010F00DFF38BD7CB501A808F08B
:1002F00067FE0446002C41D10120F14908604FF609
:10030000FF700090ED480288A0236421002003F0D4
:10031000E8FEF0201023EBA264210090002010F0F2
:10032000F0FE4FF4FA6100200BF03DFE0546BDF8EB
:100330000630BDF80420E6A1284610F063FFF02047
:1003400010232A468C210090002010F0DAFE294666
:1003500000200BF018FE4FF4FA7009F0B8F80020F6
:10036000E249C1F8A0014FF6FF700090D34802881F
:10037000A0236421002003F0B4FE19E0FF2C17D065
:100380000120CF4908602046FFF796FF4FF4FA702E
:1003900009F09DF80020D549C1F8A0014FF6FF7083
:1003A0000090C6480288A0236421002003F099FE33
:1003B0007CBD2DE9F84305460E46144699460320B8
:1003C00094FBF0F087B2032094FBF0F100FB1140A6
:1003D0001FFA80F8102C01DDBDE8F883B9F1000F99
:1003E00027D0012C25D04FF4FC60C7EB071C06EB8F
:1003F0004C0C0CF11C0C1FFA8CF308EB880C05EB71
:100400000C1C0CF14E0C1FFA8CF2C7EB071C06EB10
:100410004C0C0CF1010C1FFA8CF108EB880C05EB6D
:100420000C1C0CF1010C00901FFA8CF003F059FE2B
:1004300026E0012C24D04FF6FF70C7EB071C06EB1B
:100440004C0C0CF11C0C1FFA8CF308EB880C05EB20
:100450000C1C0CF14E0C1FFA8CF2C7EB071C06EBC0
:100460004C0C0CF1010C1FFA8CF108EB880C05EB1D
:100470000C1C0CF1010C00901FFA8CF003F031FE03
:10048000012C13D050209A4B00901B6853F8242065
:10049000F31D4FF01E0C0CFB073399B208EB8803D9
:1004A00005EB031398B2102310F02BFE00BF93E767
:1004B0002DE9F0410746884600268E484168002015
:1004C00088478C4890F8200000F08000002850D029
:1004D00000244BE0002529E08648818905EB850052
:1004E00007EB0010503081421EDA8248808905EB0C
:1004F000850107EB0111884216DD7E48C18AC4EBF5
:10050000041008EB40001E3081420DDA7948C08AA1
:10051000C4EB041108EB4101884205DD04EB440003
:100520002844401CC6B203E0681C85B2032DD3DB0F
:1005300000BFCEB170480078B04201D1002612E071
:100540006D480078401EC2B2002341463846FFF78E
:1005500030FF694806700078401EC2B20123414650
:100560003846FFF726FF03E0601C84B2052CB1DBA0
:100570000EE06148007858B15F480078401EC2B272
:10058000002341463846FFF714FF00205A490870FF
:100590003046BDE8F08138B50024002537E0AA21B7
:1005A0000020FFF785FF04464CB3012C02D14FF623
:1005B000FF7038BD032C02D14FF47F40F9E7032CC4
:1005C00009DD0D2C07DA632D05DA05EB850004EB58
:1005D0004000C01E85B20D2C03D10A2095FBF0F01F
:1005E00085B20E2C07D1632D05DA05EB85004FF699
:1005F000FF7101EA40050F2C01D12846D9E71020F0
:1006000006232A46B12100905F2003F01BFFC6E7B6
:100610002DE9F0418CB000274FF00108012531E1B0
:10062000B8F1010F06D0B8F1020F75D0B8F1030F81
:1006300073D1B6E0781CC7B24FF6FF7000901F4828
:100640000288A0236421002003F04BFD2A462BA141
:1006500002A810F0D7FDF020102302AA6421009018
:10066000002010F04EFD08F067FA044624BB002776
:10067000012013490860642008F029FF284608F08B
:1006800082FA044600201949C1F8A001ACB94FF61E
:10069000FF70009009480288A0237821002003F011
:1006A00020FDF020102319A278210090002010F0E6
:1006B00028FD681CC5B231E03AE035E08C0200202C
:1006C000A0812142CBA2D6B8CEC6B3C9B9A600003C
:1006D000C8B7D3D0B4CBC8CB2C49443A256420202A
:1006E000C6A5C5E4B5C3B7D63A256400008021424B
:1006F00004000020A400002080000020C7EBB0B45C
:10070000D6B8CEC6A3A82564A3A90000D6B8CEC685
:10071000D5FDB3A3000000000EE0A2E0052D0ADB2A
:1007200000254FF0020806E02046FFF7C5FD02E075
:100730002046FFF7C1FD94E04FF6FF700090FE48A1
:100740000288A0236421002003F0CBFCF0201023BA
:10075000FAA264210090002010F0D3FC08F092FA75
:100760000446A4B94FF6FF700090F3480288A02316
:100770007821002003F0B5FCF0201023F3A27821AB
:100780000090002010F0BDFC4FF0030804E04FF093
:1007900000082046FFF790FD4FF4966008F097FEA2
:1007A0005FE04FF6FF700090E3480288A0236421C9
:1007B000002003F096FCF0201023E9A264210090B1
:1007C000002010F09EFCF0201023ECA27821009075
:1007D000002010F096FC00BFFFF7DDFE0646EB4858
:1007E0000188B142F8DD3146012008F072FA044672
:1007F00084BB4FF6FF700090CF480288A02364218D
:10080000002003F06EFCF0201023E1A2782100907C
:10081000002010F076FCE24808F0B0FD10200090B7
:10082000DA480088DE490988421A0323502138201B
:1008300003F008FE40F2DC5008F049FE4FF6FF706E
:10084000A023F02264210090002003F04AFC0CB0A9
:10085000BDE8F081FFE74FF000082046FFF72CFDD0
:1008600000BF00BFC82008F032FE142F0ADB4FF68D
:10087000FF700090B0480288A0236421002003F09C
:1008800030FC00E0CCE600BF00BFE0E72DE9FE430E
:1008900005460C4617464FF47840C2490880C248C6
:1008A00007604FF6FF70009004F1960083B205F1E7
:1008B000F00082B22146284603F013FC04F19600B2
:1008C00083B205F1F00082B22146284603F0B7FC5E
:1008D00004F196018BB205F1A0018AB2503988B2B9
:1008E000214603F0ACFC04F13C0083B205F1F000BA
:1008F00082B204F11E0081B2284603F0A0FC04F18C
:10090000780083B205F1F00082B204F15A0081B29E
:10091000284603F094FC1F20A2490880002647E0E7
:10092000012E24D1032096FBF0F1E01D1E2202FBD4
:1009300001001FFA80F8032096FBF0F100FB116024
:1009400000EB800005EB0010801C1FFA80F90021ED
:1009500010229548006850F826001E23CDE9012199
:10096000009050224146484610F06BFB1EE00320E9
:1009700096FBF0F1E01D1E2202FB01001FFA80F839
:10098000032096FBF0F100FB116000EB800005EB0B
:1009900000101FFA80F9502000908348006850F83A
:1009A000262010234146484610F0ABFB701C86B24F
:1009B0000F2EB5DBBDE8FE8338B54FF6FF70009013
:1009C0005D480288A0236421002003F08AFBF02008
:1009D000102376A264210090002010F092FBF020FA
:1009E000102375A278210090002010F08AFBF020DF
:1009F000102362A28C210090002010F082FB322094
:100A000008F065FD724AAA210020FFF73FFFFFF7BB
:100A1000C2FD05464FF6FF70854200D136E0B5F5C0
:100A20007F4F03D108F0CFF9044604E001212846A6
:100A300008F089F9044694B94FF6FF7000903E48DB
:100A40000288A0237821002003F04BFBF020102324
:100A500060A28C210090002010F053FB02E02046A1
:100A6000FFF72AFC4FF4966008F031FD4C4808F07F
:100A700085FC102000904548008849490988421AA1
:100A800003235021382003F0DDFC00BF4FF6FF7038
:100A9000009029480288A0236421002003F021FB54
:100AA000322008F014FD4F4AAA210020FFF7EEFE85
:100AB00038BD0EB500274FF4A06008F0FBFD08F02C
:100AC000C9FC4FF4E13008F044FD4FF4614006F0FA
:100AD000F8F806F0ABF800F005FB00F0D1FF03F0EA
:100AE0003DFE4149086880474048416848208847A2
:100AF00000200BF096F90EF005FC3D4901224868F4
:100B00003CA10CF08EFD4FF47840264908807FE030
:100B100039A010210B46F022CDE9001032213C20F3
:100B200003F039FDC82008F0D2FC4FF6FF704223D5
:100B3000F0223221009065E08C020020C9FAB3C98E
:100B4000D6B8CEC6C4A3B0E500000000C9FAB3C948
:100B5000D6B8CEC6C4A3B0E5B3C9B9A6000000009C
:100B6000C7EBCAE4C8EBB4A2B4E649442CB0B44520
:100B70006E746572B1A3B4E600000000303D3C2005
:100B80004944203C3D3439390000000080020020F7
:100B9000C2BCC8EBD6B8CEC6B3C9B9A60000000027
:100BA000000000209A00002004000020C9BEB3FD10
:100BB000D6B8CEC600000000C7EBCAE4C8EBD6B872
:100BC000CEC64944B0B4456E746572B7A2CBCD00B1
:100BD00044000020C9BEB3FDD6B8CEC6B3C9B9A67D
:100BE0000000000008000020A40000208C0100206C
:100BF00038010020313A0000466F6E742045727251
:100C00006F7221003C2003F06CFAC82008F05FFCF2
:100C100010F00BF900287FF47BAF7B4890F8300090
:100C200000F08000002827D1F020102377A21E2199
:100C30000090002010F065FA1F2079490880F0200C
:100C4000102378A23C210090002010F05AFA11E005
:100C5000002000F061FA0446012C00D10BE0032CC7
:100C600008D14FF6FF7000F0F6FE05F0A2FA05F08D
:100C7000A5F900E0ECE700BF4FF6FF7000F0EBFED7
:100C80004FF4784066490880F02010236AA20021C2
:100C90000090084610F035FAF02010236DA21421C0
:100CA0000090002010F02DFA1F205D490880F020F0
:100CB00010236DA228210090002010F022FA29E0D4
:100CC0004FF4C87008F003FC4FF6FF705023F02279
:100CD00028210090002003F004FAF020102367A2DE
:100CE00028210090002010F00CFA4FF4487008F012
:100CF000EEFB4FF6FF705023F022282100900020D9
:100D000003F0EFF9F020102360A2282100900020CA
:100D100010F0F7F907F010FFFF28D1D04FF6FF7061
:100D20006423F022282100901E2003F0DAF9F0203D
:100D300010235AA228210090002010F0E2F91E2171
:100D400000200BF030F9054657484FF4614257A197
:100D50000368284610F056FA002010210B46F022B6
:100D6000CDE9005102903C2110F06BF9544808F095
:100D700005FB064616B13046FFF79EFA514808F0CB
:100D8000B8F80646CEB93222002128460BF03FF8CB
:100D90004C48837800884A490988421A4AA1284663
:100DA00010F030FA002010210B46F022CDE900515E
:100DB0000290502110F045F902E03046FFF77CFA2E
:100DC000294600200BF0DFF8464AAA210020FFF751
:100DD0005DFD18E0AA210020FFF76AFB04463CB144
:100DE000012C01D1FFF7E8FD032C01D1FFF710FC26
:100DF000781C80B207460A2802DD0027FFF775FA43
:100E0000012008F064FBE5E7A4000020CAC7B7F1A1
:100E1000BDF8D0D0B4A5C3FEC6C1D0A3D7BC0000D6
:100E20009A000020CAC73A4B455932202020B7F11A
:100E30003A4B4559300000004C42333031D6B8CEE1
:100E4000C6CAB6B1F0C4A3BFE9B2E2CAD4B3CCD02B
:100E5000F2000000D5FDB5E3D4ADD7D32040414C1E
:100E600049454E54454B0000D3EB4C42333031C41E
:100E7000A3BFE9CED5CAD62E2E2E2E00CEB4BCEC02
:100E8000B2E2B5BDC4A3BFE921212100B3A2CAD4F7
:100E9000C1ACBDD3C4A3BFE92E2E2E00CDA8D1B6C0
:100EA000B3C9B9A621212100EC000020B2A8CCD8FA
:100EB000C2CA3A2564202020B5D8D6B73A25780092
:100EC0000000002080020020BFE2C8DDC1BF3A253B
:100ED000642020202020B6D4B1C8B5C8BCB63A20C2
:100EE0002564000008000020704700BFFEE700BF37
:100EF000FEE700BFFEE700BFFEE7704770477047A0
:100F0000704700000CB50020019000906C4800680C
:100F100040F480306A49086000BF6948006800F406
:100F2000003000900198401C0190009818B9019879
:100F3000B0F5A06FF1D16248006800F4003010B144
:100F40000120009001E0002000900098012843D18A
:100F50005C48006840F010005A4908600846006884
:100F600020F0030008600846006840F002000860B6
:100F700053484068524948600846406848600846FF
:100F8000406840F4806048600846406820F47C1067
:100F900048600846406840F4E81048600846006829
:100FA00040F08070086000BF4548006800F00070A5
:100FB0000028F9D04248406820F0030040494860CA
:100FC0000846406840F00200486000BF3C48406866
:100FD00000F00C000828F9D10CBD10B5FFF792FF06
:100FE00010BD10B53648006840F001003449086073
:100FF000084640683449084031494860084600685E
:10100000324908402E4908600846006820F48020D4
:1010100008600846406820F4FE0048604FF41F0056
:101020008860FFF7DAFF4FF000602949086010BDC3
:1010300010B5002100200022214B5B6803F00C0159
:1010400021B1042906D0082928D107E0214B224CE0
:10105000236027E01F4B204C236023E0184B5B6884
:1010600003F47010164B5B6803F48032022303EB29
:10107000904022B9194B4343174C23600DE0104BAD
:101080005B6803F4003323B1144B4343124C2360D9
:1010900003E0104B4343104C236003E00D4B0E4C18
:1010A000236000BF00BF064B5B68C3F303130C4C07
:1010B000E15C094B1B68CB40074C236010BD00006E
:1010C00000100240002002400000FFF8FFFFF6FE83
:1010D00008ED00E000127A008400002000093D00C5
:1010E0008800002008B50121442009F073F91C2074
:1010F000ADF8000048208DF803006946354808F037
:10110000ADFE0120ADF8000028208DF803006946EF
:10111000314808F0A3FE08BD10B5044614B1012003
:101120002E4908702D480078002837D01021294812
:1011300008F027FF78B10821264808F022FF50B1B7
:101140000421244808F01DFF28B10121224808F09D
:1011500018FF012822D10A2008F0B9F900201F4900
:10116000087010211B4808F00CFF08B9012010BDC1
:101170000821184808F005FF08B90220F7E7042104
:10118000144808F0FEFE08B90320F0E701211248D8
:1011900008F0F7FE01281BD10420E8E710210D48D4
:1011A00008F0EFFE012813D108210A4808F0E9FEF3
:1011B00001280DD10421074808F0E3FE012807D1DA
:1011C0000121054808F0DDFE10B90120034908702F
:1011D0000020CCE7001801400008014098000020E2
:1011E000FE4908807047FD49891C0880704708B592
:1011F000FA48801C00880090BDF8000008BDF74A3E
:101200001080921C1180704710B504462046FFF7ED
:10121000E7FF052008F037F9FFF7E9FF10BDF048B8
:101220000089EE4908807047EC49891C08807047A6
:1012300030B5014601F01F04C1F34513CA0AE502A7
:1012400005EB43151544A8B230BD00BF011EA0F147
:101250000102D0B2FAD1704700B502460B46E04811
:10126000808841F66311884247D1DD488079A8B96A
:10127000DB480088401E801A82B2D9494889FFF7AE
:10128000AFFF0020FFF7AFFF0020FFF7ACFF101209
:10129000FFF7A9FFD0B2FFF7A6FF16E0D0494889B3
:1012A000FFF79EFF1012FFF79EFFD0B2FFF79BFFE4
:1012B000CB490988491EC1F30F20FFF794FFC849A5
:1012C0000978491EC8B2FFF78EFFC5498889FFF724
:1012D00087FF1812FFF787FFD8B2FFF784FFC049D6
:1012E0004988491EC1F30F20FFF77DFFBC4989786B
:1012F000491EC8B2FFF777FF3AE0B948808845F247
:101300001051884220D1B6494889FFF769FF101271
:10131000FFF769FFB2494989491C88B2FFF760FFAE
:10132000D0B2FFF760FFAE498889FFF759FF181266
:10133000FFF759FFAA498989491C88B2FFF750FF76
:10134000D8B2FFF750FF13E0A5494889FFF748FFDF
:101350001012FFF748FFD0B2FFF745FFA049888978
:10136000FFF73EFF1812FFF73EFFD8B2FFF73BFF33
:1013700000BD2DE9F04105460E4699480088A84277
:1013800003DD97484088B04202DC0020BDE8F081D0
:1013900031462846FFF760FF9148808845F210519A
:1013A000884204D14FF43850FFF71AFF02E02E2094
:1013B000FFF716FFFFF71BFF04468948808841F6B8
:1013C0006311884201D12046E0E7FFF710FF044691
:1013D000FFF70DFF8046E7B24FF6FF7000EA0727E0
:1013E000E012C002B91240EA411040EAE820CDE71D
:1013F00000B57B48808845F21051884204D14FF4F3
:101400002450FFF7EDFE02E02920FFF7E9FE00BDC2
:1014100000B57348808845F21051884204D14FF4DA
:101420002050FFF7DDFE02E02820FFF7D9FE00BDC7
:1014300070B504460023002669488079012805D14B
:101440006748808841F66311884208D164488079F2
:10145000F0B96348808841F66311884218D1082C9E
:1014600015D2DFE804F00406080A0C0E1012062458
:101470000DE007240BE0042409E0052407E0012423
:1014800005E0002403E0032401E0022400BF00BFC4
:10149000082C1CD2DFE804F00406090C0F12151802
:1014A00000BF14E043F0800311E043F040030EE07E
:1014B00043F0C0030BE043F0200308E043F0600377
:1014C00005E043F0A00302E043F0E00300BF00BFEB
:1014D0004348808845F21051884202D14FF4585653
:1014E00000E036263E48808849F24131884205D0E6
:1014F0003B48808847F28971884201D143F0080354
:1015000019463046FFF77BFE3548808841F6631167
:1015100088421DD003F0200068B13148008830496E
:101520004988884214DA2E48058840882C4908806A
:10153000084645800CE02A480088294949888842A5
:1015400006DD2748058840882549088008464580EB
:101550002348808845F21051884257D12049488954
:10156000FFF73EFE0020FFF73EFE1D494989491C5A
:1015700088B2FFF735FE0020FFF735FE184949898C
:10158000891C88B2FFF72CFE15490988491EC1F352
:101590000F20FFF728FE12494989C91C88B2FFF7BE
:1015A0001FFE0F490978491EC8B2FFF71CFE0C49FF
:1015B0008889FFF715FE0020FFF715FE0849898985
:1015C000491C88B2FFF70CFE0020FFF70CFE04490F
:1015D0008989891C88B2FFF703FE03E0FE07006CCF
:1015E0008C020020FE494988491EC1F30F20FFF7F5
:1015F000FAFDFB498989C91C88B2FFF7F1FDF8495A
:101600008978491EC8B2FFF7EEFD2DE0F4494889FC
:10161000FFF7E6FD0020FFF7E6FD0020FFF7E3FD02
:10162000EF490988491EC1F30F20FFF7DCFDEC49A3
:101630000978491EC8B2FFF7D6FDE9498889FFF746
:10164000CFFD0020FFF7CFFD0020FFF7CCFDE449E0
:101650004988491EC1F30F20FFF7C5FDE04989788D
:10166000491EC8B2FFF7BFFD70BD30B504460D4638
:1016700029462046FFF7F0FDFFF7D1FDD948008845
:10168000D949088030BD10B503460C46D44880883F
:1016900045F21051884220D1D1494889FFF7A0FD79
:1016A0001812FFF7A0FDCE494989491C88B2FFF7FF
:1016B00097FDD8B2FFF797FDC9498889FFF790FDDC
:1016C0002012FFF790FDC6498989491C88B2FFF7AF
:1016D00087FDE0B2FFF787FD42E0C148808841F610
:1016E0006311884228D1BE48807920B9BC4800885F
:1016F000401EC01A83B2BA494889FFF771FD18121B
:10170000FFF771FDD8B2FFF76EFD1812FFF76BFD02
:10171000D8B2FFF768FDB2498889FFF761FD201252
:10172000FFF761FDE0B2FFF75EFD2012FFF75BFD02
:10173000E0B2FFF758FD13E0A9494889FFF750FDD3
:101740001812FFF750FDD8B2FFF74DFDA449888964
:10175000FFF746FD2012FFF746FDE0B2FFF743FD1D
:101760009F480089A049891E0880881C028010BDFE
:101770002DE9F0470446BE20FFF732FD0520FFF7B4
:1017800032FD204611F020FB07464FF06632974BA2
:1017900011F06AFB054611F0D3FA1FFA80F94846AA
:1017A000FFF721FD0120FFF71EFDFF20FFF71BFDC6
:1017B0000020FFF718FD0020FFF715FDBDE8F087BA
:1017C00010B5044686488471002C45D1F020844928
:1017D00008804FF4A07048800846808845F2105178
:1017E000884210D14FF430507D4908814FF4285081
:1017F00048814FF42C5088814FF4F07008804FF4EA
:10180000487048801AE07648808841F66311884223
:101810000DD12C20724908812B2048812A208881F3
:101820004FF4F07008804FF44870488006E02C2098
:101830006B4908812A2048812B208881684880884C
:1018400045F2103188424CD14FF4A07064490880B1
:101850004FF4F070488044E04FF4A0706049088075
:10186000F02048800846808845F21051884210D107
:101870004FF430505A4908814FF4285048814FF4B2
:101880002C5088814FF4487008804FF4F0704880E5
:101890001AE05348808841F6631188420DD12C200C
:1018A0004F4908812A2048812B2088814FF44870B5
:1018B00008804FF4F070488006E02C2048490881E9
:1018C0002A2048812B2088814548808845F21031A4
:1018D000884206D14FF4F070414908804FF4A0705F
:1018E00048800020FFF7A4FD10BDF0B504460D466A
:1018F000A018401E86B2E818401E87B2384880887B
:1019000041F66311884231D13548807901282DD0C4
:1019100033480088801A001B84B2E818401E83B246
:101920002F494889FFF75CFC2012FFF75CFCE0B20E
:10193000FFF759FCA118491EC1F30F20FFF753FC14
:10194000A118491EC8B2FFF74EFC25498889FFF748
:1019500047FC2812FFF747FCE8B2FFF744FC1812D7
:10196000FFF741FCD8B2FFF73EFC73E01C488088CB
:1019700045F2105188424DD119494889FFF730FC92
:101980002012FFF730FC16494989491C88B2FFF73D
:1019900027FCE0B2FFF727FC11494989891C88B26E
:1019A000FFF71EFC3012FFF71EFC0D494989C91CC8
:1019B00088B2FFF715FCF0B2FFF715FC08498889DB
:1019C000FFF70EFC2812FFF70EFC05498989491C18
:1019D00088B2FFF705FCE8B2FFF705FC004907E015
:1019E0008C0200209A0000200008006C666604400B
:1019F0008989891C88B2FFF7F3FB3812FFF7F3FBE4
:101A0000FE498989C91C88B2FFF7EAFBF8B2FFF7E3
:101A1000EAFB1FE0F9494889FFF7E2FB2012FFF7D4
:101A2000E2FBE0B2FFF7DFFB3012FFF7DCFBF0B2C6
:101A3000FFF7D9FBF1498889FFF7D2FB2812FFF79E
:101A4000D2FBE8B2FFF7CFFB3812FFF7CCFBF8B2BE
:101A5000FFF7C9FBF0BD70B504460026E7480588CE
:101A60004088454300210846FFF7F6FBFFF7D7FB08
:101A700000BF02E0E2480480761CAE42FAD370BD9B
:101A800000B59FB00121080208F097FC01214FF436
:101A9000B47008F09FFC0120ADF8780010208DF89C
:101AA0007B0003208DF87A001EA9D64808F0D6F9ED
:101AB0004CF23370ADF8780018208DF87B000320CD
:101AC0008DF87A001EA9D04808F0C8F94FF680704A
:101AD000ADF8780018208DF87B0003208DF87A008F
:101AE0001EA9CA4808F0BAF941F20100ADF8780021
:101AF00018208DF87B0003208DF87A001EA9C448B9
:101B000008F0ACF901200890002009900F200A90FD
:101B100000200B900C900D900E90019002900320ED
:101B200003900020049005900690079006200F90E7
:101B3000002010901190102012900020139015900A
:101B40001490169017904FF4805018900020199020
:101B50004FF480401A9000201B9008A81C9001A808
:101B60001D900FA807F060FE0121062007F0C4FFBA
:101B7000322007F0ACFCD320FFF732FBFFF737FB36
:101B80009E498880FFF733FB9C498880FFF72FFB35
:101B90009A498880084680884FF6FF7101EA002044
:101BA00096498880FFF723FB944989880843934925
:101BB00088800846808849F2413188427ED00420DE
:101BC000FFF70EFBFFF713FB8C498880FFF70FFB35
:101BD0008A498880FFF70BFB8849888008468088FF
:101BE0004FF6FF7101EA002084498880FFF7FFFA71
:101BF000824989880843814988800846808848F25C
:101C00005251884203D147F289707C4988807B48D1
:101C1000808847F2897188427AD0D420FFF7E0FAB1
:101C2000FFF7E5FA75498880FFF7E1FA7349888084
:101C3000FFF7DDFA71498880084680884FF6FF710A
:101C400001EA00206D498880FFF7D1FA6B49898845
:101C500008436A4988800846808845F210318842E6
:101C600056D04FF45A40FFF7BBFAFFF7C0FA63496A
:101C700088804FF45B40FFF7B3FAFFF7B8FA5F498B
:101C80008880084680884FF6FF7101EA00205B4992
:101C900088804FF45C40FFF7A3FAFFF7A8FA574992
:101CA000898808435549888008468088B0F5004FE8
:101CB00002D145F210508880504800E028E080882A
:101CC00045F21051884223D0A120FFF789FAFFF78F
:101CD0008EFA4A498880FFF78AFA48498880084680
:101CE00080884FF6FF7101EA002044498880FFF7A1
:101CF0007EFA42498988084340498880084680889E
:101D000045F26171884203D141F663103B498880F6
:101D10003A4881883FA00FF069FA3848808849F234
:101D2000413188427ED1CF20FFF75AFA0020FFF7D9
:101D30005AFAC120FFF757FA3020FFF754FAED2086
:101D4000FFF74EFA6420FFF74EFA0320FFF74BFA35
:101D50001220FFF748FA8120FFF745FAE820FFF745
:101D60003FFA8520FFF73FFA1020FFF73CFA7A2070
:101D7000FFF739FACB20FFF733FA3920FFF733FAB0
:101D80002C20FFF730FA0020FFF72DFA3420FFF760
:101D90002AFA0220FFF727FAF720FFF721FA20207E
:101DA000FFF721FAEA20FFF71BFA0020FFF71BFAE2
:101DB0000020FFF718FAC020FFF712FA1B20FFF7E8
:101DC00012FAC120FFF70CFA0120FFF70CFAC52028
:101DD000FFF706FA3020FFF706FA3020FFF703FA84
:101DE000C720FFF7FDF9B720FFF7FDF93620FFF711
:101DF000F7F94820FFF7F7F93A2014E08C020020A9
:101E00000008006C000C0140001401400018014063
:101E100000200140204C43442049443A25780D0AD3
:101E200000000000ABE0FFF7DBF95520FFF7DBF91E
:101E3000B120FFF7D5F90020FFF7D5F91A20FFF7F9
:101E4000D2F9B620FFF7CCF90A20FFF7CCF9A2208F
:101E5000FFF7C9F9F220FFF7C3F90020FFF7C3F934
:101E60002620FFF7BDF90120FFF7BDF9E020FFF7BD
:101E7000B7F90F20FFF7B7F92A20FFF7B4F92820A8
:101E8000FFF7B1F90820FFF7AEF90E20FFF7ABF925
:101E90000820FFF7A8F95420FFF7A5F9A920FFF7BC
:101EA000A2F94320FFF79FF90A20FFF79CF90F20C2
:101EB000FFF799F90020FFF796F90020FFF793F953
:101EC0000020FFF790F90020FFF78DF9E120FFF7E0
:101ED00087F90020FFF787F91520FFF784F917200D
:101EE000FFF781F90720FFF77EF91120FFF77BF953
:101EF0000620FFF778F92B20FFF775F95620FFF73A
:101F000072F93C20FFF76FF90520FFF76CF91020FC
:101F1000FFF769F90F20FFF766F93F20FFF763F934
:101F20003F20FFF760F90F20FFF75DF92B20FFF747
:101F300057F90020FFF757F90020FFF754F9012067
:101F4000FFF751F93F20FFF74EF92A20FFF748F934
:101F50000020FFF748F90020FFF745F90020FFF7C0
:101F600042F9EF20FFF73FF91120FFF739F9782008
:101F700007F0ADFA2920FFF733F902F0A6B8FE48C2
:101F8000808847F2897188427ED11120FFF728F9B5
:101F9000782007F09CFA3620FFF722F90020FFF79F
:101FA00022F93A20FFF71CF90520FFF71CF9B220AF
:101FB000FFF716F90C20FFF716F90C20FFF713F9BD
:101FC0000020FFF710F93320FFF70DF93320FFF75A
:101FD0000AF9B720FFF704F93520FFF704F9BB2011
:101FE000FFF7FEF83220FFF7FEF8C020FFF7F8F801
:101FF0000C20FFF7F8F8C220FFF7F2F80120FFF7F6
:10200000F2F8C320FFF7ECF81020FFF7ECF8C4203B
:10201000FFF7E6F82020FFF7E6F8C620FFF7E0F824
:102020000F20FFF7E0F8D020FFF7DAF8A420FFF741
:10203000DAF8A120FFF7D7F8E020FFF7D1F8D02099
:10204000FFF7D1F80020FFF7CEF80220FFF7CBF81A
:102050000720FFF7C8F80A20FFF7C5F82820FFF788
:10206000C2F83220FFF7BFF84420FFF7BCF8422047
:10207000FFF7B9F80620FFF7B6F80E20FFF7B3F820
:102080001220FFF7B0F800E054E01420FFF7ABF89F
:102090001720FFF7A8F8E120FFF7A2F8D020FFF7FC
:1020A000A2F80020FFF79FF80220FFF79CF8072016
:1020B000FFF799F80A20FFF796F82820FFF793F822
:1020C0003120FFF790F85420FFF78DF84720FFF7F5
:1020D0008AF80E20FFF787F81C20FFF784F81720F6
:1020E000FFF781F81B20FFF77EF81E20FFF77BF833
:1020F0002A20FFF775F80020FFF775F80020FFF79A
:1021000072F80020FFF76FF8EF20FFF76CF82B2034
:10211000FFF766F80020FFF766F80020FFF763F886
:102120000120FFF760F83F20FFF75DF82920FFF757
:1021300057F822E79048808845F21031884240F0F5
:102140007C87ED20FFF74CF80120FFF74CF8FE20CC
:10215000FFF749F8EE20FFF743F8DE20FFF743F8DA
:102160002120FFF740F8F120FFF73AF80120FFF7B0
:102170003AF8DF20FFF734F81020FFF734F8C420D6
:10218000FFF72EF88F20FFF72EF8C620FFF728F86C
:102190000020FFF728F8E220FFF725F8E220FFF7FC
:1021A00022F8E220FFF71FF8BF20FFF719F8AA2056
:1021B000FFF719F8B020FFF713F80D20FFF713F819
:1021C0000020FFF710F80D20FFF70DF80020FFF7B3
:1021D0000AF81120FFF707F80020FFF704F819208C
:1021E000FFF701F80020FEF7FEFF2120FEF7FBFFBE
:1021F0000020FEF7F8FF2D20FEF7F5FF0020FEF788
:10220000F2FF3D20FEF7EFFF0020FEF7ECFF5D2020
:10221000FEF7E9FF0020FEF7E6FF5D20FEF7E3FF93
:102220000020FEF7E0FFB120FEF7DAFF8020FEF786
:10223000DAFF0020FEF7D7FF8B20FEF7D4FF002047
:10224000FEF7D1FF9620FEF7CEFF0020FEF7CBFF72
:10225000B220FEF7C5FF0020FEF7C5FF0020FEF705
:10226000C2FF0220FEF7BFFF0020FEF7BCFF0320E5
:10227000FEF7B9FF0020FEF7B6FFB320FEF7B0FF70
:102280000020FEF7B0FF0020FEF7ADFF0020FEF7B4
:10229000AAFF0020FEF7A7FF0020FEF7A4FF002002
:1022A000FEF7A1FF0020FEF79EFF0020FEF79BFF38
:1022B0000020FEF798FF0020FEF795FF0020FEF7B4
:1022C00092FF0020FEF78FFF0020FEF78CFF00201A
:1022D000FEF789FF0020FEF786FF0020FEF783FF50
:1022E0000020FEF780FF0020FEF77DFF0020FEF7B4
:1022F0007AFF0020FEF777FF0020FEF774FF002032
:10230000FEF771FF0020FEF76EFF0020FEF76BFF67
:10231000B420FEF765FF8B20FEF765FF0020FEF777
:1023200062FF9620FEF75FFF0020FEF75CFFA12012
:10233000FEF759FF0020FEF756FFB520FEF750FFCD
:102340000220FEF750FF0020FEF74DFF0320FEF7AE
:102350004AFF0020FEF747FF0420FEF744FF00205D
:10236000FEF741FFB620FEF73BFF0020FEF73BFFE4
:102370000020FEF738FF01E08C020020B720FEF7B6
:102380002FFF0020FEF72FFF0020FEF72CFF3F203D
:10239000FEF729FF0020FEF726FF5E20FEF723FF51
:1023A0000020FEF720FF6420FEF71DFF0020FEF74F
:1023B0001AFF8C20FEF717FF0020FEF714FFAC2059
:1023C000FEF711FF0020FEF70EFFDC20FEF70BFFEB
:1023D0000020FEF708FF7020FEF705FF0020FEF743
:1023E00002FF9020FEF7FFFE0020FEF7FCFEEB2030
:1023F000FEF7F9FE0020FEF7F6FEDC20FEF7F3FE06
:102400000020FEF7F0FEB820FEF7EAFE0020FEF7FF
:10241000EAFE0020FEF7E7FE0020FEF7E4FE0020C3
:10242000FEF7E1FE0020FEF7DEFE0020FEF7DBFEF9
:102430000020FEF7D8FE0020FEF7D5FEBA20FEF7FA
:10244000CFFE2420FEF7CFFE0020FEF7CCFE0020BA
:10245000FEF7C9FE0020FEF7C6FEC120FEF7C0FE53
:102460002020FEF7C0FE0020FEF7BDFE5420FEF740
:10247000BAFE0020FEF7B7FEFF20FEF7B4FE0020F4
:10248000FEF7B1FEC220FEF7ABFE0A20FEF7ABFE60
:102490000020FEF7A8FE0420FEF7A5FE0020FEF7B0
:1024A000A2FEC320FEF79CFE3C20FEF79CFE00200F
:1024B000FEF799FE3A20FEF796FE0020FEF793FE07
:1024C0003920FEF790FE0020FEF78DFE3720FEF744
:1024D0008AFE0020FEF787FE3C20FEF784FE0020E7
:1024E000FEF781FE3620FEF77EFE0020FEF77BFE23
:1024F0003220FEF778FE0020FEF775FE2F20FEF753
:1025000072FE0020FEF76FFE2C20FEF76CFE00200E
:10251000FEF769FE2920FEF766FE0020FEF763FE47
:102520002620FEF760FE0020FEF75DFE2420FEF769
:102530005AFE0020FEF757FE2420FEF754FE00202E
:10254000FEF751FE2320FEF74EFE0020FEF74BFE65
:102550003C20FEF748FE0020FEF745FE3620FEF741
:1025600042FE0020FEF73FFE3220FEF73CFE002038
:10257000FEF739FE2F20FEF736FE0020FEF733FE71
:102580002C20FEF730FE0020FEF72DFE2920FEF75E
:102590002AFE0020FEF727FE2620FEF724FE00205C
:1025A000FEF721FE2420FEF71EFE0020FEF71BFE94
:1025B0002420FEF718FE0020FEF715FE2320FEF76C
:1025C00012FE0020FEF70FFEC420FEF709FE622077
:1025D000FEF709FE0020FEF706FE0520FEF703FECB
:1025E0000020FEF700FE8420FEF7FDFD0020FEF730
:1025F000FAFDF020FEF7F7FD0020FEF7F4FD1820AD
:10260000FEF7F1FD0020FEF7EEFDA420FEF7EBFD46
:102610000020FEF7E8FD1820FEF7E5FD0020FEF79C
:10262000E2FD5020FEF7DFFD0020FEF7DCFD0C2070
:10263000FEF7D9FD0020FEF7D6FD1720FEF7D3FDEB
:102640000020FEF7D0FD9520FEF7CDFD0020FEF71F
:10265000CAFDF320FEF7C7FD0020FEF7C4FDE6200B
:10266000FEF7C1FD0020FEF7BEFDC520FEF7B8FD58
:102670003220FEF7B8FD0020FEF7B5FD4420FEF73E
:10268000B2FD0020FEF7AFFD6520FEF7ACFD002097
:10269000FEF7A9FD7620FEF7A6FD0020FEF7A3FDBC
:1026A0008820FEF7A0FD0020FEF79DFDC620FEF766
:1026B00097FD2020FEF797FD0020FEF794FD1720E0
:1026C000FEF791FD0020FEF78EFD0120FEF78BFD49
:1026D0000020FEF788FDC720FEF782FD0020FEF7F0
:1026E00082FD0020FEF77FFD0020FEF77CFD00202C
:1026F000FEF779FDC820FEF773FD0020FEF773FD9D
:102700000020FEF770FD0020FEF76DFD0020FEF7B3
:102710006AFDC920FEF764FD0020FEF764FD00207D
:10272000FEF761FD0020FEF75EFD0020FEF75BFD79
:102730000020FEF758FD0020FEF755FD0020FEF7B3
:1027400052FD0020FEF74FFD0020FEF74CFD00205B
:10275000FEF749FD0020FEF746FD0020FEF743FD91
:102760000020FEF740FD0020FEF73DFD0020FEF7B3
:102770003AFD0020FEF737FDE020FEF731FD162080
:10278000FEF731FD0020FEF72EFD1C20FEF72BFD8D
:102790000020FEF728FD2120FEF725FD0020FEF792
:1027A00022FD3620FEF71FFD0020FEF71CFD46200F
:1027B000FEF719FD0020FEF716FD5220FEF713FD6F
:1027C0000020FEF710FD6420FEF70DFD0020FEF74F
:1027D0000AFD7A20FEF707FD0020FEF704FD8B209E
:1027E000FEF701FD0020FEF7FEFC9920FEF7FBFC42
:1027F0000020FEF7F8FCA820FEF7F5FC0020FEF70D
:10280000F2FCB920FEF7EFFC0020FEF7ECFCC42040
:10281000FEF7E9FC0020FEF7E6FCCA20FEF7E3FC29
:102820000020FEF7E0FCD220FEF7DDFC0020FEF7E2
:10283000DAFCD920FEF7D7FC0020FEF7D4FCE0201C
:10284000FEF7D1FC0020FEF7CEFCF320FEF7CBFC18
:102850000020FEF7C8FCE120FEF7C2FC1620FEF7C0
:10286000C2FC0020FEF7BFFC1C20FEF7BCFC0020D1
:10287000FEF7B9FC2220FEF7B6FC0020FEF7B3FC01
:102880003620FEF7B0FC0020FEF7ADFC4520FEF739
:10289000AAFC0020FEF7A7FC5220FEF7A4FC0020B3
:1028A000FEF7A1FC6420FEF79EFC0020FEF79BFCD7
:1028B0007A20FEF798FC0020FEF795FC8B20FEF7AF
:1028C00092FC0020FEF78FFC9920FEF78CFC002084
:1028D000FEF789FCA820FEF786FC0020FEF783FCAB
:1028E000B920FEF780FC0020FEF77DFCC420FEF737
:1028F0007AFC0020FEF777FCCA20FEF774FC00206B
:10290000FEF771FCD220FEF76EFC0020FEF76BFC98
:10291000D820FEF768FC0020FEF765FCE020FEF7FB
:1029200062FC0020FEF75FFCF320FEF75CFC002059
:10293000FEF759FCE220FEF753FC0520FEF753FC9E
:102940000020FEF750FC0B20FEF74DFC0020FEF7A8
:102950004AFC1B20FEF747FC0020FEF744FC342015
:10296000FEF741FC0020FEF73EFC4420FEF73BFC56
:102970000020FEF738FC4F20FEF735FC0020FEF764
:1029800032FC6120FEF72FFC0020FEF72CFC7920A2
:10299000FEF729FC0020FEF726FC8820FEF723FC2A
:1029A0000020FEF720FC9720FEF71DFC0020FEF71C
:1029B0001AFCA620FEF717FC0020FEF714FCB72037
:1029C000FEF711FC0020FEF70EFCC220FEF70BFC08
:1029D0000020FEF708FCC720FEF705FC0020FEF7EC
:1029E00002FCD120FEF7FFFB0020FEF7FCFBD62007
:1029F000FEF7F9FB0020FEF7F6FBDD20FEF7F3FB08
:102A00000020FEF7F0FBF320FEF7EDFB0020FEF7C1
:102A1000EAFBE320FEF7E4FB0520FEF7E4FB0020E1
:102A2000FEF7E1FB0A20FEF7DEFB0020FEF7DBFBF2
:102A30001C20FEF7D8FB0020FEF7D5FB3320FEF765
:102A4000D2FB0020FEF7CFFB4420FEF7CCFB00209A
:102A5000FEF7C9FB5020FEF7C6FB0020FEF7C3FBC4
:102A60006220FEF7C0FB0020FEF7BDFB7820FEF7DA
:102A7000BAFB0020FEF7B7FB8820FEF7B4FB00206E
:102A8000FEF7B1FB9720FEF7AEFB0020FEF7ABFB95
:102A9000A620FEF7A8FB0020FEF7A5FBB720FEF757
:102AA000A2FB0020FEF79FFBC220FEF79CFB00204C
:102AB000FEF799FBC720FEF796FB0020FEF793FB7D
:102AC000D120FEF790FB0020FEF78DFBD520FEF70E
:102AD0008AFB0020FEF787FBDD20FEF784FB002049
:102AE000FEF781FBF320FEF77EFB0020FEF77BFB69
:102AF000E420FEF775FB0120FEF775FB0020FEF7D2
:102B000072FB0120FEF76FFB0020FEF76CFB02203A
:102B1000FEF769FB0020FEF766FB2A20FEF763FB49
:102B20000020FEF760FB3C20FEF75DFB0020FEF777
:102B30005AFB4B20FEF757FB0020FEF754FB5D20AD
:102B4000FEF751FB0020FEF74EFB7420FEF74BFB17
:102B50000020FEF748FB8420FEF745FB0020FEF72F
:102B600042FB9320FEF73FFB0020FEF73CFBA22038
:102B7000FEF739FB0020FEF736FBB320FEF733FBF0
:102B80000020FEF730FBBE20FEF72DFB0020FEF7F5
:102B90002AFBC420FEF727FB0020FEF724FBCD20F4
:102BA000FEF721FB0020FEF71EFBD320FEF71BFBE8
:102BB0000020FEF718FBDD20FEF715FB0020FEF7D6
:102BC00012FBF320FEF70FFB0020FEF70CFBE520C5
:102BD000FEF706FB0020FEF706FB0020FEF703FBD6
:102BE0000020FEF700FB0020FEF7FDFA0220FEF7B2
:102BF000FAFA0020FEF7F7FA2920FEF7F4FA00208F
:102C0000FEF7F1FA3C20FEF7EEFA0020FEF7EBFAB1
:102C10004B20FEF7E8FA0020FEF7E5FA5D20FEF70C
:102C2000E2FA0020FEF7DFFA7420FEF7DCFA00205B
:102C3000FEF7D9FA8420FEF7D6FA0020FEF7D3FA81
:102C40009320FEF7D0FA0020FEF7CDFAA220FEF77F
:102C5000CAFA0020FEF7C7FAB320FEF7C4FA002034
:102C6000FEF7C1FABE20FEF7BEFA0020FEF7BBFA5F
:102C7000C420FEF7B8FA0020FEF7B5FACD20FEF723
:102C8000B2FA0020FEF7AFFAD320FEF7ACFA00202C
:102C9000FEF7A9FADC20FEF7A6FA0020FEF7A3FA59
:102CA000F320FEF7A0FA0020FEF79DFAE620FEF7DB
:102CB00097FA1120FEF797FA0020FEF794FA3420D5
:102CC000FEF791FA0020FEF78EFA5620FEF78BFAF7
:102CD0000020FEF788FA7620FEF785FA0020FEF73E
:102CE00082FA7720FEF77FFA0020FEF77CFA662052
:102CF000FEF779FA0020FEF776FA8820FEF773FADD
:102D00000020FEF770FA9920FEF76DFA0020FEF71A
:102D10006AFABB20FEF767FA0020FEF764FA9920F2
:102D2000FEF761FA0020FEF75EFA6620FEF75BFA16
:102D30000020FEF758FA5520FEF755FA0020FEF75E
:102D400052FA5520FEF74FFA0020FEF74CFA4520C4
:102D5000FEF749FA0020FEF746FA4320FEF743FA51
:102D60000020FEF740FA4420FEF73DFA0020FEF76F
:102D70003AFAE720FEF734FA3220FEF734FA002060
:102D8000FEF731FA5520FEF72EFA0020FEF72BFA57
:102D90007620FEF728FA0020FEF725FA6620FEF7D7
:102DA00022FA0020FEF71FFA6720FEF71CFA002027
:102DB000FEF719FA6720FEF716FA0020FEF713FA5D
:102DC0008720FEF710FA0020FEF70DFA9920FEF793
:102DD0000AFA0020FEF707FABB20FEF704FA0020EB
:102DE000FEF701FA9920FEF7FEF90020FEF7FBF945
:102DF0007720FEF7F8F90020FEF7F5F94420FEF7FA
:102E0000F2F90020FEF7EFF95620FEF7ECF900206A
:102E1000FEF7E9F92320FEF7E6F90020FEF7E3F9D3
:102E20003320FEF7E0F90020FEF7DDF94520FEF73C
:102E3000DAF90020FEF7D7F9E820FEF7D1F90020F3
:102E4000FEF7D1F90020FEF7CEF99920FEF7CBF975
:102E50000020FEF7C8F98720FEF7C5F90020FEF72D
:102E6000C2F98820FEF7BFF90020FEF7BCF97720F1
:102E7000FEF7B9F90020FEF7B6F96620FEF7B3F9C0
:102E80000020FEF7B0F98820FEF7ADF90020FEF72C
:102E9000AAF9AA20FEF7A7F90020FEF7A4F9BB20A3
:102EA000FEF7A1F90020FEF79EF99920FEF79BF9A5
:102EB0000020FEF798F96620FEF795F90020FEF74E
:102EC00092F95520FEF78FF90020FEF78CF9552076
:102ED000FEF789F90020FEF786F94420FEF783F912
:102EE0000020FEF780F94420FEF77DF90020FEF770
:102EF0007AF95520FEF777F90020FEF774F9E920FA
:102F0000FEF76EF9AA20FEF76EF90020FEF76BF9C6
:102F10000020FEF768F90020FEF765F90020FEF7B3
:102F20005FF9AA20FEF75FF9CF20FEF759F90020DC
:102F3000FEF759F90020FEF756F90020FEF753F985
:102F40000020FEF750F90020FEF74DF90020FEF7B3
:102F50004AF90020FEF747F90020FEF744F9002067
:102F6000FEF741F90020FEF73EF90020FEF73BF99D
:102F70000020FEF738F90020FEF735F90020FEF7B3
:102F800032F90020FEF72FF90020FEF72CF900207F
:102F9000FEF729F9F020FEF723F90020FEF723F9C8
:102FA0005020FEF720F90020FEF71DF90020FEF763
:102FB0001AF90020FEF717F9F320FEF711F90020A7
:102FC000FEF711F9F920FEF70BF90620FEF70BF9D1
:102FD0001020FEF708F92920FEF705F90020FEF77A
:102FE00002F93A20FEF7FCF85520FEF7FCF8112014
:102FF000FEF7F6F8642006F06AFA2920FEF7F0F8EA
:103000003520FEF7EDF80020FEF7EDF85120FEF731
:10301000E7F8FF20FEF7E7F85320FEF7E1F82C2051
:10302000FEF7E1F85520FEF7DBF88220FEF7DBF82B
:103030002C20FEF7D5F801F048B8FE48808845F20C
:10304000105188427ED155214FF47040FEF7D7F8D9
:10305000AA214FF20100FEF7D2F852214FF20200EE
:10306000FEF7CDF808214FF20300FEF7C8F8012162
:103070004FF20400FEF7C3F80D214FF43040FEF785
:10308000BEF80D214BF20100FEF7B9F80D214BF20D
:103090000200FEF7B4F834214FF43640FEF7AFF8E3
:1030A00034214BF20160FEF7AAF834214BF20260A2
:1030B000FEF7A5F80D214FF43140FEF7A0F80D21E1
:1030C0004BF20110FEF79BF80D214BF20210FEF7B8
:1030D00096F834214FF43740FEF791F834214BF243
:1030E0000170FEF78CF834214BF20270FEF787F87E
:1030F00000214FF43240FEF782F800214BF201200C
:10310000FEF77DF800214BF20220FEF778F824212B
:103110004FF43840FEF773F824214BF60100FEF718
:103120006EF824214BF60200FEF769F801214FF4F6
:103130003F40FEF764F80F214FF43340FEF75FF88D
:103140000F2100E0FEE34BF20130FEF758F80F21AB
:103150004BF20230FEF753F834214FF43940FEF7BA
:103160004EF834214BF60110FEF749F834214BF6A6
:103170000210FEF744F808214FF43540FEF73FF8FF
:1031800008214BF20150FEF73AF808214BF20250A9
:10319000FEF735F803214FF44240FEF730F82421C2
:1031A0004FF43A40FEF72BF824214BF60120FEF7AE
:1031B00026F824214BF60220FEF721F800214FF4D7
:1031C0003C40FEF71CF878214BF60140FEF717F85B
:1031D00000214BF60240FEF712F800214FF43D406B
:1031E000FEF70DF878214BF60150FEF708F80021A4
:1031F0004BF60250FEF703F800214FF43E40FDF776
:10320000FEFF64214BF60160FDF7F9FF00214FF44A
:103210005140FDF7F4FF33214DF20110FDF7EFFFB0
:1032200000214DF20210FDF7EAFF34214DF20310A8
:10323000FDF7E5FF00214DF20410FDF7E0FF3A2114
:103240004DF20510FDF7DBFF00214DF20610FDF7F2
:10325000D6FF4A214DF20710FDF7D1FF00214DF2B4
:103260000810FDF7CCFF5C214DF20910FDF7C7FFF8
:1032700000214DF20A10FDF7C2FF81214DF20B1023
:10328000FDF7BDFF00214DF20C10FDF7B8FFA621A0
:103290004DF20D10FDF7B3FF00214DF20E10FDF7BA
:1032A000AEFFE5214DF20F10FDF7A9FF01214DF210
:1032B0001010FDF7A4FF13214DF21110FDF79FFF31
:1032C00001214DF21210FDF79AFF54214DF2131017
:1032D000FDF795FF01214DF21410FDF790FF8221BB
:1032E0004DF21510FDF78BFF01214DF21610FDF781
:1032F00086FFCA214DF21710FDF781FF02214DF222
:103300001810FDF77CFF00214DF21910FDF777FF33
:1033100002214DF21A10FDF772FF01214DF21B1030
:10332000FDF76DFF02214DF21C10FDF768FF3421FF
:103330004DF21D10FDF763FF02214DF21E10FDF747
:103340005EFF67214DF21F10FDF759FF02214DF27C
:103350002010FDF754FF84214DF22110FDF74FFF9F
:1033600002214DF22210FDF74AFFA4214DF2231055
:10337000FDF745FF02214DF22410FDF740FFB72174
:103380004DF22510FDF73BFF02214DF22610FDF70F
:1033900036FFCF214DF22710FDF731FF02214DF20C
:1033A0002810FDF72CFFDE214DF22910FDF727FF35
:1033B00002214DF22A10FDF722FFF2214DF22B10CF
:1033C000FDF71DFF02214DF22C10FDF718FFFE2125
:1033D0004DF22D10FDF713FF03214DF22E10FDF7D6
:1033E0000EFF10214DF22F10FDF709FF03214DF2C2
:1033F0003010FDF704FF33214DF23110FDF7FFFED1
:1034000003214DF23210FDF7FAFE6D214DF233101B
:10341000FDF7F5FE00214FF45240FDF7F0FE332199
:103420004DF20120FDF7EBFE00214DF20220FDF7E9
:10343000E6FE01E08C02002034214DF20320FDF76E
:10344000DEFE00214DF20420FDF7D9FE3A214DF2B7
:103450000520FDF7D4FE00214DF20620FDF7CFFE3A
:103460004A214DF20720FDF7CAFE00214DF2082047
:10347000FDF7C5FE5C214DF20920FDF7C0FE0021DD
:103480004DF20A20FDF7BBFE81214DF20B20FDF726
:10349000B6FE00214DF20C20FDF7B1FEA6214DF243
:1034A0000D20FDF7ACFE00214DF20E20FDF7A7FE2A
:1034B000E5214DF20F20FDF7A2FE01214DF2102073
:1034C000FDF79DFE13214DF21120FDF798FE01211D
:1034D0004DF21220FDF793FE54214DF21320FDF71B
:1034E0008EFE01214DF21420FDF789FE82214DF25E
:1034F0001520FDF784FE01214DF21620FDF77FFE19
:10350000CA214DF21720FDF77AFE02214DF2182054
:10351000FDF775FE00214DF21920FDF770FE022126
:103520004DF21A20FDF76BFE01214DF21B20FDF735
:1035300066FE02214DF21C20FDF761FE34214DF2A2
:103540001D20FDF75CFE02214DF21E20FDF757FE07
:1035500067214DF21F20FDF752FE02214DF220207F
:10356000FDF74DFE84214DF22120FDF748FE02219A
:103570004DF22220FDF743FEA4214DF22320FDF75A
:103580003EFE02214DF22420FDF739FEB7214DF217
:103590002520FDF734FE02214DF22620FDF72FFEF7
:1035A000CF214DF22720FDF72AFE02214DF22820DF
:1035B000FDF725FEDE214DF22920FDF720FE022138
:1035C0004DF22A20FDF71BFEF2214DF22B20FDF7D4
:1035D00016FE02214DF22C20FDF711FEFE214DF2C8
:1035E0002D20FDF70CFE03214DF22E20FDF707FEE6
:1035F00010214DF22F20FDF702FE03214DF2302065
:10360000FDF7FDFD33214DF23120FDF7F8FD0321DB
:103610004DF23220FDF7F3FD6D214DF23320FDF721
:10362000EEFD00214FF45340FDF7E9FD33214DF24B
:103630000130FDF7E4FD00214DF20230FDF7DFFD22
:1036400034214DF20330FDF7DAFD00214DF2043054
:10365000FDF7D5FD3A214DF20530FDF7D0FD0021F3
:103660004DF20630FDF7CBFD4A214DF20730FDF754
:10367000C6FD00214DF20830FDF7C1FD5C214DF281
:103680000930FDF7BCFD00214DF20A30FDF7B7FD12
:1036900081214DF20B30FDF7B2FD00214DF20C30CF
:1036A000FDF7ADFDA6214DF20D30FDF7A8FD00217F
:1036B0004DF20E30FDF7A3FDE5214DF20F30FDF781
:1036C0009EFD01214DF21030FDF799FD13214DF2C1
:1036D0001130FDF794FD01214DF21230FDF78FFD01
:1036E00054214DF21330FDF78AFD01214DF21430C3
:1036F000FDF785FD82214DF21530FDF780FD01219A
:103700004DF21630FDF77BFDCA214DF21730FDF763
:1037100076FD02214DF21830FDF771FD00214DF2CA
:103720001930FDF76CFD02214DF21A30FDF767FDEF
:1037300001214DF21B30FDF762FD02214DF21C30DC
:10374000FDF75DFD34214DF21D30FDF758FD0221DE
:103750004DF21E30FDF753FD67214DF21F30FDF78E
:103760004EFD02214DF22030FDF749FD84214DF23E
:103770002130FDF744FD02214DF22230FDF73FFDDF
:10378000A4214DF22330FDF73AFD02214DF2243001
:10379000FDF735FDB7214DF22530FDF730FD022153
:1037A0004DF22630FDF72BFDCF214DF22730FDF7EE
:1037B00026FD02214DF22830FDF721FDDE214DF2DC
:1037C0002930FDF71CFD02214DF22A30FDF717FDCF
:1037D000F2214DF22B30FDF712FD02214DF22C307B
:1037E000FDF70DFDFE214DF22D30FDF708FD032103
:1037F0004DF22E30FDF703FD10214DF22F30FDF775
:10380000FEFC03214DF23030FDF7F9FC33214DF27F
:103810003130FDF7F4FC03214DF23230FDF7EFFCBF
:103820006D214DF23330FDF7EAFC00214FF4544096
:10383000FDF7E5FC33214DF20140FDF7E0FC0021EE
:103840004DF20240FDF7DBFC34214DF20340FDF761
:10385000D6FC00214DF20440FDF7D1FC3A214DF297
:103860000540FDF7CCFC00214DF20640FDF7C7FCFA
:103870004A214DF20740FDF7C2FC00214DF20840FD
:10388000FDF7BDFC5C214DF20940FDF7B8FC0021BD
:103890004DF20A40FDF7B3FC81214DF20B40FDF7DC
:1038A000AEFC00214DF20C40FDF7A9FCA6214DF223
:1038B0000D40FDF7A4FC00214DF20E40FDF79FFCEA
:1038C000E5214DF20F40FDF79AFC01214DF2104029
:1038D000FDF795FC13214DF21140FDF790FC0121FD
:1038E0004DF21240FDF78BFC54214DF21340FDF7D1
:1038F00086FC01214DF21440FDF781FC82214DF23E
:103900001540FDF77CFC01214DF21640FDF777FCD8
:10391000CA214DF21740FDF772FC02214DF218400A
:10392000FDF76DFC00214DF21940FDF768FC022106
:103930004DF21A40FDF763FC01214DF21B40FDF7EB
:103940005EFC00E003E302214DF21C40FDF757FC52
:1039500034214DF21D40FDF752FC02214DF21E4074
:10396000FDF74DFC67214DF21F40FDF748FC022199
:103970004DF22040FDF743FC84214DF22140FDF73C
:103980003EFC02214DF22240FDF739FCA4214DF20C
:103990002340FDF734FC02214DF22440FDF72FFCBB
:1039A000B7214DF22540FDF72AFC02214DF22640B9
:1039B000FDF725FCCF214DF22740FDF720FC022129
:1039C0004DF22840FDF71BFCDE214DF22940FDF7AA
:1039D00016FC02214DF22A40FDF711FCF2214DF2B6
:1039E0002B40FDF70CFC02214DF22C40FDF707FCAB
:1039F000FE214DF22D40FDF702FC03214DF22E4039
:103A0000FDF7FDFB10214DF22F40FDF7F8FB0321E0
:103A10004DF23040FDF7F3FB33214DF23140FDF71D
:103A2000EEFB03214DF23240FDF7E9FB6D214DF233
:103A30003340FDF7E4FB00214FF45540FDF7DFFB79
:103A400033214DF20150FDF7DAFB00214DF2025017
:103A5000FDF7D5FB34214DF20350FDF7D0FB0021DB
:103A60004DF20450FDF7CBFB3A214DF20550FDF726
:103A7000C6FB00214DF20650FDF7C1FB4A214DF275
:103A80000750FDF7BCFB00214DF20850FDF7B7FBD6
:103A90005C214DF20950FDF7B2FB00214DF20A50B6
:103AA000FDF7ADFB81214DF20B50FDF7A8FB002186
:103AB0004DF20C50FDF7A3FBA6214DF20D50FDF782
:103AC0009EFB00214DF20E50FDF799FBE5214DF2D2
:103AD0000F50FDF794FB01214DF21050FDF78FFBC5
:103AE00013214DF21150FDF78AFB01214DF21250C6
:103AF000FDF785FB54214DF21350FDF780FB0121AA
:103B00004DF21450FDF77BFB82214DF21550FDF76D
:103B100076FB01214DF21650FDF771FBCA214DF2E3
:103B20001750FDF76CFB02214DF21850FDF767FBB3
:103B300000214DF21950FDF762FB02214DF21A509F
:103B4000FDF75DFB01214DF21B50FDF758FB0221F3
:103B50004DF21C50FDF753FB34214DF21D50FDF783
:103B60004EFB02214DF21E50FDF749FB67214DF23D
:103B70001F50FDF744FB02214DF22050FDF73FFBA3
:103B800084214DF22150FDF73AFB02214DF22250E3
:103B9000FDF735FBA4214DF22350FDF730FB022148
:103BA0004DF22450FDF72BFBB7214DF22550FDF7C8
:103BB00026FB02214DF22650FDF721FBCF214DF2CD
:103BC0002750FDF71CFB02214DF22850FDF717FB93
:103BD000DE214DF22950FDF712FB02214DF22A5051
:103BE000FDF70DFBF2214DF22B50FDF708FB0221F2
:103BF0004DF22C50FDF703FBFE214DF22D50FDF749
:103C0000FEFA03214DF22E50FDF7F9FA10214DF284
:103C10002F50FDF7F4FA03214DF23050FDF7EFFA83
:103C200033214DF23150FDF7EAFA03214DF23250C3
:103C3000FDF7E5FA6D214DF23350FDF7E0FA002172
:103C40004FF45640FDF7DBFA33214DF20160FDF7EA
:103C5000D6FA00214DF20260FDF7D1FA34214DF27F
:103C60000360FDF7CCFA00214DF20460FDF7C7FABE
:103C70003A214DF20560FDF7C2FA00214DF20660CF
:103C8000FDF7BDFA4A214DF20760FDF7B8FA0021B1
:103C90004DF20860FDF7B3FA5C214DF20960FDF7C3
:103CA000AEFA00214DF20A60FDF7A9FA81214DF22A
:103CB0000B60FDF7A4FA00214DF20C60FDF79FFAAE
:103CC000A6214DF20D60FDF79AFA00214DF20E602B
:103CD000FDF795FAE5214DF20F60FDF790FA01210D
:103CE0004DF21060FDF78BFA13214DF21160FDF7D4
:103CF00086FA01214DF21260FDF781FA54214DF24E
:103D00001360FDF77CFA01214DF21460FDF777FA9C
:103D100082214DF21560FDF772FA01214DF2166015
:103D2000FDF76DFACA214DF21760FDF768FA02211E
:103D30004DF21860FDF763FA00214DF21960FDF7AE
:103D40005EFA02214DF21A60FDF759FA01214DF297
:103D50001B60FDF754FA02214DF21C60FDF74FFA8B
:103D600034214DF21D60FDF74AFA02214DF21E602A
:103D7000FDF745FA67214DF21F60FDF740FA022179
:103D80004DF22060FDF73BFA84214DF22160FDF7F2
:103D900036FA02214DF22260FDF731FAA4214DF2EC
:103DA0002360FDF72CFA02214DF22460FDF727FA7B
:103DB000B7214DF22560FDF722FA02214DF226606F
:103DC000FDF71DFACF214DF22760FDF718FA022109
:103DD0004DF22860FDF713FADE214DF22960FDF760
:103DE0000EFA02214DF22A60FDF709FAF2214DF296
:103DF0002B60FDF704FA02214DF22C60FDF7FFF96C
:103E0000FE214DF22D60FDF7FAF903214DF22E60EF
:103E1000FDF7F5F910214DF22F60FDF7F0F90321C0
:103E20004DF23060FDF7EBF933214DF23160FDF7D3
:103E3000E6F903214DF23260FDF7E1F96D214DF213
:103E40003360FDF7DCF955214FF47040FDF7D7F9E9
:103E5000AA214FF20100FDF7D2F952214FF20200E0
:103E6000FDF7CDF908214FF20300FDF7C8F9002155
:103E70004FF20400FDF7C3F9CC214FF43140FDF7B8
:103E8000BEF900214BF20110FDF7B9F905214FF4FD
:103E90003640FDF7B4F970214FF43740FDF7AFF924
:103EA00070214BF20170FDF7AAF901214FF438405F
:103EB000FDF7A5F903214BF60100FDF7A0F9032159
:103EC0004BF60200FDF79BF903214BF60300FDF7CB
:103ED00096F902214FF43C40FDF791F900214BF691
:103EE0000140FDF78CF900214BF60240FDF787F900
:103EF000D0214FF44940FDF782F902214CF6011020
:103F0000FDF77DF950214CF60210FDF778F95021AC
:103F10004CF60310FDF773F950214CF60410FDF731
:103F20006EF900214FF45450FDF769F955214FF413
:103F30006850FDF764F94FF48850FDF751F9782087
:103F400005F0A1FA4FF42450FDF74AF9BDE0FE4810
:103F5000808841F663118842F8D1E220FDF740F9EC
:103F60001D20FDF740F90220FDF73DF90420FDF783
:103F70003AF9642005F087FAE020FDF731F90120D5
:103F8000FDF731F90A2005F0A2FAE020FDF728F943
:103F90000320FDF728F90C2005F099FA0120FDF720
:103FA0001FF90A2005F093FAE620FDF719F92F20F2
:103FB000FDF719F9FF20FDF716F9FF20FDF713F9BA
:103FC000B020FDF70DF92020FDF70DF90020FDF7D9
:103FD0000AF90320FDF707F940F21F30FDF703F956
:103FE0000120FDF700F940F2DF10FDF7FCF800209A
:103FF000FDF7F9F8B420FDF7F3F80420FDF7F3F826
:1040000040F21F40FDF7EFF80020FDF7ECF82E20FE
:10401000FDF7E9F80020FDF7E6F80020FDF7E3F8EA
:104020000020FDF7E0F80020FDF7DDF8B620FDF7F1
:10403000D7F80220FDF7D7F84FF40370FDF7D3F857
:104040000020FDF7D0F81720FDF7CDF81520FDF77B
:10405000CAF80020FDF7C7F80020FDF7C4F8F020EB
:10406000FDF7BEF80320FDF7BEF82920FDF7B8F8EC
:10407000D020FDF7B5F80020FDF7B5F8BE20FDF71C
:10408000AFF80520FDF7AFF8FE20FDF7ACF80120F2
:10409000FDF7A9F80020FDF7A6F80020FDF7A3F82A
:1040A0000020FDF7A0F8B820FDF79AF80320FDF7EF
:1040B0009AF80120FDF797F8BA20FDF791F8012052
:1040C000FDF791F86420FDF753FB0020FDF778FB26
:1040D00001209E4908604FF6FF70FDF7BCFC1FB041
:1040E00000BD2DE9F04F05460E4617469846DDF80F
:1040F00024A04FF0000B781B401C1FFA80FB3446B5
:1041000013E021462846FDF7A7F8FDF788F84FF0A1
:10411000000906E08E48A0F800A009F101001FFA8E
:1041200080F9D945F6DB601C84B24445E9DDBDE881
:10413000F08F2DE9F84F07460D4690469946DDF879
:1041400028B0A8EB0700401C1FFA80FAA9EB050075
:10415000401C80B20090002414E0281981B2384637
:10416000FDF77AF8FDF75BF8002607E004FB0A602C
:104170003BF8100076490880701C86B25645F5DB86
:10418000601C84B200988442E7DBBDE8F88F2DE91B
:10419000FF4F84B081468A46002003900290069823
:1041A000A0EB09050798A0EB0A06CDF80490CDF81E
:1041B00000A0002D01DD012705E00DB9002702E078
:1041C0004FF0FF376D42002E02DD4FF0010806E090
:1041D00016B94FF0000802E04FF0FF387642B542C2
:1041E00001DD2C4600E034464FF0000B21E0009A40
:1041F00091B2019A90B2FDF738FA039828440390DF
:104200000298304402900398A04205DD0398001BF9
:1042100003900198384401900298A04205DD02986D
:10422000001B02900098404400900BF101001FFA1F
:1042300080FB601C8345DADD08B0BDE8F08FF0B587
:1042400004460D4616461F462B4632462946204652
:10425000FFF79DFF3B46224629462046FFF797FF82
:104260003B46324639462046FFF791FF3B463246F1
:1042700029463046FFF78BFFF0BD2DE9F043064697
:104280000F469046002445460320A0EB48093CE039
:104290007A1B91B2321990B2FDF7E7F93A1B91B24D
:1042A000721990B2FDF7E1F93A1991B2721990B210
:1042B000FDF7DBF97A1991B2321990B2FDF7D5F911
:1042C0007A1991B2321B90B2FDF7CFF93A1991B237
:1042D000721B90B2FDF7C9F97A1B91B2321B90B2F2
:1042E000FDF7C3F93A1B91B2721B90B2FDF7BDF90D
:1042F000641CB9F1000F03DAA000801D814404E0C2
:10430000601B80000A3081446D1EAC42C0DDBDE8F8
:10431000F0832DE9F84F80460E4617461C46B346FB
:104320002046E31704EB5373DB1021464FEAE47C8D
:1043300004EB5C7C4FEAEC0CA4EBCC0CBCF1000F62
:1043400008D04FF0010C07E08C0200208081214250
:104350000008006C4FF0000C6344224604EBD27C52
:104360004FEA6C0C03FB0CF3DBB20093A7F12000C7
:10437000C7B2002556E00C2C07D107EB47009F4938
:1043800001EB800010F8059013E0102C05D19C483B
:1043900000EB071010F805900BE0182C07D107EB85
:1043A000C700984901EB800010F8059001E0BDE8D6
:1043B000F88F4FF0000A2FE009F0800030B19248EA
:1043C000028831464046FDF75EF907E00A9828B9B1
:1043D0008E48028831464046FDF755F94FEA49605C
:1043E0004FEA1069701C86B289484088B04200DCF0
:1043F000DDE7A6EB0B00A0420AD15E4608F1010002
:104400001FFA80F882480088404500DCCFE706E0CC
:104410000AF1010000F0FF0ABAF1080FCCDB00BF7F
:10442000681CC5B200988542A5DB00BFBFE710B588
:104430000246012000E050430B1EA1F10104E1B24D
:10444000F9D110BD2DE9FF4F81B0074691461E46B8
:104450000E9D4FF0000A002439E0301B401EC1B20F
:104460000A20FFF7E4FFB9FBF0F00A21B0FBF1F2FC
:1044700001FB1208BAF1000F16D1701EA04213DD25
:10448000B8F1000F0ED10020AB4605EBDB714910EF
:1044900001FB0471009088B22B4620220299FFF79D
:1044A00038FF12E04FF0010A0020AB4605EBDB714C
:1044B000491001FB0471009088B208F13001CAB2C2
:1044C0002B460299FFF725FF00BF601CC4B2B4421F
:1044D000C3DB05B0BDE8F08F2DE9FF4F82B0064683
:1044E00092461F46DDE90F480020019000254DE06F
:1044F000781B401EC1B20A20FFF799FFBAFBF0F00B
:104500000A21B0FBF1F201FB1209019850BB781EA1
:10451000A84227DDB9F1000F22D108F0800078B160
:1045200008F00100A34604EBDB71491001FB0561B3
:10453000009088B2234630220399FFF7EAFE0EE08E
:1045400008F00100A34604EBDB71491001FB056193
:10455000009088B2234620220399FFF7DAFE13E089
:104560000120019008F00100A34604EBDB71491023
:1045700001FB0561009088B209F13001CAB22346FF
:104580000399FFF7C6FE00BF681CC5B2BD42AFDB92
:1045900006B0BDE8F08F2DE9F84704460D46904679
:1045A0009946DDE9096704F0FF0A08EB04001FFAE9
:1045B00080F809EB05001FFA80F916E0444502DB9C
:1045C0005446A81985B24D4500DB14E00020009048
:1045D0003A78334629462046FFF79BFE304606EBE5
:1045E000D07104EB61018CB27F1C38787E2802DC2C
:1045F00038782028E2DA00BFBDE8F887FE3A0108E3
:10460000723F0108624501089A0000209C000020CA
:104610008C02002070B50546002405E0601CC4B281
:10462000C82C01DD002070BD02213A4806F085F853
:104630000028F3D02946374806F02CF8002405E07E
:10464000601CC4B2C82C01DD0020ECE70121314818
:1046500006F073F80028F3D02E4806F01DF8C0B21B
:10466000E1E700B587B00121082005F0B3FE012184
:10467000880305F0BCFE4FF46040ADF81800182028
:104680008DF81B0003208DF81A0006A9224805F0BA
:10469000E5FB4FF46041204805F08DFC0020ADF8AB
:1046A00004004FF48270ADF806000020ADF8080059
:1046B0000220ADF80A000120ADF80C004002ADF870
:1046C0000E003820ADF810000020ADF812000720D1
:1046D000ADF8140001A90F4805F006FF01210D48AF
:1046E00005F0A7FFFF20FFF795FF07B000BD10B54D
:1046F0000446084800884FF6C771084005490880FD
:1047000008460088204308800121024805F091FFF7
:1047100010BD000000380040000C014010B500241E
:104720000020D14908609020FFF774FF0020FFF7B8
:1047300071FF0020FFF76EFF0020FFF76BFFFF20E7
:10474000FFF768FF44EA0024FF20FFF763FF0443FC
:104750000120C649C1F8B001204610BD08B50121AD
:10476000082005F037FE4FF48050ADF8000010200F
:104770008DF8030003208DF802006946BC4805F05F
:104780006DFB4FF48051BA4805F015FC0120B64985
:104790000860FFF766FF0020FFF7A9FFFFF7BEFFE5
:1047A000B449088008BD10B500240020AE49086057
:1047B0000520FFF72FFFFF20FFF72CFF0446012005
:1047C000AA49C1F8B001204610BD10B5044600202A
:1047D000A54908600120FFF71DFF2046FFF71AFFDB
:1047E0000120A249C1F8B00110BD10B500209E49BA
:1047F00008600620FFF70EFF01209C49C1F8B001B8
:1048000010BD10B50020984908600420FFF702FF92
:1048100001209649C1F8B00110BD2DE9F0410646CE
:104820000C4617460020904908600320FFF7F2FE6F
:10483000C4F30740FFF7EEFEC4F30720FFF7EAFEDC
:10484000E0B2FFF7E7FE002505E0FF20FFF7E2FEFC
:104850007055681C85B2BD42F7DB012082490860B3
:10486000BDE8F08110B500BFFFF79DFF00F001002B
:104870000028F9D110BD2DE9F04106460C46174637
:10488000FFF7B3FF0020784908600220FFF7C2FE5F
:10489000C4F30740FFF7BEFEC4F30720FFF7BAFEDC
:1048A000E0B2FFF7B7FE002504E0705DFFF7B2FE4F
:1048B000681C85B2BD42F8DB01206B490860FFF738
:1048C000D1FFBDE8F0812DE9F04107460E461446C0
:1048D000F0B2C0F58075AC4200DC254612E02A46F5
:1048E00031463846FFF7C7FFAC4200D10BE02F44FA
:1048F0002E44601B84B2B4F5807F02DD4FF48075D6
:1049000000E02546EBE700BFBDE8F08110B50446A6
:10491000214659A00CF06AFC2403FFF766FFFFF75D
:10492000A1FF0020504908602020FFF773FEC4F368
:104930000740FFF76FFEC4F30720FFF76BFEE0B2FE
:10494000FFF768FE01204949C1F8B001FFF78AFF6F
:1049500010BD2DE9F05F81460F461646DFF820B105
:104960004FEA1738C7F30B0ACAF58054A64200DC99
:10497000344644E04FEA08314FF480525846FFF77E
:104980004CFF002508E00AEB05001BF80000FF289B
:1049900000D003E0681C85B2A542F4DB00BFA5424D
:1049A00016DA4046FFF7B2FF002507E019F80500C8
:1049B00005EB0A010BF80100681C85B2A542F5DB86
:1049C0004FEA08314FF480525846FFF77CFF04E06D
:1049D000224639464846FFF776FFA64200D10FE04F
:1049E00008F101084FF0000AA1442744301B86B2A9
:1049F000B6F5805F02DD4FF4805400E03446B9E73D
:104A000000BFBDE8F09F10B5FFF7EFFEFFF72AFFEC
:104A1000002015490860C720FFF7FCFD012013495D
:104A2000C1F8B001FFF71EFF10BD10B500200E4900
:104A30000860B920FFF7EEFD01200C49C1F8B00174
:104A4000032004F020FD10BD10B5002006490860C9
:104A5000AB20FFF7DFFD01200449C1F8B0010320BE
:104A600004F011FD10BD0000B08121420080214200
:104A7000000C01409E00002066653A25780D0A0072
:104A80009A02002010B500F0BBF810BD70B50446C6
:104A9000002600F0CCF82546E11704EB116109125D
:104AA000A02202EB4101C8B200F073F900F000F956
:104AB000E11704EB11610912A4EB0121C8B200F067
:104AC00068F900F0F5F800F0B2F8A12000F061F903
:104AD00000F0EEF8002000F090F9064600F0C7F86C
:104AE000304670BD70B504460E4600F0A0F825466D
:104AF000E11704EB11610912A02202EB4101C8B2D7
:104B000000F047F900F0D4F8E11704EB1161091245
:104B1000A4EB0121C8B200F03CF900F0C9F830461E
:104B200000F037F900F0C4F800F0A1F80A2004F012
:104B3000CEFC70BD2DE9F04105460E461746002417
:104B400009E0E20026FA02F2D1B22A1990B2FFF788
:104B5000C9FF601CC4B2BC42F3DBBDE8F0812DE9A3
:104B6000F04107460C460026002509E036023919B7
:104B7000491B491E88B2FFF789FF0644681CC5B26D
:104B8000A542F3DB3046BDE8F08110B5FF20FFF70A
:104B90007DFF0446552C01D1002010BD5521FF207A
:104BA000FFF7A0FFFF20FFF771FF0446552C01D14E
:104BB0000020F2E70120F0E770B506460C461546E6
:104BC00008E03046721C96B2FFF760FF04F8010B54
:104BD000681E85B2002DF4D170BD70B505460C4637
:104BE000164606E021782846FFF77CFF681C85B250
:104BF000641C301EA6F101018EB2F3D170BD00001D
:104C000008B50121082005F0E5FBC020ADF8000043
:104C100010208DF8030003208DF8020069469048AB
:104C200005F01CF9C0218E4805F0C5F908BD10B586
:104C30008B48006820F07040894908600846006889
:104C400040F0405008600120864908608649C1F85C
:104C50009801042004F017FC002082490860042019
:104C600004F011FC00208049C1F8980110BD10B576
:104C70007B48006820F07040794908600846006869
:104C800040F04050086000207649091F08607649CE
:104C9000C1F89C01042004F0F6FB01207149091FB2
:104CA00008607149C1F89C01042004F0ECFB10BDC0
:104CB00010B500246A48006820F070406849086018
:104CC0000846006840F0004008600120654908601F
:104CD00004F0D9FB01206449C1F8980104F0D3FB2A
:104CE00007E0601CC4B2FA2C03DDFFF7C0FF01200F
:104CF00010BD5C48803800680028F2D15949091F6E
:104D0000086000BFF4E710B500205649091F08608D
:104D10005348006820F07040514908600846006818
:104D200040F04050086000204F49C1F89C0102202B
:104D300004F0A9FB01204B49091F0860022004F080
:104D4000A2FB00204849C1F8980110BD10B5002011
:104D50004449091F08604248006820F070404049FB
:104D600008600846006840F04050086001203E4955
:104D7000C1F89C01022004F086FB01203949091F7B
:104D80000860022004F07FFB00203749C1F8980139
:104D900010BD70B504463248006820F070403049BC
:104DA00008600846006840F04050086000202D4927
:104DB000091F086000251DE0E00918B101202949FC
:104DC000086002E00020274908606006040E022007
:104DD00004F059FB01202349091F0860022004F058
:104DE00052FB00202049C1F89801022004F04BFB3F
:104DF000681CC5B2082DDFDB70BD70B50546002408
:104E00001748006820F0704015490860084600689F
:104E100040F000400860002617E000201149091FFB
:104E20000860022004F02FFB01200F49C1F898010F
:104E30006006040E0B488038006808B1601CC4B2DC
:104E4000012004F020FB701CC6B2082EE5DB15B96A
:104E5000FFF77CFF01E0FFF756FF204670BD000022
:104E6000000C01409C8121420080214210B50520A8
:104E700004F009FB10BD08B50121882005F0AAFA4D
:104E80000220ADF8000010208DF8030003208DF8FB
:104E900002006946904804F0E1FF02218E4805F0C7
:104EA0008AF84FF40070ADF8000069468B4804F0B2
:104EB000D5FF4FF40071894805F07DF808BD10B5A5
:104EC0008648001D006820F0F0008449091D086034
:104ED0000846006840F03000086001208049086002
:104EE0008049C1F884011E2004F0CDFA00207C49DD
:104EF0000860FFF7BBFF00207A49C1F8840110BDAC
:104F000010B57648001D006820F0F0007349091DB7
:104F100008600846006840F03000086001207249CF
:104F200008601E2004F0AFFA00207049C1F8A40107
:104F3000FFF79CFF01206A49086010BD10B50024EE
:104F40006648001D006820F0F0006449091D0860F3
:104F50000846006840F08000086001206049086051
:104F60006049C1F88401FFF781FF09E0601CC4B209
:104F7000FA2C03DDFFF7C4FF012010BDFFF776FF19
:104F80005748803800680028F0D15749086000BFB2
:104F9000F3E710B50020544908605048001D006830
:104FA00020F0F0004D49091D08600846006840F0F7
:104FB00030000860FFF75AFF00204C49C1F8A401F7
:104FC000FFF754FF012048490860FFF74FFF00201A
:104FD0004449C1F8840110BD10B500204249086061
:104FE0003E48001D006820F0F0003C49091D0860A3
:104FF0000846006840F030000860FFF737FF0120E6
:105000003A49C1F8A401FFF731FF01203649086091
:10501000FFF72CFF00203349C1F8840110BD70B5A3
:1050200004462E48001D006820F0F0002B49091DA1
:1050300008600846006840F03000086000202A49F7
:105040000860FFF713FF002511E0E009244908601C
:105050006006040E01202349C1F88401FFF706FF12
:10506000002021490860FFF701FF681CC5B2082D28
:10507000EBDB70BD70B5054600241848001D0068C4
:1050800020F0F0001549091D08600846006840F04E
:10509000800008601E2004F0F6F9002612E00020CF
:1050A00011490860FFF7E2FE01200E49C1F88401B2
:1050B0006006040E0A488038006808B1601CC4B25B
:1050C000701CC6B2082EEADB15B9FFF785FF01E0B8
:1050D000FFF75FFF204670BD000C0140001C01403F
:1050E000A481234200802142848121420080234206
:1050F0002DE9F04105460E4617464FF00008FFF730
:10510000DEFE7020FFF78BFFFFF718FFE8B2FFF716
:1051100086FFFFF713FF00240BE0305DFFF77FFFF2
:10512000FFF70CFF8046B8F1000F00D003E0601CD1
:10513000C4B2BC42F1DB00BFFFF7E2FE4046BDE86F
:10514000F0812DE9F04106460F461546FFF7B7FE00
:105150007020FFF764FFFFF7F1FEF0B2FFF75FFF8B
:10516000FFF7ECFEFFF7ABFE7120FFF758FFFFF7EC
:10517000E5FE00240BE0691EA14201D0012100E000
:1051800000210846FFF776FF3855601CC4B2AC42D8
:10519000F1DBFFF7B5FEBDE8F0811CB501218020F1
:1051A00005F018F94FF40060ADF8000010208DF8FC
:1051B000030003208DF802006946924804F04EFE79
:1051C0000221904804F0F7FE4FF48060ADF8000033
:1051D00048208DF8030069468A4804F03FFE4FF4EA
:1051E0008061884804F0E7FEFFF745FE002086490D
:1051F0000860142004F06BF901208449C1F8AC0167
:10520000322004F064F900208DF80400012201A985
:10521000FFF76EFF012201A9A420FFF769FF162006
:105220008DF80400012201A98020FFF761FF0C2006
:105230008DF80400012201A98820FFF759FF0222FE
:1052400001A9A120FFF77DFF9DF8040030280ED1B1
:105250009DF8050003280AD19DF805009DF804205B
:1052600000EB02216AA00BF0C1FF00201CBD012051
:10527000FCE771B581B00024002668480078401C26
:1052800066490870084600780A2190FBF1F201FB9C
:10529000120018B1614800780A2866DA012201A9D3
:1052A0000220FFF74EFF9DF8040000F00F000028D9
:1052B0007ED09DF8040000F00F00062878DA9DF8F3
:1052C000040000F00F01FF208840C5B2E843C0B2DF
:1052D00040F0C000524981F8200000245AE05048B4
:1052E00090F820000121A1400840E8B34D4931F871
:1052F000140004226946FFF724FF494890F8300063
:1053000000F00100C0B19DF801009DF8001001F00F
:105310000F0100EB01204249163121F814009DF8DD
:1053200003009DF8021001F00F0100EB01213C4841
:105330000C3020F814101DE09DF801009DF80010BD
:1053400001F00F0100EB0120C0F5F07081B234488C
:105350000C3020F814109DF803009DF8021001F0A5
:105360000F0100EB012101E012E021E02C48163092
:1053700020F814109DF8000000F0F000802807D0FD
:1053800000212748163020F814100A3820F814108D
:10539000601CC4B2052CA2DB01262148808920B9FB
:1053A0001F48C08A08B90020019000201B490870DE
:1053B0009DF8040000F01F00D0B9194890F82000B3
:1053C00000F0800040B1164890F8200020F08000E6
:1053D000134981F820000BE04FF6FF7010498881D7
:1053E000C882084690F8200000F0E00081F8200014
:1053F0000A480078F02802DD0A2008490870304683
:105400007CBD0000001C0140AC812342008023428F
:105410004354502049443A25780D0A00A00000204A
:10542000A4000020BE5201082DE9F04104460E46BA
:1054300017464FF00008FFF742FD2820FFF7EFFD69
:10544000FFF77CFD2012FFF7EAFDFFF777FDE0B2E2
:10545000FFF7E5FDFFF772FD00250BE0705DFFF73C
:10546000DEFDFFF76BFD8046B8F1000F00D003E0D2
:10547000681CC5B2BD42F1DB00BFFFF741FD4046ED
:10548000BDE8F08138B50546002400208DF8000005
:105490008DF8015000BF09E09DF80000E649095D64
:1054A0000844C0B28DF80000601CC4B2B82CF3D31D
:1054B0009DF80000C043401CC0B28DF80000B82227
:1054C000DD4948F24700FFF7AFFF0222694648F284
:1054D000FF00FFF7A9FF002038BD2DE9F041054688
:1054E0000F461646FFF7EBFC2820FFF798FDFFF765
:1054F00025FD2812FFF793FDFFF720FDE8B2FFF727
:105500008EFDFFF71BFDFFF7DAFC2920FFF787FD73
:10551000FFF714FD00240BE0711EA14201D0012110
:1055200000E000210846FFF7A5FD3855601CC4B215
:10553000B442F1DBFFF7E4FCBDE8F0810EB50121D8
:10554000802004F047FF4FF40060ADF80000102009
:105550008DF8030003208DF802006946B74804F077
:105560007DFC0221B54804F026FD4FF48060ADF8C3
:10557000000048208DF803006946B04804F06EFC36
:105580004FF48061AD4804F016FDFFF774FC002075
:10559000AB4908600A2003F09AFF0120A949C1F82D
:1055A000AC010A2003F093FF4FF48060ADF80000D7
:1055B00028208DF803006946A04804F04FFC4FF402
:1055C00080619E4804F0F9FC642003F080FF04220F
:1055D00001A948F24010FFF780FF00208DF8080075
:1055E00001A999A00BF002FE9AA101A80CF082F883
:1055F00040BB02208DF80400012201A948F24000BE
:10560000FFF712FF012201A948F24700FFF765FFEB
:105610009DF80400602807DA9DF804108FA00BF0B5
:10562000E5FD0120FFF72EFF0A2003F050FF0020C8
:105630008DF80400012201A948F24000FFF7F4FEB2
:1056400000200EBD0120FCE771B583B000240026C8
:1056500087480078401C86490870084600780A216F
:1056600090FBF1F201FB120018B1814800780A2882
:105670007EDA012203A948F24E10FFF72EFF9DF8B3
:105680000C0000F0800068B19DF80C0000F00F00E5
:10569000062807DA00200190012201A948F24E10E5
:1056A000FFF7C2FE9DF80C0000F00F0000285FD04D
:1056B0009DF80C0000F00F000628D9DA9DF80C00C8
:1056C00000F00F01FF208840C0B20190694890F8B7
:1056D00020509DF80400C043C0B240F0C0006549AE
:1056E00081F82000084681898182C18AC183002413
:1056F00046E0604890F820000121A140084020B316
:105700005D4931F81400042202A9FFF7E6FE59486A
:1057100090F8300000F00100C0B19DF808009DF83D
:10572000091000EB012081B25248163020F8141005
:105730009DF80A009DF80B1000EB0120C0F54870A1
:1057400081B24C480C3020F8141017E09DF8080086
:105750009DF8091000EB012081B246480C3020F87A
:1057600014109DF80A009DF80B1000EB012000E0DA
:1057700036E081B23F48163020F81410601CC4B2E5
:10578000052CB6DB01263B4880893C4909888842C4
:1057900005DC3848C08A3949498888421DDD9DF8B2
:1057A0000C0000F00F0001280ADD3248C0893149A1
:1057B00088810846008BC88200202D4908700FE0C0
:1057C0002C48808A2B4988810846C08BC88280205B
:1057D0000390084680F8205002E000202449087019
:1057E0009DF80C0000F08F0080281AD1214890F815
:1057F000200000F0800040B11E4890F8200020F00A
:1058000080001C4981F820000BE04FF6FF70194919
:105810008881C882084690F8200000F0E00081F8F6
:10582000200013480078F02802DD0A201049087093
:10583000304604B070BD0000C8520108001C014091
:10584000AC812342008023424354502049443A25EE
:10585000730D0A0039313437000000004465666179
:10586000756C74205665723A25640D0A00000000BC
:10587000A1000020A4000020805301088C02002019
:105880002DE9F04104460E4617464FF00008FFF799
:1058900016FBB220FFF7C3FBFFF750FB2012FFF708
:1058A000BEFBFFF74BFBE0B2FFF7B9FBFFF746FB90
:1058B00000250BE0705DFFF7B2FBFFF73FFB804672
:1058C000B8F1000F00D003E0681CC5B2BD42F1DBA7
:1058D00000BFFFF715FB4046BDE8F0812DE9F04120
:1058E00005460F461646FFF7EAFAB220FFF797FB88
:1058F000FFF724FB2812FFF792FBFFF71FFBE8B22C
:10590000FFF78DFBFFF71AFBFFF7D9FAB320FFF77C
:1059100086FBFFF713FB00240BE0711EA14201D0B0
:10592000012100E000210846FFF7A4FB3855601C68
:10593000C4B2B442F1DBFFF7E3FABDE8F08138B559
:105940000446002000900CB180200090012269469E
:105950004FF45060FFF794FF38BD1CB50020019054
:105960000121802004F036FD4FF40060ADF8000006
:1059700010208DF8030003208DF8020069468D4841
:1059800004F06CFA02218B4804F015FB4FF48060A0
:10599000ADF8000048208DF803006946854804F002
:1059A0005DFA4FF48061834804F005FBFFF763FA6A
:1059B000002081490860642003F089FD01207F49AF
:1059C000C1F8AC01642003F082FD0120FFF7B7FFAE
:1059D000012201A94FF45060FFF780FF9DF80410E9
:1059E00077A00BF003FC9DF80400802801D1002073
:1059F0001CBD0120FCE72DE9F14F82B04FF0000AF9
:105A0000D34672480078401C7049087008460078F8
:105A10000A2190FBF1F201FB120018B16B480078EB
:105A20000A287DDA012202A90020FFF757FF9DF81E
:105A3000080000F01F00002872D09DF8080000F058
:105A40001F0040F0C000624981F820004FF0000ABA
:105A500076E05F4890F82000012101FA0AF1084041
:105A6000002869D05B4931F81A00042201A9FFF728
:105A700035FF574890F8300000F0010078B39DF8EA
:105A800007109DF8062001EB02200DF086F906466E
:105A9000514A524B0DF0E8F904460DF051F981B22C
:105AA0004B48163020F81A109DF805109DF8042078
:105AB00001EB02200DF071F90646494A494B0DF001
:105AC000D3F980460022484B0DF002FB04460DF04E
:105AD00037F981B23E480C3020F81A102CE0FFE76D
