:020000040800F2
:10000000B807002005110008490200084B0200084B
:100010004F020008530200085702000800000000C9
:100020000000000000000000000000005B0200086B
:100030005D020008000000005F0200086102000885
:100040001F1100081F1100081F1100081F110008D0
:100050001F1100081F1100081F1100081F110008C0
:100060001F1100081F1100081F1100081F110008B0
:100070001F1100081F1100081F1100081F110008A0
:100080001F1100081F1100081F1100081F11000890
:100090001F1100081F1100081F1100081F11000880
:1000A0001F1100081F1100081F1100081F11000870
:1000B0001F110008DB0800081F1100081F110008AD
:1000C0001F1100081F1100081F1100081F11000850
:1000D0001F110008791000081F1100081F110008E7
:1000E0001F1100081F1100081F1100081F11000830
:1000F0001F1100081F1100081F1100081F11000820
:100100001F1100081F1100081F1100081F1100080F
:100110001F1100081F1100081F1100081F110008FF
:100120001F1100081F1100081F1100081F110008EF
:1001300000F002F800F050F80AA090E8000C8244A9
:100140008344AAF10107DA4501D100F045F8AFF286
:10015000090EBAE80F0013F0010F18BFFB1A43F0A5
:10016000010318475855000078550000103A24BF85
:1001700078C878C1FAD8520724BF30C830C144BF0C
:1001800004680C607047000000230024002500264E
:10019000103A28BF78C1FBD8520728BF30C148BFEA
:1001A0000B607047662905F02982642903F02C82D0
:1001B000782903F06582732903F0178500207047C2
:1001C0001FB503F029FD04000020002104F0B4FA5B
:1001D000E0601FBD10B510BD03F03EFE1146FFF7F5
:1001E000EFFF00F009F803F05CFE03B4FFF7F2FF45
:1001F00003BC00F0E7FE000008B500F079FE4FF404
:10020000A06000F09FFF4FF4E13000F0E9FE00F045
:1002100019F923214FF6FF7000F0F4F900200423B0
:1002200008220721009000F023F903A003F082F9CF
:1002300001E000F0EDFDFCE7B5E7BBFABFD8D6C69C
:10024000C6F7BFAAC6F40000704700BFFEE700BFB4
:10025000FEE700BFFEE700BFFEE77047704770474C
:10026000704700000CB50020019000906C480068B9
:1002700040F480306A49086000BF6948006800F4B3
:10028000003000900198401C0190009818B9019826
:10029000B0F5A06FF1D16248006800F4003010B1F1
:1002A0000120009001E0002000900098012843D137
:1002B0005C48006840F010005A4908600846006831
:1002C00020F0030008600846006840F00200086063
:1002D00053484068524948600846406848600846AC
:1002E000406840F4806048600846406820F47C1014
:1002F00048600846406840F4E810486008460068D6
:1003000040F08070086000BF4548006800F0007051
:100310000028F9D04248406820F003004049486076
:100320000846406840F00200486000BF3C48406812
:1003300000F00C000828F9D10CBD10B5FFF792FFB2
:1003400010BD10B53648006840F00100344908601F
:10035000084640683449084031494860084600680A
:10036000324908402E4908600846006820F4802081
:1003700008600846406820F4FE0048604FF41F0003
:100380008860FFF7DAFF4FF000602949086010BD70
:1003900010B5002100200022214B5B6803F00C0106
:1003A00021B1042906D0082928D107E0214B224C8D
:1003B000236027E01F4B204C236023E0184B5B6831
:1003C00003F47010164B5B6803F48032022303EBD6
:1003D000904022B9194B4343174C23600DE0104B5A
:1003E0005B6803F4003323B1144B4343124C236086
:1003F00003E0104B4343104C236003E00D4B0E4CC5
:10040000236000BF00BF064B5B68C3F303130C4CB3
:10041000E15C094B1B68CB40074C236010BD00001A
:1004200000100240002002400000FFF8FFFFF6FE2F
:1004300008ED00E000127A000000002000093D00F5
:100440000400002008B50121042001F005FA06206F
:10045000ADF8000010208DF8030003208DF8020095
:100460006946024800F03CFF08BD0000000801405A
:100470002DE9F04188B004460D4616461F46DDF8CA
:1004800038800121042001F0E7F90121480601F03C
:10049000F0F94FF48050ADF81C0003208DF81E00D9
:1004A00018208DF81F0007A9504800F019FF4FF4DD
:1004B0000060ADF81C0048208DF81F0007A94B48CC
:1004C00000F00EFF00208DF816008DF817008DF853
:1004D000180001208DF8190000208DF81A008DF801
:1004E0001B008DF812808DF813408DF814608DF884
:1004F0001550ADF8107004A93D4801F02AFA00200B
:100500008DF80A008DF80B0001208DF80C000020FA
:10051000ADF8000049F60400ADF802004FF6FF7098
:10052000ADF80400ADF806000020ADF80800012089
:100530008DF80D00684601F096FA002008B0BDE87D
:10054000F081F0B585B007460D46002412200090DA
:10055000019000208DF808008DF809008DF80A50F0
:1005600000BF05E0395D0DF10B000155601C84B240
:10057000AC42F7DB69461E4801F064FB06460024E6
:1005800001E0601C84B23146194801F0F3FB18B950
:1005900040F6FF708442F4DB40F6FF70844202DBD9
:1005A000012005B0F0BD0020FBE730B585B0054661
:1005B00000210F4801F0BEFC10B9002005B030BD8D
:1005C0006A4600210A4801F032FC002404E00DF1E3
:1005D0000B00005D2855641C082CF8D305A0019978
:1005E00002F0A8FF9DF80A00E8E7000000080140BB
:1005F00000640040CDD8D5B9D6A1203D2025782073
:100600000D0A000030B589B005460C4601210420D2
:1006100001F022F90121022001F02BF918208DF8B8
:1006200023004020ADF8200001208DF8220008A909
:100630003A4800F055FE0020ADF81A00ADF816005B
:10064000ADF81850ADF8144005A9354802F038F956
:100650001D208DF8100001208DF8130002208DF868
:10066000110000208DF8120004A800F070FD302069
:10067000ADF800000220ADF808000120ADF802003E
:100680000020ADF806006946254802F056F9002121
:10069000234802F0A1FD0121214802F06DFC012256
:1006A00002211F4802F083FC09B030BD08B54FF4A9
:1006B000C06000F047FD36208DF8000001208DF865
:1006C00003008DF801008DF80200684600F03FFD40
:1006D00008BD0EB50121102001F0CBF840F6B7306F
:1006E000ADF8040040F2CF20ADF8000069460D4897
:1006F00002F0E6F8012211460A4802F058FC0121F6
:10070000084802F0FFFE0121064802F035FC0EBD4C
:1007100010B5FFF7CBFFFFF7DCFF10BD000801406D
:10072000000400400010004010B50221FE4800F017
:1007300086FE10BD10B50221FB4800F07EFE10BD04
:100740000021017070472DE9F04F89B004468946B9
:1007500092469B46F548007810B109B0BDE8F08F8D
:10076000002C08DA0020F24948700421EE4800F01D
:1007700064FE644206E00120ED4948700421EA4825
:1007800000F05DFE012C08D1A01EE949486102205D
:1007900008704FF47A70486083E0002CFCD0584613
:1007A00004F04CFE06463146E24804F049FD054699
:1007B00004F008FEDE490861484604F03FFE0146A9
:1007C0000090DD4804F03CFD019004F00DFD07466B
:1007D00003F08CFF0022D94BCDE9020104F036FA78
:1007E0000022D74BCDE9040104F096F8054604F049
:1007F000EBF9CF494860484604F020FE8046D149D5
:1008000004F030FE0746D04904F01AFD06460BFB03
:100810000BF004F013FE3146059004F011FD05467F
:1008200004F0ECFD0790079808B90120079004FB3D
:100830000AF009EB0A01B0FBF1F00690069808B93E
:1008400001200690DDE90601884204D80698001BC5
:10085000B749C86007E0079800FB09F0B0FBFAF061
:100860004042B349C860B248C06818B94FF0FF3081
:10087000AF49C860AE48C0682044AD4988600846AA
:1008800040680969884206DCA9480069A8494860AF
:100890000320087002E00120A54908700020A44947
:1008A00048610120A1490870FFF744FF0121A748D2
:1008B00002F062FB9E49486800EBD071A34A2432E3
:1008C000128802EB6101A14A343211800122022117
:1008D0009E4802F06CFB00BF3FE710B502219B4829
:1008E00002F013FE00287DD09149486800EBD071DA
:1008F000964A2432128802EB6101944A3432118004
:1009000093480078401C92490870084600780228F5
:1009100069D1002008708648007830B101281CD0C9
:1009200002287DD0032817D17EE000208949086085
:100930008949086000220221844802F038FBFFF751
:10094000F3FE0021814802F017FB00207749087070
:10095000FFF7EAFEFFF7E8FE0BE180480068401C65
:100960007E4908607B480068401C7A4908607048EE
:100970004078012805D17A480068401C7849086011
:1009800004E077480068401E75490860684840697F
:10099000401C67494861084640686F49096802225F
:1009A00002FB0011624840698000401C91FBF0F09E
:1009B0005F494968081A6B4908805D484068664984
:1009C000096802FB00115A4840698000401C91FBF5
:1009D000F0F200FB121060490860554880685D49DC
:1009E000096801E0CEE0C9E0884206D85048C068F6
:1009F0004F4948610220087015E04D480069594987
:100A0000098888420FDB57480088574908804848C2
:100A100000695449088000204F490860032000E025
:100A20003AE043490870A4E050480078012804D116
:100A30000221464802F07AFD9BE048480068401CCD
:100A40004649086043480068401C424908603848ED
:100A50004078012805D142480068401C40490860A0
:100A600004E03F480068401E3D4908603048006986
:100A70003C4908802E4880683649096888420AD86F
:100A80002B48C0682A4948613748008835490880A2
:100A90000220274908706CE02E480068401C2D4950
:100AA00008602E480068401C2C49086020484078A7
:100AB000012805D12A480068401C2949086004E043
:100AC00027480068401E2649086019484069401CB4
:100AD00017494861084640681F490968022202FB1D
:100AE0000011134840698000401C91FBF0F0104950
:100AF0004968081A1B4908800D484068164909686A
:100B000002FB00110A4840698000401C91FBF0F292
:100B100000FB12101049086005484069002802DBFC
:100B200000200349087023E0000801403000002045
:100B300014000020E86519477B59444480D8F040F0
:100B400000002440DA0F493F00002041000400402B
:100B500050000020480000204C00002034000020FD
:100B60002C00002044000020460000203800002017
:100B700000BF00BF044800880449486002210448BF
:100B800002F0D4FC10BD000044000020140000203E
:100B90000004004070B500240025A348FFF705FDC0
:100BA000A249087008460078002838D0A0A002F0BA
:100BB000C1FC00BF06E09C48015D9FA002F0BAFCAA
:100BC000601CC4B2994800788442F4DB002407E03A
:100BD0009548005D00F0E0002844C5B2601CC4B236
:100BE0009249087800EBD071B4EB610FF0DB8E48CE
:100BF0000078944908708C48057005E000208B4906
:100C0000087091A002F096FC8848007828B108216D
:100C10008548FFF796FC0028F0D0012070BD002029
:100C2000FCE710B5FFF7B6FF012803D17E4987A086
:100C300002F080FC10BD2DE9F04F8BB004464FF060
:100C4000000AD34600200990089081467D4890F81C
:100C500000A0BAF1730F0FD1607874280CD1A0787E
:100C60006F2809D1E078702806D17CA002F062FCE0
:100C700000207D490870C8E0BAF1670F10D1607894
:100C80006F280DD1A0786C280AD178A002F052FC10
:100C900009EB490050230A221146FFF754FDB4E046
:100CA0006078612810D1A07863280DD1E0786B2896
:100CB0000AD173A002F03EFC09EB490050230A223E
:100CC0001146FFF740FDA0E04FF0000A08E014F8DD
:100CD0000A1070A002F02EFC0AF101000FFA80FA4F
:100CE000BAF1080FF3DBE07803F09DFF05466C4A8C
:100CF0006C4B03F0ABFFCDE90401A07803F093FF48
:100D0000694A6A4BCDE9000103F0A0FF05460E4693
:100D1000607803F088FF07462A46334603F054FD07
:100D2000CDE90201DDE9042303F04EFDCDE9060122
:100D300003F018FD8346584604F056FA05462A4645
:100D40000B465BA002F0F6FBA07903F06CFF0546B2
:100D5000534A544B03F07AFFCDE90401607903F064
:100D600062FF514A514BCDE9000103F06FFF054688
:100D70000E46207903F057FF07462A46334603F014
:100D800023FDCDE90201DDE9042303F01DFDCDE9DA
:100D9000060103F0E7FC0990099804F025FA0546DE
:100DA0002A460B4645A002F0C5FB47480168584655
:100DB00004F046FA08904548089904F053FB0546AC
:100DC00004F000FB81461F480078012805D119A0D6
:100DD00002F0B0FBC9F1000906E01A48007818B922
:100DE0003BA002F0A7FB00BF09EB490032230A2217
:100DF0001146FFF7A8FC099804F0F6F905462A46C3
:100E00000B46494634A002F095FB0BB0BDE8F08FCD
:100E100010B50024FFF7BEFE0446012C02D10248A3
:100E2000FFF709FF10BD00005400002068000020FB
:100E30003F3F3F3F3F3F3F0020646174613D256479
:100E4000200000005C0000200D0A00007368756A35
:100E500075203D202573200D0A0000003F3F3F20F4
:100E600073746F700D0A0000140000206D6F746FB2
:100E700072206C6F6E672020676F200D0A000000E3
:100E80006D6F746F72206C6F6E67206261636B2090
:100E90000D0A0000617272203D202564200D0A00B9
:100EA0007B14AE47E17A843F9A9999999999B93F11
:100EB000646973203D20256600000000737065653D
:100EC00064203D2025660000640000200000C84426
:100ED0003F3F3F3F0000000073746570203D2025B8
:100EE000642C207370656564203D2025660D0A0022
:100EF00010B56FF0040000F074F92E4800682E4918
:100F0000B0FBF1F02D4908700846007800EB400175
:100F1000C1EBC0104FF6FF7101EAC00028490880FC
:100F200010BD0146254A12784A434FF0E0235A612A
:100F300000229A611A46126942F001021A6100BF4A
:100F40004FF0E022106900F001021AB100F4803283
:100F5000002AF5D04FF0E022126922F001024FF092
:100F6000E0231A6100229A6170470146144A1288F0
:100F70004A434FF0E0235A6100229A611A461269EF
:100F800042F001021A6100BF4FF0E022106900F048
:100F900001021AB100F48032002AF5D04FF0E022AD
:100FA000126922F001024FF0E0231A6100229A61D7
:100FB000704700000000002000127A006A00002044
:100FC0006C00002000BF704700BF4A4A128802F040
:100FD0004002002AF9D0C2B2464B1B1D1A8070474E
:100FE00010B586B00446012144F2040000F034FC40
:100FF0004FF40070ADF8140003208DF8160018208F
:101000008DF8170005A93C4800F06AF94FF480609C
:10101000ADF8140004208DF8170005A9364800F03B
:101020005FF925208DF8000003208DF801008DF870
:10103000020001208DF80300684600F088F8019452
:101040000020ADF80800ADF80A00ADF80C00ADF8CE
:1010500010000C20ADF80E0001A9264801F09BF904
:10106000012240F22551234801F02DFA01212148A7
:1010700001F01DFA06B010BD10B540F225511D4813
:1010800001F006FB10B31B4801F082FAC4B21B4802
:10109000008800F40040C8B91848008800F4804077
:1010A00060B10A2C03D000201449088020E01348C6
:1010B000008840F400401149088019E00D2C06D149
:1010C0000E48008840F480400C49088010E00B482E
:1010D0000088C0F30D000A490C5408480088401CE1
:1010E0000649088008460088C72801DD00200880DE
:1010F00010BD0000003801400008014074000020CD
:101100008C0000200948804709480047FEE7FEE7B9
:10111000FEE7FEE7FEE7FEE7FEE7FEE7FEE7FEE7A7
:1011200004480549054A064B704700004303000880
:1011300031010008B8010020B8070020B8030020E2
:10114000B803002031490143314A1160704770B53E
:10115000002100230F22C47804B32D4C246804F42A
:10116000E064C4F5E064210AC1F10403CA40447894
:1011700004FA03F18478144021430901254C0678D0
:10118000A155047804F01F050124AC4005786D11C9
:10119000AD0005F1E025C5F8004109E0047804F050
:1011A0001F050124AC401C4D0678761145F82640F9
:1011B00070BD1A4A0A400243154B1B1F1A60704744
:1011C00039B1134A121D12680243114B1B1D1A60DC
:1011D00006E00F4A121D126882430D4B1B1D1A6058
:1011E0007047042808D14FF0E021096941F004015B
:1011F0004FF0E022116107E04FF0E021096921F092
:1012000004014FF0E0221161704700000000FA0570
:101210000CED00E000E400E080E100E080FFFF1F53
:1012200010B50446CC48844208D10121042000F0C6
:101230002DFB0021042000F029FB46E0C748844232
:1012400008D10121082000F021FB0021082000F036
:101250001DFB3AE0C248844208D10121102000F071
:1012600015FB0021102000F011FB2EE0BD48844248
:1012700008D10121202000F009FB0021202000F0EE
:1012800005FB22E0B848844208D10121402000F04B
:10129000FDFA0021402000F0F9FA16E0B34884423C
:1012A00008D10121802000F0F1FA0021802000F017
:1012B000EDFA0AE0AE48844207D10121801500F022
:1012C000E5FA0021A01500F0E1FA10BD10B50121EA
:1012D000084600F0DBFA0021012000F0D7FA10BD2B
:1012E0002DE9F041024600250026002000230024BD
:1012F000002791F803C00CF00F0591F803C00CF023
:10130000100CBCF1000F03D091F802C04CEA0505A7
:1013100091F800C0BCF1000F31D0146800202BE020
:101320004FF0010C0CFA00F3B1F800C00CEA030610
:101330009E4220D183004FF00F0C0CFA03F7BC4300
:1013400005FA03FC4CEA040491F803C0BCF1280F31
:1013500006D14FF0010C0CFA00FCC2F814C00AE0F0
:1013600091F803C0BCF1480F05D14FF0010C0CFA05
:1013700000FCC2F810C0401C0828D1D31460B1F89A
:1013800000C0BCF1FF0F34DD546800202EE000F1F6
:10139000080C4FF0010808FA0CF3B1F800C00CEA91
:1013A00003069E4221D183004FF00F0C0CFA03F785
:1013B000BC4305FA03FC4CEA040491F803C0BCF1F9
:1013C000280F05D100F1080C08FA0CF8C2F81480B7
:1013D00091F803C0BCF1480F07D100F1080C4FF0A1
:1013E000010808FA0CF8C2F81080401C0828CED377
:1013F0005460BDE8F0814FF6FF71018002218170D9
:101400000421C17070470246002093680B400BB165
:10141000012000E0002070470146886880B27047D4
:1014200002460020D3680B400BB1012000E00020F1
:1014300070470146C86880B27047016170474161DA
:1014400070470AB1016100E041617047C1607047B7
:101450004FF480320A4382618161826182698269CC
:10146000704702460020434B18684FF680731840BF
:1014700040EA021008433F4B186070473E49C8617C
:101480007047F0B50A46002300240021002500F033
:101490000046B6F1004F02D1364EF16901E0354EFB
:1014A0007168C0F3034583B200F44016B6F5401FDF
:1014B00008D121F070612F4E766826F070662D4FAE
:1014C0007E6012E000F48016B6F5801F06D1032678
:1014D00006FA05F4A14341F0706106E0460D3601BD
:1014E00003FA06F6B14341F0706122B1460D3601B0
:1014F00003FA06F6314300F00046B6F1004F02D180
:101500001C4EF16101E01B4E7160F0BD30B5002250
:101510008B071C0F0F2303FA04F2164B08338C10B1
:1015200053F824309343134C08348D1044F825307D
:1015300023468C1053F824308C07240F00FA04F44F
:1015400023430C4C08348D1044F8253030BD0A4933
:10155000DC3108607047000000080140000C0140C9
:10156000001001400014014000180140001C01401F
:10157000002001400000014000002042DF480068D8
:1015800040F00100DD49086008464068DC49084039
:10159000DA49486008460068DA490840D7490860D7
:1015A0000846006820F4802008600846406820F45F
:1015B000FE0048604FF41F0088607047CF490968FB
:1015C00021F48031CD4A11601146096821F480214F
:1015D0001160B0F5803F03D0B0F5802F0ED106E04A
:1015E000C649096841F48031C44A116007E0C34923
:1015F000096841F4A021C14A116000E000BF00BFAA
:10160000704710B501460022002300204A11012A2C
:1016100002D1BA4C236806E0022A02D1B74C236AF1
:1016200001E0B64C636A01F01F02012494401C40A3
:101630000CB1012000E0002010BD38B50020009062
:101640000024002500BF3120FFF7DBFF054600988E
:10165000401C00900098B0F5A06F01D0002DF2D092
:101660003120FFF7CEFF08B1012400E0002420461E
:1016700038BD01460020A14A106820F0F80040EA79
:10168000C10010607047A049086070470246002002
:101690009A4B586820F47C1042EA01031843974B98
:1016A0005860704798490866704701460020934A81
:1016B000506820F003000843506070478F4840682E
:1016C00000F00C007047014600208C4A506820F062
:1016D000F00008435060704701460020874A506878
:1016E00020F4E06008435060704701460020834AC0
:1016F000506820F4605040EAC1005060704729B142
:101700007E4A527A02437D4B5A7204E07B4A527AF7
:1017100082437A4B5A7270477B49D83108607047D0
:1017200001460020754A506820F44040084350604C
:1017300070470021714A20321170704A82F82010DF
:10174000012802D004280AD104E001216B4A20328A
:10175000117005E00521694A2032117000E000BFD8
:1017600000BF70476949086070476449096A0143CE
:10177000624A11627047654944390860704730B564
:1017800000210022002400235C4D6D6805F00C014F
:1017900021B1042905D0082923D105E05C4D05605D
:1017A00022E05B4D05601FE0544D6D6805F470123A
:1017B000524D6D6805F48034022505EB92421CB948
:1017C000544D554305600BE04C4D6D6805F40035F4
:1017D0001DB1504D5543056002E04D4D5543056028
:1017E00002E04B4D056000BF00BF444D6D6805F041
:1017F000F0010909484D6B5C0568DD4045603F4DCF
:101800006D6805F4E061090A434D6B5C4568DD4095
:1018100085603A4D6D6805F46051C90A3E4D6B5CB8
:101820004568DD40C560354D6D6805F44041890B64
:101830003A4D6B5CC568B5FBF3F5056130BD29B168
:101840002E4A526902432D4B5A6104E02B4A5269D9
:1018500082432A4B5A61704729B1284A9269024350
:10186000264B9A6104E0254A92698243234B9A6190
:10187000704729B1214AD2690243204BDA6104E062
:101880001E4AD26982431D4BDA61704729B11B4A57
:10189000D2680243194BDA6004E0184AD2688243E6
:1018A000164BDA60704729B1144A12690243134B90
:1018B0001A6104E0114A12698243104B1A617047A1
:1018C00012494039086070470F49C86470470B4996
:1018D000C87170470948406A40F080700749486203
:1018E000704701460020054A92680A400AB101206B
:1018F00000E00020704701498872704700100240E4
:101900000000FFF8FFFFF6FE000042428004424262
:1019100000127A0000093D007600002086000020B9
:1019200010B50446FE48844209D101214806FFF75C
:10193000BAFF00214FF00070FFF7B5FF08E001216A
:101940008806FFF7B0FF00214FF08060FFF7ABFF84
:1019500010BD30B5024600200023146824F00204B4
:101960001460146844F00104146000E05B1C5468C7
:1019700004F001041CB94FF6FF74A342F6D1546879
:1019800004F001040CB900206CE08C79012C04D126
:10199000146844F08004146003E0146824F08004A8
:1019A0001460CC79012C04D1146844F04004146014
:1019B00003E0146824F0400414600C7A012C04D174
:1019C000146844F02004146003E0146824F0200438
:1019D00014604C7A012C04D1146844F01004146093
:1019E00003E0146824F0100414608C7A012C04D1F4
:1019F000146844F00804146003E0146824F0080438
:101A00001460CC7A012C04D1146844F004041460EE
:101A100003E0146824F0040414608C78A407CD78E3
:101A200044EA05640D7944EA05444D7944EA0554D5
:101A30000D886D1E2C43D461146824F001041460D9
:101A4000002300E05B1C546804F001041CB14FF655
:101A5000FF74A342F6D1546804F001040CB10020D5
:101A600000E0012030BD10B50021837A012202FA86
:101A700003F1AC4A126842F00102AA4B1A60A94A6B
:101A80001C3212688A43A74B1C331A60027BCAB906
:101A9000A44A0C3212688A43A24B0C331A60428863
:101AA000C38842EA03439F4A4032847A42F8343082
:101AB0000288838842EA03439A4A4032847A02EBDE
:101AC000C4025360027B012A19D1964A0C32126873
:101AD0000A43944B0C331A604288038842EA03435A
:101AE000904A4032847A42F83430C288838842EA8D
:101AF00003438C4A4032847A02EBC4025360C27AB8
:101B00003AB9884A121D12688A43864B1B1D1A6017
:101B100006E0844A121D12680A43824B1B1D1A609C
:101B2000028932B97F4A143212688A437D4B1433DA
:101B30001A600289012A06D17A4A143212680A43CD
:101B4000784B14331A60427B012A06D1754A1C3245
:101B500012680A43734B1C331A60724A126822F0EF
:101B60000102704B1A6010BD00218171C1710172B8
:101B700041728172C1728170C170032101710221B1
:101B800041710121018070476649096841F00101F6
:101B9000644A11601146096843F60E729143614A26
:101BA00011601146096841EA002111601146096877
:101BB00021F001011160704721B1026842F48032C6
:101BC000026003E0026822F4803202607047E1B1F3
:101BD000026842F0800202604FF4C272125842F46E
:101BE00080734FF4C27213504FF4CA72125842F409
:101BF00080734FF4CA7213504FF4D272125842F4E9
:101C000080734FF4D27213501BE0026822F08002FE
:101C100002604FF4C272125822F480734FF4C27201
:101C200013504FF4CA72125822F480734FF4CA72E0
:101C300013504FF4D272125822F480734FF4D272C0
:101C40001350704710B502460020936803F080637C
:101C5000B3F1806F00D110E0936803F00063B3F13B
:101C6000006F01D1012008E0936803F08053B3F1C5
:101C7000805F01D1022000E00420042879D002F521
:101C8000C07303EB00131B6803F0010402F5C0737B
:101C900003EB00131C600B7A7BB94B7A0C8843EA88
:101CA000445302F5C07404EB00142468234302F586
:101CB000C07404EB0014236010E00B7A4C6843EA14
:101CC000C4034C7A234302F5C07404EB0014246867
:101CD000234302F5C07404EB001423608B7A03F0F5
:101CE0000F038B7202F5C07303EB00135B6823F0E4
:101CF0000F0402F5C07303EB00135C6002F5C073C0
:101D000003EB00135B688C7A234302F5C07404EB89
:101D1000001463608B7B1C064B7B44EA034403E0A6
:101D200000640040006600400B7B44EA0323CC7A49
:101D3000234302F5C07404EB0014A3608B7C1C06E3
:101D40004B7C44EA03440B7C44EA0323CC7B2343CF
:101D500002F5C07404EB0014E36002F5C07303EBFA
:101D600000131B6843F0010402F5C07303EB00137A
:101D70001C6010BD10B50246002321B1012907D017
:101D800002290FD109E09068F94C00EA04030BE046
:101D90009068F84C00EA040306E09068F64C00EA0C
:101DA000040301E0002300BF00BFF44C181BA34252
:101DB00016D007DC83B16FF08060184470B1022840
:101DC00018D111E0B0F5007F10D0ED4C204448B19F
:101DD000B0F5003F0ED10BE002230DE000230BE035
:101DE000002309E0002307E0012305E0012303E0CD
:101DF000012301E0002300BF00BFD8B210BD21B114
:101E0000012907D002290FD109E0826842F080023F
:101E100082600AE0826842F40042826005E08268E3
:101E200042F40002826000E000BF00BF704710B5BE
:101E300000F5D87303EB01131B6803F0040313725E
:101E4000137A53B900F5D87303EB01131B6840F202
:101E5000FF7404EA5353136009E000F5D87303EBF1
:101E600001131B686FF0604404EAD303536000F56C
:101E7000D87303EB01131B6803F00203537200F5E0
:101E8000D87303EB01135B6803F00F03937200F543
:101E9000D87303EB01135B681B0AD37400F5D87386
:101EA00003EB01139B68D37200F5D87303EB0113A6
:101EB0009B681C0A147300F5D87303EB01139B682D
:101EC0001C0C547300F5D87303EB01139B681B0EB5
:101ED000937300F5D87303EB0113DB68D37300F53C
:101EE000D87303EB0113DB681C0A147400F5D87374
:101EF00003EB0113DB681C0C547400F5D87303EB7F
:101F00000113DB681B0E937421B9C36843F02003EF
:101F1000C36003E0036943F02003036110BD21B9EE
:101F2000C26842F02002C26003E0026942F020026F
:101F3000026170470246002019B9D36803F003001C
:101F400006E0012903D1136903F0030000E000203B
:101F5000704710B502460B4600204FF6FF71BBB923
:101F6000146824F0020444F00104146000E0491EE7
:101F7000546804F00304012C01D00029F7D15468FF
:101F800004F00304012C01D0002032E0012030E0F5
:101F9000012B13D1146824F00304146000E0491EDF
:101FA000546804F003040CB10029F8D1546804F01B
:101FB00003040CB100201CE001201AE0022B17D111
:101FC000146824F0010444F00204146000E0491E87
:101FD000546804F00304022C01D00029F7D154689E
:101FE00004F00304022C01D0002002E0012000E0F4
:101FF000002010BD014600200A6822F0010242F0D4
:1020000002020A604A6802F00302022A00D101209B
:10201000704701464FF6FF7200200B6823F0020361
:102020000B6000E0521E4B6803F00203022B01D14B
:10203000002AF7D14B6803F00203022B00D00120E5
:102040007047014600208A6902F07000704701461F
:1020500000208A69100E7047014600208A69C2F389
:10206000074070471AB143690B43436102E043697B
:102070008B434361704710B50246002001F47003A2
:1020800043B19369C1F3130423400BB101202DE048
:1020900000202BE001F0807343B15368C1F31304B7
:1020A00023400BB1012021E000201FE001F000637C
:1020B00043B19368C1F3130423400BB1012015E031
:1020C000002013E001F0007343B1D368C1F313049F
:1020D00023400BB1012009E0002007E01369C1F3A0
:1020E000130423400BB1012000E0002010BD0022AA
:1020F000244B994202D10023836111E0C1F3130202
:1021000001F000730BB1C2600AE001F080630BB113
:10211000026105E001F000630BB1826000E0426003
:1021200070470246002002EA01030BB1012000E0E3
:102130000020704770B504460D46002660692840AF
:10214000002872D0B5F5807F69D01DDC082D42D003
:1021500006DC012D2DD0022D31D0042D7FD134E0AD
:10216000102D3ED0202D42D0402D78D145E00000EA
:102170000300000400030008000003100001000831
:102180000001FFF77000F030B5F5004F61D009DCB9
:10219000B5F5007F4AD0B5F5806F4DD0B5F5006F2D
:1021A0005DD150E0B5F5803F2DD0B5F5003F56D15B
:1021B0002FE0A0685549FFF7B4FF064651E0E068FC
:1021C0000321FFF7AEFF06464BE0E0680821FFF76A
:1021D000A8FF064645E0E0681021FFF7A2FF06468B
:1021E0003FE020690321FFF79CFF064639E02069A4
:1021F0000821FFF796FF064633E020691021FFF71C
:1022000090FF06462DE060680821FFF78AFF06462A
:1022100027E060681021FFF784FF064621E0A069EF
:102220000121FFF77EFF06461BE01BE0A0690221AB
:10223000FFF777FF064614E0A0690421FFF771FF5E
:1022400006460EE00BE0A0697021FFF76AFF064624
:1022500007E060680421FFF764FF064601E00026FE
:1022600000BF00E00026304670BDB1F5007F3AD0D7
:102270000FDC202928D006DC01291CD004291DD020
:10228000082940D11DE0402921D0B1F5807F3AD105
:1022900026E0B1F5004F31D006DCB1F5806F25D0D6
:1022A000B1F5006F2FD124E0B1F5803F12D0B1F528
:1022B000003F28D111E0154A826025E00822C26063
:1022C00022E01022C2601FE0082202611CE01022FE
:1022D000026119E00822426016E01022426013E019
:1022E0000422426010E0042242600DE004224260B9
:1022F0000AE0002282610422426005E0002282613D
:102300000422426000E000BF00BF704701010100ED
:1023100010B50446FB48844209D101218803FFF728
:10232000B5FA00214FF48040FFF7B0FA32E0F648EA
:10233000844209D101214804FFF7B5FA00214FF486
:102340000030FFF7B0FA25E0F048844209D10121BE
:102350008804FFF7A8FA00214FF48020FFF7A3FAC2
:1023600018E0EB48844209D10121C804FFF79BFA29
:1023700000214FF40020FFF796FA0BE0E548844275
:1023800008D101210805FFF78EFA00214FF48010D3
:10239000FFF789FA10BD2DE9F04786B005460E46D5
:1023A0000024A24600BFA1460027B08900B100BFAB
:1023B0002F462C8A4CF6FF700440F08804432C8290
:1023C000AC894EF6F3100440B08831890843718916
:1023D00008430443AC81AC8A4FF6FF400440B08907
:1023E0000443AC8201A8FFF7CAF9C648874202D16C
:1023F000DDF810A001E0DDF80CA0A88900F4004091
:1024000040B10AEBCA0000EB0A1031684900B0FB8A
:10241000F1F807E00AEBCA0000EB0A103168890006
:10242000B0FBF1F86420B8FBF0F00401200964214E
:1024300001FB1089A88900F4004040B1322000EB74
:10244000C900B0FBF1F000F00700044308E03220BF
:1024500000EB09106421B0FBF1F000F00F00044321
:102460002C8106B0BDE8F0874FF4165101600021C1
:102470008180C18001810C214181002181817047CF
:1024800010B502460020108A4FF2FF0318400B8857
:102490004C8823438C882343CC88234318431082E1
:1024A00010BD0021018041808180C180704721B131
:1024B000828942F40052828104E082894DF6FF73E2
:1024C0001A4082817047F0B503460024002600259B
:1024D000002040F66A17B94200D100BF1846C1F388
:1024E000421401F01F06012707FA06F5012C01D15D
:1024F0000C3004E0022C01D1103000E014301AB18D
:1025000007682F43076002E00768AF430760F0BD2C
:102510001AB1838A0B43838202E0838A8B438382CE
:102520007047028A4FF6F0731A400282028A0A4309
:102530000282704782894FF2FF731A40828182893A
:102540000A438281704721B1828942F0020282816E
:1025500004E082894FF6FD731A4082817047028A37
:102560004FF6DF731A400282028A0A4302827047E2
:1025700021B1028A42F48042028204E0028A4BF6D0
:10258000FF731A4002827047C1F3080282807047CD
:1025900001468888C0F308007047818941F0010135
:1025A00081817047028BD2B20283028B42EA012200
:1025B00002837047028B02F47F420283028B0A433C
:1025C0000283704721B1828A42F02002828204E0B5
:1025D000828A4FF6DF731A408282704721B1828A65
:1025E00042F01002828204E0828A4FF6EF731A40B2
:1025F0008282704721B1828A42F00802828204E01E
:10260000828A4FF6F7731A408282704721B182891D
:1026100042F40042828103E08289C2F30E02828189
:10262000704721B1828A42F40062828204E0828A89
:102630004FF2FF731A4082827047828A4FF6FB7313
:102640001A408282828A0A438282704721B1828A3A
:1026500042F00202828204E0828A4FF6FD731A4041
:102660008282704702460020B1F5007F00D100BF92
:1026700013880B400BB1012000E00020704701F4EB
:102680000072B2F5007F00D100BFCA4302807047DC
:1026900070B50246002400230025002040F66A168B
:1026A000B14200D100BFC1F3421501F01F03012662
:1026B00006FA03F3012D02D19689334006E0022D7C
:1026C00002D1168A334001E0968A33400C1201266B
:1026D00006FA04F41688344013B10CB1012000E06E
:1026E000002070BD10B50022002340F66A14A142FC
:1026F00000D100BF0A1201249440A3B2DC4304803D
:1027000010BD000000380140004400400048004077
:10271000004C00400050004010B50446FE48844282
:1027200008D10121C014FFF7B1F80021E014FFF730
:10273000ADF8C4E0B4F1804F08D101210846FFF79D
:10274000B2F800210120FFF7AEF8B8E0F348844268
:1027500008D101210220FFF7A6F800210220FFF78F
:10276000A2F8ACE0EE48844208D101210420FFF732
:102770009AF800210420FFF796F8A0E0E948844287
:1027800008D101210820FFF78EF800210820FFF76B
:102790008AF894E0E448844208D101211020FFF730
:1027A00082F800211020FFF77EF888E0DF4884429D
:1027B00008D101212020FFF776F800212020FFF723
:1027C00072F87CE0DA48844208D101214014FFF716
:1027D0005DF800216014FFF759F870E0D548844295
:1027E00009D10121C804FFF751F800214FF400205E
:1027F000FFF74CF863E0D048844209D10121080575
:10280000FFF744F800214FF48010FFF73FF856E03F
:10281000CA48844209D101214805FFF737F8002151
:102820004FF40010FFF732F849E0C548844208D160
:1028300001214020FFF737F800214020FFF733F84F
:102840003DE0C048844208D101218020FFF72BF8E9
:1028500000218020FFF727F831E0BB48844208D1EF
:1028600001218015FFF71FF80021A015FFF71BF8C5
:1028700025E0B648844209D101210804FFF706F893
:1028800000214FF48030FFF701F818E0B04884428F
:1028900009D101214804FEF7F9FF00214FF400306F
:1028A000FEF7F4FF0BE0AB48844208D10121880415
:1028B000FEF7ECFF00214FF48020FEF7E7FF10BD8C
:1028C00000220288944B98420ED0994B98420BD02C
:1028D000B0F1804F08D0914B984205D0904B984270
:1028E00002D0904B984204D14FF68F731A404B8818
:1028F0001A438D4B984207D08C4B984204D04FF628
:10290000FF431A40CB881A4302808B8883850B884B
:102910000385814B98420BD0854B984208D08B4B56
:10292000984205D08A4B984202D08A4B984201D1F6
:102930000B7A038601238382704770B5002400223E
:102940000023058C4FF6FE7635400584028C838883
:10295000048B4FF68F752C40B51E2C400D882C43F0
:10296000751E2A400D892A434D882A436A4DA84284
:102970000BD06F4DA84208D0744DA84205D0744DBD
:10298000A84202D0734DA84213D14FF6F7752A40E2
:102990004D892A434FF6FB752A408D882A434FF60E
:1029A000FF652B404FF6FF552B408D892B43CD897A
:1029B0002B4383800483CD888586028470BD70B5E7
:1029C000002400220023058C4FF6EF763540058465
:1029D000028C8388048B48F6FF752C404FF6FF4528
:1029E0002C400D884FF6FF7606EA05252C434FF65E
:1029F000DF752A400D8906EA05152A434D8806EA47
:102A000005152A43444DA84202D0494DA8421DD184
:102A10004FF67F752A404D894FF6FF7606EA051579
:102A20002A434FF6BF752A408D8806EA05152A43CA
:102A30004FF6FF352B404FF2FF752B408D8906EA8C
:102A400085052B43CD8906EA85052B4383800483C6
:102A5000CD880587028470BD70B500240022002354
:102A6000058C4FF6FF6635400584028C8388848B85
:102A70004FF68F752C404FF6FC752C400D882C437B
:102A80004FF6FF552A400D894FF6FF7606EA0525D9
:102A90002A434D8806EA05252A431F4DA84202D045
:102AA000234DA8421DD14FF2FF752A404D894FF6A4
:102AB000FF7606EA05252A434FF6FF352A408D8822
:102AC00006EA05252A434EF6FF752B404DF6FF75A5
:102AD0002B408D8906EA05152B43CD8906EA05159D
:102AE0002B4383808483CD888587028470BD70B535
:102AF000002200230024058C4EF6FF763540058425
:102B0000038C8488828B48F6FF752A404FF6FF4578
:102B10002A400D8820E00000002C01400004004005
:102B200000080040000C004000100040001400406D
:102B300000340140004C014000500140005401406D
:102B400000180040001C00400020004000400140F0
:102B500000440140004801404FF6FF7606EA052593
:102B60002A434DF6FF752B400D8906EA05352B43A8
:102B70004D8806EA05352B43FA4DA84202D0FA4D9E
:102B8000A84208D14BF6FF752C408D894FF6FF7691
:102B900006EA85152C4384808283CD88A0F84050B6
:102BA000038470BD828B4FF2FF331A408283828B85
:102BB0004FF6FF7303EA01231A4382837047F0B58F
:102BC0000C461546002200210026078C4EF6FF7C9D
:102BD00007EA0C070784828B018C4FF6FF7707EA20
:102BE000043640F6FF473A404FF6FF7707EA0527DD
:102BF0003A434FF6FF7707EA03373A43D94FB842D3
:102C00000ED0D94FB8420BD0B0F1804F08D0D74F7B
:102C1000B84205D0D64FB84202D0D64FB84206D1FE
:102C20004DF6FF77394046F48057394305E047F6C3
:102C3000FF57394044F48057394382830184F0BD03
:102C4000828B4FF6F3731A408283828B0A4382830E
:102C50007047F0B50C461546002200210026078C6F
:102C60004FF6FF6C07EA0C070784828B018C4FF646
:102C7000FF7707EA04264FF60C773A404FF6FF77C6
:102C800007EA03172F433A43B64FB8420ED0B64F68
:102C9000B8420BD0B0F1804F08D0B44FB84205D045
:102CA000B34FB84202D0B34FB84206D14FF6FF57E8
:102CB000394046F48077394305E04FF2FF573940F9
:102CC00044F48077394382830184F0BD028B4FF254
:102CD000FF331A400283028B4FF6FF7303EA01238E
:102CE0001A4302837047F0B50C46154600220021B6
:102CF0000026078C4FF6EF7C07EA0C070784028B4F
:102D0000018C4FF6FF7707EA041640F6FF473A407A
:102D10004FF6FF7707EA03373A434FF6FF7707EAA4
:102D200005273A438F4FB8420ED08F4FB8420BD091
:102D3000B0F1804F08D08D4FB84205D08C4FB842CB
:102D400002D08C4FB84206D14FF6DF77394046F0BB
:102D50001007394305E04FF65F77394044F010071C
:102D6000394302830184F0BD028B4FF6F3731A409E
:102D70000283028B0A4302837047F0B50C46154666
:102D800000220021068C4FF6FE773E400684028B1F
:102D9000018C4FF60C7632407E1C06EA03162E4359
:102DA0003243704EB0420ED06F4EB0420BD0B0F1F5
:102DB000804F08D06D4EB04205D06D4EB04202D06B
:102DC0006C4EB04206D14FF6FD76314044F001061C
:102DD000314305E04FF6F576314044F001063143CA
:102DE00002830184F0BD70B505460C465D488542FE
:102DF0000ED05D4885420BD0B5F1804F08D05B48BE
:102E0000854205D05A48854202D05A48854200D1B1
:102E100000E000BF208850B92389A2886188284635
:102E2000FFF7ABFFE1882846FFF79EFF25E02088EB
:102E300004280AD12389A28861882846FFF753FF16
:102E4000E1882846FFF742FF17E0208808280AD1CA
:102E50002389A28861882846FFF7FBFEE18828467F
:102E6000FFF7EEFE09E02389A28861882846FFF774
:102E7000A6FEE1882846FFF795FE70BD2DE9F041DA
:102E800005460C4600260127608808B9022600E0A6
:102E90000026A088012801D1022700E00127208810
:102EA000A0B92389A28861882846FFF766FFE188D8
:102EB0002846FFF759FF23893A4631462846FFF74F
:102EC00012FFE1882846FFF701FF13E02389A2885B
:102ED00061882846FFF707FFE1882846FFF7F6FEDE
:102EE00023893A4631462846FFF747FFE1882846BE
:102EF000FFF73AFFBDE8F0810A884B881A438B88B8
:102F00001A43CB881A430B891A434B891A438B897E
:102F10001A43A0F8442070474FF6FF7181800021CA
:102F20000180C18041800172704700210180418091
:102F30008180C180018141818181C18170470021EF
:102F400001804180012181800021C1800181704781
:102F50000021018041808180C18001814181818186
:102F600070470000002C0140003401400004004084
:102F700000080040000C004021B1028842F001022C
:102F8000028004E002884FF6FE731A400280704708
:102F900031B1B0F8442042F40042A0F8442005E0EA
:102FA000B0F84420C2F30E02A0F8442070471AB1D2
:102FB00083890B43838102E083898B43838170473C
:102FC0008182704741EA0203A0F8483070471AB185
:102FD00083890B43838102E083898B43838170471C
:102FE00001894FF6F8721140018170470A460021AD
:102FF00001894FF68F73194011430181704730B535
:1030000004460D4629462046FFF7F0FF208940F090
:103010000700208130BD2DE9F04104460D461646DB
:103020001F46602D06D13B46012231462046FFF760
:103030005AFE05E03B46012231462046FFF79DFE41
:1030400029462046FFF7D2FF208940F00700208163
:10305000BDE8F08130B50C4600210189C9B24FF6B8
:10306000FF7505EA0325154325432943018130BD3A
:103070002DE9F04105460E46174698460024434682
:103080003A4631462846FFF7E5FF2C894FF6F8709F
:10309000044044F007044FF68F70044044F070047D
:1030A0002C81BDE8F081F0B504460D4616461F465A
:1030B0003B46324629462046FFF7CCFF208940F4A4
:1030C00080402081F0BD0185828270470A46002140
:1030D00001884FF68F731940114301807047F0B596
:1030E0000C4615461E460021002200230189028B52
:1030F000038C4FF6F877394021434FF6FC473A40AE
:1031000040F201173A434FF6DD773B404FF6FF7729
:1031100007EA06172F433B43018102830384F0BD76
:103120000A460021018B4FF68F731940114301832A
:1031300070470A460021018B48F6FF7319404FF68D
:10314000FF7303EA02231943018370470A460021F3
:10315000818B4FF68F7319401143818370470A4664
:103160000021818B48F6FF7319404FF6FF7303EA85
:10317000022319438183704721B1028842F0800203
:10318000028004E002884FF67F731A400280704785
:1031900021B1828842F00402828004E082884FF6E6
:1031A000FB731A408280704721B1828842F0080286
:1031B000828004E082884FF6F7731A40828070475D
:1031C00021B1828842F00102828004E082884FF6B9
:1031D000FE731A40828070470A460021018B4FF629
:1031E000F77319401143018370470A460021018B90
:1031F0004FF2FF7319404FF6FF7303EA022319439E
:10320000018370470A460021818B4FF6F7731940FE
:103210001143818370470A460021818B4FF2FF736F
:1032200019404FF6FF7303EA022319438183704765
:103230000A460021018B4FF6FB73194011430183AD
:1032400070470A460021018B4FF6FF3319404FF6B5
:10325000FF7303EA02231943018370470A460021E2
:10326000818B4FF6FB7319401143818370470A46E7
:103270000021818B4FF6FF3319404FF6FF7303EAAD
:1032800002231943818370470A460021018B4FF6C0
:103290007F7319401143018370470A460021018B57
:1032A000C1F30E014FF6FF7303EA022319430183B2
:1032B00070470A460021818B4FF67F7319401143F6
:1032C000818370470A460021818BC1F30E014FF6BE
:1032D000FF7303EA02231943818370470A460021E2
:1032E000018C4FF6FD7319401143018470470A4663
:1032F0000021018C4FF6F773194011430184704788
:103300000A460021018C4FF6DF7319404FF6FF7318
:1033100003EA02131943018470470A460021018C15
:103320004FF67F7319404FF6FF7303EA02131943F8
:10333000018470470A460021018C4FF6FF53194063
:103340004FF6FF7303EA02231943018470470A46CC
:103350000021018C4FF2FF7319404FF6FF7303EA0F
:1033600002231943018470470A460021018C4DF65F
:10337000FF7319404FF6FF7303EA023319430184C8
:10338000704730B5002301248C40A3B2048C9C43C9
:103390000484048C02FA01F5ADB22C43048430BDE0
:1033A00030B5002304248C40A3B2048C9C430484D5
:1033B000048C02FA01F5ADB22C43048430BD70B523
:1033C0000346002000241846183001258D40ACB279
:1033D0001D8CA5431D8409B1082909D100EB6100AA
:1033E000056825F0700505600568154305600EE069
:1033F0000D1FC5F34E052844056825F4E04505601A
:1034000005684FF6FF7606EA02263543056070BD73
:1034100021B1028842F00202028004E002884FF6E5
:10342000FD731A400280704721B1028842F0040205
:10343000028004E002884FF6FB731A400280704756
:1034400021B1828842F08002828004E082884FF6B7
:103450007F731A408280704702884FF6F7731A40D4
:10346000028002880A430280704782884FF68F7379
:103470001A40828082880A438280704702894FF610
:10348000F8731A40028102890A4302817047028957
:103490004FF67F731A40028102890A430281704706
:1034A00081847047818570478186704701877047A6
:1034B00081877047A0F84010704702884FF6FF439D
:1034C0001A40028002880A43028070470146888EB3
:1034D00070470146088F70470146888F7047014644
:1034E000B1F8400070470146888C70470146088D4E
:1034F000704702460020138A0B400BB1012000E008
:1035000000207047CA430282704730B5024600204F
:1035100000230024158A05EA0103958905EA0104C0
:1035200013B10CB1012000E0002030BDCA4302827B
:10353000704770470FB4044910B503AA029800F011
:1035400059FB10BC5DF814FB700000202DE9F04120
:103550000E460446002020622046E168884730B3CA
:10356000252805D0D4E901219047206A401CF2E7C4
:10357000E168204600278847050018D0A5F14100E2
:10358000192802D820354FF40067324629462046D4
:103590002760FCF707FE40B1012804D0F61D26F095
:1035A00007060836D8E7361DD6E72846DAE7206A48
:1035B000BDE8F08170B50C460546012A05D0287893
:1035C000800600D5EA69002302E0012305E05B1CC8
:1035D000934202D2E05C0028F9D1A869E618C01A2B
:1035E000A861286A184428622846AFF3008004E0E6
:1035F000D5E9012114F8010B9047B442F8D32846CD
:10360000AFF3008070BD00002DE9F04106460024B4
:1036100010687529314616A510D0AFF30080002838
:1036200002DA404213A507E031688A0701D512A5E6
:1036300002E0490704D511A5012401E0AFF30080A1
:1036400000210A2206F1240709E0B0FBF2FCB0FBDE
:10365000F2F302FB1C00303078541846491C002855
:10366000F3D123462A463046BDE8F04100F043B886
:10367000000000002D0000002B00000020000000D2
:1036800070B504460D4621461068AFF300802188CE
:10369000090502D50F4A7A4402E00E4A7A440E32F6
:1036A000002104F1240305E000F00F060009965DF7
:1036B0005E54491C0028F7D120780023000704D568
:1036C000702D02D009B1022311322046BDE87040AE
:1036D00000F011B8661F00007047704770477047D0
:1036E00010B500F09DFA006810BD10B5044600F05A
:1036F00097FA046010BD2DE9F0470D4699469246B1
:10370000044600F124080168880604D5E06921F028
:103710001001216000E00120A84201DD471B00E00C
:103720000027A1697A1902EB0900081AA061207824
:10373000C00602D42046AFF30080002608E0D4E99A
:1037400001211AF806009047206A401C761C20626E
:103750004E45F4DB2078C0060AD52046AFF3008042
:1037600006E0D4E9012130209047206A401C206205
:10377000381EA7F10107F4DC07E0D4E9012118F8AD
:1037800005009047206A401C2062281EA5F1010513
:10379000F3DC2046AFF300802078000602D502203B
:1037A000BDE8F0870120FBE770472DE9FF4F0C468D
:1037B0001E464FF0FF378BB0D2E90001DDF8608084
:1037C0000A908A46C1F30A5505B93D4600210846CC
:1037D0004FF00000BAF1000F00F4400005DA00EBF2
:1037E00080004FF4400101EA50004FEA9059B9F1CE
:1037F000010F00DDB9460A9850EA4A000ED044F69F
:103800001050A5F2FF3545432F14B8F1000F1ED01C
:103810007542291E1EDDC9F100021CE0B8F1010F3E
:103820004FF0000001D0302103E0F24305E02154C5
:10383000401CB042FBDB30460022002121540B9992
:10384000C1F80880C1E900200FB0BDE8F08FBD1BB2
:103850006D1CDEE74A4600DA694206A800F082FAEB
:1038600006AB93E8070003AB83E8070050460A99CC
:1038700000F060FB8DE80700A0F500501F380090B5
:103880000398002D0ADD42F21F014A460844002336
:1038900003A90390684600F0C9FD09E0A0F50050B7
:1038A0004A461F38002303A90390684600F0D3FD61
:1038B0008DE807000004000C03D04FF0FF304108F2
:1038C00000E01046B8F1000F03D000220092154628
:1038D0001EE0751E05D400F0A7F9303262556D1E4A
:1038E000F9D5B3460122084302D000227F1C04E030
:1038F0002078302801D100227F1E002A099784D029
:103900001DE0112D07DA00F08FF9303262556D1C81
:1039100050EA0102F5D1084302D00098C8B10EE088
:103920000021681E05E0235C625C63542254401E43
:10393000491C8142F7DBAB46A81B401E09900020C2
:1039400004F80B000B98099AC0F80880C0E9002B16
:103950007AE711264FF0000857E72DE9F04F884627
:103960000446D21D22F0070191B0D1E90001CDE952
:103970000A0100F0A7FE02460B98C00F01D02D20CF
:1039800007E02068810701D52B2002E0202101EA11
:10399000C000032A099001D0072A05DB03464146EF
:1039A000204600F09FF90BE12078800601D5E06900
:1039B00000E00620B8F1650F814606D0B8F1660F29
:1039C00018D0B8F1670F70D131E00020B9F1110FB4
:1039D000009001DB112301E009F101030AAA01A90A
:1039E0000CA8FFF7E2FEDDE90C70002609F10105E5
:1039F000834647E001204B4600904FF000470AAA5B
:103A000001A90CA8FFF7D1FEDDE90DB00C995D46C8
:103A1000002610B909F101000D18B9EB050003D417
:103A2000C0F1FF3609F10105A5EB09002BE0B9F162
:103A3000010F01DA4FF001090020B9F1110F0090D8
:103A4000484601DD112300E003460AAA01A90CA89B
:103A5000FFF7ABFEDDE90C704D460026834620786B
:103A600000070AD4AB4500DA5D4601A8012D04DD4C
:103A7000411911F8011C302907D04F4502DA17F11E
:103A8000040F04DA012082460FE06D1EEEE7002FDE
:103A900002DCED1B3E4403E0781CA84200DD7D1CE7
:103AA000B81B00F1010A4FF000472078000703D44B
:103AB000AA4501DB4FF0FF3A0021B7F1004F0DF1AD
:103AC00043088DF8431024D002202B23002F01DA65
:103AD0007F422D230A21021EA0F1010000DC5FB10C
:103AE00097FBF1FC97FBF1F201FB1C7C17460CF1F4
:103AF000300C08F801CDEEE7A8F101000370218831
:103B0000090501D5452100E06521A0F1010800F873
:103B1000011C09980FA9A1EB0807FF1D00B10120A6
:103B2000411901EBEA70A1693844081A401EA061EE
:103B30002078C00602D42046AFF30080099828B14F
:103B4000D4E901219047206A401C20622078C006F9
:103B500022D52046AFF300801EE0002E04DBB345E3
:103B600002DD01A8805D00E03020D4E9012190470A
:103B7000206A401C2062761CAAF101005FEA000A5C
:103B80000AD100F049F8C0680168405CD4E901211D
:103B90009047206A401C2062281EA5F10105DCDC4C
:103BA00007E0D4E9012118F8010B9047206A401C76
:103BB0002062381EA7F10107F3DC2046AFF3008036
:103BC000032011B041E610B5436913B1AFF3008093
:103BD00001E0FFF7EFFC012010BD127800F1240195
:103BE0000A7000224A700122EDE711684FF0FF329F
:103BF000E9E70000074B70B50D467B4400F05FF825
:103C00000446284600F020F910B14FF0FF3070BD97
:103C1000204670BDCBD3FFFF0048704774010020E1
:103C2000004870475401002030B5B0F10A024FEA55
:103C3000900E71F100034EEA817EB0EB0E0061EB55
:103C400091014FEA101E4EEA017E10EB0E0041EB8F
:103C500011114FEA102E4EEA016E10EB0E0041EBEF
:103C600011214FEA104E4EEA014E10EB0E0041EBCF
:103C70001141401841F100014FEAD00040EA417083
:103C80004FEAD10110EB80054FEA810444EA9074B9
:103C900044EB01046D1944EB0404521BA3414FF0A3
:103CA000000348BF0A3200D530BD401C41F100017D
:103CB00030BD000001694A1C02610878704700B5F8
:103CC0008FB0CDE901310021059105497944CDE955
:103CD000031011466846FFF739FC0FB000BD000025
:103CE000E5FFFFFF2DE9F0411F460446032601686A
:103CF000072A01F4006004DB08B116A505E016A54B
:103D000003E008B115A500E015A521F01000206022
:103D1000A069C01EA0610FB1401EA0612046AFF394
:103D200000804FB1D4E9012138469047206A401CF9
:103D30002062C01C206206E0206AFAE7D4E9012173
:103D400015F8010B9047761EF8D22046AFF300809D
:103D5000BDE8F0814E414E006E616E00494E460056
:103D6000696E66002DE9F047814616468AB03548EF
:103D700078440DC88DE80D0032487844801C03ACAF
:103D80000DC884E80D0041F69B300844372190FBB4
:103D9000F1F290FBF1F5A5F1800501FB12041B3C4B
:103DA00002D56442012000E00020DFF898A08046A0
:103DB0000027FA44AAF1BE0A0EE0E0070AD0324614
:103DC000684607EB470101230AEB810100F043FB42
:103DD0008DE8070064107F1C002CEED1194F7F4442
:103DE000AE3F19E0E80715D007EB04100DF1180AF3
:103DF00090E80E008AE80E00C068F04201D19819E0
:103E000008903246012306A903A800F024FB03AB67
:103E100083E807006D10641C002DE3D14FF001030F
:103E200032466946B8F1000F03A802D000F0FEFA4E
:103E300001E000F010FBC9E90001C9F808200AB050
:103E4000BDE8F08730190000007B00F0800070476B
:103E500000487047540100207546FFF7F9FFAE4651
:103E600005006946534620F00700854618B020B586
:103E7000FDF756F9BDE820404FF000064FF000076F
:103E80004FF000084FF0000B21F00701AC46ACE802
:103E9000C009ACE8C009ACE8C009ACE8C0098D466F
:103EA000704710B50446AFF300802046BDE81040CF
:103EB000FCF79BB94FF0013C50F8042B51F8043B40
:103EC0009A4221D1A2EB0C03934313EACC1317D1EE
:103ED00050F8042B51F8043B9A4215D1A2EB0C0385
:103EE000934313EACC130BD150F8042B51F8043B45
:103EF0009A4209D1A2EB0C03934313EACC13DBD013
:103F00004FF00000704700BFD01A01BAB1FA81F13A
:103F100001F0180122FA01F0CB40C1F12001DBB21F
:103F2000C0B2C01A2CFA01F3D11A914311EAC3119D
:103F3000E6D170475FEA400C08BF91F0000F4FEAEE
:103F40008C234FEAC12243EA51514FEA1C5018BF5B
:103F500000F5F0404FEA300018BF41F000415FEA41
:103F60006C5C00F02980BCF1FF3F08BF40F080404E
:103F70007047130C06BF12044FF0100C4FF0000CEA
:103F8000130E04BF12020CF1080C130F04BF120130
:103F90000CF1040C930F04BF92000CF1020CD30F30
:103FA00004BF52000CF1010C11464FF00002A0F1C9
:103FB0001F00A0EB0C00704711F0004F08BF7047C6
:103FC00031F000413FF4D5AF0B0C06BF09044FF0B0
:103FD000100C4FF0000C0B0E04BF09020CF1080C82
:103FE0000B0F04BF09010CF1040C8B0F04BF8900F7
:103FF0000CF1020CCB0F04BF49000CF1010CCCF109
:104000002003A0EB0C0022FA03F302FA0CF241EABF
:10401000030100F10100704720F07F4C80EA0300AB
:1040200023F07F47ACEB070303F57C5300F000401F
:1040300003F1FF032DE980494FEA154B09B44FEA1C
:10404000144325EA0B4E24EA03480FF2042606EB3C
:10405000132749083E785FEA320203FB0667C7F57B
:10406000000707FB06F64FEA54374FEAD64606F13B
:10407000020607FB066CCCF1005C4FEA1C472CEAF9
:10408000074C07FB06F40CFB06F504EB15464FEA5C
:10409000961634BF00204FF000404FEAD13706FBA0
:1040A00007FC4FEA1C4C0CFB0BF7D21B03FB0CF775
:1040B00061EB07010CFB0EF7B0EB074072EB174208
:1040C0000CFB08F734BFA2EB0742B2EB074261EBEF
:1040D00017414FEA0C444FEA910706FB07FC4FEAF1
:1040E0001C4C0CFB0BF7B0EBC74072EB573203FBD9
:1040F0000CF734BFA2EBC742B2EBC74261EB5731BA
:104100000CFB0EF7B0EBC70072EB57720CFB08F715
:1041100034BFA2EBC702B2EBC70261EB5771039F3A
:104120004FEA816141EA921104EBCC044FEAD137A6
:104130004FEA826206FB07FC42EA90124FEA806077
:104140004FEA1C4C0CFB0BF7D21B03FB0CF761EB8B
:1041500007010CFB0EF7B0EB074072EB17420CFBAC
:1041600008F734BFA2EB0742B2EB074261EB1741FD
:104170004FEA8C554FEA910704EB9C2406FB07FCA1
:104180004FEA1C4C0CFB0BF7B0EBC74072EB5732FD
:1041900003FB0CF734BFA2EBC742B2EBC74261EBA3
:1041A00057310CFB0EF7B0EBC70072EB57720CFBEC
:1041B00008F734BFA2EBC702B2EBC70261EB57713D
:1041C00015EB4C254FEA816141EA92114FEA826278
:1041D0004FEAD13742EA901206FB07FC44F1000493
:1041E0004FEA80604FEA1C4C0CFB0BF7D21B03FB21
:1041F0000CF761EB07010CFB0EF7B0EB074072EB1D
:1042000017420CFB08F734BFA2EB0742B2EB0742A0
:1042100061EB174115EB1C154FEA813141EA9241E0
:104220004FEA823242EA90424FEA80304FEA0C76FF
:1042300044F1000448EA03434EEA0B484FF0000EF5
:10424000B2EB080C71EB030724BF624639464EEB14
:104250000E0E4FF0000B0018524149414BEB0B0B77
:10426000B2EB080C71EB03077BF1000B24BF624635
:1042700039464EEB0E0E4FF0000B001852414941EB
:104280004BEB0B0BB2EB080C71EB03077BF1000B54
:1042900024BF624639464EEB0E0E51EA020718BFA4
:1042A00046F0010616EB0E7655F1000254F10001BE
:1042B00003D5BDE88901BDE80088BDE88901BDE8F6
:1042C0000048B619524141EB0101A3F101037047C7
:1042D00080807F7E7D7C7B7A797877767675747343
:1042E000727171706F6E6E6D6C6C6B6A6A69686802
:1042F000676666656464636362616160605F5F5E98
:104300005E5D5D5C5C5B5B5A5A595958585757560D
:104310005655555554545353525252515150505072
:104320004F4F4F4E4E4D4D4D4C4C4C4B4B4B4A4AC4
:104330004A49494948484847474747464646454508
:104340004544444444434343434242424241414141
:10435000002B9C4630D477002BD01CB54FEA370792
:1043600003B44FF010004FF01001BAF1000F06D067
:10437000BCF1000FDCBF40F0080040F008014FF036
:1043800000000FBCBDE810400BF1010BBBF1010FA9
:1043900008BF5FEA170722BF12F1010211F1010104
:1043A0004FF0004143F1000300F0004043EA0000F9
:1043B0007047F9D35708D0E746EA064613F1400F95
:1043C0004FEA16461FDD13F1200FDFBF16430A46E2
:1043D000002120335B42BED0C3F1200746EA0646E7
:1043E00002FA07F74FEA164646EA0706C3F1200726
:1043F00022FA03F201FA07F721FA03F14FF0000362
:1044000042EA0702A7E746EA020646EA06464FEAFC
:10441000164646EA0106BCBF46EA0646360C4FF091
:1044200000034FF000024FF0000194E72DE9804CAB
:104430009A46934670B491E8380007C831EA400CB8
:1044400048BF34EA430C03D5FFF7E6FDFFF780FFD2
:10445000F0BCBDE8008C2DE9804C9A46934670B4C0
:1044600091E8380007C810F0804F08BF13F0804F64
:1044700003D100F005F8FFF76BFFF0BCBDE8008C3E
:1044800020F07F4780EA030023F07F4C07EB0C030A
:10449000A3F57C5300F00040A3F1FE0392F0000F5F
:1044A00000F0B38095F0000F00F077802DE901490E
:1044B0004FEA11404FEA144621EA004800FB06FC8F
:1044C00024EA064708FB06F607FB08F800FB07F797
:1044D00018EB06484CEB164C4FEA124B18EB07480A
:1044E0004FEA15464CEB174022EA0B4E0BFB06FC3D
:1044F00025EA06470EFB06F607FB0EFE0BFB07F749
:104500001EEB064E4CEB164C4FF000061EEB074E12
:104510004CEB174B18EB0B0840F1000018EB0E0B9F
:1045200058EB000840F100008F1A4FF000013CBF2B
:10453000C943661B14BFB5EB040C00213CBFC94343
:10454000F61B4FEA17444EEA8E0E27EA04454FEA5F
:104550001C4704FB07622CEA074C05FB07F70CFB22
:1045600005F604FB0CFC16EB074642EB174216EB74
:104570000C4642EB1C421BEB060658EB0202414183
:1045800046EA9E0601D5BDE80189B619524141EBC4
:104590000101A3F10103BDE801894FEA14454FEA87
:1045A000114724EA054621EA074C05FB07F406FB00
:1045B00007F70CFB06F105FB0CFC11EB074144EB84
:1045C00017444FEA124711EB0C4144EB1C4422EA1A
:1045D000074C05FB07F206FB07F70CFB06F605FB8D
:1045E0000CFC16EB074642EB174216EB0C4642EB6F
:1045F0001C456A1854F1000148BF7047B619524172
:1046000041EB0101A3F10103704795F0000F37D092
:104610004FEA11424FEA144721EA024624EA074CC6
:1046200002FB07F106FB07F70CFB06F402FB0CFC90
:1046300014EB074441EB17414FEA154714EB0C44C8
:1046400041EB1C4125EA074C02FB07F506FB07F787
:104650000CFB06F602FB0CFC16EB074645EB174578
:1046600016EB0C4645EB1C42121951F1000148BFF4
:104670007047B619524141EB0101A3F101037047A4
:104680004FEA14454FEA114724EA054621EA074C50
:1046900005FB07F106FB07F70CFB06F24FF00006DF
:1046A00005FB0CFC12EB074241EB174112EB0C42ED
:1046B00051EB1C4148BF7047921841EB0101A3F137
:1046C00001037047490050EAC12018BF04204A0D79
:1046D00018BF40F0010040F2FF72B2EB515F08BF1B
:1046E00040F00200012808BF052070472DE9F04185
:1046F00006460F4600F0A8FB041E0D4618BF012019
:10470000284320F00040C0F17F6000F1E040C00F7E
:104710000ED0301C18BF0120384320F00040C0F1FB
:104720007F6000F1E040C00F04BF0120FEF7DDFF15
:1047300020462946BDE8F08110B500290AD0087846
:10474000002807D005487844FFF7B4FB002801D0C3
:10475000002010BD0248784410BD0000960F0000F4
:104760008E0F000021F00042A2F16052B2F5801FCE
:1047700001F0004328BFD2F17F6C0BD95FEA001C27
:1047800043EAC20242EB507018BF704728BF20F0C6
:1047900001007047B2F5801FBCBF184670474FEA52
:1047A000410C1CF5001F02D2084600F022BF70B574
:1047B00000F0F6FA00000089FFF7F6BF4FF0004066
:1047C000A0F580007047000010B591EA030F48BFC4
:1047D00083F0004300F12684841A71EB030C05D2A8
:1047E000121943EB0C03001B61EB0C01DFF824E111
:1047F0004FEA1154A4EB135C1EEA430F18BF9EEA64
:10480000445F73D023EA0E03DCF1200E21EA045149
:1048100043F4801332D322FA0CFE10EB0E0023FA7D
:104820000CFE41EB0E01CCF1200E03FA0EFE10EB54
:104830000E0051F10001B1F5801FCCF1200E32D2F3
:1048400001EB045112FA0EF2BDE8104058BF704758
:10485000401C38BF5FEA420218BF7047002814BFEF
:1048600020F0010041F100014FEA410313F5001F60
:1048700038BF7047A1F1C04100F0E0BA012A43EB14
:104880000302ACF1200CDCF11F0E32BF4FF0000E22
:1048900023FA0CF310EB030041EB0451B4EB115F6E
:1048A000D0D0A1EB045101F5801149085FEA300036
:1048B00001EB04510ED350F1000038BF12FA0EFE86
:1048C00008D1BDE81040C9E7401C38BF5FEA42028A
:1048D000CAD1C3E7BDE810404FEA410313F5001FFA
:1048E00038BF7047A1F1C04100F0A8BA9EEA445F0A
:1048F00008D011EA5E0FBDE8104004BF01F000418E
:1049000000207047BDE8104070B500F049FA00BFC4
:1049100064FBBE3E0000E0FF2DE9C04130B4DFF88B
:10492000A0C23CEA111418BF3CEA131400F0EC805A
:1049300081EA03051CEA111444EAD57418BF1CEA85
:10494000131500F0C780A4EB05044FF0004545EABD
:10495000C12145EAC32341EA505143EA525304F1CD
:104960007F74994204F500344FEAC0204FEAC22216
:1049700008BF904200F09C804FEA13650FF240168A
:10498000765D4FEA134506FB05F7C7F1807706FB16
:1049900007F74FEAD737A7FB03687642C8F5803898
:1049A000A7FB06CE38BFA8F1010807FB08E64FF0C9
:1049B000000EA6FB028CE6FB03CEDCF1000CCEF170
:1049C000004E38BFAEF1010EA6FB0C584FF00007A9
:1049D0004FF00005E6FB0E87A1FB08C6A0FB07CE43
:1049E00016EB0E0645F10005E1FB076515F1E04EFB
:1049F0007EBFA4F580345FEA46066D4116F180075C
:104A000045F100054FEA17274FEA066647EA0567B2
:104A1000A6F1DE46B6F1805F4FEA15251FD938466C
:104A200024F0010C05EBC471BCF1FE6F01EB0C111D
:104A300002D8F0BCBDE8008124425CBF01F5801EB5
:104A40009EEAC47F02D4F0BCBDE80081244238D481
:104A5000F0BCA1F1C041BDE8004100F0EFB94FEA60
:104A6000D22242EA43524FEAD323A7FB02864FEAFF
:104A7000D02040EA415007FB03661EEA0E0F4FEAC2
:104A8000D12105FB026658BFA6EB0056B6EB0056D7
:104A90004FEA520E4EEAC37E18EB0E0E56EB530E43
:104AA000BDD518EB02085E417F1C55F10005B6E745
:104AB0004FF480154FF000074FF000064FF000084C
:104AC000ADE7F0BC4FF0000001F1C04101F0004142
:104AD000BDE8008111EA0C1F0CEA131500D00CE0B0
:104AE00013EA0C1F00F025804FF00000F0BC81EAB3
:104AF000030101F00041BDE80081F0BCBDE80041C8
:104B000081EA030100F09AB9F0BCBDE8004170B53C
:104B100000F046F9097EFC3E00F007B881EA030187
:104B20004FF0000001F00041704781EA030100F0FE
:104B300085B9F0BCBDE800414FF000002149704745
:104B4000FFFDFBF9F7F5F4F2F0EEEDEBE9E8E6E452
:104B5000E3E1E0DEDDDBDAD8D7D5D4D3D1D0CFCDD9
:104B6000CCCBCAC8C7C6C5C4C2C1C0BFBEBDBCBB12
:104B7000BAB9B8B7B6B5B4B3B2B1B0AFAEADACAB0D
:104B8000AAA9A8A8A7A6A5A4A3A3A2A1A09F9F9EE7
:104B90009D9C9C9B9A999998979796959594939399
:104BA000929191908F8F8E8E8D8C8C8B8B8A898930
:104BB00088888787868585848483838282818180B3
:104BC0000000FF070000F87F4FEA41034FEA53530C
:104BD000A3F58063D3F11E03C8BFD3F1210C0CDD14
:104BE0004FF0004242EAC12242EA505232FA03FC3C
:104BF0008CEAE17CACEBE1707047102BC4BF002065
:104C0000704703F5787CBCF1FF3F04D06FF00042A1
:104C100082EA2100704770B500F0C2F84992248002
:104C200000207047F2E7B0FA80F310FA03F10AD0DF
:104C3000C3F11D0303F580634FEA41504FEA03526D
:104C400002EBD12170474FF000007047DFF848C1F8
:104C500070B51CEA111E1EBF1CEA13159EEA0C0F4C
:104C600095EA0C0F00F06F8081EA030423EA4C13ED
:104C70004EEAD47E21EA4C1141F4801143F48013B2
:104C8000AE44A1FB024CA0FB0365AEF17F7E36195A
:104C900055EB0C05A1FB034C4CF10003A0FB021CDF
:104CA00016EB0C06654153F10003094218BF46F0AC
:104CB000010613F4007F0BD14FEA03314FEA0530B0
:104CC000340341EA155140EA16506FF003020AE03E
:104CD0004FEAC3214FEAC520F40241EA555140EAA8
:104CE00056506FF0020202EB2E4201EB025585EAAC
:104CF000CE710AD05FEA440C18BF24F0004450F192
:104D0000000041F1000120EAD47040F2FE7C6245CF
:104D100000D270BDA84214BF4FF080444FF0404411
:104D2000002E08BF0024BEF1806FA8BFA1F1C041D2
:104D3000BDE8704080F282804FF0000001F1C04178
:104D400001F0004170479EEA0C0F0CEA131518BFE2
:104D500095EA0C0F06D04FF0000081EA030E0EF02A
:104D6000004170BD00F01CF88900013E00F007B85A
:104D700000F009B84FEA430C5FEA5C5C08D081EAB6
:104D8000030100F05BB84FEA410C5FEA5C5CF6D1CE
:104D90004FF00000014970470000FF070000F87F56
:104DA0000EF1020E2EF0030E5EF8046B364205D4AF
:104DB000012A43EB030515F5001F12D8012841EB2A
:104DC000010C1CF5001F0CD80ED14FEAD17C15F553
:104DD000001F0CEB4C0C0CF1020C08BF4CEBD37C0D
:104DE00004E04FF0080C01E04FEAD37C0CEB4C05DB
:104DF00026FA05F606F00706B6F1040C06D20EEB0D
:104E0000860CBDE870404CF0010C6047DFE80CF008
:104E1000090B02024FF000414FF00000A1F5002104
:104E200070BD19461046012851EB010418BFD4F596
:104E3000001484BF002001F0004170BD0808A0F5F7
:104E400000114FEA310170472DE9F04101F5801C56
:104E5000BCF5001FC0F2C3804FEA115C21EA0C517F
:104E60000CF1FD0C41F480115FEA5C0C0CF5C07C88
:104E700001D3400049413DA4890241EA9051870293
:104E80008E0E0A0CA45D04FB04F602FB06F6C6F1C6
:104E90004046A4FB0662F60D46EA422606FB06F4EF
:104EA000A4FB01235242C3F1404338BF5B1EA6FB63
:104EB00002420024E6FB0324D20B42EA4446A6FB4E
:104EC0000623A1FB02E2A3FB07E4A4184FF00002B3
:104ED00052F10002E3FB01426442C2F1404E38BF8E
:104EE000AEF1010EA6FB04234FF00002E6FB0E32EA
:104EF000A2FB03464FF00004B61954F10004E2FB94
:104F00000264A1FB06E6A4FB07E816EB08064FF0D7
:104F1000000858F10008E4FB01687642C8F14058E7
:104F200038BFA8F10108A2FB06E4A3FB08E52D1990
:104F30004FF0000454F10004E2FB0854A1FB05E625
:104F4000A7FB04E818EB06084FF0000656F1000630
:104F5000E1FB048618F1200556F10006A809A8F126
:104F60001B08B10908F03F08B8F10A0F40EA866053
:104F70001CD901EB0C51BDE8F08100BFFCF5EEE857
:104F8000E2DDD8D3CFCBC7C3C0BDB9B6B4B1AEACE8
:104F9000A9A7A5A3A19F9D9B9A9896959392908F60
:104FA0008D8C8B898887868584838281A0FB0068AD
:104FB00000FB01F208EB4208B8EB872807D534184C
:104FC00058EB0104D5D5401C51F10001D1E7341A4A
:104FD00078EB0104CDD4401E71F10001C9E75FEA0E
:104FE0004C0C5FEA9C5C0DD105D34FF0000001F042
:104FF0000041BDE8F081BDE8F04170B5FFF7D0FE9B
:105000006DDBFFBEBDE8F0414FF000000049704786
:105010000000F87F10B591EA030F48BF83F000430A
:105020003FF5DAAB841A71EB030C07D212198CF03E
:10503000004C43EB0C03001B61EB0C01DFF8A4E117
:105040004FEA1154A4EB135C1EEA430F18BF9EEA0B
:10505000445F00F0B08023EA6E03524221EA04511B
:10506000C3EB6E0338BF5B1EDCF1200E25D322FAA2
:105070000CFE10EB0E0043FA0CFE41EB0E01CCF1DE
:10508000200E03FA0EFE10EB0E0051F10001CCF1E0
:10509000200E29D412FA0EF201EB0451BDE81040A3
:1050A00058BF7047401C1CBFB2F1004F704700282A
:1050B0000CBF491C20F00100704712EB020E43EBBD
:1050C000030218BF4FF0010E4EEA4202ACF1200C71
:1050D000DCF11E0E54D943FA0CFE10EB0E0051F118
:1050E000FF31CCF11E0ED5D50EF1010E12FA0EFED7
:1050F000404141EB010101EB445C5FEA5C5C10D98B
:1051000010EBDE7001EB045138BFBEF1004FBDE87B
:10511000104018BF704700280CBF491C20F0010048
:10512000704730D24FEAD42C11F5001124F40064FA
:105130001BD0B1FA81F20B3AA41AA41ED2F12003BB
:10514000914030FA03F31943904001EBCC71002CED
:1051500001EB0451BDE81040A8BF704701F1C04108
:105160004FF0000001F000417047B0FA80F310FAF0
:1051700003F100D110BDE41A173C4805C90AE4E761
:1051800001EB045110BD491001EB0451BDE8104082
:105190004FEA300002E04FF0000170474A0008BFBC
:1051A0000042F8D0B2F5001F28BF704701F000415F
:1051B0004FF0000070479EEA445F07D011EA5E0F8F
:1051C000BDE8104004BF002100207047BDE810403A
:1051D00070B5FFF7E5FD00BF40DFF63E83F000410C
:1051E000104670470000E0FF43004FEAD30C4FEA3F
:1051F0003C0C43401FBF40070CF1605113F0FE4FC1
:1052000070471CF0006F03D100200CF00041704784
:105210000CF0004343EA507010B540EACC0000F0B7
:10522000A2F900BF000000924FEA0001FFF706BE9E
:105230004FF000414FF00000A1F500217047000041
:105240004FF47F0C1CEAD0121EBF1CEAD11392EA65
:105250000C0F93EA0C0F00F0858090EA010F48BF15
:1052600042F4807240F4000C41F400002CF07F41C5
:1052700020F07F4000B58142A2EB03020FF2081C30
:10528000ACEB504EC0F100009EF800E04FEA4E0E2D
:1052900000FB0EFC38BF49004FEA2C1C02F5FA0255
:1052A0000CFB0EF34FEACE1E4FEA112C4FEAC12140
:1052B0000EEB635E42EB22420EFB0CFC4FEA1C53EA
:1052C00000FB03114FEA112C4FEA01310EFB0CFCDD
:1052D0004FEADC4C00FB0C11C14228BF09184CEB13
:1052E00003335DF804EB10EB410143EBC250B2F520
:1052F0007C0F38BF704729D512F0F00F1CBF00F1AA
:10530000C04000F00040704700818283848586871A
:1053100088898B8C8D8E8F919293959697999A9C74
:105320009D9FA0A2A3A5A7A8AAACAEB0B2B3B5B7E3
:10533000B9BCBEC0C2C5C7C9CCCED1D4D7D9DCDFB9
:10534000E2E6E9ECF0F3F7FAFE0000004FEA400C69
:105350000CF1807CBCF17E4F28BF7047B0F1C0409B
:1053600000F047B990EA010F0CEAD11348BF42F4AC
:105370008072624538BF634507D213F47F0F16D0A1
:1053800080EA010000F00040704710B500F0EBF833
:10539000097EFC3E00F005B880EA010000F0004004
:1053A000704780EA010000F0004000F022B912F4DA
:1053B0007F0F04BF0248704780EA010000F019B96E
:1053C0000000C07F41000B0ED3F19E0208D950F4BB
:1053D00000034FEA032323FA02F048BF404270471C
:1053E00010B500F0C0F800BF49922480002070473B
:1053F0006FF0004282EA200070470000C10DD1F139
:105400009E0206DB4FEA002343F0004323FA02F03A
:105410007047004207D54FEA4001B1F1FE4F02D27A
:105420004FF00000704710B500F09DF849922480BD
:10543000002070476FEA200070470000B0FA80F348
:1054400010FA03F2C3F19D030AD0D90501EB122033
:10545000530638BF704700F1010008BF20F001007B
:10546000704700004FF47F0C1CEAD0121EBF1CEAEC
:10547000D11392EA0C0F93EA0C0F00F0478090EAE8
:10548000010F48BF42F480724FF0004C4CEA0020FC
:105490004CEA012102EB0302A0FB0113A2F500027A
:1054A000002918BF43F001035B0028BF4FEA330314
:1054B00042EB22425FEA132C4CEBC2502EBFBCEBF6
:1054C000436FB2F57C0F70474FEA036CBCF1004F9D
:1054D00008BF20F00100B2F57C0F38BF70470BD534
:1054E00082F0FF0212F5803FC8BF704700F1C04054
:1054F000D8BF00F00040704700F5000C5FEA4C0C8C
:1055000048BF7047B0F1C04000F073B890EA010F97
:105510000CEAD11348BF42F48072624538BF63453C
:1055200004D280EA010000F00040704710B500F09E
:105530001AF800BF8900013E00F007B800F009B872
:105540005FEA410C5FEA1C6C08D080EA010000F0C1
:1055500050B85FEA400C5FEA1C6CF6D14FF0004097
:10556000A0F5800070470EF1020E2EF0030E5EF8DB
:10557000044B244204D44FEA4102B2F17F4F11D8C8
:105580004FEA4003B3F17F4F0CD80ED14FEAD07CE5
:10559000B2F17F4F0CEB4C0C0CF1020C08BF4CEB42
:1055A000D17C04E04FF0080C01E04FEAD17C0CEB19
:1055B0004C0324FA03F404F00704B4F1040C06D2FB
:1055C0000EEB840CBDE810404CF0010C6047DFE8A6
:1055D0000CF0070802024FF00040A0F5800010BD5B
:1055E0000846420018BFD2F1807288BF00F0004028
:1055F00010BDFF2141EAD050C0057047FEF7ADB99C
:1056000030313233343536373839414243444546F8
:1056100040305800303132333435363738396162F2
:10562000636465664030780002400000000000A01E
:105630000000000005400000000000C8000000005D
:105640000C4000000000409C0000000019400000D9
:105650000020BCBE0000000034400000BFC91B8E0B
:1056600000000004B5400000504BCFD06607E2CFE9
:10567000010000006C4100003E8251AADFEEA73419
:1056800001000000D9420000DCB5A0E23A301F97CB
:10569000FFFFFFFFB4450000FD25A0C8E9A3C14FEF
:1056A000FFFFFFFFFF3F0000000000800000000040
:1056B000FF3F00000000008000000000F8560008D6
:1056C000000000208C0000006C01000884570008D6
:1056D0008C0000202C070000880100081C0000003E
:1056E00043000000F8FFFFFF0C0000000E00000068
:1056F0000F0000002E00000000A24A04000000007D
:105700000000000001020304060708090001000070
:105710000000000000000000000000000000000089
:105720000000000000000000000000000000000079
:105730000000000000000000000000000000000069
:105740000000000000000000000000000000000059
:1057500000000000000000000000803E560EC93F1F
:105760000000000000000000000000000000000039
:1057700000000102030401020304060708090204F1
:045780000608000017
:0400000508000131BD
:00000001FF
