:020000040800F2
:1000000088CA00202D0200083102000833020008CF
:10001000350200083702000839020008000000001D
:100020000000000000000000000000003B0200088B
:100030003D020008000000003F02000841020008E5
:10004000430200084302000843020008430200087C
:10005000430200084302000843020008430200086C
:10006000430200084302000843020008430200085C
:10007000430200084302000843020008430200084C
:10008000430200084302000843020008430200083C
:10009000430200084302000843020008430200082C
:1000A000430200084302000843020008430200081C
:1000B00043020008417F0008717F000843020008E6
:1000C00043020008430200084302000843020008FC
:1000D00043020008C99000084D910008430200083F
:1000E00043020008430200084302000843020008DC
:1000F00043020008430200084302000843020008CC
:1001000043020008FD640008AD7F000843020008B8
:1001100043020008430200084302000871800008FF
:10012000430200084302000843020008430200089B
:1001300000F002F800F06BF80AA090E8000C82448E
:100140008344AAF10107DA4501D100F060F8AFF26B
:10015000090EBAE80F0013F0010F18BFFB1A43F0A5
:1001600001031847D8DE0000F8DE00000A444FF013
:10017000000C10F8013B13F0070408BF10F8014B06
:100180001D1108BF10F8015B641E05D010F8016B4B
:10019000641E01F8016BF9D113F0080F1EBF10F8AF
:1001A000014BAD1C0C1B09D16D1E58BF01F801CBD2
:1001B000FAD505E014F8016B01F8016B6D1EF9D555
:1001C0009142D6D37047000000230024002500266A
:1001D000103A28BF78C1FBD8520728BF30C148BFAA
:1001E0000B607047642900F0AF80752900F0AC8087
:1001F000782900F01081632900F05783732900F0FB
:100200005C83002070471FB51FBD10B510BD00F006
:10021000D1FB1146FFF7F7FF09F06CFD00F0EFFB93
:1002200003B4FFF7F2FF03BC09F089F9084800475F
:10023000FEE7FEE7FEE7FEE7FEE7FEE7FEE7FEE796
:10024000FEE7FEE703480449024A044B70470000FA
:100250003101000888C6002088CA002088C6002016
:10026000704700000FB4044910B503AA029800F0CB
:1002700029FB10BC5DF814FB880000200FB41CB5EE
:10028000084B06AA7B4469460090059800F0EBFAFB
:1002900004460020694600F0F9FA20461CBC5DF8CF
:1002A00014FB00000506000070B50446856900686F
:1002B000C10601D5302600E02026C00707D070BD5A
:1002C000D4E9012130469047206A401C20626D1E0F
:1002D000F6D570BD70B5044685690078C00707D1B2
:1002E00070BDD4E9012120209047206A401C206283
:1002F0006D1EF6D570BD70B50C460546012A05D0B9
:100300002878800600D5EA69002302E0012305E091
:100310005B1C934202D2E05C0028F9D1A869E61880
:10032000C01AA861286A184428622846FFF7BCFF53
:1003300004E0D5E9012114F8010B9047B442F8D349
:100340002846FFF7C7FF70BD2DE9F041064600249F
:1003500010687529314616A510D0AFF3008000282B
:1003600002DA404213A507E031688A0701D512A5D9
:1003700002E0490704D511A5012401E0AFF3008094
:1003800000210A2206F1240709E0B0FBF2FCB0FBD1
:10039000F2F302FB1C00303078541846491C002848
:1003A000F3D123462A463046BDE8F04100F0FDB9BE
:1003B000000000002D0000002B00000020000000C5
:1003C000F0B40D460188090502D5214C7C4402E0B9
:1003D0001F4C7C440E34002100F1240608E002F09A
:1003E0000F071209E75D42EA03721B097754491CA3
:1003F00052EA0307F3D102780023120704D5702DC7
:1004000006D009B1022311342246F0BC00F0CDB968
:1004100001231034F8E770B504460D4621461068F4
:10042000AFF30080024629462046BDE87040002315
:10043000C6E7D21D22F00703D3E90023C0E7036813
:10044000126843F0200303600823C3610023B7E769
:10045000FCDA00002DE9F05F894604464FF0000AFF
:10046000DFF874B1FB44C0F820A02046E16888475B
:10047000002874D0252806D0D4E901219047206AAD
:10048000401C2062F1E700265F462046E16888476D
:100490002028054607DB312D05D2781910F8200CED
:1004A00008B10643F1E7B00701D526F00406C4F809
:1004B0001CA00027C4F818A02A2D09D0284609F04E
:1004C00037F838B304EB8708303DC8F8185019E006
:1004D00059F8041B204604EB87029161E1688847C4
:1004E000012F054618D1E069002820DA26F0200601
:1004F0001DE0D8F8180000EB800005EB4000303814
:10050000C8F818002046E1688847054609F010F849
:100510000028EED1012F0AD02E2D08D12046E16807
:1005200088477F1C0546022F46F02006C4DBA069E1
:10053000002803DA404246F00106A061F00701D02E
:1005400026F010066C2D0BD0682D09D04C2D39D01B
:100550006A2D35D0742D35D07A2D33D016E038E0A1
:10056000E1682F4620468847B842054609D16C2FDE
:1005700026D04FF48060E168064320468847054650
:1005800004E06C2F1AD04FF4807006430DB3A5F130
:100590004100192802D8203546F400664A4629460B
:1005A000204626604E46FFF71DFE80B101280BD085
:1005B000F61D26F0070000F1080956E74020E4E7A1
:1005C0008020D8E70020D6E706F104094DE7284649
:1005D00052E7206ABDE8F09F8CDA000030B505468E
:1005E0000B462A4613F8014B12F8010B08B1A04242
:1005F000F8D01CB1002802D06D1CF1E7284630BDB0
:1006000010B5431C02E010F8011B71B18107FAD14B
:100610004FF0013202C88C1A8C4314EAC211F9D08F
:10062000C01A0A0603D0C01E10BDC01A10BD0A04AD
:1006300001D0801E10BD0902FCD0401E10BD032A4F
:1006400040F2308010F0030C00F0158011F8013BEF
:10065000BCF1020F624498BF11F801CB00F8013BD6
:1006600038BF11F8013BA2F1040298BF00F801CB9A
:1006700038BF00F8013B11F0030300F03581083A60
:10068000C0F0088051F8043B083A51F804CBA0E8C8
:100690000810F5E7121D5CBF51F8043B40F8043B1D
:1006A000AFF30080D20724BF11F8013B11F801CB52
:1006B00048BF11F8012B24BF00F8013B00F801CB23
:1006C00048BF00F8012B70474FF000020429C0F02A
:1006D000128010F0030C00F03B81CCF1040CBCF153
:1006E000020F18BF00F8012BA8BF20F8022BA1EBC6
:1006F0000C0100F02DB95FEAC17C24BF00F8012B8A
:1007000000F8012B48BF00F8012B70474FF0013C67
:1007100050F8042B51F8043B9A4221D1A2EB0C0370
:10072000934313EACC1317D150F8042B51F8043B30
:100730009A4215D1A2EB0C03934313EACC130BD1CD
:1007400050F8042B51F8043B9A4209D1A2EB0C0358
:10075000934313EACC13DBD04FF00000704700BF87
:10076000D01A01BAB1FA81F101F0180122FA01F0B0
:10077000CB40C1F12001DBB2C0B2C01A2CFA01F3A8
:10078000D11A914311EAC311E6D1704770477047FF
:100790007047704710B500F001F9006810BD10B542
:1007A000044600F0FBF8046010BD2DE9F0470D464B
:1007B00099469246044600F124080168880604D54B
:1007C000E06921F01001216000E00120A84201DD74
:1007D000471B00E00027A1697A1902EB0900081AFB
:1007E000A0612078C00602D42046FFF75DFD0026F8
:1007F00008E0D4E901211AF806009047206A401C5D
:10080000761C20624E45F4DB2078C0060AD52046CF
:10081000FFF74AFD06E0D4E9012130209047206A25
:10082000401C2062381EA7F10107F4DC07E0D4E980
:10083000012118F805009047206A401C2062281EFC
:10084000A5F10105F3DC2046FFF744FD2078000602
:1008500002D50220BDE8F0870120FBE701694A1CB0
:1008600002610878704700B58FB0CDE901310021F1
:10087000059105497944CDE9031011466846FFF713
:10088000E9FD0FB000BD0000E5FFFFFF0A6802F8B8
:10089000010B0A60704710B5436913B1AFF30080D4
:1008A00001E0FFF728FD012010BD127800F12401BE
:1008B0000A7000224A700122EDE711684FF0FF3202
:1008C000E9E70000074B70B50D467B44FFF7CBFF0F
:1008D0000446284600F066F810B14FF0FF3070BDB6
:1008E000204670BDBF93000010B5203AC0F00B80C9
:1008F000B1E81850203AA0E81850B1E81850A0E824
:100900001850BFF4F5AF5FEA027C24BFB1E818507D
:10091000A0E8185044BF18C918C0BDE810405FEAED
:10092000827C24BF51F8043B40F8043B08BF704769
:10093000D20728BF31F8023B48BF11F8012B28BF6E
:1009400020F8023B48BF00F8012B70474FF000022F
:1009500000B5134694469646203922BFA0E80C50B5
:10096000A0E80C50B1F12001BFF4F7AF090728BF90
:10097000A0E80C5048BF0CC05DF804EB890028BF0C
:1009800040F8042B08BF704748BF20F8022B11F035
:10099000804F18BF00F8012B7047000000487047D7
:1009A00024C60020007B00F080007047004870479C
:1009B00024C600207546FFF7F9FFAE4605006946DC
:1009C000534620F00700854618B020B5FFF73AFCE3
:1009D000BDE820404FF000064FF000074FF0000840
:1009E0004FF0000B21F00701AC46ACE8C009ACE8C1
:1009F000C009ACE8C009ACE8C0098D46704710B525
:100A00000446AFF300802046BDE81040FFF708BC65
:100A100010B501F019FC10BD70B506460C46154620
:100A200008E03046721C96B200F007F804F8010B9B
:100A3000681E85B2002DF4D170BD70B50446002645
:100A400001F0B4FC2546E11704EB11610912A02264
:100A500002EB4101C8B201F075FC01F0F3FCE117B3
:100A600004EB11610912A4EB0121C8B201F06AFC88
:100A700001F0E8FC01F09AFCA12001F063FC01F018
:100A8000E1FC002001F026FC064601F0B5FC3046F2
:100A900070BD70B505460C46164606E0217828461E
:100AA00000F009F8681C85B2641C301EA6F1010133
:100AB0008EB2F3D170BD70B504460E4601F076FCDF
:100AC0002546E11704EB11610912A02202EB410156
:100AD000C8B201F037FC01F0B5FCE11704EB11617D
:100AE0000912A4EB0121C8B201F02CFC01F0AAFC10
:100AF000304601F027FC01F0A5FC01F07DFC0A2046
:100B000008F092FD70BD00002DE9F0418CB0002787
:100B10004FF001080125FEE0B8F1010F06D0B8F151
:100B2000020F52D0B8F1030F4ED183E0781CC7B248
:100B30004FF6FF7000907A480288A02364210020BD
:100B400002F018F92A4677A102A8FFF797FBF020D8
:100B5000102302AA64210090002007F071F905F02B
:100B60000BFB04466CBB002701207249086064201F
:100B700008F05AFD284605F0CDFA044600206E49DB
:100B8000C1F8A001CCB94FF6FF700090644802880C
:100B9000A0237821002002F0EDF8F020102367A2B6
:100BA00078210090002007F04BF9681CC5B2052D94
:100BB0000ADB00254FF0020806E0204607F05EF849
:100BC00002E0204607F05AF894E04FF6FF700090DC
:100BD00053480288A0236421002002F0CBF8F020C3
:100BE000102359A264210090002007F029F905F094
:100BF0007FFB0446A4B94FF6FF7000904848028876
:100C0000A0237821002002F0B5F8F020102352A292
:100C100078210090002007F013F94FF0030804E05A
:100C20004FF00008204607F029F84FF4966008F0CE
:100C3000FBFC5FE04FF6FF70009039480288A0236C
:100C40006421002002F096F8F020102347A26421CE
:100C50000090002007F0F4F8F02010234AA2782139
:100C60000090002007F0ECF800BF00F0F1FF06460E
:100C700049480188B142F8DD3146012005F064FBA6
:100C8000044684BB4FF6FF70009025480288A023DD
:100C90006421002002F06EF8F02010233FA278219A
:100CA0000090002007F0CCF8404805F08BFB1020A6
:100CB0000090394800883D490988421A0323502191
:100CC000382004F06DFE40F2DC5008F0ADFC4FF629
:100CD000FF70A023F02264210090002002F04AF867
:100CE0000CB0BDE8F081FFE74FF00008204606F0A9
:100CF000C5FF00BF00BFC82008F096FC142F0ADB18
:100D00004FF6FF70009006480288A023642100205F
:100D100002F030F800E0FFE600BF00BFE0E70000AF
:100D200020030020C7EBB0B4D6B8CEC6A3A8256474
:100D3000A3A90000A081214200802142D6B8CEC6DE
:100D4000D5FDB3A300000000C9FAB3C9D6B8CEC61A
:100D5000C4A3B0E500000000C9FAB3C9D6B8CEC636
:100D6000C4A3B0E5B3C9B9A600000000C7EBCAE44C
:100D7000C8EBB4A2B4E649442CB0B4456E746572B5
:100D8000B1A3B4E600000000303D3C204944203CC3
:100D90003D343939000000004C020020C2BCC8EBD1
:100DA000D6B8CEC6B3C9B9A6000000000000002026
:100DB0000A48806940F008000849886108480068CE
:100DC00020F00F00064908600846006840F0030064
:100DD00008600020034908607047000000100240CE
:100DE000040C0140A081214210B5052008F03AFC16
:100DF00010BD000010B500200F4908600F480068C2
:100E000020F0F0000D4908600846006840F030000E
:100E10000860FFF7E9FF00200949C1F8A401FFF7C6
:100E2000E3FF012004490860FFF7DEFF00200549C9
:100E3000C1F8840110BD000084812142041C0140DE
:100E400000802342008021421848806940F0080059
:100E5000164988610846806940F08000886114481E
:100E6000006820F0F000124908600846006840F071
:100E7000300008600F48006820F0F0000D4908605D
:100E80000846006840F03000086009480C300068EF
:100E900040F0020006490C3108600648083000683E
:100EA00040F40070034908310860704700100240A8
:100EB000000C0140041C014010B500200F490860DF
:100EC0000F48006820F0F0000D49086008460068EF
:100ED00040F030000860FFF787FF01200949C1F8A2
:100EE000A401FFF781FF012004490860FFF77CFFA0
:100EF00000200549C1F8840110BD00008481214211
:100F0000041C0140008023420080214270B5054648
:100F100000241648006820F0F000144908600846D4
:100F2000006840F0800008601E2008F09BFB00264F
:100F300011E000200E490860FFF756FF01200D491F
:100F4000C1F884016006040E0B48006808B1601CFB
:100F5000C4B2701CC6B2082EEBDB15B9FFF7ACFFAC
:100F600001E0FFF747FF204670BD0000041C014070
:100F700084812142008021422481234270B50446AD
:100F80001348006820F0F000114908600846006826
:100F900040F03000086000200E490860FFF724FF91
:100FA000002511E0E0090C4908606006040E0120EC
:100FB0000A49C1F88401FFF717FF002005490860BE
:100FC000FFF712FF681CC5B2082DEBDB70BD0000F7
:100FD000041C014084812142A481234200802142DB
:100FE00010B50F48006820F0F0000D490860084671
:100FF000006840F03000086001200A4908600A4992
:10100000C1F884011E2008F02DFB0020054908606E
:10101000FFF7EAFE00200449C1F8840110BD00007A
:10102000041C0140A48123420080214210B50D48D8
:10103000006820F0F0000B4908600846006840F0A6
:10104000300008600120084908601E2008F00AFBF3
:1010500000200649C1F8A401FFF7C6FE012004499B
:10106000086010BD041C014084812142008023429D
:10107000A481234210B500241348006820F0F0003A
:10108000114908600846006840F0800008600120AF
:101090000E4908600E49C1F88401FFF7A5FE09E07A
:1010A000601CC4B2FA2C03DDFFF7C0FF012010BDA5
:1010B000FFF79AFE0548803800680028F0D10549FE
:1010C000086000BFF3E70000041C0140A481234234
:1010D000008021428481214200224FF4803105E0CA
:1010E0000948406B00F0800000B103E0081EA1F148
:1010F0000101F5D100BF09B90320704740F2FF504C
:10110000014B98631046F8E700800140024605E075
:101110001348416B01F0450000B100E0F8E700BF63
:1011200001F0040020B104200D4B986303207047A8
:1011300001F0010018B10120094B9863F7E7084856
:101140000069904201D01020F1E740F2FF50044BBB
:1011500098631846406908231840C0B2E7E70000CA
:101160000080014010B500204FF4803205E0134BA1
:10117000596B01F0450303B103E0131EA2F1010214
:10118000F5D100BF12B101F004033BB103200B4BBA
:101190009B6B43F00403094CA36310BD01F00103F2
:1011A00033B10120054B9B6B43F00103034CA36358
:1011B00040F2FF53014CA36300BFEEE70080014003
:1011C00005E00C48416B01F0450000B100E0F8E794
:1011D00000BF01F0040038B10648806B40F0040005
:1011E000044A90630320704740F2FF50014A906325
:1011F0000020F8E70080014070B503460C4600254A
:1012000005E02148426B02F0450000B100E0F8E73C
:1012100000BF02F0040038B11B48806B40F00400AE
:10122000194EB063032070BD02F0010038B11648BA
:10123000806B40F00100144EB0630120F3E71248C8
:101240000069984201D01020EDE740F2FF500E4EA9
:10125000B0633046416901F4604018B9080C208041
:101260002846E0E701F4005008B11320DBE701F461
:10127000804008B11020D6E701F4004008B10F20EB
:10128000D1E72846CFE700000080014010B50020DC
:101290004FF4803205E0114B596B01F0450303B167
:1012A00003E0131EA2F10102F5D100BF12B101F05B
:1012B00004033BB10320094B9B6B43F00403074C31
:1012C000A36310BD01F0400333B10020034B9B6BBF
:1012D00043F04003014CA36300BFF2E700800140EC
:1012E00038B54FF6FF7000903C480288A023642177
:1012F000002001F03FFDF020102339A2642100906E
:10130000002006F09DFDF020102338A278210090E7
:10131000002006F095FDF02010233AA28C210090C9
:10132000002006F08DFD322008F07EF9394AAA210E
:10133000002001F087FA00F08BFC05464FF6FF70A5
:10134000854200D136E0B5F57F4F03D104F09AFE17
:10135000044604E00121284604F050FE044694B9F6
:101360004FF6FF7000901D480288A02378210020CE
:1013700001F000FDF020102327A28C210090002016
:1013800006F05EFD02E0204606F078FC4FF4966021
:1013900008F04AF9244805F015F810200090234879
:1013A000008821490988421A03235021382004F07B
:1013B000F7FA00BF4FF6FF70009008480288A0239C
:1013C0006421002001F0D6FC322008F02DF9184AE3
:1013D000AA21002001F036FA38BD000020030020C9
:1013E000C9BEB3FDD6B8CEC600000000C7EBCAE444
:1013F000C8EBD6B8CEC64944B0B4456E746572B772
:10140000A2CBCD00303D3C204944203C3D3439390D
:101410000000000044000020C9BEB3FDD6B8CEC60F
:10142000B3C9B9A600000000000000204C02002053
:1014300008000020014628295DD2DFE801F01416DB
:10144000181A1C1E20222426282A2C2E303234362C
:10145000383A3C3E40424446484A4C5C4E50525C0E
:101460005C54565C585A26A047E026A045E029A0C7
:1014700043E02DA041E031A03FE038A03DE03FA097
:101480003BE045A039E052A037E054A035E057A03A
:1014900033E05AA000BF5EA000BF64A000BF67A0F9
:1014A00000BF6CA000BF6FA027E072A025E075A070
:1014B00023E079A021E07BA01FE07EA01DE086A0B4
:1014C0001BE089A019E092A017E095A015E097A075
:1014D00013E09AA011E09EA00FE0A2A00DE0A5A04D
:1014E0000BE0A7A009E0A9A007E0ACA005E0AEA032
:1014F00003E0B1A001E0B5A000BF00BF704700004D
:101500004F4B0000CAFDBEDDB0FCBDD3CAD5B4ED63
:10151000CEF30000B4ABB8D0C6F7C9CFC3BBD3D0AD
:10152000CAD6D6B800000000C2BCC8EBD6B8CEC63A
:10153000CDBCCFF1CAA7B0DC00000000D6B8CEC643
:10154000CDBCCFF1CCABB8C9A1A2CCABB5ADB6F890
:10155000C9FAB2BBB3C9CCD8D5F70000D6B8CEC64D
:10156000CDBCCFF1CCABCAAAA1A2CCABBAFDB6F828
:10157000C9FAB2BBB3C9CCD8D5F70000D6B8CEC62D
:10158000CDBCCFF1CCABC2D2B6F8C9FAB2BBB3C9AD
:10159000CCD8D5F700000000D6B8CEC6CDBCCFF170
:1015A000D5FDB3A3A3ACB5ABCCD8D5F7B5E3CCABE5
:1015B000C9D9A3A8BBF2C3E6BBFDCCABD0A1A3A9FC
:1015C000B6F8C9FAB2BBB3C9CCD8D5F70000000051
:1015D000D6B8CEC6B2BBC6A5C5E40000C3BBCBD14E
:1015E000CBF7B5BDD6B8CEC600000000CCD8D5F735
:1015F000BACFB2A2CAA7B0DC000000004944B3AC25
:10160000B3F6D6B8CEC6BFE2B7B6CEA7000000008C
:10161000B4D3D6B8CEC6BFE2B6C1C4A3B0E5B3F664
:10162000B4EDBBF2CEDED0A700000000C9CFB4AB52
:10163000CCD8D5F7CAA7B0DC00000000C4A3BFE92E
:10164000B2BBC4DCBDD3CADCBAF3D0F8CAFDBEDD80
:10165000B0FC0000C9CFB4ABCDBCCFF1CAA7B0DCA1
:1016600000000000C9BEB3FDC4A3B0E5CAA7B0DC4A
:1016700000000000C7E5BFD5D6B8CEC6BFE2CAA7F6
:10168000B0DC0000B2BBC4DCBDF8C8EBB5CDB9A678
:10169000BAC4D7B4CCAC0000BFDAC1EEB2BBD5FD42
:1016A000C8B70000CFB5CDB3B8B4CEBBCAA7B0DCC5
:1016B00000000000BBBAB3E5C7F8C4DAC3BBD3D09F
:1016C000D3D0D0A7D4ADCABCCDBCB6F8C9FAB2BB92
:1016D000B3C9CDBCCFF10000D4DACFDFC9FDBCB6B1
:1016E000CAA7B0DC00000000B2D0C1F4D6B8CEC6A4
:1016F000BBF2C1BDB4CEB2C9BCAFD6AEBCE4CAD693
:10170000D6B8C3BBD3D0D2C6B6AFB9FD0000000077
:10171000B6C1D0B420464C41534820B3F6B4ED00D6
:10172000CEB4B6A8D2E5B4EDCEF30000CEDED0A79D
:10173000BCC4B4E6C6F7BAC500000000BCC4B4E639
:10174000C6F7C9E8B6A8C4DAC8DDB4EDCEF3000028
:10175000BCC7CAC2B1BED2B3C2EBD6B8B6A8B4ED4C
:10176000CEF30000D7D4B6AFD7A2B2E1CAA7B0DC9F
:1017700000000000D6B8CEC6BFE2C2FA00000000EA
:10178000B5D8D6B7B4EDCEF300000000D6B8CEC6BB
:10179000C4A3B0E5CEAABFD500000000D6B8CEC61F
:1017A000BFE2CEAABFD50000D7D4B6AFD7A2B2E170
:1017B000B3ACCAB100000000D7D4B6AFD7A2B2E133
:1017C000D6B8CEC6D2D1B4E6D4DA0000C4A3BFE9FD
:1017D000B7B5BBD8C8B7C8CFC2EBD3D0CEF30000E3
:1017E00008B52F48806940F080002D4988612D4858
:1017F000006820F47F402B4908600846006840F4E8
:101800006050086027480830006840F4406025496F
:1018100008310860FFF718FB0020234908601420F6
:1018200007F002FF01202149C1F8AC01322007F086
:10183000FBFE00208DF800000122694600F038F917
:1018400001226946A42000F033F916208DF800002B
:1018500001226946802000F02BF90C208DF8000051
:1018600001226946882000F023F902226946A1205E
:1018700000F024F89DF8000030280ED19DF80100FA
:1018800003280AD19DF801009DF8002000EB0221F9
:1018900007A0FEF7E7FC002008BD0120FCE70000E0
:1018A00000100240041C0140AC812342008023420E
:1018B0004354502049443A25780D0A002DE9F0415F
:1018C00006460F461546FFF78BFB7020FFF756FBC9
:1018D000FFF7D0FBF0B2FFF751FBFFF7CBFBFFF7B1
:1018E0007FFB7120FFF74AFBFFF7C4FB00240BE0EE
:1018F000691EA14201D0012100E000210846FFF746
:1019000005FB3855601CC4B2AC42F1DBFFF78EFB1F
:10191000BDE8F08171B581B00024002661480078EF
:10192000401C60490870084600780A2190FBF1F2DB
:1019300001FB120018B15B4800780A2867DA01221F
:1019400001A90220FFF7BAFF9DF8040000F00F0084
:1019500000287ED09DF8040000F00F00062878DAF9
:101960009DF8040000F00F01FF208840C5B2E84355
:10197000C0B240F0C0004C4981F8200000245AE079
:10198000494890F820000121A1400840F0B34749A0
:1019900031F8140004226946FFF790FF424890F89E
:1019A000300000F00100C0B19DF801009DF800106A
:1019B00001F00F0100EB01203B49163121F8140022
:1019C0009DF803009DF8021001F00F0100EB0121CA
:1019D00035480C3020F814101DE09DF801009DF8EA
:1019E000001001F00F0100EB0120C0F5F07081B292
:1019F0002D480C3020F814109DF803009DF80210BB
:101A000001F00F0100EB0121274801E011E020E087
:101A1000163020F814109DF8000000F0F000802827
:101A200007D000212048163020F814100A3820F87A
:101A30001410601CC4B2052CA2DB01261A48808950
:101A400020B91948C08A08B9002001900020154922
:101A500008709DF8040000F01F00D0B9124890F8FB
:101A6000200000F0800040B10F4890F8200020F0E6
:101A700080000D4981F820000BE04FF6FF700A4905
:101A80008881C882084690F8200000F0E00081F8C4
:101A9000200004480078F02802DD0A20014908707F
:101AA00030467CBDAA000020B0000020DADD00082E
:101AB0002DE9F04105460E4617464FF00008FFF7A6
:101AC0008FFA7020FFF75AFAFFF7D4FAE8B2FFF75F
:101AD00055FAFFF7CFFA00240BE0305DFFF74EFA1E
:101AE000FFF7C8FA8046B8F1000F00D003E0601C91
:101AF000C4B2BC42F1DB00BFFFF798FA4046BDE834
:101B0000F0810000FCB507460D46002600240020A9
:101B10000090019008220121102004F0F3FC102015
:101B2000FFF7F4FA04460CB12046FCBD3A0401214B
:101B3000372004F0E7FC3720FFF7E8FA04460CB141
:101B40002046F2E7012303220821101F04F0EEFCD7
:101B500000220121332004F0D5FC3320FFF7D6FA10
:101B600004460CB12046E0E70DE03848406B00F435
:101B7000001040B13548803000684DF82600761CD2
:101B8000022E00D306E03148406B40F22A61084043
:101B90000028EAD000BF2D48406B00F0080038B1A3
:101BA0002A48806B40F00800284988630420BCE77D
:101BB0002648406B00F0020038B12448806B40F0AA
:101BC0000200224988630220AFE72048406B00F002
:101BD000200038B11D48806B40F020001B4988630D
:101BE0000620A2E71948406B00F4007038B117488E
:101BF000806B40F4007015498863072095E740F238
:101C0000FF501249886300980006009901F47F4153
:101C100040EA0120009901F47F0140EA1120009977
:101C200040EA1160686001980006019901F47F4163
:101C300040EA0120019901F47F0140EA1120019955
:101C400040EA1160286020466FE7000000800140F4
:101C500038B50024002537E0AA21002000F0F8FC68
:101C600004464CB3012C02D14FF6FF7038BD032C53
:101C700002D14FF47F40F9E7032C09DD0D2C07DA80
:101C8000632D05DA05EB850004EB4000C01E85B22C
:101C90000D2C03D10A2095FBF0F085B20E2C07D154
:101CA000632D05DA05EB85004FF6FF7101EA40056B
:101CB0000F2C01D12846D9E7102006232A46B1214E
:101CC00000905F2003F06CFEC6E700001CB53D48A5
:101CD000806940F080003B4988613B48006820F4FF
:101CE0007F40394908600846006840F46050086049
:101CF00035480830006840F44060334908310860D6
:101D0000FFF7A2F80020314908600A2007F08CFC98
:101D100001202F49C1F8AC010A2007F085FC2A48B0
:101D2000006820F47060284908600846006840F4A4
:101D30000060086024480830006820F48060224970
:101D400008310860642007F06FFC0422694648F2FD
:101D5000401000F053F800208DF8040069461DA0E3
:101D6000FEF780FA1EA16846FEF7D0FC40BB0220B9
:101D70008DF800000122694648F2400000F09EF90B
:101D80000122694648F2470000F038F89DF800004B
:101D9000602807DA9DF8001013A0FEF763FA01200F
:101DA00000F05EF90A2007F03FFC00208DF80000EB
:101DB0000122694648F2400000F080F900201CBD75
:101DC0000120FCE700100240041C0140AC812342CA
:101DD000008023424354502049443A25730D0A00A1
:101DE000393134370000000044656661756C742039
:101DF0005665723A25640D0A000000002DE9F04195
:101E000005460F461646FFF7EBF82820FFF7B6F811
:101E1000FFF730F92812FFF7B1F8FFF72BF9E8B216
:101E2000FFF7ACF8FFF726F9FFF7DAF82920FFF7FC
:101E3000A5F8FFF71FF900240BE0711EA14201D0A5
:101E4000012100E000210846FFF760F83855601CCA
:101E5000C4B2B442F1DBFFF7E9F8BDE8F08100005D
:101E600071B583B00024002679480078401C784979
:101E70000870084600780A2190FBF1F201FB12007D
:101E800018B1734800780A287EDA012203A948F2C3
:101E90004E10FFF7B3FF9DF80C0000F0800068B112
:101EA0009DF80C0000F00F00062807DA00200190D2
:101EB000012201A948F24E1000F000F99DF80C0033
:101EC00000F00F0000285FD09DF80C0000F00F001C
:101ED0000628D9DA9DF80C0000F00F01FF20884099
:101EE000C0B201905B4890F820509DF80400C043B8
:101EF000C0B240F0C000574981F8200008468189EF
:101F00008182C18AC183002446E0524890F82000B3
:101F10000121A140084020B34F4931F814000422A8
:101F200002A9FFF76BFF4B4890F8300000F001006A
:101F3000C0B19DF808009DF8091000EB012081B2A6
:101F40004448163020F814109DF80A009DF80B1034
:101F500000EB0120C0F5487081B23E480C3020F8FB
:101F6000141017E09DF808009DF8091000EB0120FF
:101F700081B238480C3020F814109DF80A009DF802
:101F80000B1000EB012000E036E081B23148163042
:101F900020F81410601CC4B2052CB6DB01262D48B5
:101FA00080892E490988884205DC2A48C08A2B4945
:101FB000498888421DDD9DF80C0000F00F000128C3
:101FC0000ADD2448C089234988810846008BC882DD
:101FD00000201F4908700FE01E48808A1D49888133
:101FE0000846C08BC88280200390084680F82050A5
:101FF00002E00020164908709DF80C0000F08F00E8
:1020000080281AD1134890F8200000F0800040B1D9
:10201000104890F8200020F080000E4981F8200040
:102020000BE04FF6FF700B498881C882084690F894
:10203000200000F0E00081F8200005480078F0283A
:1020400002DD0A2002490870304604B070BD00006D
:10205000AB000020B00000209CDE00082003002020
:1020600038B50546002400208DF800008DF8015099
:1020700000BF09E09DF800000F49095D0844C0B2A7
:102080008DF80000601CC4B2B82CF3D39DF800009A
:10209000C043401CC0B28DF80000B822064948F287
:1020A000470000F00BF80222694648F2FF0000F0FA
:1020B00005F8002038BD0000E4DD00082DE9F041FE
:1020C00004460E4617464FF00008FEF789FF282009
:1020D000FEF754FFFEF7CEFF2012FEF74FFFFEF78C
:1020E000C9FFE0B2FEF74AFFFEF7C4FF00250BE090
:1020F000705DFEF743FFFEF7BDFF8046B8F1000FAD
:1021000000D003E0681CC5B2BD42F1DB00BFFEF7A2
:102110008DFF4046BDE8F0812DE9F05F82460F4615
:1021200014462046E21704EB5272D2102146E31700
:1021300004EB5373DB10A4EBC3030BB1012300E0EA
:1021400000231A44624302F0FF099AF800600AF182
:10215000010082460578812E05DB402D03DBFF2D33
:1021600001D0FF2E0DD14FF0000B06E0002007F844
:10217000010B0BF1010000F0FF0BCB45F6DBBDE8D6
:10218000F09F7F2D03DAA5F14000C5B202E0A5F172
:102190004100C5B2A6F18100C6B2BE2000FB0650C8
:1021A00000FB09F80C2C04D0102C0CD0182C1ED1DC
:1021B00013E01048D0F8090000EB08014A46384601
:1021C00007F050F813E00B48D0F8110000EB0801BD
:1021D0004A46384607F046F809E00648D0F81900A4
:1021E00000EB08014A46384607F03CF800BF00BF44
:1021F00000BFC4E700C6002010B500200F490860EA
:102200000F48006820F070400D49086008460068DB
:1022100040F04050086000200A49C1F89C010220AB
:1022200007F020FA012005490860022007F01AFA99
:1022300000200449C1F8980110BD00009881214296
:10224000000C0140008021420C48806940F00800E9
:102250000A4988610A48006820F07F400849086000
:102260000846006840F04C50086005480C30006893
:1022700040F0C00002490C31086070470010024075
:10228000000C014010B500200F4908600F4800689D
:1022900020F070400D4908600846006840F040504A
:1022A000086001200A49C1F89C01022007F0DAF910
:1022B000012005490860022007F0D4F900200449F4
:1022C000C1F8980110BD000098812142000C014026
:1022D0000080214270B5054600241748006820F0B0
:1022E0007040154908600846006840F000400860EA
:1022F000002616E0002011490860022007F0B2F91C
:1023000001200F49C1F898016006040E0B487C3883
:10231000006808B1601CC4B2012007F0A3F9701C6A
:10232000C6B2082EE6DB15B9FFF7ACFF01E0FFF7F8
:1023300063FF204670BD0000000C014098812142DF
:102340000080214270B504461548006820F07040B6
:10235000134908600846006840F0405008600020BB
:1023600010490860002517E0E0090E49091D0860C2
:102370006006040E022007F075F901200A49C1F831
:102380009801022007F06EF900200649086002203B
:1023900007F068F9681CC5B2082DE5DB70BD0000C8
:1023A000000C0140988121420080214210B50F4865
:1023B000006820F070400D4908600846006840F051
:1023C0004050086001200A4908600A49C1F8980194
:1023D000042007F047F9002005490860042007F0B1
:1023E00041F900200349C1F8980110BD000C0140DB
:1023F0009C8121420080214210B50F48006820F0E6
:1024000070400D4908600846006840F04050086080
:1024100000200A4908600A49C1F89C01042007F01D
:1024200021F90120054908600549C1F89C010420F3
:1024300007F018F910BD0000000C014098812142FE
:102440000080214210B500241448006820F070403C
:10245000124908600846006840F00040086001200A
:102460000F49086007F0FEF801200E49C1F89801F5
:1024700007F0F8F807E0601CC4B2FA2C03DDFFF7A0
:10248000BBFF012010BD0648803800680028F2D14B
:102490000349091F086000BFF4E70000000C014079
:1024A0009C8121420080214272B6704762B670471B
:1024B0001CB504460020019000901F4800880204CB
:1024C00001210D2004F01EF81C48406B009002E032
:1024D0001A48406B0090009800F045000028F7D0A3
:1024E000009800F0010038B11448806B40F0010002
:1024F0001249886301201CBD009800F0040038B127
:102500000E48806B40F004000C4988630320F2E71A
:102510000A4800690D2801D01020ECE740F2FF5076
:10252000064988630846406901900198C0F343203A
:1025300020700020DFE700009800002000800140AC
:102540001548806940F00400134988610846806995
:1025500040F0400088611148006820F00F000F49EA
:1025600008600846006840F0080008600C480068F1
:102570000C4908400A490860084600680A490843AF
:102580000749086006480C30006840F01C00044908
:102590000C31086070470000001002400008014044
:1025A00000180140FF00F0FF0088080010B5044645
:1025B00014B10120234908702248007858B32248FA
:1025C000006858B12048001F006838B11E4808381C
:1025D000006818B11D48006801281CD10A2007F0C6
:1025E00023F80020174908701748006808B901202F
:1025F00010BD1548001F006808B90220F8E712480E
:102600000838006808B90320F2E71048006801287C
:1026100015D10420ECE70C48006801280FD10A48C6
:10262000001F006801280AD10748083800680128FF
:1026300005D10648006810B9012002490870002041
:10264000D6E7000092000020100123420001214241
:102650002DE9F041074688460026374841680020AA
:102660008847354890F8200000F08000002850D0BE
:1026700000244BE0002529E02F48818905EB8500E7
:1026800007EB0010503081421EDA2B48808905EBA1
:10269000850107EB0111884216DD2748C18AC4EB8A
:1026A000041008EB40001E3081420DDA2248C08A37
:1026B000C4EB041108EB4101884205DD04EB440042
:1026C0002844401CC6B203E0681C85B2032DD3DB4E
:1026D00000BFCEB119480078B04201D1002612E007
:1026E00016480078401EC2B200234146384600F02A
:1026F00027F8124806700078401EC2B201234146F6
:10270000384600F01DF803E0601C84B2052CB1DBF4
:102710000EE00A48007858B108480078401EC2B25E
:1027200000234146384600F00BF8002003490870AA
:102730003046BDE8F0810000B0000020800000209D
:102740002DE9F84305460E4614469946032094FBAE
:10275000F0F087B2032094FBF0F100FB11401FFA68
:1027600080F8102C01DDBDE8F883B9F1000F27D007
:10277000012C25D04FF4FC60C7EB071C06EB4C0C7A
:102780000CF11C0C1FFA8CF308EB880C05EB0C1CED
:102790000CF14E0C1FFA8CF2C7EB071C06EB4C0C2D
:1027A0000CF1010C1FFA8CF108EB880C05EB0C1CEA
:1027B0000CF1010C00901FFA8CF000F0DBFA26E01F
:1027C000012C24D04FF6FF70C7EB071C06EB4C0C16
:1027D0000CF11C0C1FFA8CF308EB880C05EB0C1C9D
:1027E0000CF14E0C1FFA8CF2C7EB071C06EB4C0CDD
:1027F0000CF1010C1FFA8CF108EB880C05EB0C1C9A
:102800000CF1010C00901FFA8CF000F0B3FA012CCF
:1028100013D050200A4B00901B6853F82420F31D5E
:102820004FF01E0C0CFB073399B208EB880305EB45
:10283000031398B2102305F003FB00BF93E70000D9
:10284000040000202DE9FE4305460C4617464FF4D0
:10285000784047490880474807604FF6FF7000906E
:1028600004F1960083B205F1F00082B221462846B9
:1028700000F080FA04F1960083B205F1F00082B214
:102880002146284600F094F904F196018BB205F137
:10289000A0018AB2503988B2214600F089F904F1CA
:1028A0003C0083B205F1F00082B204F11E0081B257
:1028B000284600F07DF904F1780083B205F1F000BC
:1028C00082B204F15A0081B2284600F071F91F204B
:1028D00027490880002647E0012E24D1032096FBDB
:1028E000F0F1E01D1E2202FB01001FFA80F8032018
:1028F00096FBF0F100FB116000EB800005EB00108F
:10290000801C1FFA80F9002110221A48006850F834
:1029100026001E23CDE90121009050224146484661
:1029200005F02CFA1EE0032096FBF0F1E01D1E22BC
:1029300002FB01001FFA80F8032096FBF0F100FB78
:10294000116000EB800005EB00101FFA80F95020A9
:1029500000900848006850F8262010234146484659
:1029600005F06EFA701C86B20F2EB5DBBDE8FE8353
:102970008E0000200400002070B50446002609489F
:102980000588408845430021084602F0E5FE03F033
:1029900091F800BF02E004480480761CAE42FAD3EE
:1029A00070BD0000200300200008006C10B5044634
:1029B00049488471002C45D1F020474908804FF4E4
:1029C000A07048800846808845F21051884210D196
:1029D0004FF43050404908814FF4285048814FF45B
:1029E0002C5088814FF4F07008804FF44870488074
:1029F0001AE03948808841F6631188420DD12C20B5
:102A0000354908812B2048812A2088814FF4F070B5
:102A100008804FF44870488006E02C202E49088139
:102A20002A2048812B2088812B48808845F210314C
:102A300088424CD14FF4A070274908804FF4F070C1
:102A4000488044E04FF4A07023490880F02048807B
:102A50000846808845F21051884210D14FF430501A
:102A60001D4908814FF4285048814FF42C5088812B
:102A70004FF4487008804FF4F07048801AE0164810
:102A8000808841F6631188420DD12C2012490881BB
:102A90002A2048812B2088814FF4487008804FF409
:102AA000F070488006E02C200B4908812A204881DC
:102AB0002B2088810848808845F21031884206D151
:102AC0004FF4F070044908804FF4A0704880002053
:102AD00002F028FD10BD0000200300202DE9FF4F6B
:102AE00084B081468A460020039002900698A0EBAD
:102AF00009050798A0EB0A06CDF80490CDF800A0D0
:102B0000002D01DD012705E00DB9002702E04FF09F
:102B1000FF376D42002E02DD4FF0010806E016B9C6
:102B20004FF0000802E04FF0FF387642B54201DD79
:102B30002C4600E034464FF0000B21E0009A91B2A1
:102B4000019A90B200F022F803982844039002986A
:102B5000304402900398A04205DD0398001B0390C7
:102B60000198384401900298A04205DD0298001BAC
:102B700002900098404400900BF101001FFA80FB86
:102B8000601C8345DADD08B0BDE8F08F30B504463F
:102B90000D462946204602F0DFFD02F08BFF024879
:102BA00000880249088030BD8E0000200008006CBB
:102BB000F0B504460D4616461F462B4632462946BA
:102BC0002046FFF78BFF3B46224629462046FFF76B
:102BD00085FF3B46324639462046FFF77FFF3B469E
:102BE000324629463046FFF779FFF0BD2DE9F04324
:102BF00006460F469046002445460320A0EB4809B0
:102C00003CE07A1B91B2321990B2FFF7BFFF3A1B3A
:102C100091B2721990B2FFF7B9FF3A1991B27219D5
:102C200090B2FFF7B3FF7A1991B2321990B2FFF761
:102C3000ADFF7A1991B2321B90B2FFF7A7FF3A1994
:102C400091B2721B90B2FFF7A1FF7A1B91B2321BB7
:102C500090B2FFF79BFF3A1B91B2721B90B2FFF745
:102C600095FF641CB9F1000F03DAA000801D8144B8
:102C700004E0601B80000A3081446D1EAC42C0DD60
:102C8000BDE8F08310B503460C463848808845F20D
:102C90001051884220D13549488902F005FF1812A9
:102CA00002F0FCFE31494989491C88B202F0FCFE61
:102CB000D8B202F0F3FE2D49888902F0F5FE201209
:102CC00002F0ECFE29498989491C88B202F0ECFE29
:102CD000E0B202F0E3FE42E02448808841F663114E
:102CE000884228D12148807920B920480088401E98
:102CF000C01A83B21D49488902F0D6FE181202F0AC
:102D0000CDFED8B202F0CAFE181202F0C7FED8B249
:102D100002F0C4FE1549888902F0C6FE201202F0B6
:102D2000BDFEE0B202F0BAFE201202F0B7FEE0B241
:102D300002F0B4FE13E00D49488902F0B5FE181206
:102D400002F0ACFED8B202F0A9FE0849888902F070
:102D5000ABFE201202F0A2FEE0B202F09FFE03489A
:102D6000008903490880881C028010BD20030020D0
:102D7000FE07006C2DE9F04F05460E4617469846B3
:102D8000DDF824A04FF0000B781B401C1FFA80FBDD
:102D9000344613E02146284602F0DEFC02F08AFEAB
:102DA0004FF0000906E00748A0F800A009F1010073
:102DB0001FFA80F9D945F6DB601C84B24445E9DD91
:102DC000BDE8F08F0008006C10B5FE48406940F483
:102DD0008070FC4948610846806940F008008861BD
:102DE0000846806940F0200088610846806940F00C
:102DF000400088610846806940F480708861F2482C
:102E0000006820F00F00F04908600846006840F0B4
:102E100003000860ED480068ED490840EB49086090
:102E200008460068EB490843E8490860081F006845
:102E300000F0FF20091F08600846006840F0BB1042
:102E40000860E54800680020E3490860084600681B
:102E500040F0BB300860081F006820F07040091F78
:102E600008600846006840F030400860DB48406871
:102E700020F47020D94948600846406840F430206A
:102E800048600846006820F00F00086008460068A7
:102E900040F00B00086000204FF020418861C861BD
:102EA000CF4908604FF02040806940F480504FF0D7
:102EB000204188610846806940F480408861084666
:102EC000806940F0100088610846C069C861084602
:102ED000C06940F00100C8610846C06940F47060F4
:102EE000C861BF480068C1F81C01BD480068C1F84E
:102EF0001C010846D0F81C0140F44070C1F81C01C8
:102F00000846806940F001008861322006F08CFBA1
:102F1000D32002F0C9FD02F0D1FAB249888002F054
:102F2000CDFAB049888002F0C9FAAE4988800846D7
:102F300080884FF6FF7101EA0020AA49888002F0DC
:102F4000BDFAA84989880843A64988800846808830
:102F500049F2413188427DD0042002F0A5FD02F003
:102F6000ADFAA049888002F0A9FA9E49888002F053
:102F7000A5FA9C498880084680884FF6FF7101EACF
:102F800000209849888002F099FA96498988084378
:102F9000944988800846808848F25251884203D17B
:102FA00047F289708F4988808E48808847F28971FE
:102FB0008842D0D0D42002F077FD02F07FFA894910
:102FC000888002F07BFA8749888002F077FA854989
:102FD0008880084680884FF6FF7101EA0020814909
:102FE000888002F06BFA7F49898808437D49888090
:102FF0000846808845F2103188425FD055214FF451
:10300000704002F061FDAA214FF2010002F05CFD68
:1030100052214FF2020002F057FD08214FF2030047
:1030200002F052FD01214FF2040002F04DFD4FF479
:10303000454002F039FD02F041FA6A4988800846AD
:1030400080884FF6FF7101EA0020664988804CF2C3
:10305000015000E032E002F027FD02F02FFA614952
:10306000898808435F4988800846808845F2105166
:10307000884223D0A12002F017FD02F01FFA59491F
:10308000888002F01BFA57498880084680884FF6EE
:10309000FF7101EA00205349888002F00FFA51497C
:1030A000898808434F4988800846808845F26171C5
:1030B000884203D141F663104A4988804948818893
:1030C00049A0FDF7CFF84748808849F2413188424E
:1030D00076D1CF2002F0E8FC002002F0DFFCC12016
:1030E00002F0DCFC302002F0D9FCED2002F0DCFC28
:1030F000642002F0D3FC032002F0D0FC122002F086
:10310000CDFC812002F0CAFCE82002F0CDFC852035
:1031100002F0C4FC102002F0C1FC7A2002F0BEFCD8
:10312000CB2002F0C1FC392002F0B8FC2C2002F0C8
:10313000B5FC002002F0B2FC342002F0AFFC02200B
:1031400002F0ACFCF72002F0AFFC202002F0A6FC5D
:10315000EA2002F0A9FC002002F0A0FC002002F00E
:103160009DFCC02002F0A0FC1B2002F097FCC120B7
:1031700002F09AFC012002F091FCC52002F094FCC0
:10318000302002F08BFC302002F088FCC72002F0D7
:103190008BFCB72002F082FC362002F085FC482030
:1031A00002F07CFC3A2002F07FFC552002F076FC15
:1031B000B12002F079FC002002F070FC1A201BE024
:1031C000BAE0000000100240000C0140041401406D
:1031D00000F0FF00BB0B00BB0418014000200140C1
:1031E0001C0100A020030020204C43442049443A05
:1031F00025780D0A0000000002F050FCB62002F015
:1032000053FC0A2002F04AFCA22002F047FCF22004
:1032100002F04AFC002002F041FC262002F044FCAF
:10322000012002F03BFCE02002F03EFC0F2002F007
:1032300035FC2A2002F032FC282002F02FFC082066
:1032400002F02CFC0E2002F029FC082002F026FCE3
:10325000542002F023FCA92002F020FC432002F0BD
:103260001DFC0A2002F01AFC0F2002F017FC0020BF
:1032700002F014FC002002F011FC002002F00EFC11
:10328000002002F00BFCE12002F00EFC002002F016
:1032900005FC152002F002FC172002F0FFFB0720BE
:1032A00002F0FCFB112002F0F9FB062002F0F6FB15
:1032B0002B2002F0F3FB562002F0F0FB3C2002F042
:1032C000EDFB052002F0EAFB102002F0E7FB0F20E7
:1032D00002F0E4FB3F2002F0E1FB3F2002F0DEFBC6
:1032E0000F2002F0DBFB2B2002F0DEFB002002F0BF
:1032F000D5FB002002F0D2FB012002F0CFFB3F20E3
:1033000002F0CCFB2A2002F0CFFB002002F0C6FB2B
:10331000002002F0C3FB002002F0C0FBEF2002F00F
:10332000BDFB112002F0C0FB782006F07DF92920BA
:1033300002F0BAFB02F0A6B8FE48808847F2897115
:1033400088427CD1112002F0AFFB782006F06CF9A6
:10335000362002F0A9FB002002F0A0FB3A2002F088
:10336000A3FB052002F09AFBB22002F09DFB0C208B
:1033700002F094FB0C2002F091FB002002F08EFB87
:10338000332002F08BFB332002F088FBB72002F0E1
:103390008BFB352002F082FBBB2002F085FB322044
:1033A00002F07CFBC02002F07FFB0C2002F076FBD9
:1033B000C22002F079FB012002F070FBC32002F072
:1033C00073FB102002F06AFBC42002F06DFB20208A
:1033D00002F064FBC62002F067FB0F2002F05EFBE8
:1033E000D02002F061FBA42002F058FBA12002F0E3
:1033F00055FBE02002F058FBD02002F04FFB0020EC
:1034000002F04CFB022002F049FB072002F046FBD1
:103410000A2002F043FB282002F040FB322002F099
:103420003DFB442002F03AFB422002F037FB06202D
:1034300002F034FB0E2002F031FB122000E056E0D7
:1034400002F02CFB142002F029FB172002F026FBCF
:10345000E12002F029FBD02002F020FB002002F046
:103460001DFB022002F01AFB072002F017FB0A20C6
:1034700002F014FB282002F011FB312002F00EFBB9
:10348000542002F00BFB472002F008FB0E2002F054
:1034900005FB1C2002F002FB172002F0FFFA1B20A4
:1034A00002F0FCFA1E2002F0F9FA2A2002F0FCFADF
:1034B000002002F0F3FA002002F0F0FA002002F0FF
:1034C000EDFAEF2002F0EAFA2B2002F0EDFA0020EC
:1034D00002F0E4FA002002F0E1FA012002F0DEFA44
:1034E0003F2002F0DBFA292002F0DEFA22E79148C1
:1034F000808845F21031884240F07C87ED2002F050
:10350000D3FA012002F0CAFAFE2002F0C7FAEE2038
:1035100002F0CAFADE2002F0C1FA212002F0BEFA5F
:10352000F12002F0C1FA012002F0B8FADF2002F027
:10353000BBFA102002F0B2FAC42002F0B5FA8F20D4
:1035400002F0ACFAC62002F0AFFA002002F0A6FAB0
:10355000E22002F0A3FAE22002F0A0FAE22002F058
:103560009DFABF2002F0A0FAAA2002F097FAB0203C
:1035700002F09AFA0D2002F091FA002002F08EFA81
:103580000D2002F08BFA002002F088FA112002F0E0
:1035900085FA002002F082FA192002F07FFA00205A
:1035A00002F07CFA212002F079FA002002F076FA8B
:1035B0002D2002F073FA002002F070FA3D2002F094
:1035C0006DFA002002F06AFA5D2002F067FA00202E
:1035D00002F064FA5D2002F061FA002002F05EFA67
:1035E000B12002F061FA802002F058FA002002F0C7
:1035F00055FA8B2002F052FA002002F04FFA962082
:1036000002F04CFA002002F049FAB22002F04CFA23
:10361000002002F043FA002002F040FA022002F0FB
:103620003DFA002002F03AFA032002F037FA0020B7
:1036300002F034FAB32002F037FA002002F02EFA3A
:10364000002002F02BFA002002F028FA002002F0FD
:1036500025FA002002F022FA002002F01FFA0020D2
:1036600002F01CFA002002F019FA002002F016FA0B
:10367000002002F013FA002002F010FA002002F0FD
:103680000DFA002002F00AFA002002F007FA0020EA
:1036900002F004FA002002F001FA002002F0FEF924
:1036A000002002F0FBF9002002F0F8F9002002F0FF
:1036B000F5F9002002F0F2F9002002F0EFF9002005
:1036C00002F0ECF9002002F0E9F9B42002F0ECF984
:1036D0008B2002F0E3F9002002F0E0F9962002F0DE
:1036E000DDF9002002F0DAF9A12002F0D7F900207C
:1036F00002F0D4F9B52002F0D7F9022002F0CEF999
:10370000002002F0CBF9032002F0C8F9002002F0FB
:10371000C5F9042002F0C2F9002002F0BFF9B6207A
:1037200002F0C2F9002002F0B9F9002002F0B6F967
:10373000B72001E02003002002F0B6F9002002F0DB
:10374000ADF9002002F0AAF93F2002F0A7F900200D
:1037500002F0A4F95E2002F0A1F9002002F09EF927
:10376000642002F09BF9002002F098F98C2002F00E
:1037700095F9002002F092F9AC2002F08FF90020B8
:1037800002F08CF9DC2002F089F9002002F086F9C1
:10379000702002F083F9002002F080F9902002F0FE
:1037A0007DF9002002F07AF9EB2002F077F9002091
:1037B00002F074F9DC2002F071F9002002F06EF9D9
:1037C000B82002F071F9002002F068F9002002F040
:1037D00065F9002002F062F9002002F05FF9002094
:1037E00002F05CF9002002F059F9002002F056F9CD
:1037F000002002F053F9BA2002F056F9242002F01A
:103800004DF9002002F04AF9002002F047F90020AB
:1038100002F044F9C12002F047F9202002F03EF9FD
:10382000002002F03BF9542002F038F9002002F0A9
:1038300035F9FF2002F032F9002002F02FF9C22002
:1038400002F032F90A2002F029F9002002F026F9EC
:10385000042002F023F9002002F020F9C32002F036
:1038600023F93C2002F01AF9002002F017F93A205F
:1038700002F014F9002002F011F9392002F00EF9DB
:10388000002002F00BF9372002F008F9002002F0C6
:1038900005F93C2002F002F9002002F0FFF8362082
:1038A00002F0FCF8002002F0F9F8322002F0F6F8FD
:1038B000002002F0F3F82F2002F0F0F8002002F0D0
:1038C000EDF82C2002F0EAF8002002F0E7F82920B9
:1038D00002F0E4F8002002F0E1F8262002F0DEF821
:1038E000002002F0DBF8242002F0D8F8002002F0DB
:1038F000D5F8242002F0D2F8002002F0CFF82320DF
:1039000002F0CCF8002002F0C9F83C2002F0C6F822
:10391000002002F0C3F8362002F0C0F8002002F0C8
:10392000BDF8322002F0BAF8002002F0B7F82F20DC
:1039300002F0B4F8002002F0B1F82C2002F0AEF84A
:10394000002002F0ABF8292002F0A8F8002002F0D5
:10395000A5F8262002F0A2F8002002F09FF824200B
:1039600002F09CF8002002F099F8242002F096F86A
:10397000002002F093F8232002F090F8002002F0DB
:103980008DF8C42002F090F8622002F087F8002041
:1039900002F084F8052002F081F8002002F07EF8A1
:1039A000842002F07BF8002002F078F8F02002F08A
:1039B00075F8002002F072F8182002F06FF800206D
:1039C00002F06CF8A42002F069F8002002F066F81A
:1039D000182002F063F8002002F060F8502002F096
:1039E0005DF8002002F05AF80C2002F057F8002091
:1039F00002F054F8172002F051F8002002F04EF8BF
:103A0000952002F04BF8002002F048F8F32002F075
:103A100045F8002002F042F8E62002F03FF80020CE
:103A200002F03CF8C52002F03FF8322002F036F8F0
:103A3000002002F033F8442002F030F8002002F0B9
:103A40002DF8652002F02AF8002002F027F87620F1
:103A500002F024F8002002F021F8882002F01EF87D
:103A6000002002F01BF8C62002F01EF8202002F011
:103A700015F8002002F012F8172002F00FF80020CD
:103A800002F00CF8012002F009F8002002F006F81C
:103A9000C72002F009F8002002F000F8002001F031
:103AA000FDFF002001F0FAFF002001F0F7FFC82021
:103AB00001F0FAFF002001F0F1FF002001F0EEFF1D
:103AC000002001F0EBFF002001F0E8FFC92001F029
:103AD000EBFF002001F0E2FF002001F0DFFF0020FB
:103AE00001F0DCFF002001F0D9FF002001F0D6FF3B
:103AF000002001F0D3FF002001F0D0FF002001F0F2
:103B0000CDFF002001F0CAFF002001F0C7FF002018
:103B100001F0C4FF002001F0C1FF002001F0BEFF52
:103B2000002001F0BBFF002001F0B8FF002001F0F1
:103B3000B5FFE02001F0B8FF162001F0AFFF002034
:103B400001F0ACFF1C2001F0A9FF002001F0A6FF4E
:103B5000212001F0A3FF002001F0A0FF362001F09A
:103B60009DFF002001F09AFF462001F097FF002002
:103B700001F094FF522001F091FF002001F08EFF30
:103B8000642001F08BFF002001F088FF7A2001F013
:103B900085FF002001F082FF8B2001F07FFF0020D5
:103BA00001F07CFF992001F079FF002001F076FF01
:103BB000A82001F073FF002001F070FFB92001F090
:103BC0006DFF002001F06AFFC42001F067FF0020B4
:103BD00001F064FFCA2001F061FF002001F05EFFE8
:103BE000D22001F05BFF002001F058FFD92001F046
:103BF00055FF002001F052FFE02001F04FFF0020B0
:103C000001F04CFFF32001F049FF002001F046FFD6
:103C1000E12001F049FF162001F040FF002001F0F3
:103C20003DFF1C2001F03AFF002001F037FF222069
:103C300001F034FF002001F031FF362001F02EFFAB
:103C4000002001F02BFF452001F028FF002001F0AB
:103C500025FF522001F022FF002001F01FFF642009
:103C600001F01CFF002001F019FF7A2001F016FF7F
:103C7000002001F013FF8B2001F010FF002001F065
:103C80000DFF992001F00AFF002001F007FFA82096
:103C900001F004FF002001F001FFB92001F0FEFE59
:103CA000002001F0FBFEC42001F0F8FE002001F02E
:103CB000F5FECA2001F0F2FE002001F0EFFED22056
:103CC00001F0ECFE002001F0E9FED82001F0E6FE54
:103CD000002001F0E3FEE02001F0E0FE002001F012
:103CE000DDFEF32001F0DAFE002001F0D7FEE22035
:103CF00001F0DAFE052001F0D1FE002001F0CEFE39
:103D00000B2001F0CBFE002001F0C8FE1B2001F0CB
:103D1000C5FE002001F0C2FE342001F0BFFE0020ED
:103D200001F0BCFE442001F0B9FE002001F0B6FE17
:103D30004F2001F0B3FE002001F0B0FE612001F041
:103D4000ADFE002001F0AAFE792001F0A7FE0020C0
:103D500001F0A4FE882001F0A1FE002001F09EFEEB
:103D6000972001F09BFE002001F098FEA62001F0B4
:103D700095FE002001F092FEB72001F08FFE00209A
:103D800001F08CFEC22001F089FE002001F086FEC9
:103D9000C72001F083FE002001F080FED12001F059
:103DA0007DFE002001F07AFED62001F077FE002093
:103DB00001F074FEDD2001F071FE002001F06EFEC6
:103DC000F32001F06BFE002001F068FEE32001F01B
:103DD0006BFE052001F062FE002001F05FFE0A206C
:103DE00001F05CFE002001F059FE1C2001F056FE9F
:103DF000002001F053FE332001F050FE002001F0BE
:103E00004DFE442001F04AFE002001F047FE502004
:103E100001F044FE002001F041FE622001F03EFE70
:103E2000002001F03BFE782001F038FE002001F078
:103E300035FE882001F032FE002001F02FFE972091
:103E400001F02CFE002001F029FEA62001F026FE44
:103E5000002001F023FEB72001F020FE002001F039
:103E60001DFEC22001F01AFE002001F017FEC7203F
:103E700001F014FE002001F011FED12001F00EFE31
:103E8000002001F00BFED52001F008FE002001F01B
:103E900005FEDD2001F002FE002001F0FFFDF32011
:103EA00001F0FCFD002001F0F9FDE42001F0FCFD33
:103EB000012001F0F3FD002001F0F0FD012001F0F0
:103EC000EDFD002001F0EAFD022001F0E7FD0020F9
:103ED00001F0E4FD2A2001F0E1FD002001F0DEFD0B
:103EE0003C2001F0DBFD002001F0D8FD4B2001F06B
:103EF000D5FD002001F0D2FD5D2001F0CFFD0020B6
:103F000001F0CCFD742001F0C9FD002001F0C6FDD8
:103F1000842001F0C3FD002001F0C0FD932001F0DA
:103F2000BDFD002001F0BAFDA22001F0B7FD002088
:103F300001F0B4FDB32001F0B1FD002001F0AEFDB1
:103F4000BE2001F0ABFD002001F0A8FDC42001F06F
:103F5000A5FD002001F0A2FDCD2001F09FFD002075
:103F600001F09CFDD32001F099FD002001F096FDA9
:103F7000DD2001F093FD002001F090FDF32001F021
:103F80008DFD002001F08AFDE52001F08DFD00206F
:103F900001F084FD002001F081FD002001F07EFD94
:103FA000002001F07BFD022001F078FD002001F0EF
:103FB00075FD292001F072FD002001F06FFD3C200D
:103FC00001F06CFD002001F069FD4B2001F066FD61
:103FD000002001F063FD5D2001F060FD002001F094
:103FE0005DFD742001F05AFD002001F057FD842092
:103FF00001F054FD002001F051FD932001F04EFD31
:10400000002001F04BFDA22001F048FD002001F04E
:1040100045FDB32001F042FD002001F03FFDBE2030
:1040200001F03CFD002001F039FDC42001F036FD17
:10403000002001F033FDCD2001F030FD002001F023
:104040002DFDD32001F02AFD002001F027FDDC200A
:1040500001F024FD002001F021FDF32001F01EFD00
:10406000002001F01BFDE62001F01EFD112001F0F3
:1040700015FD002001F012FD342001F00FFD00209D
:1040800001F00CFD562001F009FD002001F006FDB5
:10409000762001F003FD002001F000FD772001F003
:1040A000FDFC002001F0FAFC662001F0F7FC002086
:1040B00001F0F4FC882001F0F1FC002001F0EEFC9E
:1040C000992001F0EBFC002001F0E8FCBB2001F09E
:1040D000E5FC002001F0E2FC992001F0DFFC00206B
:1040E00001F0DCFC662001F0D9FC002001F0D6FCD8
:1040F000552001F0D3FC002001F0D0FC552001F048
:10410000CDFC002001F0CAFC452001F0C7FC0020D6
:1041100001F0C4FC432001F0C1FC002001F0BEFC12
:10412000442001F0BBFC002001F0B8FCE72001F0C6
:10413000BBFC322001F0B2FC002001F0AFFC5520A6
:1041400001F0ACFC002001F0A9FC762001F0A6FCF7
:10415000002001F0A3FC662001F0A0FC002001F08B
:104160009DFC672001F09AFC002001F097FC67207D
:1041700001F094FC002001F091FC872001F08EFCFE
:10418000002001F08BFC992001F088FC002001F058
:1041900085FCBB2001F082FC002001F07FFC99200F
:1041A00001F07CFC002001F079FC772001F076FC26
:1041B000002001F073FC442001F070FC002001F0AD
:1041C0006DFC562001F06AFC002001F067FC232002
:1041D00001F064FC002001F061FC332001F05EFC82
:1041E000002001F05BFC452001F058FC002001F0AC
:1041F00055FCE82001F058FC002001F04FFC0020A5
:1042000001F04CFC992001F049FC002001F046FC33
:10421000872001F043FC002001F040FC882001F0E1
:104220003DFC002001F03AFC772001F037FC002033
:1042300001F034FC662001F031FC002001F02EFC7E
:10424000882001F02BFC002001F028FCAA2001F0BE
:1042500025FC002001F022FCBB2001F01FFC002007
:1042600001F01CFC992001F019FC002001F016FC63
:10427000662001F013FC002001F010FC552001F035
:104280000DFC002001F00AFC552001F007FC002085
:1042900001F004FC442001F001FC002001F0FEFBD1
:1042A000442001F0FBFB002001F0F8FB552001F059
:1042B000F5FB002001F0F2FBE92001F0F5FBAA205C
:1042C00001F0ECFB002001F0E9FB002001F0E6FB2F
:1042D000002001F0E3FB002001F0E6FBAA2001F042
:1042E000DDFBCF2001F0E0FB002001F0D7FB002038
:1042F00001F0D4FB002001F0D1FB002001F0CEFB47
:10430000002001F0CBFB002001F0C8FB002001F0F1
:10431000C5FB002001F0C2FB002001F0BFFB002024
:1043200001F0BCFB002001F0B9FB002001F0B6FB5E
:10433000002001F0B3FB002001F0B0FB002001F0F1
:10434000ADFB002001F0AAFB002001F0A7FBF0204C
:1043500001F0AAFB002001F0A1FB502001F09EFB20
:10436000002001F09BFB002001F098FB002001F0F1
:1043700095FBF32001F098FB002001F08FFBF92062
:1043800001F092FB062001F089FB102001F086FB72
:10439000292001F083FB002001F080FB3A2001F08E
:1043A00083FB552001F07AFB112001F07DFB642096
:1043B00005F03AF9292001F077FB352001F074FB74
:1043C000002001F06BFB512001F06EFBFF2001F09B
:1043D00065FB532001F068FB2C2001F05FFB5520AA
:1043E00001F062FB822001F059FB2C2001F05CFB04
:1043F00001F048B8FE48808845F2105188427DD1CE
:1044000055214FF4704001F05FFBAA214FF20100EB
:1044100001F05AFB52214FF2020001F055FB082136
:104420004FF2030001F050FB01214FF2040001F0B4
:104430004BFB0D214FF4304001F046FB0D214BF2B8
:10444000010001F041FB0D214BF2020001F03CFBA9
:1044500034214FF4364001F037FB34214BF2016038
:1044600001F032FB34214BF2026001F02DFB0D21F3
:104470004FF4314001F028FB0D214BF2011001F007
:1044800023FB0D214BF2021001F01EFB34214FF4EF
:10449000374001F019FB34214BF2017001F014FB9D
:1044A00034214BF2027001F00FFB00214FF4324037
:1044B00001F00AFB00214BF2012001F005FB002175
:1044C0004BF2022001F000FB24214FF4384001F0B0
:1044D000FBFA24214BF6010001F0F6FA24214BF6F9
:1044E000020001F0F1FA01214FF43F4001F0ECFA33
:1044F0000F214FF4334001F0E7FA00E0FDE30F2114
:104500004BF2013001F0E0FA0F214BF2023001F0E2
:10451000DBFA34214FF4394001F0D6FA34214BF65E
:10452000011001F0D1FA34214BF6021001F0CCFA5F
:1045300008214FF4354001F0C7FA08214BF2015031
:1045400001F0C2FA08214BF2025001F0BDFA03213A
:104550004FF4424001F0B8FA24214FF43A4001F000
:10456000B3FA24214BF6012001F0AEFA24214BF6D8
:10457000022001F0A9FA00214FF43C4001F0A4FA16
:1045800078214BF6014001F09FFA00214BF60240E2
:1045900001F09AFA00214FF43D4001F095FA78219C
:1045A0004BF6015001F090FA00214BF6025001F059
:1045B0008BFA00214FF43E4001F086FA64214BF65D
:1045C000016001F081FA00214FF4514001F07CFAC2
:1045D00033214DF2011001F077FA00214DF2021063
:1045E00001F072FA34214DF2031001F06DFA00214E
:1045F0004DF2041001F068FA3A214DF2051001F075
:1046000063FA00214DF2061001F05EFA4A214DF2E4
:10461000071001F059FA00214DF2081001F054FA88
:104620005C214DF2091001F04FFA00214DF20A1001
:1046300001F04AFA81214DF20B1001F045FA0021F8
:104640004DF20C1001F040FAA6214DF20D1001F0D0
:104650003BFA00214DF20E1001F036FAE5214DF241
:104660000F1001F031FA01214DF2101001F02CFA77
:1046700013214DF2111001F027FA01214DF2121011
:1046800001F022FA54214DF2131001F01DFA01211C
:104690004DF2141001F018FA82214DF2151001F0BC
:1046A00013FA01214DF2161001F00EFACA214DF253
:1046B000171001F009FA02214DF2181001F004FA66
:1046C00000214DF2191001F0FFF902214DF21A10EC
:1046D00001F0FAF901214DF21B1001F0F5F9022168
:1046E0004DF21C1001F0F0F934214DF21D1001F0D3
:1046F000EBF902214DF21E1001F0E6F967214DF2AF
:104700001F1001F0E1F902214DF2201001F0DCF957
:1047100084214DF2211001F0D7F902214DF222102F
:1047200001F0D2F9A4214DF2231001F0CDF90221BC
:104730004DF2241001F0C8F9B7214DF2251001F017
:10474000C3F902214DF2261001F0BEF9CF214DF23E
:10475000271001F0B9F902214DF2281001F0B4F947
:10476000DE214DF2291001F0AFF902214DF22A109D
:1047700001F0AAF9F2214DF22B1001F0A5F9022166
:104780004DF22C1001F0A0F9FE214DF22D1001F098
:104790009BF903214DF22E1001F096F910214DF2F4
:1047A0002F1001F091F903214DF2301001F08CF936
:1047B00033214DF2311001F087F903214DF232100F
:1047C00001F082F96D214DF2331001F07DF90021E5
:1047D0004FF4524001F078F933214DF2012001F0FD
:1047E00073F900214DF2022001F06EF9342101E04D
:1047F000200300204DF2032001F066F900214DF264
:10480000042001F061F93A214DF2052001F05CF934
:1048100000214DF2062001F057F94A214DF2072000
:1048200001F052F900214DF2082001F04DF95C2110
:104830004DF2092001F048F900214DF20A2001F063
:1048400043F981214DF20B2001F03EF900214DF298
:104850000C2001F039F9A6214DF20D2001F034F9B8
:1048600000214DF20E2001F02FF9E5214DF20F202D
:1048700001F02AF901214DF2102001F025F9132150
:104880004DF2112001F020F901214DF2122001F02A
:104890001BF954214DF2132001F016F901214DF2BC
:1048A000142001F011F982214DF2152001F00CF9CC
:1048B00001214DF2162001F007F9CA214DF217200F
:1048C00001F002F902214DF2182001F0FDF800215B
:1048D0004DF2192001F0F8F802214DF21A2001F0F2
:1048E000F3F801214DF21B2001F0EEF802214DF208
:1048F0001C2001F0E9F834214DF21D2001F0E4F80C
:1049000002214DF21E2001F0DFF867214DF21F2039
:1049100001F0DAF802214DF2202001F0D5F88421CF
:104920004DF2212001F0D0F802214DF2222001F0B9
:10493000CBF8A4214DF2232001F0C6F802214DF25C
:10494000242001F0C1F8B7214DF2252001F0BCF878
:1049500002214DF2262001F0B7F8CF214DF2272099
:1049600001F0B2F802214DF2282001F0ADF8DE216D
:104970004DF2292001F0A8F802214DF22A2001F081
:10498000A3F8F2214DF22B2001F09EF802214DF206
:104990002C2001F099F8FE214DF22D2001F094F821
:1049A00003214DF22E2001F08FF810214DF22F201F
:1049B00001F08AF803214DF2302001F085F833210F
:1049C0004DF2312001F080F803214DF2322001F048
:1049D0007BF86D214DF2332001F076F800214FF481
:1049E000534001F071F833214DF2013001F06CF8C1
:1049F00000214DF2023001F067F834214DF203300E
:104A000001F062F800214DF2043001F05DF83A2126
:104A10004DF2053001F058F800214DF2063001F05A
:104A200053F84A214DF2073001F04EF800214DF2C3
:104A3000083001F049F85C214DF2093001F044F8EA
:104A400000214DF20A3001F03FF881214DF20B3088
:104A500001F03AF800214DF20C3001F035F8A621B2
:104A60004DF20D3001F030F800214DF20E3001F022
:104A70002BF8E5214DF20F3001F026F801214DF21F
:104A8000103001F021F813214DF2113001F01CF823
:104A900001214DF2123001F017F854214DF213307C
:104AA00001F012F801214DF2143001F00DF88221CD
:104AB0004DF2153001F008F801214DF2163001F0E9
:104AC00003F8CA214DF2173000F0FEFF02214DF22B
:104AD000183000F0F9FF00214DF2193000F0F4FF1A
:104AE00002214DF21A3000F0EFFF01214DF21B3090
:104AF00000F0EAFF02214DF21C3000F0E5FF342106
:104B00004DF21D3000F0E0FF02214DF21E3000F0AA
:104B1000DBFF67214DF21F3000F0D6FF02214DF27E
:104B2000203000F0D1FF84214DF2213000F0CCFF85
:104B300002214DF2223000F0C7FFA4214DF22330B4
:104B400000F0C2FF02214DF2243000F0BDFFB7217A
:104B50004DF2253000F0B8FF02214DF2263000F072
:104B6000B3FFCF214DF2273000F0AEFF02214DF20E
:104B7000283000F0A9FFDE214DF2293000F0A4FF1B
:104B800002214DF22A3000F09FFFF2214DF22B302E
:104B900000F09AFF02214DF22C3000F095FFFE212B
:104BA0004DF22D3000F090FF03214DF22E3000F039
:104BB0008BFF10214DF22F3000F086FF03214DF2C4
:104BC000303000F081FF33214DF2313000F07CFFB6
:104BD00003214DF2323000F077FF6D214DF233307A
:104BE00000F072FF00214FF4544000F06DFF3321BC
:104BF0004DF2014000F068FF00214DF2024000F04C
:104C000063FF34214DF2034000F05EFF00214DF2BE
:104C1000044000F059FF3A214DF2054000F054FFE6
:104C200000214DF2064000F04FFF4A214DF20740AF
:104C300000F04AFF00214DF2084000F045FF5C21E2
:104C40004DF2094000F040FF00214DF20A4000F013
:104C50003BFF81214DF20B4000F036FF00214DF269
:104C60000C4000F031FFA6214DF20D4000F02CFF6A
:104C700000214DF20E4000F027FFE5214DF20F40DC
:104C800000F022FF01214DF2104000F01DFF132122
:104C90004DF2114000F018FF01214DF2124000F0DA
:104CA00013FF54214DF2134000F00EFF01214DF28D
:104CB000144000F009FF82214DF2154000F004FF7E
:104CC00001214DF2164000F0FFFECA214DF21740BF
:104CD00000F0FAFE02214DF2184000F0F5FE00212E
:104CE0004DF2194000F0F0FE02214DF21A4000F0A2
:104CF000EBFE01214DF21B4000E005E300F0E4FE75
:104D000002214DF21C4000F0DFFE34214DF21D4027
:104D100000F0DAFE02214DF21E4000F0D5FE6721C0
:104D20004DF21F4000F0D0FE02214DF2204000F075
:104D3000CBFE84214DF2214000F0C6FE02214DF24F
:104D4000224000F0C1FEA4214DF2234000F0BCFE41
:104D500002214DF2244000F0B7FEB7214DF225406C
:104D600000F0B2FE02214DF2264000F0ADFECF2150
:104D70004DF2274000F0A8FE02214DF2284000F03D
:104D8000A3FEDE214DF2294000F09EFE02214DF2ED
:104D90002A4000F099FEF2214DF22B4000F094FEE3
:104DA00002214DF22C4000F08FFEFE214DF22D40ED
:104DB00000F08AFE03214DF22E4000F085FE102106
:104DC0004DF22F4000F080FE03214DF2304000F004
:104DD0007BFE33214DF2314000F076FE03214DF28F
:104DE000324000F071FE6D214DF2334000F06CFE58
:104DF00000214FF4554000F067FE33214DF2015081
:104E000000F062FE00214DF2025000F05DFE342100
:104E10004DF2035000F058FE00214DF2045000F016
:104E200053FE3A214DF2055000F04EFE00214DF2A6
:104E3000065000F049FE4A214DF2075000F044FEB2
:104E400000214DF2085000F03FFE5C214DF2095068
:104E500000F03AFE00214DF20A5000F035FE8121AB
:104E60004DF20B5000F030FE00214DF20C5000F0DE
:104E70002BFEA6214DF20D5000F026FE00214DF232
:104E80000E5000F021FEE5214DF20F5000F01CFE07
:104E900001214DF2105000F017FE13214DF2115078
:104EA00000F012FE01214DF2125000F00DFE5421CF
:104EB0004DF2135000F008FE01214DF2145000F0A5
:104EC00003FE82214DF2155000F0FEFD01214DF24E
:104ED000165000F0F9FDCA214DF2175000F0F4FD14
:104EE00002214DF2185000F0EFFD00214DF2195053
:104EF00000F0EAFD02214DF21A5000F0E5FD01211B
:104F00004DF21B5000F0E0FD02214DF21C5000F06C
:104F1000DBFD34214DF21D5000F0D6FD02214DF293
:104F20001E5000F0D1FD67214DF21F5000F0CCFD66
:104F300002214DF2205000F0C7FD84214DF2215096
:104F400000F0C2FD02214DF2225000F0BDFDA4216F
:104F50004DF2235000F0B8FD02214DF2245000F034
:104F6000B3FDB7214DF2255000F0AEFD02214DF208
:104F7000265000F0A9FDCF214DF2275000F0A4FDEE
:104F800002214DF2285000F09FFDDE214DF2295004
:104F900000F09AFD02214DF22A5000F095FDF22119
:104FA0004DF22B5000F090FD02214DF22C5000F0FC
:104FB0008BFDFE214DF22D5000F086FD03214DF2B8
:104FC0002E5000F081FD10214DF22F5000F07CFD9D
:104FD00003214DF2305000F077FD33214DF2315076
:104FE00000F072FD03214DF2325000F06DFD6D2195
:104FF0004DF2335000F068FD00214FF4564000F0B0
:1050000063FD33214DF2016000F05EFD00214DF2A1
:10501000026000F059FD34214DF2036000F054FDB0
:1050200000214DF2046000F04FFD3A214DF2056081
:1050300000F04AFD00214DF2066000F045FD4A21D6
:105040004DF2076000F040FD00214DF2086000F0D5
:105050003BFD5C214DF2096000F036FD00214DF270
:105060000A6000F031FD81214DF20B6000F02CFD53
:1050700000214DF20C6000F027FDA6214DF20D60DD
:1050800000F022FD00214DF20E6000F01DFDE52133
:105090004DF20F6000F018FD01214DF2106000F09C
:1050A00013FD13214DF2116000F00EFD01214DF2B0
:1050B000126000F009FD54214DF2136000F004FD70
:1050C00001214DF2146000F0FFFC82214DF21560C9
:1050D00000F0FAFC01214DF2166000F0F5FCCA2147
:1050E0004DF2176000F0F0FC02214DF2186000F064
:1050F000EBFC00214DF2196000F0E6FC02214DF2BC
:105100001A6000F0E1FC01214DF21B6000F0DCFCB4
:1051100002214DF21C6000F0D7FC34214DF21D60DD
:1051200000F0D2FC02214DF21E6000F0CDFC6721A0
:105130004DF21F6000F0C8FC02214DF2206000F02B
:10514000C3FC84214DF2216000F0BEFC02214DF22F
:10515000226000F0B9FCA4214DF2236000F0B4FC01
:1051600002214DF2246000F0AFFCB7214DF2256022
:1051700000F0AAFC02214DF2266000F0A5FCCF2130
:105180004DF2276000F0A0FC02214DF2286000F0F3
:105190009BFCDE214DF2296000F096FC02214DF2CD
:1051A0002A6000F091FCF2214DF22B6000F08CFCA3
:1051B00002214DF22C6000F087FCFE214DF22D60A3
:1051C00000F082FC03214DF22E6000F07DFC1021E6
:1051D0004DF22F6000F078FC03214DF2306000F0BA
:1051E00073FC33214DF2316000F06EFC03214DF26F
:1051F000326000F069FC6D214DF2336000F064FC18
:1052000055214FF4704000F05FFCAA214FF20100DD
:1052100000F05AFC52214FF2020000F055FC082128
:105220004FF2030000F050FC00214FF2040000F0A8
:105230004BFCCC214FF4314000F046FC00214BF2F6
:10524000011000F041FC05214FF4364000F03CFC19
:1052500070214FF4374000F037FC70214BF20170A1
:1052600000F032FC01214FF4384000F02DFC032106
:105270004BF6010000F028FC03214BF6020000F081
:1052800023FC03214BF6030000F01EFC02214FF427
:105290003C4000F019FC00214BF6014000F014FCEA
:1052A00000214BF6024000F00FFCD0214FF44940A2
:1052B00000F00AFC02214CF6011000F005FC502120
:1052C0004CF6021000F000FC50214CF6031000F0E8
:1052D000FBFB50214CF6041000F0F6FB00214FF4CC
:1052E000545000F0F1FB55214FF4685000F0ECFBF6
:1052F0004FF4885000F0D8FB782004F0B3F94FF455
:10530000245000F0D1FBBDE06448808841F6631171
:105310008842F8D1E22000F0C7FB1D2000F0BEFB60
:10532000022000F0BBFB042000F0B8FB642004F076
:1053300099F9E02000F0B8FB012000F0AFFB0A2053
:1053400004F072F9E02000F0AFFB032000F0A6FBB0
:105350000C2004F069F9012000F0A6FB0A2004F0FB
:1053600063F9E62000F0A0FB2F2000F097FBFF2060
:1053700000F094FBFF2000F091FBB02000F094FBC4
:10538000202000F08BFB002000F088FB032000F0C1
:1053900085FB40F21F3000F081FB012000F07EFB16
:1053A00040F2DF1000F07AFB002000F077FBB42021
:1053B00000F07AFB042000F071FB40F21F4000F087
:1053C0006DFB002000F06AFB2E2000F067FB002040
:1053D00000F064FB002000F061FB002000F05EFBA9
:1053E000002000F05BFBB62000F05EFB022000F026
:1053F00055FB4FF4037000F051FB002000F04EFB12
:10540000172000F04BFB152000F048FB002000F0B7
:1054100045FB002000F042FBF02000F045FB03209C
:1054200000F03CFB292000F03FFBD02000F03CFBCB
:10543000002000F033FBBE2000F036FB052000F01A
:105440002DFBFE2000F02AFB012000F027FB0020AE
:1054500000F024FB002000F021FB002000F01EFBE8
:10546000B82000F021FB032000F018FB012000F021
:1054700015FBBA2000F018FB012000F00FFB6420A0
:1054800000F026F80020FDF791FA01200449086099
:105490004FF6FF70FDF770FA10BD000020030020EA
:1054A0008081214210B50246012000E050430B1ECE
:1054B000A1F10104E1B2F9D110BD000008B5034823
:1054C00000880090BDF8000008BD00000008006CD6
:1054D0002DE9F0470446BE2000F0E6FA052000F072
:1054E000DDFA204606F036FA07464FF066320C4BDE
:1054F00006F080FA054606F0E9F91FFA80F94846F9
:1055000000F0CCFA012000F0C9FAFF2000F0C6FA42
:10551000002000F0C3FA002000F0C0FABDE8F087D8
:105520006666044070B504460023002689488079E9
:10553000012805D18748808841F66311884208D147
:1055400084488079F0B98348808841F663118842A5
:1055500018D1082C15D2DFE804F00406080A0C0E56
:10556000101206240DE007240BE0042409E00524B2
:1055700007E0012405E0002403E0032401E0022405
:1055800000BF00BF082C1CD2DFE804F00406090CA1
:105590000F12151800BF14E043F0800311E043F030
:1055A00040030EE043F0C0030BE043F0200308E0AB
:1055B00043F0600305E043F0A00302E043F0E003A2
:1055C00000BF00BF6348808845F21051884202D175
:1055D0004FF4585600E036265E48808849F2413143
:1055E000884205D05B48808847F28971884201D1A2
:1055F00043F008031946304600F066FA55488088A3
:1056000041F6631188421DD003F0200068B1514873
:10561000008850494988884214DA4E4805884088F5
:105620004C490880084645800CE04A4800884949B2
:105630004988884206DD47480588408845490880F2
:10564000084645804348808845F21051884252D12F
:105650004049488900F028FA002000F01FFA3D492F
:105660004989491C88B200F01FFA002000F016FAA0
:1056700038494989891C88B200F016FA35490988E9
:10568000491EC1F30F2000F009FA32494989C91CAB
:1056900088B200F009FA2F490978491EC8B200F013
:1056A000FDF92C49888900F0FFF9002000F0F6F997
:1056B00028498989491C88B200F0F6F9002000F0D9
:1056C000EDF924498989891C88B200F0EDF9214956
:1056D0004988491EC1F30F2000F0E0F91D4989896E
:1056E000C91C88B200F0E0F91A498978491EC8B28D
:1056F00000F0D4F92DE01749488900F0D5F90020D1
:1057000000F0CCF9002000F0C9F912490988491EBF
:10571000C1F30F2000F0C2F90E490978491EC8B242
:1057200000F0BCF90B49888900F0BEF9002000F0B8
:10573000B5F9002000F0B2F906494988491EC1F3C5
:105740000F2000F0ABF903498978491EC8B200F078
:10575000A5F970BD2003002000B502460B46454860
:10576000808841F66311884247D142488079A8B9C0
:1057700040480088401E801A82B23E49488900F0A5
:1057800093F9002000F08AF9002000F087F9101248
:1057900000F084F9D0B200F081F916E0354948896B
:1057A00000F082F9101200F079F9D0B200F076F929
:1057B00030490988491EC1F30F2000F06FF92D49C7
:1057C0000978491EC8B200F069F92A49888900F0B1
:1057D0006BF9181200F062F9D8B200F05FF92549B0
:1057E0004988491EC1F30F2000F058F921498978F2
:1057F000491EC8B200F052F93AE01E48808845F2CE
:105800001051884220D11B49488900F04DF91012EF
:1058100000F044F917494989491C88B200F044F95D
:10582000D0B200F03BF91349888900F03DF9181215
:1058300000F034F90F498989491C88B200F034F925
:10584000D8B200F02BF913E00A49488900F02CF98E
:10585000101200F023F9D0B200F020F90549888930
:1058600000F022F9181200F019F9D8B200F016F978
:1058700000BD0000200300202DE9F84F80460E46B1
:1058800017461C46B3462046E31704EB5373DB1060
:1058900021464FEAE47C04EB5C7C4FEAEC0CA4EB81
:1058A000CC0CBCF1000F02D04FF0010C01E04FF026
:1058B000000C6344224604EBD27C4FEA6C0C03FBE1
:1058C0000CF3DBB20093A7F12000C7B2002556E02D
:1058D0000C2C07D107EB47002B4901EB800010F897
:1058E000059013E0102C05D1284800EB071010F8A4
:1058F00005900BE0182C07D107EBC700244901EBFA
:10590000800010F8059001E0BDE8F88F4FF0000A24
:105910002FE009F0800030B11E4802883146404631
:10592000FDF7B0F907E00A9828B91B48028831460C
:105930004046FDF7A7F94FEA49604FEA1069701C2D
:1059400086B216484088B04200DCDDE7A6EB0B00CB
:10595000A0420AD15E4608F101001FFA80F80F4804
:105960000088404500DCCFE706E00AF1010000F0C6
:10597000FF0ABAF1080FCCDB00BF681CC5B2009863
:105980008542A5DB00BFBFE71AC600088ECA000823
:105990007ED000088E000020900000202003002010
:1059A0002DE9FF4F81B0074691461E460E9D4FF0F0
:1059B000000A002439E0301B401EC1B20A20FFF764
:1059C00071FDB9FBF0F00A21B0FBF1F201FB120806
:1059D000BAF1000F16D1701EA04213DDB8F1000F0E
:1059E0000ED10020AB4605EBDB71491001FB0471C1
:1059F000009088B22B4620220299FFF73DFF12E06B
:105A00004FF0010A0020AB4605EBDB71491001FBAA
:105A10000471009088B208F13001CAB22B46029995
:105A2000FFF72AFF00BF601CC4B2B442C3DB05B05D
:105A3000BDE8F08F2DE9F84704460D46904699469B
:105A4000DDE9096704F0FF0A08EB04001FFA80F89B
:105A500009EB05001FFA80F916E0444502DB5446C5
:105A6000A81985B24D4500DB14E0002000903A787B
:105A7000334629462046FFF7FFFE304606EBD0713D
:105A800004EB61018CB27F1C38787E2802DC387808
:105A90002028E2DA00BFBDE8F8870000014908804D
:105AA000704700000008006C014908807047000042
:105AB000FE07006C02480089024908807047000018
:105AC00020030020FE07006C024A1080921C118007
:105AD00070470000FE07006C00B500201549086102
