:020000040800F2
:10000000F8A300200DDD0208AD020008AF020008D1
:10001000B1020008B3020008B502000800000000A9
:10002000000000000000000000000000B70200080F
:10003000B902000800000000BB020008BD02000871
:1000400027DD020827DD020827DD020827DD020878
:1000500027DD020827DD020827DD020827DD020868
:1000600027DD020827DD020827DD020827DD020858
:1000700027DD020827DD020827DD020827DD020848
:1000800027DD020827DD020827DD020827DD020838
:1000900027DD020827DD020827DD020827DD020828
:1000A00027DD020827DD020827DD020827DD020818
:1000B00027DD0208BF5E000827DD020827DD0208F1
:1000C00027DD020827DD020827DD020827DD0208F8
:1000D00027DD02083F6300083D64000827DD0208B1
:1000E00027DD020827DD020827DD020827DD0208D8
:1000F00027DD020827DD020827DD020827DD0208C8
:1001000027DD020827DD0208235C000827DD02083E
:1001100027DD020827DD0208C761000827DD020885
:1001200027DD020827DD020827DD020827DD020897
:1001300000F002F800F065F80AA090E8000C824494
:100140008344AAF10107DA4501D100F05AF8AFF271
:10015000090EBAE80F0013F0010F18BFFB1A43F0A5
:100160000103184794700300B47003000A444FF071
:10017000000C10F8013B13F0070408BF10F8014B06
:100180001D1108BF10F8015B641E05D010F8016B4B
:10019000641E01F8016BF9D113F0080F1EBF10F8AF
:1001A000014BAD1C0C1B09D16D1E58BF01F801CBD2
:1001B000FAD505E014F8016B01F8016B6D1EF9D555
:1001C0009142D6D37047000000230024002500266A
:1001D000103A28BF78C1FBD8520728BF30C148BFAA
:1001E0000B60704764292FF05D8478292FF0968486
:1001F00073292FF08986002070471FB51FBD10B5E9
:1002000010BD2FF0BBFE1146FFF7F7FF00F008F816
:100210002FF0D9FE03B4FFF7F2FF03BC06F038F865
:100220004FF4A0602DF092FD05F0E6FF00F0F2F82B
:100230004FF4E134204606F035F8204606F0ABF8DE
:1002400000F022F923214FF6FF7005F0FCFC40F28C
:100250001F1141F2873005F01DFF05F078FD1420D5
:1002600005F0F8FF40F22F210F482FF06CF941F60E
:100270001F41012005F0A8FC08F065FE06F0B9FA60
:1002800006F0FDFA2FF0D5F92FF0ECF92FF095FAE2
:100290002FF06EFA052005F0DDFF23F033FF06F0A6
:1002A000FAF806F0ADF9F5E7000800407047FEE700
:1002B000FEE7FEE7FEE770477047704770470000B3
:1002C0000CB500214B4801910091026842F4803244
:1002D00002604FF4A063026802F400320092019AB7
:1002E000521C0192009A12B9019A9A42F3D1026803
:1002F000920333D5012100913F490A6842F0100270
:100300000A600A6822F003020A600A6842F00202E8
:100310000A604168416041684160416841F4806120
:100320004160416821F47C114160416841F4E81169
:100330004160016841F08071016001688901FCD56C
:10034000416821F003014160416841F002014160D0
:100350004168C1F381010229FAD10CBD00910CBDA5
:10036000244810B5016841F0010101604168234A49
:10037000114041600168224A11400160016821F486
:1003800080210160416821F4FE0141604FF41F01AA
:100390008160FFF795FF1B494FF00060086010BDBA
:1003A000144910B54868184A10F00C03174803D0D8
:1003B000042B01D0082B0AD002604968134AC1F30C
:1003C0000311121D515C0268CA40026010BD4A68E8
:1003D0004B6802F470124FF0020413F4803F04EBF8
:1003E000924202D04B689B0301D5094B00E0064BBB
:1003F0005A43E1E700100240002002400000FFF8ED
:10040000FFFFF6FE08ED00E000127A000000002079
:1004100000093D00F8B5012148202EF06EF9202496
:10042000ADF800401025154F8DF8035003268DF8C8
:100430000260694638462DF076FF202138462DF0BF
:10044000E0FFADF800400E4C694620462DF06BFFF2
:10045000202120462DF0D5FF0220ADF80000094CE8
:100460008DF803508DF80260694620462DF05BFF41
:10047000022120462DF0C5FFF8BD0000000C014010
:10048000001801400008014008B5012144202EF069
:1004900034F91820ADF8000048208DF803006946B3
:1004A0002D482DF040FF0120ADF8000028208DF8E8
:1004B0000300694629482DF036FF08BD2DE9F041BB
:1004C000274C264F244D012608B1267001E02078E4
:1004D00078B1102128462DF080FF88B108212846E8
:1004E0002DF07BFF60B1012138462DF076FF012809
:1004F00006D0102128462DF070FF01281DD028E0DD
:100500000A2005F0A7FE00202070102128462DF0BB
:1005100064FF58B1082128462DF05FFF48B1012142
:1005200038462DF05AFF012805D012E00120BDE821
:10053000F0810220FBE70320F9E7082128462DF08F
:100540004CFF012805D1012138462DF046FF00B9A6
:1005500026700020EBE70000001801400008014071
:1005600014000020FE4908807047FD49891C08805E
:100570007047FB4808B5801C0088ADF80000BDF846
:10058000000008BDF64A1080901C01807047F449B5
:1005900010B50880052005F046FEBDE81040E8E7EC
:1005A000F048EF49008908807047ED49891C0880B0
:1005B0007047C0F34511C20AC00200EB411010445D
:1005C00080B27047401EC0B2FCD270472DE9F04F98
:1005D000E44E0C4601464FEA102C3046B588DFF851
:1005E00080B38289230A4089A5F513470BF1020ADB
:1005F000413F1CD0A5F5A647103F18D0B64696F847
:1006000006903688A5F5D047A6EB0108A8F10108A9
:10061000043F13D0A5F5C857633F23D0A5F5AA47DB
:100620007646103F4ED0B9F1010F60D061E05D46D3
:10063000ABF800005046AAF800C00BE0B9F1010F7A
:1006400001D11FFA88F15D46ABF800000E0A504652
:10065000AAF80060C9B201802A800380E1B201805B
:10066000BDE8F08FB9F1000F1DD0ABF80000504687
:10067000AAF800C0C9B2AAF80010761E310AAAF87A
:100680000010F1B20180ABF800205046AAF800300B
:10069000E1B2AAF80010BEF80210491E0A0AAAF830
:1006A0000020C9B2DBE71FFA88F1ABF80000002692
:1006B0005046AAF80060AAF800600E0AAAF8006086
:1006C000C9B2DFE7ABF80000AAF800C0401CABF8E5
:1006D0000000C8B2AAF80000ABF80020AAF8003069
:1006E000521CABF80020E0B2AAF80000B8E71FFAED
:1006F00088F1FFF747FFB0892146BDE8F04F41E799
:10070000F0B5984C002635462288824202D962888C
:100710008A4201D80020F0BDFFF758FFA08849F2B7
:1007200041318F4B41F6631C45F2103245F21057B0
:10073000884208D0A0F5D04EBEF1040E03D09042FE
:1007400001D0604502D14FF02E0E06E0B84202D132
:100750004FF4385E01E04FF0220EA3F800E0A0F560
:100760001343203B03D10120401EC0B2FCD2FFF74F
:1007700000FFA3886345CED00120401EC0B2FCD24A
:10078000FFF7F7FE8446A088884203D0904201D04C
:10079000B8420CD10120401EC0B2FCD2FFF7E9FEE6
:1007A00005460CF0FF004FF6FF7303EA0026A08811
:1007B000A0F51343253B1FD0A0F58A43353B1BD042
:1007C000A0F58A43313B17D0A0F53543053B13D044
:1007D000A0F54543053B0FD0884203D0904201D09D
:1007E000B8420BD14FEADC204FEAC020B10A40EA00
:1007F000411040EAD520F0BD6046F0BDBDE8F040B4
:100800006046D6E6574856498088A0F51342413ADB
:1008100013D0A0F5D042043A0FD0A0F5A642103A6A
:100820000BD0A0F5C852633A07D0A0F5AA42103AFF
:1008300005D040F273110720A4E6292001E04FF40F
:10084000245008807047474845498088A0F51342E6
:10085000413A12D0A0F5D042043A0ED0A0F5A642FB
:10086000103A0AD0A0F5C852633A06D0A0F5AA42C1
:10087000103A04D00021072084E6282001E04FF43C
:10088000205008807047F0B5364C00232146A579EA
:10089000898846F6040241F66316012D01D02DB178
:1008A0001DE091421BD0B14202D118E0B14216D1F5
:1008B000082814D2DFE800F00406080A0C0E101213
:1008C00006200CE007200AE0042008E0052006E0EE
:1008D000012004E0002002E0032000E00220A1F556
:1008E000134C45F2103745F21055BCF1410C07D0BE
:1008F000914205D0B94203D0A94201D0B1427AD188
:10090000082812D2DFE800F0110406080A0C0E10C5
:1009100080230AE0402308E0C02306E0202304E00F
:10092000602302E0A02300E0E023A94202D14FF4BB
:10093000585000E03620B94205D0A94203D0B14258
:1009400001D043F00803914201D143F0020319465C
:10095000FFF718FEA088B0420FD09906218803E067
:10096000FE07006CCC020020628802D5914202D3BF
:1009700003E0914201D922806180FE498A1CA8428D
:100980006089088021D100231380431C0B80002341
:100990001380831C0B8023885B1E1D0A1580C01CDE
:1009A0000880D8B21080A089088000231380431CDF
:1009B0000B8000231380831C0B8063885B1E1C0A42
:1009C0001480C01C0880D8B212E000201080108073
:1009D0002088401E030A1380C0B21080A0890880BE
:1009E0000020108010806088401E010A1180C0B273
:1009F0001080F0BDFFE7082812D2DFE800F00406FF
:100A000008110A0C0E1030230AE0102308E02023FE
:100A100006E0382304E0282302E0182300E008233E
:100A2000BDE8F040032043F48051ABE500B5FFF78B
:100A3000CDFDFFF7B5FDD048CE49891C0088088060
:100A400000BD2DE9F04FDFF834830C460146060A5D
:100A500040469346B8F80450DFF818A38289230A69
:100A60004089A5F513470AF10209413F19D0A5F5C0
:100A7000A647103F15D0A5F5AA47103F15D0474609
:100A8000A5F5C85CBE793F887F1A7F1EBCF1630C58
:100A900020D0A5F5D04CBCF1040C33D0012E43D0AE
:100AA00043E05546AAF8000033E0AAF80000A9F890
:100AB0000060401CAAF80000C8B2A9F80000AAF81B
:100AC0000020A9F80030521CAAF80020E0B2A9F8D2
:100AD000000031E006B9B9B2AAF800000D0A484694
:100AE000A9F80050CFB2A9F80070A9F80050C9B217
:100AF000A9F80010AAF80020A9F80030E1B2A9F87E
:100B000000100DE0012E00D1B9B25546AAF8000040
:100B10000E0A4846A9F80060C9B2A9F800102A8058
:100B20000380E1B2018007E0B9B2FFF72BFDB8F80E
:100B30000C002146FFF726FDB8F80810AAF80010AF
:100B4000A9F800B08CE58B4A10B5BE211180941C29
:100B5000052121802FF0CFFC4FF06632884B2FF01B
:100B600019FD2FF09BFC208001202080FF20208099
:100B700000202080208010BD2DE9F04F7F492A24DD
:100B80002B25898845F2105A4FF4305B4FF4285ECC
:100B90004FF448764FF0F00C49F241394FF4A0730E
:100BA00045F210374FF4F07280B174484FF00108ED
:100BB000494580F806800380A0F802C001D0B94200
:100BC0003ED12C2606814481858157E06B484FF049
:100BD0000008494580F80680A0F800C0438006D090
:100BE000A1F5D04CBCF1040C01D0B9420CD12C269B
:100BF00006814481A1F5D0448581043C01D0B942ED
:100C000044D10380428041E0514507D1A0F808B0AB
:100C1000A0F80AE04FF42C5181810EE0A1F5C853F1
:100C2000633B06D022210181202141812121818144
:100C30002CE02C210181458184810280468025E0C1
:100C4000A1F5D04CBCF1040C09D051450BD1A0F852
:100C500008B0A0F80AE04FF42C54848120E02C2640
:100C60000681458109E0A1F5C85CBCF1630C11D097
:100C7000222404812124448120248481A1F5D044AC
:100C8000043C01D0B94201D102804380BDE8F04F5D
:100C90000020F8E54FF02C0CA0F808C044818581B5
:100CA00006804280EAE72DE9FC4F0E469146054654
:100CB00048441944401E491E84B288B2009105EB95
:100CC0000901491EC1F3072EDFF8B0C000994FEAB1
:100CD000152AC1F3072B6146BCF804308A8949897B
:100CE000A3F513474FEA1628413F10D0A3F5A647B6
:100CF000103F0CD0A3F5D047043F08D09CF80670F5
:100D000041F6631C0197012F17D1634515D1194B8B
:100D10001980991CA1F800A0EDB20D80A1F800E0A7
:100D2000E4B20C801A80A1F80080F2B20A80A1F827
:100D300000B0C0B20880BDE8FC8F104F63453F880B
:100D400026D1A7EB0900401B83B20A4D009884B25C
:100D50002980190AA81C0180D9B2018003EB09017E
:100D6000491E0B0A0380C9B201802A80A0F80080C6
:100D7000F1B207E0FE07006C16000020CC02002054
:100D8000666604400180210A0180E1B20180D2E759
:100D9000A3F5A04CBCF5A26C21D00199012941D04A
:100DA000234629463446074650204FF051094FF05C
:100DB00052084FF0530CFFF7E5FB19464846FFF782
:100DC000E1FB21464046FFF7DDFB39466046FFF771
:100DD000D9FB31462846BDE8FC4FFFF7F7BBFE4B79
:100DE00019809F1CA7F800A001F1010CA3F800C016
:100DF000EDB23D808D1C1D80A7F800E0C91C198054
:100E0000E1B239801A80A7F80080511C1980F1B234
:100E10003980911C1980A7F800B0D21C1A80C0B28A
:100E2000388088E70346381B401E84B2781B401E7A
:100E3000314687B2B8E72DE9F043E84C81460025FA
:100E4000208866884643A088A0F5D041043902D1A5
:100E5000A079012809D000210846FFF7B7FB00BFA1
:100E6000FFF79EFBDC48801C13E00020A0712A27BE
:100E700067814FF02B08A4F80C800146FFF7A6FB12
:100E80000120A071A4F80A80A781E9E7A0F80090EA
:100E90006D1CB542FAD3BDE8F0832DE9F04F012176
:100EA0000E02A1B030462DF01FFC01214FF4B470AA
:100EB0002DF023FC0127ADF840704FF010088DF89D
:100EC000438003248DF8424010A9C5482DF02BFA29
:100ED0004CF23370ADF8400018258DF843508DF872
:100EE000424010A9BF482DF01EFA4FF68070ADF8B1
:100EF00040008DF843508DF8424010A9BA482DF0BB
:100F000012FA41F20100ADF840008DF843508DF81F
:100F1000424010A9B5482DF006FA00200F21CDE976
:100F20001201119714901590169017901890CDE912
:100F3000190406211E901B901C90CDE90010CDE9EC
:100F400002081D9004903101CDE90801069005903A
:100F500007908900CDE90A010C9011A80D9018A8FE
:100F60000E9068462CF07FFF012106202DF0B0F88E
:100F7000322005F06FF90020FFF709FB974D964CE2
:100F800049F24139A88046F6040A45F2103B45F281
:100F900010574FF6FF78FF2804D3404502D0B0F534
:100FA000134F70D1D3202080FFF7E3FAA880FFF71A
:100FB000E0FAA880FFF7DDFA08EA00204146A880A1
:100FC000FFF7D7FAAA881043A88048455BD0BF2016
:100FD0002080FFF7CEFAA880FFF7CBFAA880FFF7B2
:100FE000C8FAA880FFF7C5FA01EA0020A880FFF739
:100FF000C0FAAA881043A880504544D0D42020804D
:10100000FFF7B7FAA880FFF7B4FAA880FFF7B1FAA4
:1010100001EA0020A880FFF7ACFAAA881043A88054
:10102000584530D04FF45A402080FFF7A2FAA880EC
:101030004FF45B402080FFF79CFA01EA0020A88073
:101040004FF45C402080FFF794FAAA881043A880F0
:10105000B0F5004F7ED0B84215D0A1202080FFF718
:1010600088FAA880FFF785FA01EA0020A880FFF738
:1010700080FAA9880843A0F5AE41A880613902D161
:1010800041F66310A880A98859A02EF0A1FCA88879
:10109000514DAD1C48457DD1CF20208000202880B7
:1010A000C120288030202880ED20208064202880E6
:1010B000032028801220288081202880E82020809A
:1010C00085202880102028807A202880CB2020802E
:1010D000392028802C202880002028803420288057
:1010E00002202880F720208020202880EA202080ED
:1010F000002028802880C02020801B202880C1203C
:10110000208001202880C520208030202880288051
:10111000C7202080B72028803620208048202880C3
:101120003A20208055202880B1202080002028806F
:101130001A202880B62020800A202880A22028801B
:10114000F220208000202880262020800120288076
:10115000E02000E065E020800F2028802A20288001
:1011600028202880082028800E2028800820288019
:1011700054202880A9202880432028800A20288005
:101180000F20288000202880288028802880E120C7
:10119000208000E047E000202880152028801720CC
:1011A00028800720288011202880062028802B20D6
:1011B0002880562028803C20288005202880102068
:1011C00028800F2028803F20288028800F2028801A
:1011D0002B202080002013E0FE07006CCC020020B2
:1011E000000C0140001401400018014000200140A3
:1011F000204C43442049443A25780D0A0000000061
:1012000028802880012028803F2028802A202080D4
:101210000020288028802880EF202880112020802E
:101220006EE0AF802FE7504571D11120208014204F
:1012300005F010F8D0202080072028804220288048
:101240001D202880D1202080002028801A2028807E
:1012500009202880D2202080012028802220288078
:10126000C0202080102028803B202880002028805B
:101270000220288011202880C5202080032028807B
:10128000C820208000202880252028802120288038
:1012900005202880002028800A20288065202880BA
:1012A0002520288077202880502028800F20288023
:1012B00000202880F820208001202880FE20208027
:1012C00000202880022028802020208036202080B6
:1012D000082028803A202080552028802B2020803C
:1012E000002028802880012028803F2028802A2074
:1012F000208000202880288001202880DF2028806E
:10130000782004F0A7FF292001F02EBCFFE7584504
:101310007ED1ED20208001202880FE202880EE2034
:101320002080DE20288021202880F12020800120BC
:101330002880DF20208010202880C42020808F205B
:101340002880C620208000202880E2202880288055
:101350002880BF202080AA202880B02020800D2057
:101360002880002028800D2028800020288011203F
:101370002880002028801920288000202880212013
:101380002880002028802D202880002028803D20D3
:101390002880002028805D202880002028805D2073
:1013A000288000202880B1202080802028800020F4
:1013B00028808B20288000202880962028800020EC
:1013C0002880B220208000202880288002202880C9
:1013D000002028800320288000202880B32020803F
:1013E0000020288028802880288028802880288045
:1013F00028802880288028802880288028802880AD
:10140000288028802880288028802880288000E064
:10141000FEE328802880B42020808B2028800020B4
:1014200028809620288000202880A1202880002065
:101430002880B520208002202880002028800320DA
:101440002880002028800420288000202880B620C2
:101450002080002028802880B7202080002028803D
:1014600028803F202880002028805E2028800020BF
:10147000288064202880002028808C20288000205C
:101480002880AC20288000202880DC2028800020B4
:10149000288070202880002028809020288000202C
:1014A0002880EB20288000202880DC202880002055
:1014B0002880B8202080002028802880288028804C
:1014C0002880288028802880BA2020802420288016
:1014D0000020288028802880C1202080202028808B
:1014E000002028805420288000202880FF20288089
:1014F00000202880C22020800A2028800020288008
:101500000420288000202880C32020803C202880C0
:10151000002028803A202880002028803920288038
:101520000020288037202880002028803C20288028
:101530000020288036202880002028803220288023
:10154000002028802F202880002028802C20288020
:10155000002028802920288000202880262028801C
:101560000020288024202880002028802420288013
:101570000020288023202880002028803C202880EC
:1015800000202880362028800020288032202880D3
:10159000002028802F202880002028802C202880D0
:1015A00000202880292028800020288026202880CC
:1015B00000202880242028800020288024202880C3
:1015C000002028802320288000202880C42020801C
:1015D0006220288000202880052028800020288084
:1015E0008420288000202880F02028800020288067
:1015F0001820288000202880A4202880002028800F
:101600001820288000202880502028800020288052
:101610000C20288000202880172028800020288087
:101620009520288000202880F32028800020288012
:10163000E620288000202880C520208032202880B5
:1016400000202880442028800020288065202880D1
:10165000002028807620288000202880882028806C
:1016600000202880C620208020202880002028807C
:101670001720288000202880012028800020288032
:10168000C720208000202880288028802880C8202B
:10169000208000202880288028802880C920208061
:1016A0000020288028802880288028802880288082
:1016B00028802880288028802880288028802880EA
:1016C0002880E020208016202880002028801C20F0
:1016D0002880002028802120288000202880362093
:1016E0002880002028804620288000202880522042
:1016F00028800020288064202880002028807A20EC
:101700002880002028808B20288000202880992095
:10171000288000202880A820288000202880B92048
:10172000288000202880C420288000202880CA200B
:10173000288000202880D220288000202880D920DE
:10174000288000202880E020288000202880F320A6
:10175000288000202880E12020801620288000207A
:1017600028801C202880002028802220288000201B
:1017700028803620288000202880452028800020CE
:101780002880522028800020288064202880002083
:1017900028807A202880002028808B202880002024
:1017A00028809920288000202880A82028800020D8
:1017B0002880B920288000202880C420288000208C
:1017C0002880CA20288000202880D220288000205D
:1017D0002880D820288000202880E0202880002031
:1017E0002880F320288000202880E2202080052007
:1017F0002880002028800B202880002028801B20A3
:101800002880002028803420288000202880442040
:101810002880002028804F202880002028806120F8
:101820002880002028807920288000202880882097
:101830002880002028809720288000202880A6204B
:10184000288000202880B720288000202880C220FF
:10185000288000202880C720288000202880D120D0
:10186000288000202880D620288000202880DD20A5
:10187000288000202880F320288000202880E32072
:10188000208005202880002028800A202880002031
:1018900028801C20288000202880332028800020D9
:1018A0002880442028800020288050202880002084
:1018B000288062202880002028807820288000202E
:1018C00028808820288000202880972028800020D9
:1018D0002880A620288000202880B720288000208B
:1018E0002880C220288000202880C720288000204F
:1018F0002880D120288000202880D5202880002022
:101900002880DD20288000202880F32028800020E7
:101910002880E420208001202880002028800120C9
:1019200028800020288002202880002028802A206B
:101930002880002028803C202880002028804B2000
:101940002880002028805D202880002028807420A6
:101950002880002028808420288000202880932050
:10196000288000202880A220288000202880B32002
:10197000288000202880BE20288000202880C420C5
:10198000288000202880CD20288000202880D32097
:10199000288000202880DD20288000202880F32057
:1019A000288000202880E5202080002028802880B2
:1019B0002880288002202880002028802920288054
:1019C000002028803C202880002028804B20288070
:1019D000002028805D202880002028807420288016
:1019E00000202880842028800020288093202880C0
:1019F00000202880A220288000202880B320288072
:101A000000202880BE20288000202880C420288034
:101A100000202880CD20288000202880D320288006
:101A200000202880DC20288000202880F3202880C7
:101A300000202880E6202080112028800020288097
:101A400034202880002028805620288000202880EC
:101A50007620288000202880772028800020288079
:101A60006620288000202880882028800020288068
:101A70009920288000202880BB20288000202880F2
:101A80009920288000202880662028800020288037
:101A9000552028800020288055202880002028807C
:101AA000452028800020288043202880002028808E
:101AB0004420288000202880E720208032202880B1
:101AC000002028805520288000202880762028802B
:101AD0000020288066202880002028806720288019
:101AE00000202880672028800020288087202880E8
:101AF000002028809920288000202880BB20288072
:101B000000202880992028800020288077202880A5
:101B1000002028804420288000202880562028800B
:101B2000002028802320288000202880332028803F
:101B3000002028804520288000202880E820208060
:101B40000020288028809920288000202880872055
:101B50002880002028808820288000202880772066
:101B60002880002028806620288000202880882067
:101B7000288000202880AA20288000202880BB20E0
:101B80002880002028809920288000202880662036
:101B9000288000202880552028800020288055207B
:101BA000288000202880442028800020288044208D
:101BB0002880002028805520288000202880E920C7
:101BC0002080AA202880002028802880288020804B
:101BD000AA202880CF2020800020288028802880EC
:101BE00028802880288028802880288028802880B5
:101BF000288028802880288028802880F020208045
:101C0000002028805020288000202880288000E0A4
:101C10002BE02880F320208000202880F9202080DD
:101C20000620288010202880292028800020288055
:101C30003A2020805520288011202080642004F044
:101C400009FB292020803520208000202880512079
:101C50002080FF202880532020802C2028805520A1
:101C60002080822028802C20FDE3B8427ED14FF4D2
:101C7000704355211846FEF785FC4FF20105AA2155
:101C80002846FEF77FFC6E1C52213046FEF77AFC98
:101C9000AF1C08213846FEF775FC4FF2040C0121F9
:101CA0006046FEF76FFC0D214FF43040FEF76AFCF2
:101CB0000D214BF20100FEF765FC0D214BF20200F5
:101CC000FEF760FC4FF4364934214846FEF75AFCD3
:101CD00034214BF20160FEF755FC34214BF20260D7
:101CE000FEF750FC4FF4314A0D215046FEF74AFCF6
:101CF0004BF2011B0D215846FEF744FC0D214BF21F
:101D00000210FEF73FFC34214FF43740FEF73AFC57
:101D100034214BF20170FEF735FC34214BF2027096
:101D2000FEF730FC00214FF43240FEF72BFC00217F
:101D30004BF20120FEF726FC00214BF20220FEF7B9
:101D400021FC24214FF43840FEF71CFC24214BF6E3
:101D50000100FEF717FC24214BF60200FEF712FCEF
:101D600001214FF43F40FEF70DFC00E0FEE30F21A0
:101D70004FF43340FEF706FC0F214BF20130FEF723
:101D800001FC0F214BF20230FEF7FCFB34214FF433
:101D90003940FEF7F7FB34214BF60110FEF7F2FB5A
:101DA00034214BF60210FEF7EDFB08214FF43540CD
:101DB000FEF7E8FB08214BF20150FEF7E3FB082198
:101DC0004BF20250FEF7DEFB03214FF44240FEF7D8
:101DD000D9FB24214FF43A40FEF7D4FB24214BF6E3
:101DE0000120FEF7CFFB24214BF60220FEF7CAFBB1
:101DF00000214FF43C40FEF7C5FB78214BF6014033
:101E0000FEF7C0FB00214BF60240FEF7BBFB0021B2
:101E10004FF43D40FEF7B6FB78214BF60150FEF73C
:101E2000B1FB00214BF60250FEF7ACFB00214FF452
:101E30003E40FEF7A7FB64214BF60160FEF7A2FBD4
:101E400000214FF45140FEF79DFB33214DF201106C
:101E5000FEF798FB00214DF20210FEF793FB3421B0
:101E60004DF20310FEF78EFB00214DF20410FEF739
:101E700089FB3A214DF20510FEF784FB00214DF25B
:101E80000610FEF77FFB4A214DF20710FEF77AFBA2
:101E900000214DF20810FEF775FB5C214DF2091090
:101EA000FEF770FB00214DF20A10FEF76BFB81215B
:101EB0004DF20B10FEF766FB00214DF20C10FEF701
:101EC00061FBA6214DF20D10FEF75CFB00214DF2E7
:101ED0000E10FEF757FBE5214DF20F10FEF752FBF7
:101EE00001214DF21010FEF74DFB13214DF21110A0
:101EF000FEF748FB01214DF21210FEF743FB54217F
:101F00004DF21310FEF73EFB01214DF21410FEF7C7
:101F100039FB82214DF21510FEF734FB01214DF201
:101F20001610FEF72FFBCA214DF21710FEF72AFB01
:101F300002214DF21810FEF725FB00214DF2191079
:101F4000FEF720FB02214DF21A10FEF71BFB0121C8
:101F50004DF21B10FEF716FB02214DF21C10FEF78E
:101F600011FB34214DF21D10FEF70CFB02214DF246
:101F70001E10FEF707FB67214DF21F10FEF702FB54
:101F800002214DF22010FEF7FDFA84214DF22110BE
:101F9000FEF7F8FA02214DF22210FEF7F3FAA4211F
:101FA0004DF22310FEF7EEFA02214DF22410FEF757
:101FB000E9FAB7214DF22510FEF7E4FA02214DF2BD
:101FC0002610FEF7DFFACF214DF22710FEF7DAFADE
:101FD00002214DF22810FEF7D5FADE214DF229102C
:101FE000FEF7D0FA02214DF22A10FEF7CBFAF221C9
:101FF0004DF22B10FEF7C6FA02214DF22C10FEF71F
:10200000C1FAFE214DF22D10FEF7BCFA03214DF26C
:102010002E10FEF7B7FA10214DF22F10FEF7B2FA8C
:1020200003214DF23010FEF7ADFA33214DF231109D
:10203000FEF7A8FA03214DF23210FEF7A3FA6D2144
:102040004DF23310FEF79EFA00214FF45240FEF796
:1020500099FA33214DF20120FEF794FA00214DF256
:102060000220FEF78FFA34214DF20320FEF78AFAA0
:1020700000214DF20420FEF785FA3A214DF20520A9
:10208000FEF780FA00214DF20620FEF77BFA4A2186
:102090004DF20720FEF776FA00214DF20820FEF7F8
:1020A00071FA5C214DF20920FEF76CFA00214DF225
:1020B0000A20FEF767FA81214DF20B20FEF762FA43
:1020C00000214DF20C20FEF75DFAA6214DF20D2005
:1020D000FEF758FA00214DF20E20FEF753FAE521E3
:1020E0004DF20F20FEF74EFA01214DF21020FEF7BF
:1020F00049FA13214DF21120FEF744FA01214DF265
:102100001220FEF73FFA54214DF21320FEF73AFA5F
:1021100001214DF21420FEF735FA82214DF21520EF
:10212000FEF730FA01214DF21620FEF72BFACA21F4
:102130004DF21720FEF726FA02214DF21820FEF785
:1021400021FA00214DF21920FEF71CFA02214DF26E
:102150001A20FEF717FA01214DF21B20FEF712FAA2
:1021600002214DF21C20FEF70DFA34214DF21D2004
:10217000FEF708FA02214DF21E20FEF703FA67214E
:102180004DF21F20FEF7FEF902214DF22020FEF74E
:10219000F9F984214DF22120FEF7F4F902214DF2E4
:1021A0002220FEF7EFF9A4214DF22320FEF7EAF9F1
:1021B00002214DF22420FEF7E5F9B7214DF225204A
:1021C000FEF7E0F902214DF22620FEF7DBF9CF21E0
:1021D0004DF22720FEF7D6F902214DF22820FEF716
:1021E000D1F9DE214DF22920FEF7CCF902214DF282
:1021F0002A20FEF7C7F9F2214DF22B20FEF7C2F993
:1022000002214DF22C20FEF7BDF9FE214DF22D20CA
:10221000FEF7B8F903214DF22E20FEF7B3F9102195
:102220004DF22F20FEF7AEF903214DF23020FEF7DC
:10223000A9F933214DF23120FEF7A4F903214DF223
:102240003220FEF79FF96D214DF23320FEF79AF907
:1022500000214FF45340FEF795F933214DF2013040
:10226000FEF790F900214DF20230FEF78BF9342190
:102270004DF20330FEF786F900214DF20430FEF7EF
:1022800081F93A214DF20530FEF77CF900214DF23B
:102290000630FEF777F94A214DF20730FEF772F962
:1022A00000214DF20830FEF76DF95C214DF2093046
:1022B000FEF768F900214DF20A30FEF763F981213B
:1022C0004DF20B30FEF75EF900214DF20C30FEF7B7
:1022D00059F9A6214DF20D30FEF754F900214DF2C7
:1022E0000E30FEF74FF9E5214DF20F30FEF74AF9B7
:1022F00001214DF21030FEF745F913214DF2113056
:10230000FEF740F901214DF21230FEF73BF954215E
:102310004DF21330FEF736F901214DF21430FEF77D
:1023200031F982214DF21530FEF72CF901214DF2E1
:102330001630FEF727F9CA214DF21730FEF722F9C1
:1023400002214DF21830FEF71DF900214DF219302F
:10235000FEF718F902214DF21A30FEF713F90121A8
:102360004DF21B30FEF70EF902214DF21C30FEF744
:1023700009F934214DF21D30FEF704F902214DF226
:102380001E30FEF7FFF867214DF21F30FEF7FAF816
:1023900002214DF22030FEF7F5F884214DF2213074
:1023A000FEF7F0F802214DF22230FEF7EBF8A421FF
:1023B0004DF22330FEF7E6F802214DF22430FEF70D
:1023C000E1F8B7214DF22530FEF7DCF802214DF29D
:1023D0002630FEF7D7F8CF214DF22730FEF7D2F89E
:1023E00002214DF22830FEF7CDF8DE214DF22930E2
:1023F000FEF7C8F802214DF22A30FEF7C3F8F221A9
:102400004DF22B30FEF7BEF802214DF22C30FEF7D4
:10241000B9F8FE214DF22D30FEF7B4F803214DF24C
:102420002E30FEF7AFF810214DF22F30FEF7AAF84C
:1024300003214DF23030FEF7A5F833214DF2313053
:10244000FEF7A0F803214DF23230FEF79BF86D2124
:102450004DF23330FEF796F800214FF45440FEF76A
:1024600091F8332100E07FE34DF20140FEF78AF856
:1024700000214DF20240FEF785F834214DF2034071
:10248000FEF780F800214DF20440FEF77BF83A2178
:102490004DF20540FEF776F800214DF20640FEF7BA
:1024A00071F84A214DF20740FEF76CF800214DF219
:1024B0000840FEF767F85C214DF20940FEF762F82C
:1024C00000214DF20A40FEF75DF881214DF20B40EC
:1024D000FEF758F800214DF20C40FEF753F8A62104
:1024E0004DF20D40FEF74EF800214DF20E40FEF782
:1024F00049F8E5214DF20F40FEF744F801214DF275
:102500001040FEF73FF813214DF21140FEF73AF864
:1025100001214DF21240FEF735F854214DF21340DF
:10252000FEF730F801214DF21440FEF72BF882211E
:102530004DF21540FEF726F801214DF21640FEF748
:1025400021F8CA214DF21740FEF71CF802214DF286
:102550001840FEF717F800214DF21940FEF712F867
:1025600002214DF21A40FEF70DF800E0FEE20121D3
:102570004DF21B40FEF706F802214DF21C40FEF71B
:1025800001F834214DF21D40FDF7FCFF02214DF210
:102590001E40FDF7F7FF67214DF21F40FDF7F2FFE8
:1025A00002214DF22040FDF7EDFF84214DF2214044
:1025B000FDF7E8FF02214DF22240FDF7E3FFA421E1
:1025C0004DF22340FDF7DEFF02214DF22440FDF7DE
:1025D000D9FFB7214DF22540FDF7D4FF02214DF27E
:1025E0002640FDF7CFFFCF214DF22740FDF7CAFF70
:1025F00002214DF22840FDF7C5FFDE214DF22940B2
:10260000FDF7C0FF02214DF22A40FDF7BBFFF2218A
:102610004DF22B40FDF7B6FF02214DF22C40FDF7A5
:10262000B1FFFE214DF22D40FDF7ACFF03214DF22D
:102630002E40FDF7A7FF10214DF22F40FDF7A2FF1E
:1026400003214DF23040FDF79DFF33214DF2314023
:10265000FDF798FF03214DF23240FDF793FF6D2106
:102660004DF23340FDF78EFF00214FF45540FDF74A
:1026700089FF33214DF20150FDF784FF00214DF217
:102680000250FDF77FFF34214DF20350FDF77AFF32
:1026900000214DF20450FDF775FF3A214DF205502F
:1026A000FDF770FF00214DF20650FDF76BFF4A2148
:1026B0004DF20750FDF766FF00214DF20850FDF77F
:1026C00061FF5C214DF20950FDF75CFF00214DF2E6
:1026D0000A50FDF757FF81214DF20B50FDF752FFD5
:1026E00000214DF20C50FDF74DFFA6214DF20D508B
:1026F000FDF748FF00214DF20E50FDF743FFE521A5
:102700004DF20F50FDF73EFF01214DF21050FDF745
:1027100039FF13214DF21150FDF734FF01214DF225
:102720001250FDF72FFF54214DF21350FDF72AFFF1
:1027300001214DF21450FDF725FF82214DF2155075
:10274000FDF720FF01214DF21650FDF71BFFCA21B6
:102750004DF21750FDF716FF02214DF21850FDF70C
:1027600011FF00214DF21950FDF70CFF02214DF22F
:102770001A50FDF707FF01214DF21B50FDF702FF34
:1027800002214DF21C50FDF7FDFE34214DF21D508B
:10279000FDF7F8FE02214DF21E50FDF7F3FE672112
:1027A0004DF21F50FDF7EEFE02214DF22050FDF7D5
:1027B000E9FE84214DF22150FDF7E4FE02214DF2A5
:1027C0002250FDF7DFFEA4214DF22350FDF7DAFE83
:1027D00002214DF22450FDF7D5FEB7214DF22550D0
:1027E000FDF7D0FE02214DF22650FDF7CBFECF21A2
:1027F0004DF22750FDF7C6FE02214DF22850FDF79D
:10280000C1FEDE214DF22950FDF7BCFE02214DF242
:102810002A50FDF7B7FEF2214DF22B50FDF7B2FE24
:1028200002214DF22C50FDF7ADFEFE214DF22D5050
:10283000FDF7A8FE03214DF22E50FDF7A3FE102157
:102840004DF22F50FDF79EFE03214DF23050FDF763
:1028500099FE33214DF23150FDF794FE03214DF2E4
:102860003250FDF78FFE6D214DF23350FDF78AFE99
:1028700000214FF45640FDF785FE33214DF20160F3
:10288000FDF780FE00214DF20260FDF77BFE342152
:102890004DF20360FDF776FE00214DF20460FDF776
:1028A00071FE3A214DF20560FDF76CFE00214DF2FC
:1028B0000660FDF767FE4A214DF20760FDF762FEF4
:1028C00000214DF20860FDF75DFE5C214DF20960CC
:1028D000FDF758FE00214DF20A60FDF753FE8121FD
:1028E0004DF20B60FDF74EFE00214DF20C60FDF73E
:1028F00049FEA6214DF20D60FDF744FE00214DF288
:102900000E60FDF73FFEE5214DF20F60FDF73AFE48
:1029100001214DF21060FDF735FE13214DF21160DB
:10292000FDF730FE01214DF21260FDF72BFE542120
:102930004DF21360FDF726FE01214DF21460FDF704
:1029400021FE82214DF21560FDF71CFE01214DF2A2
:102950001660FDF717FECA214DF21760FDF712FE53
:1029600002214DF21860FDF70DFE00214DF21960B5
:10297000FDF708FE02214DF21A60FDF703FE01216A
:102980004DF21B60FDF7FEFD02214DF21C60FDF7CC
:10299000F9FD34214DF21D60FDF7F4FD02214DF2E9
:1029A0001E60FDF7EFFD67214DF21F60FDF7EAFDA8
:1029B00002214DF22060FDF7E5FD84214DF22160FA
:1029C000FDF7E0FD02214DF22260FDF7DBFDA421C1
:1029D0004DF22360FDF7D6FD02214DF22460FDF794
:1029E000D1FDB7214DF22560FDF7CCFD02214DF25E
:1029F0002660FDF7C7FDCF214DF22760FDF7C2FD30
:102A000002214DF22860FDF7BDFDDE214DF2296067
:102A1000FDF7B8FD02214DF22A60FDF7B3FDF2216A
:102A20004DF22B60FDF7AEFD02214DF22C60FDF75B
:102A3000A9FDFE214DF22D60FDF7A4FD03214DF20D
:102A40002E60FDF79FFD10214DF22F60FDF79AFDDE
:102A500003214DF23060FDF795FD33214DF23160D9
:102A6000FDF790FD03214DF23260FDF78BFD6D21E6
:102A70004DF23360FDF786FD55211846FDF782FDC6
:102A8000AA212846FDF77EFD52213046FDF77AFD4A
:102A900008213846FDF776FD00216046FDF772FDFE
:102AA000CC215046FDF76EFD00215846FDF76AFD2A
:102AB00005214846FDF766FD70214FF43740FDF7CC
:102AC00061FD70214BF20170FDF75CFD01214FF4B7
:102AD0003840FDF757FD03214BF60100FDF752FD8D
:102AE00003214BF60200FDF74DFD03214BF60300D9
:102AF000FDF748FD02214FF43C40FDF743FD002166
:102B00004BF60140FDF73EFD00214BF60240FDF77C
:102B100039FDD0214FF44940FDF734FD02214CF638
:102B20000110FDF72FFD50214CF60210FDF72AFD94
:102B300050214CF60310FDF725FD50214CF60410F2
:102B4000FDF720FD00214FF45450FDF71BFD5521EA
:102B50004FF46850FDF716FD4FF488502080782020
:102B600003F061FB4FF424502080FDE3A0F51341F6
:102B70004FF4E06940F2022A4FF4274B25392ED05A
:102B8000A0F5134140F2077728397CD0A0F5134116
:102B90004FF4887B203977D0A0F51341313974D0B8
:102BA000A0F5A841083971D0A0F5A8514FF4407B99
:102BB00005396CD0A0F53541053969D0A0F54541FE
:102BC000053966D0A0F58A4131397DD0A0F58A411A
:102BD00035397AD0A0F5C851633977D0C5E747F6C3
:102BE000F001E520FDF7CEFC31460120FDF7CAFCDF
:102BF00049460220FDF7C6FC41F230010320FDF7F3
:102C0000C1FC00210420FDF7BDFC51460820FDF762
:102C1000B9FC00210920FDF7B5FC00210A20FDF7D1
:102C2000B1FC00210C20FDF7ADFC00210D20FDF7CB
:102C3000A9FC00210F20FDF7A5FC00211020FDF7C5
:102C4000A1FC07211120FDF79DFC00211220FDF7BA
:102C500099FC00211320FDF795FC00210720FDF7CA
:102C600091FC41F290611020FDF78CFC40F227218D
:102C70001120FDF787FC9D211220FDF783FC4FF406
:102C8000C851132006E082E03EE1E3E1B9E255E3FA
:102C9000FDE3FDE3FDF776FC25212920FDF772FC1D
:102CA0000D212B20FDF76EFC07213020FDF76AFC7B
:102CB00040F203313120FDF765FC03213220FDF79E
:102CC00061FC40F2062102E0FEE3FEE3FEE3352074
:102CD000FDF758FC08213620FDF754FC40F2064170
:102CE0003720FDF74FFC4FF441713820FDF74AFCC7
:102CF00007213920FDF746FC40F202613C20FDF738
:102D000041FC08213D20FDF73DFC00215020FDF74E
:102D100039FCEF215120FDF735FC00215220FDF751
:102D200031FC40F23F115320FDF72CFC5946602046
:102D3000FDF728FC01216120FDF724FC00216A2019
:102D4000FDF720FC00218020FDF71CFC00218120E4
:102D5000FDF718FC00218220FDF714FC00218320E0
:102D6000FDF710FC00218420FDF70CFC00218520DC
:102D7000FDF708FC10219020FDF704FC4FF4C06122
:102D80009220FDF7FFFB40F233110720FEE341F2F2
:102D90008F01EC20FDF7F6FB41F23421EF20FDF727
:102DA000F1FB31460120FDF7EDFB49460220FDF71E
:102DB000E9FB41F230010320FDF7E4FB0021042090
:102DC000FDF7E0FB51460820FDF7DCFB0021092060
:102DD000FDF7D8FB00210A20FDF7D4FB01210C20D0
:102DE000FDF7D0FB00210D20FDF7CCFB00210F20CB
:102DF000FDF7C8FB00211020FDF7C4FB07211120BF
:102E0000FDF7C0FB00211220FDF7BCFB00211320C1
:102E1000FDF7B8FB01210720FDF7B4FB322003F0DA
:102E200019FA41F290411020FDF7ACFB40F2272146
:102E30001120FDF7A7FB322003F00CFA8A211220A3
:102E4000FDF7A0FB322003F005FA4FF4D051132018
:102E5000FDF798FB06212920FDF794FB0D212B207F
:102E6000FDF790FB322003F0F5F900212020FDF75B
:102E700089FB00212120FDF785FB322003F0EAF9D0
:102E800000213020FDF77EFB40F204613120FDF788
:102E900079FB40F205313220FDF774FB002135202B
:102EA000FDF770FB40F609413620FDF76BFB4FF450
:102EB00001713720FDF766FB40F201313820FDF744
:102EC00061FB39463920FDF75DFB00213C20FDF711
:102ED00059FB40F60A213D20FDF754FB322003F058
:102EE000B9F900215020FDF74DFBEF215120FDF7EE
:102EF00049FB00215220FDF745FB40F23F115320D2
:102F0000FDF740FB594651E100210846FDF73AFB29
:102F100031460120FDF736FB49460220FDF732FB22
:102F200041F230010320FDF72DFB00210420FDF7C5
:102F300029FB51460820FDF725FB00210920FDF75C
:102F400021FB00210A20FDF71DFB01210C20FDF7CC
:102F500019FB00210D20FDF715FB00210F20FDF7C7
:102F600011FB322003F076F940F201110720FDF742
:102F700009FB322003F06EF94FF486511020FDF763
:102F800001FB07211120FDF7FDFA5B46594612208F
:102F9000FDF7F8FA4FF430611320FDF7F3FA002142
:102FA0002920FDF7EFFA44F210012B20FDF7EAFA91
:102FB00000215020FDF7E6FAEF215120FDF7E2FA5B
:102FC00000215220FDF7DEFA40F23F115320FDF7B9
:102FD000D9FA4FF41C516020FDF7D4FA0121612089
:102FE000FDF7D0FA00216A20FDF7CCFA00218020FD
:102FF000FDF7C8FA00218120FDF7C4FA00218220E4
:10300000FDF7C0FA00218320FDF7BCFA00218420DF
:10301000FDF7B8FA00218520FDF7B4FA10219020C1
:10302000FDF7B0FA00219220FDF7ACFA01219320C0
:10303000FDF7A8FA19469520FDF7A4FA002197207C
:10304000FDF7A0FA00219820FDF79CFA40F27311D9
:10305000072086E341F21401E720FDF793FA314699
:103060000120FDF78FFA4FF400710220FDF78AFA74
:1030700041F238010320FDF785FA51460820FDF79B
:1030800081FA00210920FDF77DFA00210A20FDF7D1
:1030900079FA00210C20FDF775FA00210D20FDF7CB
:1030A00071FA00210F20FDF76DFA00211020FDF7C5
:1030B00069FA07211120FDF765FA00211220FDF7BA
:1030C00061FA00211320FDF75DFAC82003F0C2F871
:1030D00041F290611020FDF755FA40F227211120AE
:1030E000FDF750FA322003F0B5F80C211220FDF75D
:1030F00049FA322003F0AEF84FF400611320FDF7D7
:1031000041FA11212920FDF73DFA0B212B20FDF773
:1031100039FA322003F09EF800212020FDF732FA20
:1031200040F23F1421462120FDF72CFA00213020E7
:10313000FDF728FA4FF4837319463120FDF722FA80
:1031400000213220FDF71EFA4FF401713520FDF702
:1031500019FA41F20A613620FDF714FA3946372090
:10316000FDF710FA19463820FDF70CFA39463920D8
:10317000FDF708FA40F202413C20FDF703FA40F661
:103180000F413D20FDF7FEF900215020FDF7FAF92F
:10319000EF215120FDF7F6F900215220FDF7F2F959
:1031A00021465320FDF7EEF94FF41C516020FDF746
:1031B000E9F901216120FDF7E5F900216A20FDF719
:1031C000E1F900218020FDF7DDF900218120FDF7E4
:1031D000D9F900218220FDF7D5F900218320FDF7E0
:1031E000D1F900218420FDF7CDF900218520FDF7DC
:1031F000C9F910219020FDF7C5F94FF4C061922064
:10320000FEE331460120FDF7BDF949460220FDF7F6
:10321000B9F941F230010320FDF7B4F9002104208F
:10322000FDF7B0F940F207210820FDF7ABF90021C6
:103230000920FDF7A7F900210A20FDF7A3F90021D5
:103240000C20FDF79FF900210D20FDF79BF90021CF
:103250000F20FDF797F9142002F0FCFF41F2B06156
:103260001020FDF78FF901211120FDF78BF90121C5
:103270001720FDF787F94FF49C711220FDF782F9B2
:103280004FF400611320FDF77DF909212920FDF796
:1032900079F909212A20FDF775F90021A420FDF70D
:1032A00071F900215020FDF76DF9EF215120FDF754
:1032B00069F900215220FDF765F940F23F115320D2
:1032C000FDF760F94FF41C516020FDF75BF9012117
:1032D0006120FDF757F900216A20FDF753F900211D
:1032E0008020FDF74FF900218120FDF74BF90021E7
:1032F0008220FDF747F900218320FDF743F90021E3
:103300008420FDF73FF900218520FDF73BF91321CB
:103310009020FDF737F900219220FDF733F90321C2
:103320009320FDF72FF959469520FDF72BF940F230
:1033300073110720FDF726F9322011E10021072043
:10334000FDF720F9322002F085FF4FF48E71122034
:10335000FDF718F90121A420FDF714F90F21082029
:10336000FDF710F9082100E07CE30A20FDF70AF9D7
:1033700008210D20FDF706F939463020FDF702F946
:1033800007213120FDF7FEF840F203613220FDF7FE
:10339000F9F84C4649463320FDF7F4F851463420FD
:1033A000FDF7F0F802213520FDF7ECF841F60F713A
:1033B0003620FDF7E7F839463720FDF7E3F800211E
:1033C0003820FDF7DFF800213920FDF7DBF839461A
:1033D0003A20FDF7D7F800213B20FDF7D3F807216D
:1033E0003C20FDF7CFF800213D20FDF7CBF832203F
:1033F00002F030FF01210720FDF7C4F8012117205A
:10340000FDF7C0F8322002F025FF4FF4BD51102027
:10341000FDF7B8F840F217211120FDF7B3F84FF48B
:103420008F711220FDF7AEF84FF470611320FDF795
:10343000A9F800212A20FDF7A5F80A212920FDF787
:10344000A1F84FF49F711220FDF79CF80021502045
:10345000FDF798F8EF215120FDF794F80021522054
:10346000FDF790F840F23F115320FDF78BF84FF431
:103470001C516020FDF786F801216120FDF782F8DC
:1034800000216A20FDF77EF80021802001E06AE03B
:1034900068E1FDF777F800218120FDF773F800213E
:1034A0008220FDF76FF800218320FDF76BF80021E3
:1034B0008420FDF767F800218520FDF763F81321CC
:1034C0009020FDF75FF802E016E2CCE273E3594684
:1034D0009220FDF757F805219320FDF753F80021BE
:1034E0009520FDF74FF800219720FDF74BF80021BC
:1034F0009820FDF747F831460120FDF743F82146B3
:103500000220FDF73FF841F238010320FDF73AF8B9
:1035100000210420FDF736F800210C20FDF732F8D9
:1035200000210F20FDF72EF800212020FDF72AF8BA
:1035300000212120FDF726F821210720FDF722F8A0
:10354000142002F087FE61210720FDF71BF81420EC
:1035500002F080FE40F273110720FDF713F81420EB
:1035600002F078FEA1E300210846FDF70BF80021E8
:103570000846FDF707F800210846FDF703F800218B
:103580000846FCF7FFFF0121A42000E0E5E0FCF77E
:10359000F9FF142002F05EFE4FF41C542146602017
:1035A000FCF7F0FF554651460820FCF7EBFF4FF4BF
:1035B00005713020FCF7E6FF43F215713120FCF76E
:1035C000E1FF40F204613220FCF7DCFF40F61661B7
:1035D0003320FCF7D7FF42F211213420FCF7D2FF51
:1035E0004FF4A8513520FCF7CDFF48F207513620A3
:1035F000FCF7C8FF41F207413720FCF7C3FF41F257
:1036000003413820FCF7BEFF20213920FCF7BAFF28
:103610001A219020FCF7B6FF00211020FCF7B2FF22
:1036200007211120FCF7AEFF00211220FCF7AAFFB2
:1036300000211320FCF7A6FF142002F00BFE4FF42C
:10364000E6611020FCF79EFF40F237111120FCF7D5
:1036500099FF142002F0FEFD4FF4DC711220FCF7FC
:1036600091FF142002F0F6FD4FF470611320FCF777
:1036700089FF80212A20FCF785FF48212920FCF7BB
:1036800081FF142002F0E6FD31460120FCF77AFFAD
:1036900049460220FCF776FF41F238010320FCF78F
:1036A00071FF29460820FCF76DFF00210A20FCF776
:1036B00069FF00210C20FCF765FF00210D20FCF7BD
:1036C00061FF30210E20FCF75DFF00215020FCF748
:1036D00059FFEF215120FCF755FF00215220FCF744
:1036E00051FF40F23F115320FCF74CFF2146602070
:1036F000FCF748FF01216120FCF744FF00216A200C
:10370000FCF740FF11219020FCF73CFF4FF4C06113
:103710009220FCF737FF40F202419320FCF732FF82
:1037200002219420FCF72EFF142002F093FD0121CA
:103730000720FCF727FF142002F08CFD61210720F1
:10374000FCF720FF40F273110720FCF71BFF00215C
:103750002020FCF717FF00212120FCF713FF222176
:1037600000207DE100210846FCF70CFF00210846FF
:10377000FCF708FF142002F06DFD00210846FCF75D
:1037800001FF00210846FCF7FDFE00210846FCF77A
:10379000F9FE00210846FCF7F5FE0121A420FCF704
:1037A000F1FE142002F056FD4FF41C516020FCF78E
:1037B000E9FE40F606010820FCF7E4FE40F2037340
:1037C00019463020FCF7DEFE01213120FCF7DAFE3D
:1037D00004213220FCF7D6FE4FF481713320FCF730
:1037E000D1FE5C4659463420FCF7CCFE40F2031172
:1037F0003520FCF7C7FE1F213620FCF7C3FE194613
:103800003720FCF7BFFE01213820FCF7BBFE042166
:103810003920FCF7B7FE15219020FCF7B3FE4FF4DA
:1038200082611020FCF7AEFE40F247211120FCF728
:10383000A9FE4FF4DE711220FCF7A4FE4FF4606184
:103840001320FCF79FFE782002F004FD3146012092
:10385000FCF798FE4FF400710220FCF793FE41F252
:1038600030010320FCF78EFE08210A20FCF78AFEB7
:1038700000210C20FCF786FE20210E20FCF782FEA2
:1038800000210F20FCF77EFE00212020FCF77AFEAD
:1038900000212120FCF776FE3D212A20FCF772FE54
:1038A000142002F0D7FC2D212920FCF76BFE00210B
:1038B0005020FCF767FE4DF2EF015120FCF762FE4D
:1038C00000215220FCF75EFE40F23F115320FCF72E
:1038D00059FE00216120FCF755FE00216A20FCF70B
:1038E00051FE21469220FCF74DFE05219320FCF766
:1038F00049FE3146FFF7ACBB01210020FCF742FE38
:103900000A2002F0A7FC41F228611020FCF73AFEE1
:103910000E211220FCF736FE40F639211320FCF769
:1039200031FE0A2002F096FC40211120FCF72AFE0D
:1039300050211520FCF726FE0A2002F08BFC1E21E8
:103940001220FCF71FFE0A2002F084FC4FF4B15154
:103950001020FCF717FE42F639211320FCF712FE67
:103960000A2002F077FC31460120FCF70BFE594695
:103970000220FCF707FE41F238010320FCF702FEAB
:1039800051460820FCF7FEFD08210A20FCF7FAFD4D
:1039900000213020FCF7F6FD40F202413120FCF717
:1039A000F1FD4FF483713220FCF7ECFD40F203513E
:1039B0003320FCF7E7FD4FF482713420FCF7E2FD81
:1039C00040F201313520FCF7DDFD39463620FCF7A9
:1039D000D9FD40F205313720FCF7D4FD4FF40271D8
:1039E0003820FCF7CFFD40F60B713920FCF7CAFDFB
:1039F00002214120FCF7C6FD4FF41C51602000E07D
:103A0000D4E0FCF7BFFD01216120FCF7BBFD4FF4C2
:103A100004719020FCF7B6FD4FF485719220FCF7FD
:103A2000B1FD04219320FCF7ADFD3146A020FCF749
:103A3000A9FD01210720FCF7A5FD21210720FCF7A6
:103A4000A1FD23210720FCF79DFD33210720FCF772
:103A500099FD40F233110720FCF794FD0021A020CE
:103A6000FCF790FD21E130211520FCF78BFD1021A2
:103A70009A20FCF787FD20211120FCF783FD43F2FB
:103A800028411020FCF77EFD02211220FCF77AFD70
:103A900041F238011320FCF775FD282002F0DAFB13
:103AA00012210846FCF76EFD282002F0D3FB43F2FA
:103AB00020411020FCF766FD43F238011320FCF78B
:103AC00061FD462002F0C6FB00213020FCF75AFDC4
:103AD00040F202413120FCF755FD40F2073132201F
:103AE000FCF750FD4FF441713320FCF74BFD0421EE
:103AF0003420FCF747FD40F201413520FCF742FD40
:103B000039463620FCF73EFD40F205313720FCF700
:103B100039FD4FF4C26319463820FCF733FD1946CE
:103B20003920FCF72FFD31460120FCF72BFD5946CB
:103B30000220FCF727FD41F230010320FCF722FDB3
:103B400040F608010820FCF71DFD08210A20FCF7BB
:103B500019FD4FF41C516020FCF714FD0121612078
:103B6000FCF710FD4FF49F719020FCF70BFD3146E0
:103B70009220FCF707FD31469320FCF703FD4FF43C
:103B80004051A020FCF7FEFC1021A320FCF7FAFC1A
:103B900001210720FCF7F6FC21210720FCF7F2FCAD
:103BA00023210720FCF7EEFC33210720FCF7EAFC79
:103BB00040F233119EE6E22020802320288002205C
:103BC000288004202880642002F02DFBE020208043
:103BD000012028800A2002F03DFBE0202080032005
:103BE00028800C2002F036FB012020800A2002F001
:103BF00031FBE620208003202880FF2028802880B9
:103C0000B0202080202028800020288003202880C9
:103C100040F21F3028800120288040F2DF102880E9
:103C200000202880B42020800420288040F21F40FB
:103C3000288000202880D22028800020288028800A
:103C400028802880B6202080022028804FF403702E
:103C50002880002028802220288009202880002019
:103C600028802880F02020800320288029202080A0
:103C7000D020208000202880BE20208005202880A1
:103C8000FE20288001202880FF2028800020288016
:103C9000B82020800F20288001202880BA20208092
:103CA000012028806420FCF74EFF0120FCF764FF10
:103CB000FE490120C1F880014046FDF7BCF821B063
:103CC000BDE8F08F2DE9F843F94C1E468046A388E5
:103CD000089FA3F5D040043802D1A079012807D06D
:103CE000A2EB0800401C84B20D46DFF8C89328E020
:103CF00025880846A91AA5EB08030025A5713246B8
:103D00002A2565812B26491E5B1EA68189B29BB29E
:103D10000097FFF7D7FF0120A0716681A581BDE85C
:103D2000F88329464046FCF751FCFCF739FC00209B
:103D3000494602E00F80401C80B2A042FAD36D1CBD
:103D4000ADB2B542EDD9EAE72DE9F0478246A2EBE4
:103D50000A00401C0E4685B2981B401C87B2002406
:103D6000DFF85093DDF8208015E0301981B250461D
:103D7000FCF72CFCFCF714FC0020494607E000BFD0
:103D800004FB050338F813200A80401C80B2A842C7
:103D9000F6D3641CA4B2BC42E7D3BDE8F0872DE99A
:103DA000FE4F161ACDE900104FF000085D1A474685
:103DB0004FF0FF30002E02DD4FF0010102E003D191
:103DC0004FF000018B4602E08346C6F10006002D4D
:103DD00002DD4FF0010002E003D14FF00000824607
:103DE00002E08246C5F10005AE4201DD344600E046
:103DF0002C46601C4FF00009029018E0009881B238
:103E0000019880B2FCF712FEB0442F44A04504DDB7
:103E10000198A8EB040858440190A74203DD0098DC
:103E20003F1B5044009009F101001FFA80F90299EC
:103E30008945E3DDBDE8FE8FF0B51C4615460E460C
:103E400007460B46FFF7ABFF3A462346314610467E
:103E5000FFF7A5FF23462A4619463846FFF79FFF7E
:103E60002A4623463146BDE8F040104697E72DE943
:103E7000FC4F80460025144603200F46A0EB440665
:103E800049E0381B81B208EB050A01901FFA8AF05D
:103E9000FCF7CCFD781B81B208EB040900901FFAF7
:103EA00089F0FCF7C3FD07EB050B1FFA8BF11FFA36
:103EB00089F0FCF7BBFD07EB04091FFA89F11FFA33
:103EC0008AF0FCF7B3FDA8EB050A1FFA89F11FFA87
:103ED0008AF0FCF7ABFDA8EB04091FFA8BF11FFA7F
:103EE00089F0FCF7A3FD019881B21FFA8AF0FCF774
:103EF0009DFD009881B21FFA89F0FCF797FD6D1CBB
:103F0000002E03DA06EB8506B61D04E0281B06EB3F
:103F10008006641E0A36A542B3DDBDE8FC8F2DE99C
:103F2000FF4F1D460C468A46580700D0012000EB83
:103F3000D50069084843203A00F0FF09D0B20026B6
:103F4000DFF86CB1029044E00C2D11D0102D14D08C
:103F5000182D40D10298584900EBC00001EB8000B9
:103F60004FF00008875D38060CD5544802880DE0F4
:103F70000298534900EB4000F0E75249029801EBE8
:103F80000010EDE70D9828B94C484288214600986A
:103F9000FCF757FD7806070E641CBBF80200A4B2BC
:103FA000A04218D9A4EB0A00A84209D100985446AF
:103FB000401C80B20090BBF8001081420BD906E093
:103FC00008F1010000F0FF08B8F1080FCBD3761C10
:103FD000F6B24E45B8D3BDE8FF8F0246012000E09F
:103FE0005043491EC9B2FBD270472DE9FF4F81B043
:103FF0000026DDF838A01D46934681463446B0467B
:104000004FEA5A0727E0281B401EC1B20A20FFF7DB
:10401000E4FFBBFBF0F00A21B0FBF1F201FB120060
:1040200026B9691E8C4201DA48B101263030C2B28D
:1040300007FB049080B25346CDF8008006E007FBF2
:10404000049080B253462022CDF800800299FFF7F9
:1040500066FF641CE4B2AC42D5D305B030E62DE96E
:10406000FF4F81B04FF00008DDE90EBA1E468146D1
:1040700044460AF001054FEA5B073BE0301B401E57
:10408000C1B20A20FFF7A9FF0399B1FBF0F00A21A2
:10409000B0FBF1F201FB1200B8F1000F05D1711E67
:1040A0008C4202DAC0B14FF001080DE000802142DD
:1040B000CC0200200008006CF61C0308160000204B
:1040C00092120308061703083030C2B207FB0490AF
:1040D00080B25B46009508E05FEA0A6007FB049047
:1040E00080B25B46009508D530220299FFF717FF92
:1040F000641CE4B2B442C1D3AFE72022F5E72DE956
:10410000F84F044600F0FF0910190D46DDE90AB624
:104110001FFA80F8581987B24FF0000A12E04445A0
:1041200003D305EB0B004C4685B2BD420FD25B4674
:1041300029462046CDF800A0FFF7F1FE04EB5B0016
:1041400084B2761C3278A2F120005E28E7D9BDE85F
:10415000F88F000038B5012108202AF0CEFAC020DF
:10416000ADF8000010208DF803000320824C8DF87C
:104170000200694620462AF0D6F8C02120462AF0DF
:1041800040F938BD70B57C48016821F0704101608C
:10419000016841F040510160784C0120C4F89C0155
:1041A000C4F89801042004F5CC7402F03CF8002512
:1041B0006560042002F037F8256070BD6E4810B5C8
:1041C000016821F070410160016841F040510160D7
:1041D0006A4C0020C4F89801C4F89C01042004F53E
:1041E000CC7402F020F8012020606060BDE810402F
:1041F000042002F018B870B55F480024016821F06F
:1042000070410160016841F0004101605B4D012691
:10421000C5F89C61304602F006F8C5F898610120A7
:1042200002F001F807E0641CE4B2FA2C03D9FFF7AE
:10423000C5FF012070BDD5F81C010028F3D1C5F8D9
:10424000980170BD70B54D4C0025C4F898514A488E
:10425000016821F070410160016841F04051016046
:10426000C4F89C51022004F5CC7401F0DCFF01205D
:104270002060022001F0D7FF256070BD70B53F4C73
:104280000025C4F898513C48016821F07041016054
:10429000016841F0405101600126C4F89C61022090
:1042A00004F5CC7401F0BFFF2660022001F0BBFFD3
:1042B000256070BD2DE9F04106462F48016821F0C8
:1042C00070410160016841F0405101602B4C0027B2
:1042D000C4F898713D464FF00108300602D5C4F885
:1042E0009C8101E0C4F89C717006060E022001F06A
:1042F0009AFFC4F89881022001F095FFC4F89871E4
:10430000022001F090FF6D1CEDB2082DE5D3BDE851
:10431000F0812DE9F047814617480024016821F01B
:1043200070410160016841F000410160134E254673
:1043300027464FF0010800BFC6F89871022001F02F
:1043400072FFC6F898816006040ED6F81C0108B109
:10435000641CE4B2012001F066FF6D1CEDB2082D73
:10436000EAD3B9F1000F04D0FFF76CFF2046BDE897
:10437000F087FFF783FFF9E7000C0140008021423E
:10438000FFF7E8BE10B50446FFF7FCFE200AA021A7
:1043900001EB4000C0B2FFF78DFFFFF72CFFE0B24A
:1043A000FFF788FFFFF727FFFFF7ECFEA120FFF7DD
:1043B00081FFFFF720FF0020FFF7ABFF0446FFF768
:1043C000FDFE204610BD70B50D460446FFF7DAFE2F
:1043D000200AA02101EB4000C0B2FFF76BFFFFF7FE
:1043E0000AFFE0B2FFF766FFFFF705FF2846FFF779
:1043F00061FFFFF700FFFFF7E1FEBDE870400A2014
:1044000001F028BF2DE9F04116460D46074600246D
:1044100009E0E00025FA00F0C1B2381980B2FFF7D8
:10442000D2FF641CE4B2B442F3D3BDE8F0812DE9BD
:10443000F0410D460146002004464E1908E00702EF
:10444000301B401E80B2FFF79DFF641C3844E4B26D
:10445000AC42F4D3E9E710B5FF20FFF793FF5528EE
:104460000AD05521FF20FFF7AEFFFF20FFF78AFF9C
:10447000552801D0012010BD002010BD70B5144694
:104480000D46064608E03046711C8EB2FFF77AFFF3
:10449000641E05F8010BA4B2002CF4D170BD70B5F8
:1044A00016460C46054606E021782846FFF78BFFA6
:1044B0006D1CADB2641C761EB6B2F5D270BD0000A4
:1044C0002DE9F0470024DFF80094054627464FF019
:1044D0000108FE4E280602D5C9F8A48101E0C9F8FA
:1044E000A4716806050EC6F88471012001F09BFED8
:1044F000C6F88481641CE4B2082CEBD3BDE8F087D5
:104500002DE9F0470027F14D3C463E46C5F8847141
:10451000DFF8B483C8F8A471C8F8AC7105F5C275AA
:10452000FFF7CEFF062001F07EFE2E60012001F095
:104530007AFE4FF00109C5F80090484601F073FE7D
:104540002E60B2464E464FF6FF79A5F5C27500BF04
:1045500009EA4404C5F884A1012001F064FEC5F80D
:104560008461D5F8080108B1641CA4B27F1CFFB2B5
:10457000102FEDD32009C8F8AC61BFE7FEB50646A1
:1045800000256C463046FFF7BBFF24F815006D1C74
:10459000ADB2052DF6D30020431C99B20CE000BF4C
:1045A00034F8102034F81150AA4203D924F81050DE
:1045B00024F81120491C89B20529F1D398B20428A6
:1045C000EAD300215FF0010034F81020401C1144B0
:1045D00080B289B20428F7D30320B1FBF0F0FEBD0E
:1045E0002DE9F041BA4C06460D462078FFF7C6FF8C
:1045F00007466078FFF7C2FF378028800120BDE8BA
:10460000F0817FB50C460546694602A8FFF7E8FF32
:1046100000282FD001A903A8FFF7E2FF002829D026
:10462000BDF80C30BDF80820934203D803F13200E6
:10463000824205D39A421FD802F1320083421BD234
:10464000BDF80410BDF80000814203D801F1320624
:10465000B04204D388420FD8323081420CD2D018F5
:1046600040082880BDF80000BDF804100844400848
:104670002080012004B070BD0020FBE72DE9F0414F
:10468000044694480D460B46028004F10D0082B2A8
:10469000193880B2FFF783FB05F10D0083B219389A
:1046A00081B222461046FFF77AFB6E1C04F1010826
:1046B000B1B21FFA88F0FCF7B9F9B1B2661EB0B218
:1046C000FCF7B4F96F1EB9B21FFA88F0FCF7AEF927
:1046D000B9B2B0B2FCF7AAF929462046BDE8F041CC
:1046E0000622FFF7C4BB70B506467A480C46028026
:1046F0003046FCF79BF9751CA8B22146FCF796F9E9
:10470000641CA1B23046FCF791F9A1B2A8B2BDE891
:104710007040FCF78BB970B502466B48D0F82801A1
:104720006B4C241D40B194F8200001063ED520F0CA
:10473000800084F8200040E06548001D00F116016B
:104740000C3012B1FFF75DFF24E0FFF75AFF08B30A
:10475000B4F92C002CF0C0FB0546A0892CF0D4FB4A
:10476000616A2CF0E5FB29462CF050FA2CF094FB02
:10477000A081B4F92E002CF0AFFB0546E08A2CF0A6
:10478000C3FBA16A2CF0D4FB29462CF03FFA2CF095
:1047900083FBE08294F8200000060ED4C02084F849
:1047A0002000A089A082E08AE08306E00020A082A9
:1047B000E0834FF6FF70A081E08294F8200000F0C3
:1047C000800070BD424910B50E2228312820FFF725
:1047D00066FE0A21BDE810403620FFF7F4BD10B593
:1047E0003620FFF7CFFD0A2801D0002010BD384940
:1047F0000E2228312820FFF741FE35489022001D67
:1048000090F83030001FD02113B10270417001E0E8
:1048100001704270012010BD2DE9FF4F83B00E469C
:10482000DDE910A92B4907464FF47840DDF85080A8
:10483000088029A01024CDE90040284D9346A021EE
:104840006B882A882820FFF75AFC25A0CDE9004074
:104850006B882A88A0217820FFF751FC21A0CDE9A0
:1048600000406B882A88B4212820FFF748FC1EA04E
:10487000CDE900406B882A88B4217820FFF73FFCFF
:104880001AA0CDE900406B882A88C8212820FFF7AC
:1048900036FC17A0CDE900406B882A88C821782013
:1048A000FFF72DFC13A0CDE900406B882A88DC219E
:1048B0002820FFF724FC10A0CDE90040DC216B8804
:1048C0002A8878201AE000000080234200802142DC
:1048D0001C0000201600002078313A00CC02002095
:1048E00079313A0078323A0079323A0078333A0036
:1048F00079333A0078343A0079343A00FFF7FFFB15
:10490000FEA0CDE900406B882A88F0212820FFF71F
:10491000F6FB04233A46A02140200094FFF765FBF4
:1049200004233246A02190200094FFF75EFB04236D
:104930005A46B42140200094FFF757FB042300940B
:10494000B4219020069AFFF750FB04235246C82159
:1049500040200094FFF749FB04234A46C8219020D9
:104960000094FFF742FB04230094DC214020129ABC
:10497000FFF73BFB04230094DC219020139AFFF700
:1049800034FB03234246F02160200094FFF72DFB07
:1049900007B0BDE8F08F2DE9F04FDFF868B38FB0B6
:1049A0001F20ABF80000D8484FF6FF780024474698
:1049B000A0F8008025465E463846FCF73CFA4FF4E6
:1049C0007849A6F800903846FCF735FACF4800271A
:1049D000378001684FF0100ACDE900A12821642337
:1049E000A0220846FFF78BFB14214A460846FFF732
:1049F00045FEC74E4FF0010986F820707762716856
:104A00000120884796F82000B9EB901F45D120F08F
:104A1000400086F8200009A8B18920F8241000EB96
:104A20008400641C0025F18AE4B24180012C06D088
:104A3000022C11D0032C1ED0042C2ED139E01421CD
:104A400042460846FFF71AFEB2484FF47842008803
:104A5000143880B214211EE0AE4F4246142138882B
:104A6000143880B2FFF70AFE78884FF47842143881
:104A700081B214200FE0A74F42467888143881B2E3
:104A80001420FFF7FBFD78884FF47842143881B288
:104A90003888143880B2FFF7F1FD0A2001F0DAFB04
:104AA0006D1CADB2B5F57A7FA9D9FFF798FE0FB0AE
:104AB0006FE7BDF82400BDF82810411A00D549421F
:104AC000BDF82600BDF82A20801A00D5404249438F
:104AD000404308442BF00FFD2BF07EFA2BF0DEFC58
:104AE00084B2BDF82C00BDF83010401A00D5404209
:104AF000BDF82E10BDF83220891A00D54942404336
:104B000001FB01002BF0F7FC2BF066FA2BF0C6FC42
:104B100080B203902CF0F8F9074620462CF0F4F907
:104B200039462CF0DBF82CF045F807464FF066329A
:104B3000794B01912BF0F2FC7ED3784A784B3846C2
:104B400001992BF025FEF7D3002C75D0039800288F
:104B5000FBD0BDF82400BDF82C10401A00D540420F
:104B6000BDF82610BDF82E20891A00D549424043D1
:104B700001FB01002BF0BFFC2BF02EFA2BF08EFC7A
:104B800087B2BDF82800BDF83010401A00D5404269
:104B9000BDF82A10BDF83220891A00D54942404399
:104BA00001FB01002BF0A7FC2BF016FA2BF076FC92
:104BB00080B22CF0A9F9044638462CF0A5F921461C
:104BC0002CF08CF82BF0F6FF07464FF06632524B74
:104BD00001912BF0A3FC52D3504A514B3846019916
:104BE0002BF0D6FD4BD3BDF82800BDF82C10411A90
:104BF00000D54942BDF82A00BDF82E20801A00D504
:104C000040424943404308442BF075FC2BF0E4F943
:104C10002BF044FC87B2BDF82400BDF83010411AD7
:104C200000D54942BDF82600BDF83220801A00D5D3
:104C300040424943404300E046E008442BF05BFC1F
:104C40002BF0CAF92BF02AFC80B22CF05DF9044657
:104C500038462CF059F921462CF040F82BF0AAFFE9
:104C600007464FF066322C4B01912BF057FC06D3D0
:104C70002A4A2B4B384601992BF08AFD6DD22548E4
:104C800000244246418800881439143889B280B221
:104C9000FFF7F4FC14214FF478420846FFF7EEFCCE
:104CA0000022204B384601992BF074FC2BF0F6FBC8
:104CB00080B2BDF83210BDF83030BDF82E20CDE9FD
:104CC0000310CDE901233AE012480024424641880E
:104CD00000881439143889B280B2FFF7CFFC142150
:104CE0004FF478420846FFF7C9FC00220D4B3846C6
:104CF00001992BF04FFC2BF0D1FB15E0666163208E
:104D000069733A001600002018000020542A030896
:104D100020000020CC0200206666EE3FCDCCCCCC3B
:104D2000CCCCF03F0000594082B2BDF83030BDF825
:104D30003210BDF82E00CDE90103CDE90312BDF814
:104D40002C000090BDF82A30BDF82820BDF82610B0
:104D5000BDF82400FFF760FD51E6BDF82800BDF85E
:104D600024700290C01B2CF0B7F8044696480088C7
:104D70000490009028382CF0AFF821462BF0AEFFBD
:104D800070620390029838442CF0BEF803992CF01E
:104D9000CFF8044600982CF0B7F821462CF094F98F
:104DA0004FF0FF312CF037FA2CF05AF8B085BDF8EF
:104DB0002E00BDF826100746401A02912CF08CF800
:104DC0000446814840880190069028382CF084F8E9
:104DD00021462BF083FFB0620299044678182CF02C
:104DE00093F821462CF0A4F8074606982CF08CF88E
:104DF00039462CF069F94FF0FF312CF00CFA2CF009
:104E00002FF8F08503982CF02BF8002800DA4042A8
:104E1000022807DC20462CF023F8002800DA404264
:104E200002282DDD01980024143881B20498664FC1
:104E3000143880B24246FFF721FC14214FF4784227
:104E40000846FFF71BFC61A1CDE900A17B883A88E9
:104E50001A212820FFF753F996F8300040B10020BE
:104E600086F8300030B15E4890210170D02105E015
:104E70000120F5E75A48D021017090214170BEE52C
:104E80001F20ABF8000044464046FBF7D4FF55A175
:104E9000CDE900A14C4923204B880A886E21FFF7F9
:104EA0002EF94FF47A7001F0D5F9FFF78BFC20460C
:104EB000FBF7C1FFFBE5F8B5434D494CA888241D1D
:104EC000A0F5AA41103952D0A0F5C851633961D07C
:104ED0000121882029F011FC0220ADF800001024E7
:104EE000464F8DF8034003258DF802506946384639
:104EF00029F019FA0221384629F083FA0420ADF886
:104F0000000048268DF803606946384629F00BFA00
:104F10000421384629F075FA4FF42067ADF8007087
:104F20008DF803408DF80250354D6946284629F02A
:104F3000FAF93946284629F064FAA401ADF8004090
:104F40008DF803606946284629F0EDF92146284688
:104F500029F057FA22491A31A1F10A00FFF740FB64
:104F6000FFF70EFAFFF73BFC18B30020F8BD00F086
:104F7000D8FC68B100F0EAF92248606014F8300FFC
:104F8000A97940F0800001F0010108432070ECE7AE
:104F90001D48F2E700F037FB1C48606094F83000D1
:104FA000A97940F0800001F00101084384F8300045
:104FB000DBE74FF6FF70FBF73EFFFFF7ECFCFFF778
:104FC0000EFC0120F8BD0000CC0200205450204E01
:104FD00065656420726561646A7573742100000000
:104FE0001C000020546F7563682053637265656E02
:104FF0002041646A757374204F4B2100000C0140FE
:10500000001C0140E95300081B5A0008D75600084D
:10501000052001F008B938B50121882029F06DFB81
:105020000220ADF8000010208DF8030003208F4C03
:105030008DF802006946204629F075F902212046C4
:1050400029F0DFF98A4D6415ADF80040694628461D
:1050500029F069F92146284629F0D3F938BD70B501
:105060008348001D016821F0F0010160016841F0F2
:10507000300101607F4C0120C4F8A4017E4DC5F8C9
:1050800084011E2004F5D27405F5C27501F0CBF839
:1050900000262660052001F0C6F82E6070BD70B5B0
:1050A0007348001D016821F0F0010160016841F0C2
:1050B0003001016070480125C0F884511E2001F0C4
:1050C000B2F86C4C0020C4F8A401052004F5D27499
:1050D00001F0A9F8256070BD70B565480024001D79
:1050E000016821F0F0010160016841F08001016078
:1050F000604E0120C6F8A4015F4DC5F8840107E0A9
:10510000641CE4B2FA2C03D9FFF7C9FF012070BD7B
:10511000052001F088F8D6F824010028F0D1C5F860
:10512000840170BD70B5544C0025C4F884515048BA
:10513000001D016821F0F0010160016841F03001BB
:105140000160052004F5C27401F06DF84948C0F80B
:10515000A451052001F067F801202060052001F02E
:1051600062F8256070BD70B5434C0025C4F88451C9
:105170003F48001D016821F0F0010160016841F025
:1051800030010160052004F5C27401F04CF8394883
:105190000126C0F8A461052001F045F8266005202D
:1051A00001F041F8256070BD2DE9F0470646304812
:1051B000001D016821F0F0010160016841F030013B
:1051C00001602D4D0027C5F88471052001F02BF8F2
:1051D000DFF8A08000244FF00109F109C8F8A411FC
:1051E0007006060EC5F88491052001F01CF8C5F87C
:1051F0008471052001F017F8641CE4B2082CECD38C
:10520000BDE8F0872DE9F047824619480024001DCB
:10521000016821F0F0010160016841F08001016046
:105220001E2001F000F80025134EDFF848902F46AD
:105230004FF00108C6F88471052000F0F4FFC6F8AD
:1052400084816006040ED9F8240108B1641CE4B21C
:105250006D1CEDB2082DEDD3BAF1000F03D0FFF7AE
:1052600061FF2046CCE7FFF77EFFFAE7000C014024
:10527000001C014000802342008021422DE9F041C2
:1052800016460F4604460025FFF7E9FEB220FFF759
:105290008BFFFFF721FF200AFFF786FFFFF71CFFB8
:1052A000E0B2FFF781FFFFF717FF002408E0385D49
:1052B000FFF77AFFFFF710FF050003D1641CE4B28B
:1052C000B442F4D3FFF7EBFE2846BDE8F0812DE9A8
:1052D000F04115460E460446FFF7C1FEB220FFF727
:1052E00063FFFFF7F9FE200AFFF75EFFFFF7F4FE0A
:1052F000E0B2FFF759FFFFF7EFFEFFF7B0FEB32074
:10530000FFF752FFFFF7E8FE00246F1E09E0BC42E2
:1053100001D0012000E00020FFF774FF3055641C2D
:10532000E4B2AC42F3D3BDE8F041FFF7B8BE08B534
:1053300000218DF8001010B180208DF800000122AE
:1053400069464FF45060FFF799FF08BD7CB5002413
:105350008DF804400121802029F0CFF94FF400603E
:10536000ADF8000010208DF803000320714E8DF879
:1053700002006946304628F0D6FF0221304629F067
:1053800040F83515ADF8005048208DF80300694607
:10539000304628F0C8FF2946304629F032F8FFF79A
:1053A0003AFE654DC5F8AC41642005F5D67500F0B0
:1053B00051FF01202860642000F04CFF0120FFF71E
:1053C000B6FF012201A94FF45060FFF780FF9DF85E
:1053D00004105AA02AF0FCFA9DF80400802801D09D
:1053E00001207CBD00207CBD2DE9F14F564E0024EC
:1053F0004FF00A09307882B0401CC0B2B0FBF9F21D
:1054000009FB1201DFF844812746307009B10A28F0
:1054100073D2012202A90020FFF759FF9DF808006E
:10542000C1066ED000F01F0040F0C000DFF820B1D0
:10543000454688F82000012795F8200007FA04F176
:1054400008424DD043480422694630F81400FFF763
:105450003EFF95F830009DF80210C0079DF803004C
:1054600000EB012020D02BF046F85A463A4B2BF0A7
:1054700091F82BF013F805EB440AAAF816009DF8F2
:1054800001009DF8001000EB01202BF034F8334AA6
:10549000334B2BF07FF80022324B2BF0AFF92AF080
:1054A000FDFFAAF80C001BE02BF025F85A462A4B0A
:1054B0002BF070F82AF0F2FF05EB440AAAF80C0072
:1054C0009DF801009DF8001000EB01202BF013F86F
:1054D000224A234B2BF05EF82AF0E0FFAAF81600D0
:1054E000641CE4B2052CA7D30127A989002019B9AF
:1054F000E98A09B98DF8080030709DF80800C006E7
:1055000010D198F82000010602D520F0800007E0B5
:105510004FF6FF71A8F80C10A8F8161000F0E00084
:1055200088F820003078F02801D986F800903846B5
:10553000BDE8FE8F001C01400080234243545020F0
:1055400049443A25780D0A0054000020200000202C
:105550007B14AE47582A0308E17AD43FD8817346BA
:1055600094F6D23F000089402DE9F04116460F46DF
:1055700004460025FFF773FD7020FFF715FEFFF7C7
:10558000ABFDE0B2FFF710FEFFF7A6FD002408E038
:10559000385DFFF709FEFFF79FFD050003D1641C8E
:1055A000E4B2B442F4D3FFF77AFD2846BDE8F081B7
:1055B0002DE9F04115460E460446FFF750FD7020D8
:1055C000FFF7F2FDFFF788FDE0B2FFF7EDFDFFF713
:1055D00083FDFFF744FD7120FFF7E6FDFFF77CFD3B
:1055E00000246F1E09E0BC4201D0012000E0002031
:1055F000FFF708FE3055641CE4B2AC42F3D3BDE8BB
:10560000F041FFF74CBD7CB50121802029F075F8F1
:105610004FF40060ADF8040010208DF8070003205F
:10562000794D8DF8060001A9284628F07CFE02215C
:10563000284628F0E6FE2C15ADF8044048208DF8E9
:10564000070001A9284628F06EFE2146284628F0CA
:10565000D8FEFFF7E0FC6D4D0024C5F8AC411420E6
:1056600005F5D67500F0F6FD01202860322000F027
:10567000F1FD8DF80040012269460020FFF774FF1C
:1056800001226946A420FFF76FFF16208DF8000065
:10569000012269468020FFF767FF0C208DF800008B
:1056A000012269468820FFF75FFF02226946A12098
:1056B000FFF77EFF9DF80000302803D19DF8010020
:1056C000032801D001207CBD43F2030150A02AF041
:1056D0007FF900207CBD2DE9F147504E00244FF0AA
:1056E0000A0A307881B0401CC0B2B0FBFAF20AFB63
:1056F0001201DFF82C812746307009B10A2866D2E2
:10570000012201A90220FFF753FF9DF804000107C1
:105710005DD000F00F01062959D2FF208840C04318
:1057200040F0C000454688F8200001274FF00009EE
:1057300095F8200007FA04F108423BD039480422CA
:10574000694630F81400FFF733FF95F830009DF8F4
:105750000010C0079DF8010001F00F010ED000EB12
:10576000012105EB4400C1829DF802209DF8031041
:1057700002F00F0201EB022181810FE000EB01201A
:10578000C0F5F07105EB440081819DF802209DF881
:10579000031002F00F0201EB0221C1829DF800000C
:1057A0000821B1EB101F05D005EB4400A0F81690BE
:1057B000A0F80C90641CE4B2052CB9D3A889012789
:1057C00018B9E88A08B98DF8049086F800909DF819
:1057D0000400C00610D198F82000010602D520F080
:1057E000800007E04FF6FF71A8F80C10A8F816101B
:1057F00000F0E00088F820003078F02801D986F821
:1058000000A03846BDE8FC87001C01400080234210
:105810004354502049443A25780D0A005500002091
:1058200020000020622A03082DE9F04116460F46A9
:1058300004460025FFF713FC2820FFF7B5FCFFF70F
:105840004BFC200AFFF7B0FCFFF746FCE0B2FFF785
:10585000ABFCFFF741FC002408E0385DFFF7A4FC37
:10586000FFF73AFC050003D1641CE4B2B442F4D360
:10587000FFF715FC2846BDE8F08108B500218DF83A
:1058800000108DF80100C0489DF80020435C491CC1
:105890001A44C9B28DF80020B829F5D3D0B2C0435C
:1058A000401C8DF80000B822B74948F24700FFF7C6
:1058B000BBFF0222694648F2FF00FFF7B5FF002058
:1058C00008BD2DE9F04115460E460446FFF7C7FB1B
:1058D0002820FFF769FCFFF7FFFB200AFFF764FCB5
:1058E000FFF7FAFBE0B2FFF75FFCFFF7F5FBFFF70E
:1058F000B6FB2920FFF758FCFFF7EEFB00246F1ED4
:1059000009E0BC4201D0012000E00020FFF77AFC52
:105910003055641CE4B2AC42F3D3BDE8F041FFF76C
:10592000BEBBFEB50121802028F0E7FE4FF40060E9
:10593000ADF8080010208DF80B000320934F8DF870
:105940000A0002A9384628F0EEFC0221384628F069
:1059500058FD3D15ADF8085048208DF80B0002A900
:10596000384628F0E0FC2946384628F04AFDFFF783
:1059700052FB874E0024C6F8AC410A2006F5D676C5
:1059800000F068FC012030600A2000F063FCADF8F4
:10599000085028208DF80B0002A9384628F0C3FCD7
:1059A0002946384628F02FFD642000F053FC0422DD
:1059B000694648F24010FFF784FF8DF804406946BD
:1059C00074A02AF005F876A168462AF0E3F910BB26
:1059D00002208DF8000048F2400501226946284661
:1059E000FFF722FF01226946E81DFFF76AFF9DF8D5
:1059F0000010602905D26CA029F0EAFF0120FFF712
:105A00003CFF0A2000F026FC8DF800400122694688
:105A10002846FFF709FF0020FEBD2DE9F147674E3C
:105A200000244FF00A0A307885B0401CC0B2B0FBA9
:105A3000FAF20AFB1201624DA046307009B10A2841
:105A400078D248F24E19012205A94846FFF739FFDE
:105A50009DF814004FF0000701060AD500F00F0072
:105A6000062806D28DF80070012269464846FFF7E5
:105A7000DBFE9DF8140001075CD000F00F01062941
:105A800058D2FF2088408DF80000C04395F8209040
:105A900040F0C00085F82000A889A882E88AE88341
:105AA0004FF0010895F8201008FA04F0014226D0C2
:105AB00035480422B83002A930F81400FFF701FF7E
:105AC00095F830009DF80910C0079DF8080000EB1C
:105AD000012105EB44000AD0C1829DF80A109DF80F
