:020000040800F2
:1000000030110020E13D0008893A00088B3A0008D1
:100010008D3A00088F3A0008913A0008000000006D
:10002000000000000000000000000000FD3D00088E
:10003000933A000800000000013E0008953A0008CD
:10004000053E0008093E00080D3E0008113E00086C
:10005000153E0008193E0008FB3A0008053B000861
:100060000F3B0008193B0008233B00081D3E000819
:10007000213E0008253E0008293E00082D3E0008CC
:10008000313E0008353E0008393E00083D3E00087C
:10009000413E0008453E0008493E0008A13A0008DC
:1000A0004D3E0008513E0008553E00082D3B00081B
:1000B000593E00085D3E0008613E0008653E0008AC
:1000C000693E00086D3E0008713E0008753E00085C
:1000D000793E00087D3E0008813E0008853E00080C
:1000E000C73A0008893E00088D3E0008913E00088E
:1000F000953E0008993E00089D3E0008A13E00087C
:10010000A53E0008A93E0008AD3E0008B13E00082B
:10011000B53E0008B93E0008BD3E0008C13E0008DB
:10012000C53E0008C93E0008CD3E0008D13E00088B
:1001300010B586B00024DFF8E00C006850F0040031
:10014000DFF8D41C0860DFF8D00C006810F0040061
:1001500000900098DFF8C00C006850F00800DFF84D
:10016000B81C0860DFF8B00C006810F008000090C0
:100170000098DFF8A40C006850F00800DFF8981C25
:100180000860DFF8940C006810F0080000900098F8
:10019000DFF8840C006850F00800DFF87C1C086071
:1001A000DFF8740C006810F0080000900098DFF889
:1001B000680C006850F00800DFF85C1C0860DFF88D
:1001C000580C006810F0080000900098DFF8480C08
:1001D000006850F00800DFF8401C0860DFF8380CB9
:1001E000006810F0080000900098DFF82C0C006800
:1001F00050F00800DFF8201C0860DFF81C0C0068D5
:1002000010F0080000900098DFF80C0C006850F027
:100210001000DFF8041C0860DFF8FC0B006810F029
:10022000100000900098DFF8F00B006850F010000C
:10023000DFF8E41B0860DFF8E00B006810F0100046
:1002400000900098DFF8D00B006850F01000DFF845
:10025000C81B0860DFF8C00B006810F010000090A9
:100260000098DFF8B40B006850F01000DFF8A81B0E
:100270000860DFF8A40B006810F0100000900098F0
:10028000DFF8940B006850F01000DFF88C1B08605A
:10029000DFF8840B006810F0100000900098DFF881
:1002A000780B006850F01000DFF86C1B0860DFF876
:1002B000680B006810F0100000900098DFF8580BF1
:1002C000006850F08000DFF8501B0860DFF8480B32
:1002D000006810F0800000900098DFF83C0B006888
:1002E00050F08000DFF8301B0860DFF82C0B00684E
:1002F00010F0800000900098DFF81C0B006850F0B0
:100300008000DFF8141B0860DFF80C0B006810F0A9
:10031000800000900098DFF8000B006850F080002B
:10032000DFF8F41A0860DFF8F00A006810F08000C7
:1003300000900098DFF8E00A006850F01000DFF845
:10034000D81A0860DFF8D00A006810F0100000909A
:100350000098DFF8C40A006850F01000DFF8B81AFF
:100360000860DFF8B40A006810F0100000900098F0
:10037000DFF8A40A006850F01000DFF89C1A08604B
:10038000DFF8940A006810F0100000900098DFF881
:10039000880A006850F01000DFF87C1A0860DFF867
:1003A000780A006810F01000009000980020040007
:1003B000E4B2042C80F2E380DFF8600AE4B22101A9
:1003C000085A0190122002900320049001A9DFF83E
:1003D000500A01F09FF9DFF84C0AE4B20C2101FB4E
:1003E00004004068DFF83C1AE4B20C2202FB04115E
:1003F00049880161DFF82C0AE4B20C2101FB0400FA
:1004000040880190112002900320049001A9DFF898
:10041000140AE4B20C2202FB0400406801F07AF9ED
:10042000DFF8000AE4B20C2101FB04008068DFF869
:10043000F419E4B20C2202FB041109880161DFF80F
:10044000E409E4B20C2101FB0400008801901120B2
:1004500002900320049001A9DFF8C809E4B20C223D
:1004600002FB0400806801F055F9DFF8BC09E4B232
:1004700010EBC40040880190DFF8B0090290012021
:10048000039001A9DFF8A009E4B210EBC4004068B2
:1004900001F040F9DFF89809E4B210EBC40040889D
:1004A0000190DFF89009029001200390032004904E
:1004B00001A9DFF87C09E4B210EBC400406801F048
:1004C00029F9DFF87409E4B210EBC4004088019008
:1004D000DFF860090290012003900320049001A935
:1004E000DFF85409E4B210EBC400406801F012F9DF
:1004F000DFF83409E4B210F9340017280FDA0022CB
:100500000121DFF82409E4B210F9340001F01CFBEA
:10051000DFF81409E4B210F9340001F028FBDFF829
:100520001009E4B210F9340017280FDA0022012173
:10053000DFF8FC08E4B210F9340001F005FBDFF845
:10054000F008E4B210F9340001F011FBDFF8E8081C
:10055000E4B210F9340017280FDA00220121DFF885
:10056000D808E4B210F9340001F0EEFADFF8C80858
:10057000E4B210F9340001F0FAFA641C18E7002222
:100580000121172001F0E0FA172001F0F0FA002213
:100590000121282001F0D8FA282001F0E8FA06B05D
:1005A00010BD10B58CB00024DFF86C08006850F462
:1005B0000060DFF864180860DFF85C08006810F479
:1005C000006000900098FFF7B3FDDFF87008DFF8D7
:1005D000701808600320DFF8681848600020DFF812
:1005E000601888604FF6FF70DFF85418C86000206C
:1005F000DFF84C180861DFF8480801F0EBFA4FF417
:100600008050089008A9DFF8380801F0F9FB302085
:1006100001904FF6FF700290002005900020069098
:100620000020039000200400E4B2042C21DADFF85B
:10063000EC07E4B210EB04104168DFF8040801F0A5
:1006400041FBDFF8D807E4B210EB0410426801A9BF
:10065000DFF8EC0701F09EFB0022DFF8C007E4B2F0
:1006600010EB04104168DFF8D40701F0CDFD641CE5
:10067000DAE7002200211B2001F066FA1B2001F0BE
:1006800076FADFF8BC070068406C50F40040DFF8F1
:10069000B01709684864DFF8A80701F0B8FA0CB091
:1006A00010BD7FB584B09DF81000DFF89817C0B278
:1006B000405C002808D09DF81000DFF88C17C0B20D
:1006C000405C002800F0C0810598002820D55FF02C
:1006D000FF30DFF878179DF810201C2303FB021170
:1006E00048709DF81000DFF83C17C0B20C2202FBE6
:1006F00000104068DFF82C179DF810200C2303FB36
:1007000002114988090401610598404205901AE0E8
:100710000120DFF838179DF810201C2303FB02117D
:1007200048709DF81000DFF8FC16C0B20C2202FBE6
:1007300000104068DFF8EC169DF810200C2303FB36
:10074000021149880161059801281DD15FF0FF3031
:10075000DFF8F8169DF810201C2303FB02114861F6
:100760000220DFF8E8169DF810201C2303FB02117D
:1007700008704FF47A70DFF8D4169DF810201C230F
:1007800003FB021188600EE10598002800F00B8140
:100790009DF81040DFF8B8060068800801F044FDBD
:1007A000DFF8B01601F050FD05000C9801F03CFD9B
:1007B0000100280001F0B4FD01F030FEDFF88C16D6
:1007C000E4B21C2202FB041108619DF81060DFF8FE
:1007D00080060068800801F043FEDFF87C26DFF821
:1007E0007C3601F04BFE0022DFF8743601F018FF72
:1007F00002F042F802F088F804000D00069801F0BB
:1008000013FD0100DFF85C0601F08AFD02F07CF8C0
:1008100002F0A2F822002B0001F030FE0022DFF8E7
:10082000403601F0FDFE02F00FF9DFF82016F6B2B7
:100830001C2202FB061188600C980C99484301F0B9
:10084000F3FC0400069801F0EFFCDFF81C1601F041
:10085000FBFCDFF8181601F063FD0100200001F039
:100860005FFD02F017F901900198002801D10120E5
:10087000019005980799069A484307998918B0FB93
:10088000F1F000900098002801D10120009001981B
:10089000009988420CD39DF810000099059A891A96
:1008A000DFF8A825C0B21C2303FB0020C1600FE0C5
:1008B0009DF810000199069A5143079AB1FBF2F195
:1008C0004942DFF88825C0B21C2303FB0020C16029
:1008D0009DF81000DFF87415C0B21C2202FB001056
:1008E000C068002809D15FF0FF30DFF860159DF87F
:1008F00010201C2303FB0211C8609DF8100005990D
:100900009DF81020DFF84435D2B21C2404FB0232DB
:10091000D2685118DFF83425C0B21C2303FB002035
:1009200041609DF81000DFF82415C0B21C2202FBC4
:10093000001000699DF81010DFF81025C9B21C23C3
:1009400003FB0121896888421BDB9DF810009DF89C
:100950001010DFF8F824C9B21C2303FB0121096938
:10096000DFF8E824C0B21C2303FB002081600320D1
:10097000DFF8D8149DF810201C2303FB0211087027
:1009800008E00120DFF8C4149DF810201C2303FBAD
:10099000021108700020DFF8B4149DF810201C2309
:1009A00003FB021148610120DFF898149DF8102024
:1009B0005054DFF88C040068406AADF808009DF8D8
:1009C0001000BDF808109DF81020DFF874341B6883
:1009D000DFF84844C0B214EB00104068800813EB05
:1009E000800089B2DFF86434D2B21C2404FB0232E6
:1009F000926851184163DFF824049DF8101010EB41
:100A000001104168DFF8380401F010F90122DFF825
:100A10000C049DF8101010EB01104168DFF81C0465
:100A200001F0F2FB9DF81000DFF8F813C0B20C22C1
:100A300002FB00108068DFF8EC139DF810200C23F7
:100A400003FB02110988016108B070BD3FB581B098
:100A50009DF80400DFF8601CC0B2405C002800F084
:100A60006281022827D003D3032800F0C180ABE1C4
:100A70000298089B049A9DF80410DFF8404CC9B214
:100A80000957009049B27FF0004041439DF80400AF
:100A9000FFF707FE5FF0FF30DFF8B0139DF804208A
:100AA0001C2303FB021148600220DFF80C1C9DF898
:100AB0000420505488E19DF80400DFF8041CC0B203
:100AC000405C012831D19DF80440DFF884030068C0
:100AD000800801F0A9FBDF4901F0B6FB050003988F
:100AE00001F0A2FB0100280001F01AFC01F096FCC5
:100AF000D649E4B21C2202FB041188610020D349CC
:100B00009DF804201C2303FB021148600320CF49F9
:100B10009DF804201C2303FB021108700320DFF85A
:100B2000981B9DF80420505461E09DF80400DFF804
:100B3000941BC0B2405C01282ED10020DFF8841B3A
:100B40009DF8042050549DF80440C1480068800876
:100B500001F06AFBBF4901F077FB0500039801F043
:100B600063FB0100280001F0DBFB01F057FCB749F3
:100B7000E4B21C2202FB041188610020B3499DF8F5
:100B800004201C2303FB021148600220DFF8281B0D
:100B90009DF8042050542AE09DF80400DFF8281B3B
:100BA000C0B2405C012822D19DF80400A549C0B222
:100BB000405C002815D1C82001F0AAFF0120DFF811
:100BC0000C1B9DF8042050540120DFF8F01A9DF80A
:100BD000042050540120DFF8E01A9DF804205054FE
:100BE00005E00220DFF8D01A9DF804205054EBE015
:100BF0009DF80400DFF8C81AC0B2405C012840F03C
:100C000091809DF80400DFF8BC1AC0B2405C012856
:100C100040F088809DF80400DFF8B01AC0B2405C54
:100C2000012856D10020DFF8A41A9DF80420505462
:100C3000002086499DF804201C2303FB0211087044
:100C40009DF804007F49C0B2405C002834D1C82020
:100C500001F05EFF0220DFF8601A9DF80420505476
:100C60005FF0FF30DFF8541A9DF804205054002044
:100C7000DFF84C1A9DF8042050540020DFF8441A85
:100C80009DF8042050540220DFF82C1A9DF804200F
:100C900050540398089B049A9DF80410DFF81C4AEE
:100CA000C9B20957009049B27FF0004041439DF816
:100CB0000400FFF7F6FC35E00120DFF8101A9DF87C
:100CC000042050540320DFF8F0199DF804205054FC
:100CD00028E00020DFF8E8199DF804205054002097
:100CE000DFF8D0199DF8042041F822000020DFF839
:100CF000E0199DF8042021F812009DF80400DFF8A7
:100D0000D4190968484AC0B212EBC000408831EAE1
:100D10000000DFF8C01908600020DFF89C199DF87A
:100D20000420505450E09DF80400DFF89419C0B23C
:100D3000405C002847D19DF80400DFF88819C0B254
:100D4000405C00283FD19DF804003949C0B211EB46
:100D5000C000418836489DF8042010EBC20040686E
:100D600000F043FE40B232499DF8042011EBC2016D
:100D7000497888420CD10120DFF850199DF80420F1
:100D800050540120DFF834199DF80420505406E037
:100D90005FF0FF30DFF824199DF8042050549DF8CF
:100DA0000400DFF8301909681F4AC0B212EBC00016
:100DB00040880843DFF81C1908600120DFF8F818A4
:100DC0009DF804205054FFE705B030BD0FB583B047
:100DD000BDF81000B0F5C87F1BDCBDF81000052879
:100DE00017DBBDF810009DF80C1080B2DFF8E0288A
:100DF000C9B232F91110401A4FF4A0614843019072
:100E00000898069B059A019900909DF80C00FFF741
:100E100048FC07B000BD000018100240F43B000879
:100E200000080140743C00081C3D0008000031101F
:100E30003C3D0008000021105C3D0008002C0140F2
:100E40008800002010010020040100200000002084
:100E50008000002072D9203C6F1283C0CAA1E53FF8
:100E60000000244070594443CF0F493E0000204108
:100E700010B582B004000020ADF80000DFF8F006E5
:100E80000068406ADFF850180880DFF84C080088D6
:100E9000DFF8DC160968DFF84428E4B212EB04122C
:100EA0005268920811EB820180B2DFF83428E4B274
:100EB0001C2303FB0422926810184863DFF82408FF
:100EC000E4B2205C401CDFF81C18E4B26054DFF888
:100ED0001408E4B2205C022840F049830020DFF8C7
:100EE0000418E4B26054DFF8F807E4B21C2101FBF7
:100EF000040090F9010010F1010F1ED1DFF8C807BE
:100F0000E4B2205C012812D10020DFF8D417E4B24B
:100F10001C2202FB041108700020DFF8CC17E4B299
:100F200060540020DFF8C417E4B2605423E00020CE
:100F3000DFF8B817E4B260541DE0DFF8B007E4B2A0
:100F4000205C012812D10020DFF89417E4B21C22A3
:100F500002FB041108700020DFF88C17E4B2605423
:100F60000020DFF86417E4B2605404E00020DFF8EA
:100F70005817E4B26054DFF86807E4B21C2101FBA3
:100F800004000078002807D0022800F0088263D30C
:100F9000032800F07381E2E20022DFF84007E4B2A8
:100FA00010EB04104168DFF8480701F02DF9DFF875
:100FB0002C07E4B210EB0410C068C043DFF8B01592
:100FC00009680861DFF81407E4B210EB0410416807
:100FD000DFF89C0500F076FEDFF81807E4B20C217C
:100FE00001FB04008068DFF80C17E4B20C2202FB5E
:100FF00004110988090401610020DFF8EC16E4B24D
:1010000060540020DFF8F016E4B241F8240000201C
:10101000DFF8E816E4B241F824000020DFF8E0161B
:10102000E4B221F814000020DFF8B416E4B21C2268
:1010300002FB041148610020DFF8A416E4B21C2270
:1010400002FB041188600020DFF89416E4B21C2231
:1010500002FB0411086182E2DFF89C06E4B250F85A
:101060002400401CDFF89016E4B241F82400DFF8B9
:101070007006E4B21C2101FB040090F90100012874
:1010800023D1DFF83006E4B250F82400401CDFF82A
:101090002416E4B241F82400DFF81806E4B250F850
:1010A00024004FF4A06190FBF1F201FB1200002834
:1010B0002ED1DFF81C06E4B230F81400401CDFF833
:1010C0001016E4B221F8140022E0DFF8E805E4B2DB
:1010D00050F82400401EDFF8DC15E4B241F824008B
:1010E000DFF8D005E4B250F824004FF4A06190FB83
:1010F000F1F201FB120000280AD1DFF8D405E4B2B6
:1011000030F81400401EDFF8C815E4B221F81400CE
:10111000DFF8CC05E4B21C2101FB04004069401C4F
:10112000DFF8BC15E4B21C2202FB04114861DFF8B1
:10113000B005E4B21C2101FB04008068DFF8A015B3
:10114000E4B21C2202FB04118968DFF8B025E4B286
:1011500052F8242012EB4101DFF88425E4B21C236D
:1011600003FB042252699200521C91FBF2F1401AD7
:10117000ADF80000DFF86805E4B21C2101FB0400B3
:101180008068DFF87815E4B251F82410DFF85025B4
:10119000E4B21C2303FB0422526911EB40009100CE
:1011A000491C90FBF1F201FB1200DFF85015E4B28C
:1011B00041F82400DFF84005E4B250F82400DFF8DD
:1011C0002015E4B21C2202FB04114968884216D3A0
:1011D000DFF80C05E4B21C2101FB0400C068DFF855
:1011E0000015E4B21C2202FB041148610220DFF862
:1011F000F014E4B21C2202FB0411087036E0DFF8A0
:10120000E004E4B21C2101FB04000069BDF80010F9
:1012100088422BDBDFF8C804E4B21C2101FB040088
:10122000C068DFF8BC14E4B21C2202FB0411486160
:10123000BDF80000DFF8C814E4B221F81400DFF8AC
:10124000A004E4B21C2101FB04000069ADF8000019
:101250000020DFF8A814E4B241F824000320DFF8EE
:101260008014E4B21C2202FB04110870BDF80000D7
:10127000DFF88C14E4B221F8140070E1DFF8780490
:10128000E4B250F82400401CDFF86C14E4B241F8DA
:101290002400DFF84C04E4B21C2101FB040090F9A7
:1012A0000100012823D1DFF80C04E4B250F8240037
:1012B000401CDFF80014E4B241F82400DFF8F40326
:1012C000E4B250F824004FF4A06190FBF1F201FB6E
:1012D000120000282ED1DFF8F803E4B230F8140031
:1012E000401CDFF8EC13E4B221F8140022E0DFF830
:1012F000C403E4B250F82400401EDFF8B813E4B28F
:1013000041F82400DFF8AC03E4B250F824004FF4B5
:10131000A06190FBF1F201FB120000280AD1DFF876
:10132000B003E4B230F81400401EDFF8A413E4B2B6
:1013300021F81400DFF8A803E4B21C2101FB04002B
:101340000069ADF80000DFF8B003E4B250F8240003
:10135000DFF88C13E4B21C2202FB041149688842B6
:101360001CD3DFF87C03E4B21C2101FB0400C0683D
:10137000DFF86C13E4B21C2202FB04114861DFF8B1
:101380008003E4B230F81400ADF800000220DFF86A
:101390005013E4B21C2202FB04110870DFE0DFF8F6
:1013A0005803E4B250F82400401CD349E4B241F899
:1013B0002400CB48E4B21C2101FB040090F9010099
:1013C00001281ED1BB48E4B250F82400401CB949A2
:1013D000E4B241F82400B748E4B250F824004FF4D6
:1013E000A06190FBF1F201FB1200002827D1B84860
:1013F000E4B230F81400401CB549E4B221F81400FE
:101400001DE0AC48E4B250F82400401EA949E4B203
:1014100041F82400A748E4B250F824004FF4A0613A
:1014200090FBF1F201FB1200002808D1A848E4B2B9
:1014300030F81400401EA649E4B221F81400A84870
:10144000E4B21C2101FB04004069401CA449E4B241
:101450001C2202FB04114861A148E4B21C2101FBDB
:10146000040080689E49E4B21C2202FB04118968D2
:10147000A24AE4B252F8242012EB4101984AE4B2A5
:101480001C2303FB042252699200521C91FBF2F1CF
:10149000401AADF800009248E4B21C2101FB0400A0
:1014A00080689649E4B251F824108D4AE4B21C23B6
:1014B00003FB0422526911EB40009100491C90FB90
:1014C000F1F201FB12008D49E4B241F82400844896
:1014D000E4B21C2101FB04004069002806D400206E
:1014E0007F49E4B21C2202FB041108707248E4B286
:1014F000205C002832D0BDF8000080B27849E4B208
:101500001C2202FB04118969884227DB7448E4B27B
:101510001C2101FB040080697149E4B21C2202FB1A
:10152000041108616E48E4B21C2101FB04008069CB
:10153000ADF800005FF0FF306949E4B21C2202FB05
:101540000411486000206D49E4B241F824000320F2
:101550006349E4B21C2202FB04110870FFE7BDF8E6
:1015600000005F49E4B21C2202FB0411886013BD35
:101570008800002038B50400002500200500EDB2E9
:10158000042D80F296805F48EDB210EBC5004088D4
:10159000A4B284422FD15B48EDB210EBC500408865
:1015A000594908605748EDB210EBC50041885548CD
:1015B000EDB210EBC500406800F017FA40B2514997
:1015C000EDB211EBC5014978884204D101203C49B4
:1015D000EDB268540FE001203A49EDB26854384842
:1015E000EDB2285C012806D100203D49EDB21C2255
:1015F00002FB051108704548EDB210EBC5004088AC
:10160000A4B2844225D14148EDB210EBC500408818
:101610003D4908603D48EDB210EBC50041883B48AC
:10162000EDB210EBC500406800F0DFF940B2374979
:10163000EDB211EBC501497888420AD101202B494E
:10164000EDB2685400202649EDB21C2202FB0511C0
:1016500008702F48EDB210EBC5004088A4B2844258
:1016600025D12B48EDB210EBC50040882649086013
:101670002748EDB210EBC50041882548EDB210EBCC
:10168000C500406800F0B1F940B22149EDB211EB5C
:10169000C501497888420AD101200B49EDB268544E
:1016A00000200F49EDB21C2202FB051108706D1CD1
:1016B00065E731BDC4000020040100207000002057
:1016C00014010020180100200C0100201C01002042
:1016D000F40000200004014028010020F43B000831
:1016E000000000202001002010010020080100203F
:1016F000002C0140743C0008D4000020E4000020CD
:10170000FC0000201C3D0008140401405C3D000862
:101710003C3D00082DE9F841002300240025002667
:101720005FF0000E5FF0000C6246102A80F05B81D3
:101730005FF0010C1CFA02FC6346D1F800C013EA0A
:101740000C0C64469C4240F04C81D1F804C0BCF1C2
:10175000000F3DD0BCF1010F24D0BCF1020F2BD003
:10176000BCF1030F4CD0BCF1110F1FD0BCF1120F14
:1017700028D0DFF8AC82C4452AD0DFF8A882C4455F
:1017800026D0DFF8A482C44522D0DFF8A082C44569
:101790001ED0DFF89C82C4451AD0DFF89882C44579
:1017A00016D031E0D1F80CC066462DE0D1F80CC05F
:1017B0001CF1040C664627E0D1F80CC01CF1080CA3
:1017C000664621E0D1F80CC01CF10C0C66461BE00B
:1017D000D1F808C0BCF1000F03D15FF0040C6646DD
:1017E0000DE0D1F808C0BCF1010F04D15FF0080C86
:1017F0006646036103E05FF0080C6646436103E060
:101800005FF0000C6646FFE7FF2C01D8070000E000
:10181000071DFF2C02D85FEA820E03E0B2F1080C2C
:101820005FEA8C0ED7F800C05FF00F0818FA0EF8C8
:101830003CEA080C16FA0EF858EA0C0CC7F800C07F
:10184000D1F804C05FEACC0C40F1CB80DFF8E8C1EE
:10185000DCF800C05CF0010CDFF8DC81C8F800C0E7
:10186000DFF8D4C1DCF800C01CF00108CDF800801E
:10187000DDF800C0DFF8C4C15FEA92085CF828C058
:1018800065465FF00F0C12F003085FFA88F85FEA14
:1018900088081CFA08FC35EA0C05DFF8A4C160458D
:1018A00002D15FF0000C24E0DFF898C1604502D15E
:1018B0005FF0010C1DE0DFF890C1604502D15FF0E0
:1018C000020C16E0DFF884C1604502D15FF0030C22
:1018D0000FE0DFF87CC1604502D15FF0040C08E046
:1018E000DFF870C1604502D15FF0050C01E05FF0E8
:1018F000060C12F003085FFA88F85FEA88081CFA01
:1019000008FC5CEA0505DFF834C15FEA92084CF890
:101910002850D1F804C05FEACC3C0AD5DFF838C1C2
:10192000DCF800C054EA0C0CDFF82C81C8F800C0C9
:1019300009E0DFF824C1DCF800C03CEA040CDFF861
:101940001881C8F800C0D1F804C05FEA8C3C0AD501
:10195000DFF808C1DCF800C054EA0C0CDFF8FC80AA
:10196000C8F800C009E0DFF8F4C0DCF800C03CEAC9
:10197000040CDFF8E880C8F800C0D1F804C05FEAC2
:10198000CC2C0AD5DFF8D8C0DCF800C054EA0C0C27
:10199000DFF8CC80C8F800C009E0DFF8C4C0DCF88C
:1019A00000C03CEA040CDFF8B880C8F800C0D1F8E9
:1019B00004C05FEA8C2C0AD5DFF8A8C0DCF800C0B0
:1019C00054EA0C0CDFF89C80C8F800C009E0DFF88E
:1019D00094C0DCF800C03CEA040CDFF88880C8F84A
:1019E00000C0521CA1E6BDE8F1810200936889B2F3
:1019F0000B4202D00123180001E00023180040B27E
:101A0000704710B5040018480068A4B2204206D000
:101A1000A4B215480460200080B2FFF7ABFD10BDF2
:101A20000000111000001210000021100000221010
:101A30000000311000003210181002400800014070
:101A400000080140000C014000100140001401405A
:101A500000180140001C0140000401400404014042
:101A6000080401400C0401401404014010F0070276
:101A70004D4B1B6819004FF6FF0319404B4B53EABF
:101A800002231943484B1960704747480068C0F368
:101A900002207047012110F01F029140444A40B2D9
:101AA000430942F82310704710B440B2002808D50B
:101AB0000A01404B40B210F00F04E31803F8042C65
:101AC00003E00A013C4B40B2C25410BC704770B4F2
:101AD000030013F00704D4F10706052E01D30420F8
:101AE00001E0D4F10700261D072E01D2002500E0F9
:101AF000E51E012616FA00F0401E0840A84001210C
:101B0000A940491E1140084370BC704710B504003D
:101B1000601EB0F1807F01D301200EE0601E2749D6
:101B200008600F215FF0FF30FFF7BEFF002024495F
:101B30000860072023490860002010BD10B504008C
:101B40002000FFF793FF10BDF8B504000D0016004C
:101B50000027FFF79AFF0700320029003800FFF73F
:101B6000B6FF0100200040B2FFF79EFFF1BD10B5A7
:101B70000400200040B2FFF78DFF10BD10B5040037
:101B80002000FFF7C3FF10BD042806D10D490968E6
:101B900051F004010B4A116005E00A49096831F06F
:101BA0000401084A116070470CED00E00000FA05DE
:101BB00000E100E018ED00E000E400E014E000E0E7
:101BC00018E000E010E000E080B500F001F801BD91
:101BD0007047010210B50400002C01D1012014E06F
:101BE00094F93900002805D1002084F8380020003D
:101BF00000F00CF8022084F83900211D206800F064
:101C00008EF9012084F83900002010BD70470100D2
:101C1000022081F839000868006850F001000A6865
:101C20001060012081F839000020704738B50400A9
:101C30000D002800002806D004280BD0082810D05A
:101C40000C2815D01BE02068C06850F00200216805
:101C5000C86014E02068C06850F004002168C860C3
:101C60000DE02068C06850F008002168C86006E0F8
:101C70002068C06850F010002168C860FFE70122AA
:101C80002900206800F0C0FA2068DFF800118842BF
:101C900004D02068DFF8F810884201D1012000E06C
:101CA0000020C0B2002805D02068406C50F40040ED
:101CB000216848642068006850F0010021680860CD
:101CC000002032BD38B504000D002800002806D0E1
:101CD00004280BD0082810D00C2815D01BE0206851
:101CE000C06830F002002168C86014E02068C06855
:101CF00030F004002168C8600DE02068C06830F052
:101D000008002168C86006E02068C06830F0100054
:101D10002168C860FFE700222900206800F074FAFB
:101D20002068DFF86810884204D02068DFF860106F
:101D3000884201D1012000E00020C0B2002811D06B
:101D40002068006A41F2111108420BD12068006A34
:101D500040F24441084205D12068406C30F4004014
:101D6000216848642068006A41F2111108420BD1D1
:101D70002068006A40F24441084205D120680068AA
:101D80004008400021680860002032BD002C01405E
:101D90000034014070B504000D00160094F93800BD
:101DA000012801D102202AE0012084F83800022015
:101DB00084F839003000002806D0042809D008280B
:101DC0000CD00C280FD013E02900206800F0EBF8AD
:101DD0000EE02900206800F01FF909E029002068C2
:101DE00000F058F904E02900206800F090F9FFE7BE
:101DF000012084F83900002084F83800002070BDEC
:101E000070B504000D00002694F93800012801D1B6
:101E1000022083E0012084F83800022084F8390091
:101E200020688068060036F0770636F47F46206822
:101E300086602868002856D0102859D020285CD009
:101E400030285FD0402844D050282ED0602836D08B
:101E500070280DD0B0F5805F03D0B0F5005F17D0CB
:101E600055E020688068C008C000216888604EE0A6
:101E7000EB686A68A968206800F0B8F92068806893
:101E8000060036F0770656F07706206886603EE05A
:101E9000EB686A68A968206800F0A8F92068806883
:101EA00050F480402168886031E0EA686968206801
:101EB00000F064F95021206800F08DF927E0EA680D
:101EC0006968206800F070F96021206800F083F9EB
:101ED0001DE0EA686968206800F050F94021206838
:101EE00000F079F913E00021206800F074F90EE0A9
:101EF0001021206800F06FF909E02021206800F02F
:101F00006AF904E03021206800F065F9FFE701205C
:101F100084F83900002084F83800002070BD0022C9
:101F200003681A00DFF84032984212D0DFF83C32E2
:101F300098420ED0B0F1804F0BD0DFF83432984287
:101F400007D0DFF83032984203D0DFF82C329842C5
:101F500003D132F070024B681A43834B98420ED083
:101F6000824B98420BD0B0F1804F08D0804B984202
:101F700005D0804B984202D07F4B984203D132F477
:101F80004072CB681A4302608B68C3620B6883623D
:101F9000754B984202D0754B984201D10B6903638F
:101FA00001234361704730B4002300240022056AF6
:101FB0006D086D000562056A2C0045682A00856978
:101FC0002B0033F070039B089B000D682B4334F00B
:101FD00002048D682C43644DA84202D0634DA84290
:101FE00005D134F00804CD682C4334F004045E4D70
:101FF000A84202D05D4DA84207D132F4807232F47B
:1020000000724D692A438D692A43426083614D689D
:102010004563046230BC704730B4002300240022C2
:10202000056A35F010050562056A2C0045682A002E
:1020300085692B0033F4E04333F440730D6853EAB1
:10204000052334F020048D6854EA0514464DA84257
:1020500002D0464DA84206D134F08004CD6854EA3F
:10206000051434F04004404DA84202D03F4DA84230
:1020700009D132F4806232F400624D6952EA85027D
:102080008D6952EA8502426083614D68856304620E
:1020900030BC704730B4002300240022056A35F4B8
:1020A00080750562056A2C0045682A00C5692B0009
:1020B00033F070039B089B000D682B4334F40074CD
:1020C0008D6854EA0524284DA84202D0274DA84225
:1020D00006D134F40064CD6854EA052434F48064F5
:1020E000214DA84202D0214DA84209D132F480529C
:1020F00032F400524D6952EA05128D6952EA051216
:102100004260C3614D68C563046230BC704730B43F
:10211000002200230024056A35F480550562056A13
:102120002B0045682C00C5692A0032F4E04232F4E5
:1021300040720D6852EA052233F400538D6853EA69
:102140000533094DA84202D0084DA84204D134F409
:1021500080444D6954EA85144460C2614D68056449
:10216000036230BC70470000002C01400034014085
:102170000004004000080040000C004030B4002380
:102180000024056A2C00056A6D086D0005628569EA
:102190002B0033F0F00353EA021334F00A040C432B
:1021A0008361046230BC704730B400230024056AA8
:1021B00035F01005056285692B00056A2C0033F4A3
:1021C000704353EA023334F0A00454EA01148361EB
:1021D000046230BC7047002283681A0032F070023B
:1021E00089B251F007031A438260704730B400246B
:1021F00085682C0034F47F4452EA010555EA032532
:102200002C43846030BC704730B4002301248C40E0
:102210002300046A9C430462046A12FA01F52C4309
:10222000046230BC70470000002800BF0AD0B0FA3A
:1022300080F18840D1F19D01C905020672F100428A
:1022400041EB102070470000FF2212EAD05C1DBF56
:1022500012EAD153944593422BE09C44D30780EA81
:1022600001021A4043EA002043EA0121A1FB0030A9
:10227000410038BF40007CF17F010BDBFE294ADAC8
:102280005B0842EAC15153EA006373F1004C51EB21
:1022900010207047D1F1080CDCF120012FDB5B0826
:1022A00010FA01F10B4373F1004120FA0CF0504198
:1022B000704794451CBF02EAD153934280EA010261
:1022C00002F000421DD0400019D0490017D05BB980
:1022D000634514D00902B1FA81F39940BCEB030CB9
:1022E000C00140F00040C1E70002B0FA80FC10FAE3
:1022F0000CF0B3EB0C0CC90141F00041B6E7100043
:10230000704740000AD0490008D010F1807F94BF88
:1023100011F1807F02E042F0FF407047D0437047E8
:1023200010B5FF2313EAD0541DBF13EAD1529C42CB
:102330009A4239E0A41ADA0780EA0103134042EA1C
:10234000012142EA0020421A3CBF641E01EB420216
:10235000090AB2FBF1FE01FB1E221202B2FBF1F0F0
:1023600001FB10226EF30F201202B2FBF1FE4EEAC7
:1023700000207F3406DDFE2C24DA53EA500050EBB7
:10238000C45010BDD4F1020401FB1E2240F0807144
:10239000192C1DDC21FA04F0C4F12004A1401143E2
:1023A00071F10042584110BD9C421ABF03EAD1525C
:1023B0009A420FE080EA010E0EF00043400004D084
:1023C000490016D143F0FF4010BD490008BFD34378
:1023D000180010BD9C4205D1D21AF7D001F000417F
:1023E000484010BD4A0212BF0846484000F0004075
:1023F00010BD4AB90902B1FA81F2914044B1A41862
:10240000C00140F000409EE7C90141F00041524246
:102410000002B0FA80F4A040141B94E74100090EBA
:102420007F3915D4D1F11F0114D4400007D2C00167
:1024300040F00040C84048BF6FF000407047C00106
:1024400040F00040C8404CBF4FF000404042704751
:102450000020704700424FF0004058BFC043704713
:10246000010000BF09D0B0FA80F18840C91CC1F555
:102470008461090501EBD02140057047B0B581EAC0
:10248000030C0CF0004C40F2FF7515EA11541DBF0F
:1024900015EA1357AC42AF4239E0E41923EA455339
:1024A00043F48013C90241F0004141EA505EC70283
:1024B0001100A7FB020200284FF00000EEFB0120F4
:1024C0004FF00001E3FB072118BF42F00102401862
:1024D00000214941E3FB0E01A4F580640F0302D201
:1024E00052004041494154F101046CDD470872F14A
:1024F000004250F1000051EB0451A1F580115CBF86
:1025000041EA0C01B0BD4CEA05510020B0BD05EA1E
:102510001357AC4214BFAF4241E050EA410E1CBF1A
:1025200052EA430E02E061460020B0BD24423C4422
:102530001BD15FEA070EF6D0090302BF0146002057
:10254000AEF1140EB1FA81F7AEEB070401FA07FE03
:102550000C37C7F1200100FA07F7C8404EEA000E19
:1025600023EA455343F48013A2E733F00043B3FA60
:1025700083F704BFB2FA82FE77440B3FE41BB7F146
:10258000200E2FBF02FA0EF3BB40C7F1200E22FA35
:102590000EFE38BF43EA0E03BA40641C82E750EADD
:1025A000410E14BF52EA430E6FF000014FF40017C2
:1025B00017EB430F8ABF194617EB410FB5E74CEAFB
:1025C00005510020B0BDD4F10104B4F120070FDAA9
:1025D000C4F12007520828BF42F0010210FA07F5A3
:1025E00001FA07F7E1BF2A43E0403843E1400FE03A
:1025F000352C98DCC7F1200452EA400220FA07F299
:1026000018BF42F0010231FA07F0A1400A4300214D
:1026100072F1004250F1000051EB0C01B0BD00001E
:102620002DE9F04140F2FF7581EA030C0CF0004CFB
:1026300015EA11541DBF15EA1357AC42AF42E9E049
:10264000BC41C1F31301C3F31303801A994143F44E
:10265000801304D2641E4000494180185941C902C8
:1026600041EA5051B1FBF3F603FB1611A2FB0675CC
:10267000D7EBC020A94102D2761E80185941C90269
:1026800041EA5051B1FBF3FE03FB1E11A2FB0E7594
:10269000D7EBC020A94103D2AEF1010E80185941F9
:1026A000890241EA9051760546EA8E2EB1FBF3F697
:1026B00003FB1611A2FB0675D7EB8020A94102D2BD
:1026C000761E80185941C90241EA50514EEA060E61
:1026D000B1FBF3F603FB1611A2FB0675D7EBC02086
:1026E000A94102D2761E80185941C90241EA5051CF
:1026F000B1FBF3F703FB1711A2FB0735D3EBC020A7
:10270000A94167F100070CBF004247F0010766F3DB
:10271000D5274FEA1E31B80814F5806414DDBD07D3
:1027200075F1004250EB0E5051EB045111F5801F32
:102730005CBF41EA0C01BDE8F0814CF07F6141F0E3
:10274000E0410020BDE8F081BD076D0840EA0E5071
:1027500041F48011D4F10104B4F120060ADAC4F185
:1027600020060200E04001FA06F3E1401843B240BF
:1027700015430EE0342C14DCC6F1200445EA400574
:102780006D0820FA06F2154321FA06F0A1400D4328
:10279000002175F1004250F1000051EB0C01BDE841
:1027A000F08100205FEA0C01BDE8F081CFB99218FA
:1027B0005B41B3FA83F704BFB2FA82F6BF190B3F4D
:1027C000B7F120062FBF02FA06F3BB40C7F120067F
:1027D00022FA06F638BF3343BA401CB1E419641E2E
:1027E0002FE77F4231F00041B1FA81F404BFB0FA23
:1027F00080F6A4190B3CB4F120062FBF00FA06F1B5
:10280000A140C4F1200620FA06F638BF3143A040AB
:102810003C1B16E7AC421ABF05EA1357AF4214E05F
:1028200050EA41061CBF52EA4306BFE750EA41079F
:10283000304661461CBF41EA0551BDE8F08152EACD
:10284000430C08BFC143BDE8F08100204FF40016DF
:1028500016EB410F98BF16EB430F08BF16EB410F65
:1028600024BFC14305E016EB430F0CBF61464CEAA1
:102870000551BDE8F08100004FEAF17CBCF1E04C6D
:102880002CBFBCF5001F11E05FEA4C0C34BFBCF15B
:102890007F5F2EE05FEA9C0C4FEA0C1C4FEA3C0C79
:1028A000C10071F100414CEB50707047C90241EA20
:1028B0005051C00218BF41F0010141F000414FEA00
:1028C0006C50C0F10900212810D240EACC7CCCF138
:1028D000200C11FA0CF070F10040CCF1200C21FA20
:1028E0000CF00CF0004C40EB0C0070474FEACC7041
:1028F0007047490011F5001F04D84FEACC10FF3093
:10290000C0057047C81770475FF0FF0C1CEAD05134
:1029100014BF614506E0C110400721F0E04101F11C
:102920006051704779B900F0004100020AD0B0FA56
:1029300080FC00FA0CF001F16051A1EB0C5101EBAD
:10294000D0214005704741020CBF40F4E0016FF018
:10295000000100207047000040F2FF7C0B0D4DD0BD
:10296000634566D230B421EA035141F4801103F289
:10297000FD3C5FEA5C0C01D300184941890041EA43
:10298000907180004FF440140023E202D50AB1F5A3
:10299000100107D46D081DD2091B641900184941A4
:1029A000491BF7D56D080AD20919641B0018494163
:1029B000491BEFD56D08F7D301E0520817D0C018B6
:1029C00061419B1AAC4100184941801AA941F4D4D5
:1029D00052080AD0C01AA1419B186C410018494105
:1029E000801AA941E9D45208F4D15B1C6C416108FA
:1029F0004FEA330001EB0C5130BC704750EA010341
:102A0000FBD030B4B1FA81F311B9B0FA80F41B19DC
:102A10000B3BB3F120042FBF00FA04F19940C3F13E
:102A2000200420FA04F438BF21439840D3F1010375
:102A30009DE76345E1D011F5801FDED850EA4101E2
:102A4000DBD0D94300F076B8F446400D40EAC1200F
:102A5000490006D200F00EF8004248BF6FF0004077
:102A6000604700F007F84FF0004188428CBF0846ED
:102A70004042604740F00040490DA1F58061491C8B
:102A800005D4D1F11F0154BFC840C01770474FF0A3
:102A90000000704740000DD2010E7F390AD4D1F1F9
:102AA0001F0104D4C00140F00040C84070477FF0CF
:102AB000000070470020704780B51C48006850F047
:102AC00010001A4908600320FFF738F8002000F0D2
:102AD00004F800F035F8002002BD10B5040000F045
:102AE00047FE4FF47A71B0FBF1F0FFF747F8002290
:102AF00021005FF0FF30FFF727F8002010BD0C48E1
:102B00000068401C0A49086070470948006870471F
:102B100011B581B00024FFF7F8FF0400FFF7F5FFBF
:102B2000001B01998842F9D313BD00000020024028
:102B3000240100201FB500F04FFE212101601FBDC0
:102B400080B51748006850F0010015490860144826
:102B5000006810F00100009000980520FEF7EEFFDD
:102B6000002200217FF00B00FEF7EEFF0022002183
:102B70007FF00A00FEF7E8FF002200217FF0090045
:102B8000FEF7E2FF002200217FF00300FEF7DCFFEA
:102B9000002200215FF0FF30FEF7D6FF01BD00BF2D
:102BA0001810024038B5040000252078C00740F115
:102BB0000D81DFF8E40B006810F00C0004280BD046
:102BC000DFF8D40B006810F00C0008282AD1DFF8D9
:102BD000C80B0068C00325D54FF48040B0FA80F0E0
:102BE00050F02000C0B24009C0B2012803D1DFF884
:102BF000AC0B006806E04FF48040B0FA80F0DFF8DC
:102C0000A00B00684FF48041B1FA81F111F01F016F
:102C1000C840C00740F1DA806068002840F0D680E4
:102C20000120A6E3DFF8740B006830F48030DFF891
:102C30006C1B0860DFF8640B006830F48020DFF85C
:102C40005C1B0860FFF761FF05004FF48040B0FA9D
:102C500080F050F02000C0B24009C0B2012803D17A
:102C6000DFF8380B006806E04FF48040B0FA80F0DF
:102C7000DFF82C0B00684FF48041B1FA81F111F0BC
:102C80001F01C840C00706D5FFF73FFF401B65285E
:102C9000DBD303206DE36068B0F5803F08D1DFF837
:102CA000FC0A006850F48030DFF8F01A086038E061
:102CB0006068002810D1DFF8E40A006830F4803042
:102CC000DFF8D81A0860DFF8D40A006830F48020F2
:102CD000DFF8C81A086024E06068B0F5A02F10D1B2
:102CE000DFF8B80A006850F48020DFF8B01A0860F6
:102CF000DFF8A80A006850F48030DFF8A01A0860F6
:102D00000FE0DFF8980A006830F48030DFF88C1AA2
:102D10000860DFF8880A006830F48020DFF87C1A49
:102D200008606068002828D0FFF7EFFE05004FF428
:102D30008040B0FA80F050F02000C0B24009C0B22C
:102D4000012803D1DFF8540A006806E04FF4804000
:102D5000B0FA80F0DFF8480A00684FF48041B1FA19
:102D600081F111F01F01C840C0072FD4FFF7CDFE3D
:102D7000401B6528DBD30320FBE2FFF7C6FE0500FE
:102D80004FF48040B0FA80F050F02000C0B240090B
:102D9000C0B2012803D1DFF8040A006806E04FF44E
:102DA0008040B0FA80F0DFF8F80900684FF4804105
:102DB000B1FA81F111F01F01C840C00706D5FFF735
:102DC000A4FE401B6528DBD30320D2E220788007D5
:102DD00040F1BF80DFF8C009006810F00C0F0BD085
:102DE000DFF8B409006810F00C00082839D1DFF8CA
:102DF000A8090068C00334D45FF08040B0FA80F0C6
:102E000050F02000C0B24009C0B2012803D1DFF861
:102E10008C09006806E05FF08040B0FA80F0DFF8CF
:102E2000800900685FF08041B1FA81F111F01F0163
:102E3000C840C00704D52069012801D0012098E2CC
:102E4000DFF8580900685FF0F851B1FA81F130F00D
:102E5000F800626912FA01F10843DFF840190860CE
:102E600077E02069002842D001205FF00041B1FAEC
:102E700081F1DFF8302942F82100FFF746FE050016
:102E80005FF08040B0FA80F050F02000C0B24009FE
:102E9000C0B2012803D1DFF80409006806E05FF042
:102EA0008040B0FA80F0DFF8F80800685FF08041F9
:102EB000B1FA81F111F01F01C840C00706D4FFF735
:102EC00024FE401B0328DBD3032052E2DFF8CC08AA
:102ED00000685FF0F851B1FA81F130F0F8006269F2
:102EE00012FA01F10843DFF8B418086031E000205D
:102EF0005FF00041B1FA81F1DFF8A82842F8210023
:102F0000FFF703FE05005FF08040B0FA80F050F05C
:102F10002000C0B24009C0B2012803D1DFF87C080C
:102F2000006806E05FF08040B0FA80F0DFF87008DB
:102F300000685FF08041B1FA81F111F01F01C840D3
:102F4000C00706D5FFF7E1FD401B0328DBD30320B4
:102F50000FE22078000754D5A06900282AD001206C
:102F60005FF00041B1FA81F1DFF83C2842F821001E
:102F7000FFF7CBFD05005FF08040B0FA80F05FF016
:102F80008040B0FA80F0DFF8180800685FF08041F8
:102F9000B1FA81F111F01F01C840C00706D4FFF754
:102FA000B4FD401B0328E6D30320E2E10120FFF734
:102FB000AFFD26E000205FF00041B1FA81F1DFF8BB
:102FC000E82742F82100FFF7A0FD05005FF08040F0
:102FD000B0FA80F05FF08040B0FA80F0DFF8C00710
:102FE00000685FF08041B1FA81F111F01F01C84023
:102FF000C00706D5FFF789FD401B0328E6D3032051
:10300000B7E12078400740F1FE80DFF8A0070068B4
:1030100050F08050DFF894170860DFF890070068E0
:1030200010F0805000900098DFF88407006850F49A
:103030008070DFF87C170860FFF767FD0500DFF898
:1030400070070068C00506D4FFF75FFD401B6528C8
:10305000F5D303208DE1DFF85C07006840084000ED
:10306000DFF850170860DFF84C07006830F0040004
:10307000DFF840170860FFF748FD05005FF080406B
:10308000B0FA80F05FF08040B0FA80F050F040007D
:10309000C0B24009C0B2022803D1DFF818070068A7
:1030A00002E0DFF8FC0600685FF08041B1FA81F1D0
:1030B00011F01F01C840C00708D5FFF726FD401BCF
:1030C00041F289318842D9D3032052E1E0680128D6
:1030D00008D1DFF8E006006850F00100DFF8D416F0
:1030E000086037E0E068002810D1DFF8C806006803
:1030F00040084000DFF8BC160860DFF8B80600683A
:1031000030F00400DFF8AC16086023E0E068052822
:1031100010D1DFF8A006006850F00400DFF8941624
:103120000860DFF89006006850F00100DFF88416B0
:1031300008600FE0DFF87C06006840084000DFF818
:1031400074160860DFF86C06006830F00400DFF8E1
:1031500064160860E06800282AD0FFF7D6FC050056
:103160005FF08040B0FA80F05FF08040B0FA80F00D
:1031700050F04000C0B24009C0B2022803D1DFF8CD
:103180003406006802E0DFF8180600685FF080414E
:10319000B1FA81F111F01F01C840C00733D4FFF725
:1031A000B4FC401B41F289318842D9D30320E0E0CE
:1031B000FFF7ABFC05005FF08040B0FA80F05FF0F5
:1031C0008040B0FA80F050F04000C0B24009C0B278
:1031D000022803D1DFF8DC05006802E0DFF8C00553
:1031E00000685FF08041B1FA81F111F01F01C84021
:1031F000C00708D5FFF789FC401B41F2893188429E
:10320000D9D30320B5E0E069002800F0B180DFF8F1
:103210008805006810F00C00082800F0A780E0691D
:10322000022875D100208021B1FA81F1DFF87425E0
:1032300042F82100FFF769FC05004020B0FA80F059
:1032400050F02000C0B24009C0B2012803D1DFF81D
:103250004C05006805E04020B0FA80F0DFF840053A
:1032600000684021B1FA81F111F01F01C840C00788
:1032700006D5FFF74AFC401B0328DED3032078E085
:10328000206AB0F5803F09D1DFF80C05006830F402
:103290000030A1680843DFF800150860DFF8F80483
:1032A000006830F47410216A0843616A0843DFF84B
:1032B000E814086001208021B1FA81F1DFF8E424EC
:1032C00042F82100FFF721FC05004020B0FA80F011
:1032D00050F02000C0B24009C0B2012803D1DFF88D
:1032E000BC04006805E04020B0FA80F0DFF8B004CC
:1032F00000684021B1FA81F111F01F01C840C007F8
:1033000036D4FFF702FC401B0328DED3032030E055
:1033100000208021B1FA81F1DFF8882442F82100F1
:10332000FFF7F3FB05004020B0FA80F050F02000DA
:10333000C0B24009C0B2012803D1DFF860040068C0
:1033400005E04020B0FA80F0DFF854040068402126
:10335000B1FA81F111F01F01C840C00708D5FFF78D
:10336000D4FB401B0328DED3032002E0012000E051
:10337000002032BD70B504000D000026DFF83804CF
:10338000006810F00700A84280F0CE80DFF8280423
:103390000068C008C0002843DFF81C140860DFF88C
:1033A0001804006810F00700A84201D0012099E13C
:1033B0002078800709D5DFF80404006830F0F000B9
:1033C000A1680843DFF8F41308602078C00740F1D3
:1033D0006E816068012820D14FF48040B0FA80F0FF
:1033E00050F02000C0B24009C0B2012803D1DFF87C
:1033F000AC03006806E04FF48040B0FA80F0DFF8DC
:10340000A00300684FF48041B1FA81F111F01F016F
:10341000C840C00743D4012064E1606802281DD180
:103420004020B0FA80F050F02000C0B24009C0B295
:10343000012803D1DFF86403006805E04020B0FAFA
:1034400080F0DFF85C0300684021B1FA81F111F0EF
:103450001F01C840C00722D4012043E15FF0804033
:10346000B0FA80F050F02000C0B24009C0B201288C
:1034700003D1DFF82803006806E05FF08040B0FA6F
:1034800080F0DFF81C0300685FF08041B1FA81F141
:1034900011F01F01C840C00701D4012022E1DFF86C
:1034A0001C0300688008800061680843DFF80C1383
:1034B0000860FFF72AFB06006068012810D1DFF8DA
:1034C000FC02006810F00C00042800F0F080FFF708
:1034D0001CFB801B41F289318842F0D3032001E1BB
:1034E0006068022810D1DFF8D402006810F00C00E8
:1034F000082800F0DC80FFF708FB801B41F28931CF
:103500008842F0D30320EDE0DFF8B002006810F04D
:103510000C0F00F0CC80FFF7F8FA801B41F28931E4
:103520008842F1D30320DDE02078800709D5DFF859
:103530008C02006830F0F000A1680843DFF87C12CC
:1035400008602078C00740F1A380606801281FD17F
:103550004FF48040B0FA80F050F02000C0B2400933
:10356000C0B2012802D18D48006806E04FF48040C7
:10357000B0FA80F0DFF8280200684FF48041B1FA19
:1035800081F111F01F01C840C00741D40120A9E01A
:10359000606802281CD14020B0FA80F050F0200072
:1035A000C0B24009C0B2012802D17C48006805E0E1
:1035B0004020B0FA80F0DFF8E80100684021B1FA5D
:1035C00081F111F01F01C840C00721D4012089E01A
:1035D0005FF08040B0FA80F050F02000C0B24009A7
:1035E000C0B2012802D16D48006806E05FF080405B
:1035F000B0FA80F0DFF8A80100685FF08041B1FA0E
:1036000081F111F01F01C840C00701D4012069E019
:10361000DFF8A80100688008800061680843DFF8CF
:103620009C110860FFF771FA0600606801280FD14D
:10363000DFF88801006810F00C00042828D0FFF79C
:1036400064FA801B41F289318842F1D3032049E0BA
:10365000606802280ED15948006810F00C00082854
:1036600016D0FFF752FA801B41F289318842F2D31B
:10367000032037E05148006810F00C0F08D0FFF726
:1036800044FA801B41F289318842F3D3032029E0B8
:1036900049480068C008C0002843474908604648B8
:1036A000006810F00700A84201D001201AE020783D
:1036B000400707D54148006830F4E060E1680843FE
:1036C0003E4908602078000708D53C48006830F47F
:1036D0006050216950EAC100384908600020FFF7B6
:1036E000FCF9002070BDF0B585B001A83449102266
:1036F00000F078F833480088ADF80000002100227F
:10370000002300240020244D2D68290011F00C0511
:10371000042D02D0082D03D026E02B4D280025E0F3
:1037200001AD11F470164FF47057B7FA87F7FE40E9
:10373000755D2C00CD0311D5174D2D686E4615F41F
:1037400000354FF48047B7FA87F7FD40AD5D2A009A
:103750001D4DB5FBF2F565432B0003E01B4D05FB4A
:1037600004F52B00180001E0174D280005B0F0BD4E
:1037700080B5FFF7B8FF084909685FF07062B2FAD8
:1037800082F2134B11F0F001D140C95CC8401149DD
:1037900008601048006802BD04100240001002409A
:1037A0002410024000004242800442421C100240A9
:1037B000007000402010024000200240041002402F
:1037C000C03D0008D21B000800127A0000093D002D
:1037D000D03D000880000020014800F02EB8000015
:1037E00084000020103A07D330B4B1E83810103A02
:1037F000A0E83810F9D230BC530724BFB1E8081054
:10380000A0E8081044BF51F8043B40F8043BD2073D
:1038100024BF31F8022B20F8022B44BF0B78037031
:103820007047083A07D3B1E80810083A40F8043B5B
:1038300040F804CBF7D25307E4E7704700B58FB0E8
:10384000012005905FF48030069000200790022050
:103850000C905FF480300D905FF4E0100E9005A89E
:10386000FFF7A0F90F2000900220019000200290A5
:103870004FF4806003900020049002216846FFF717
:1038800079FDFFF775FF4FF47A71B0FBF1F0FEF7A9
:1038900075F90420FEF778F9002200215FF0FF306F
:1038A000FEF752F90FB000BD10B582B00024FFF74B
:1038B00003F9FFF7C3FF00F071F8FCF772FE33481D
:1038C00000680090324803684622C8210020FDF7B6
:1038D000BDF82E48006800902D4803684622C82194
:1038E0000120FDF7B3F829480068009028480368D4
:1038F0004622C8210220FDF7A9F800F080F801282F
:1039000005D1641CE4B2042C01DB0020040000F0AB
:1039100096F80128D3D1E4B2002C05D0022C1BD09C
:103920000ED3032C25D02FE01A48006817490B68E6
:1039300000901748026864210020FDF747FABEE7AF
:103940001448006811490B68009011480268C821AA
:103950000120FDF73BFAB2E70E4800680B490B68FF
:1039600000900B4802684FF496710220FDF72EFA82
:10397000A5E70848006805490B68009004480268FC
:1039800005490020FCF78DFE99E700007C0000202F
:1039900078000020740000200012FDFF00B585B003
:1039A0003548006850F00400334908603248006828
:1039B00010F00400009000982F48006850F01000AC
:1039C0002D4908602C48006810F010000090009805
:1039D00001200190002002900220039001A92748B5
:1039E000FDF798FE4FF40050019000200290012056
:1039F000039001A92248FDF78DFE05B000BD80B5FA
:103A000001211E48FDF7F1FF012816D11420FFF710
:103A10007FF801211948FDF7E8FF01280DD1194869
:103A20000078002801D0002008E001211348FDF7AC
:103A3000DCFF0128F9D0012000E0002002BD80B5A4
:103A40004FF400510E48FDF7D0FF002812D114208A
:103A5000FFF75EF84FF400510948FDF7C6FF002854
:103A600008D14FF400510648FDF7BFFF0028F8D0F9
:103A7000012000E0002002BD1810024000080140B3
:103A800000100140040100207047FEE7FEE7FEE75A
:103A9000FEE7FEE780B5FFF732F8FEF795F801BDC7
:103AA00080B52020FDF7ADFF4020FDF7AAFF802064
:103AB000FDF7A7FF4FF48070FDF7A3FF4FF40070F0
:103AC000FDF79FFF01BD80B54FF48060FDF799FFC2
:103AD0004FF40060FDF795FF4FF48050FDF791FF24
:103AE0004FF40050FDF78DFF4FF48040FDF789FF44
:103AF0004FF40040FDF785FF01BD80B50120FDF7C3
:103B000080FF01BD80B50220FDF77BFF01BD80B5C0
:103B10000420FDF776FF01BD80B50820FDF771FF99
:103B200001BD80B51020FDF76CFF01BD10B5164C2E
:103B300020680069800706D57FF0020021680861CF
:103B40000020FDF795F920680069400706D57FF051
:103B50000400216808610120FDF78AF920680069E6
:103B6000000706D57FF00800216808610220FDF7F4
:103B70007FF920680069C00605D57FF01000216834
:103B800008610020207610BD8800002013480068DE
:103B900050F00100114908601148006811490840BF
:103BA0000F4908600D4800680F4908400B4908603C
:103BB0000A48006830F48020084908600848006816
:103BC00030F4FE00064908605FF41F0007490860F2
:103BD0005FF0006006490860704700000010024076
:103BE000041002400000FFF8FFFFF6FE081002403C
:103BF00008ED00E0000100000000000002000000ED
:103C000002000000000200000400000004000000A8
:103C1000040000000004000008000000080000008C
:103C200008000000000800000C0000001000000068
:103C30001000000019E050F8041BCB0744BFA9F1A5
:103C400001035918121F0023042A41F8043BF9D23A
:103C50005FEA827C0B4604D54FF0000CA1F800C04F
:103C60009B1CD10744BF0021197050F8042B002A77
:103C7000E1D1704701000010000C0140000C014030
:103C800002000020000C0140000C014040000040F8
:103C9000000C01400010014080000080000C014039
:103CA0000010014010B450F8041B79B10268436859
:103CB00012180830DC0744BFA9F10104E31852F8D8
:103CC000044B43F8044B091FF9D1ECE710BC7047D3
:103CD00010B5074979441831064C7C44163404E089
:103CE0000A68081D511888470146A142F8D110BD45
:103CF00008000000280000003DFFFFFFA4000000B6
:103D000088000020000000009DFFFFFF88000000E9
:103D1000C4010000000000200000000008000400B2
:103D20000010014009000800001001400A001000C6
:103D30000010014017002000001001401700400053
:103D4000001C014017008000001C0140170000010A
:103D5000001C014017000002001001402800000470
:103D60000010014028000008001001402800001049
:103D700000100140280000200010014000F00BF866
:103D8000002801D0FFF7A4FF0020C046C046FFF77F
:103D90008BFD00F002F80120704700F001B8000030
:103DA0000746384600F002F8FBE7000080B5C04641
:103DB000C046024A11001820ABBEFBE726000200F5
:103DC00002030405060708090A0B0C0D0E0F10105C
:103DD00000000000010203040102030406070809B1
:103DE00001488047014800478D3B0008F13D00082D
:103DF000C046C046C046C046FFF7C0FFFFF7FEBF43
:103E0000FFF7FEBFFFF7FEBFFFF7FEBFFFF7FEBFE6
:103E1000FFF7FEBFFFF7FEBFFFF7FEBFFFF7FEBFD6
:103E2000FFF7FEBFFFF7FEBFFFF7FEBFFFF7FEBFC6
:103E3000FFF7FEBFFFF7FEBFFFF7FEBFFFF7FEBFB6
:103E4000FFF7FEBFFFF7FEBFFFF7FEBFFFF7FEBFA6
:103E5000FFF7FEBFFFF7FEBFFFF7FEBFFFF7FEBF96
:103E6000FFF7FEBFFFF7FEBFFFF7FEBFFFF7FEBF86
:103E7000FFF7FEBFFFF7FEBFFFF7FEBFFFF7FEBF76
:103E8000FFF7FEBFFFF7FEBFFFF7FEBFFFF7FEBF66
:103E9000FFF7FEBFFFF7FEBFFFF7FEBFFFF7FEBF56
:103EA000FFF7FEBFFFF7FEBFFFF7FEBFFFF7FEBF46
:103EB000FFF7FEBFFFF7FEBFFFF7FEBFFFF7FEBF36
:103EC000FFF7FEBFFFF7FEBFFFF7FEBFFFF7FEBF26
:103ED000FFF7FEBF0001000000000000000000002E
:103EE00000000000000000000000000000000000D2
:103EF00000010000000000000000000000000000C1
:103F000000000000000000000000000000010000B0
:103F100000000000000000000000000000000000A1
:103F20000000000000000000000100000000000090
:103F30000000000000000000000000000000000081
:103F400000000000FFFFFFFF2C01000064000000E4
:0C3F50004600000000A24A04000000002F
:0400000508003DF1C1
:00000001FF
